{"abi":[{"inputs":[{"internalType":"string","name":"id","type":"string"},{"internalType":"string","name":"brandName","type":"string"}],"name":"createManufacturer","outputs":[],"stateMutability":"nonpayable","type":"function"},{"inputs":[{"internalType":"string","name":"brandName","type":"string"}],"name":"getManufacturerInstance","outputs":[{"internalType":"address","name":"","type":"address"}],"stateMutability":"view","type":"function"},{"inputs":[{"internalType":"string","name":"","type":"string"}],"name":"manufacturersField","outputs":[{"internalType":"string","name":"id","type":"string"},{"internalType":"address","name":"instance","type":"address"}],"stateMutability":"view","type":"function"}],"devdoc":{"kind":"dev","methods":{},"version":1},"evm":{"assembly":"    /* \"FakeProdIden.sol\":60:648  contract manufacturerFactory... */\n  mstore(0x40, 0x80)\n  callvalue\n  dup1\n  iszero\n  tag_1\n  jumpi\n  0x00\n  dup1\n  revert\ntag_1:\n  pop\n  dataSize(sub_0)\n  dup1\n  dataOffset(sub_0)\n  0x00\n  codecopy\n  0x00\n  return\nstop\n\nsub_0: assembly {\n        /* \"FakeProdIden.sol\":60:648  contract manufacturerFactory... */\n      mstore(0x40, 0x80)\n      callvalue\n      dup1\n      iszero\n      tag_1\n      jumpi\n      0x00\n      dup1\n      revert\n    tag_1:\n      pop\n      jumpi(tag_2, lt(calldatasize, 0x04))\n      shr(0xe0, calldataload(0x00))\n      dup1\n      0x08ac800c\n      eq\n      tag_3\n      jumpi\n      dup1\n      0x80b29bec\n      eq\n      tag_4\n      jumpi\n      dup1\n      0xc0900bea\n      eq\n      tag_5\n      jumpi\n    tag_2:\n      0x00\n      dup1\n      revert\n        /* \"FakeProdIden.sol\":488:645  function getManufacturerInstance(string memory brandName) public view returns (address)... */\n    tag_3:\n      tag_6\n      0x04\n      dup1\n      calldatasize\n      sub\n      dup2\n      add\n      swap1\n      tag_7\n      swap2\n      swap1\n      tag_8\n      jump\t// in\n    tag_7:\n      tag_9\n      jump\t// in\n    tag_6:\n      mload(0x40)\n      tag_10\n      swap2\n      swap1\n      tag_11\n      jump\t// in\n    tag_10:\n      mload(0x40)\n      dup1\n      swap2\n      sub\n      swap1\n      return\n        /* \"FakeProdIden.sol\":249:480  function createManufacturer(string memory id, string memory brandName) public ... */\n    tag_4:\n      tag_12\n      0x04\n      dup1\n      calldatasize\n      sub\n      dup2\n      add\n      swap1\n      tag_13\n      swap2\n      swap1\n      tag_14\n      jump\t// in\n    tag_13:\n      tag_15\n      jump\t// in\n    tag_12:\n      stop\n        /* \"FakeProdIden.sol\":183:240  mapping(string => manufacturer) public manufacturersField */\n    tag_5:\n      tag_16\n      0x04\n      dup1\n      calldatasize\n      sub\n      dup2\n      add\n      swap1\n      tag_17\n      swap2\n      swap1\n      tag_8\n      jump\t// in\n    tag_17:\n      tag_18\n      jump\t// in\n    tag_16:\n      mload(0x40)\n      tag_19\n      swap3\n      swap2\n      swap1\n      tag_20\n      jump\t// in\n    tag_19:\n      mload(0x40)\n      dup1\n      swap2\n      sub\n      swap1\n      return\n        /* \"FakeProdIden.sol\":488:645  function getManufacturerInstance(string memory brandName) public view returns (address)... */\n    tag_9:\n        /* \"FakeProdIden.sol\":567:574  address */\n      0x00\n        /* \"FakeProdIden.sol\":599:617  manufacturersField */\n      dup1\n        /* \"FakeProdIden.sol\":618:627  brandName */\n      dup3\n        /* \"FakeProdIden.sol\":599:628  manufacturersField[brandName] */\n      mload(0x40)\n      tag_22\n      swap2\n      swap1\n      tag_23\n      jump\t// in\n    tag_22:\n      swap1\n      dup2\n      mstore\n      0x20\n      add\n      mload(0x40)\n      dup1\n      swap2\n      sub\n      swap1\n      keccak256\n        /* \"FakeProdIden.sol\":599:637  manufacturersField[brandName].instance */\n      0x01\n      add\n      0x00\n      swap1\n      sload\n      swap1\n      0x0100\n      exp\n      swap1\n      div\n      0xffffffffffffffffffffffffffffffffffffffff\n      and\n        /* \"FakeProdIden.sol\":592:637  return manufacturersField[brandName].instance */\n      swap1\n      pop\n        /* \"FakeProdIden.sol\":488:645  function getManufacturerInstance(string memory brandName) public view returns (address)... */\n      swap2\n      swap1\n      pop\n      jump\t// out\n        /* \"FakeProdIden.sol\":249:480  function createManufacturer(string memory id, string memory brandName) public ... */\n    tag_15:\n        /* \"FakeProdIden.sol\":344:367  address newManufacturer */\n      0x00\n        /* \"FakeProdIden.sol\":378:396  new FakeProdIden() */\n      mload(0x40)\n      tag_25\n      swap1\n      tag_26\n      jump\t// in\n    tag_25:\n      mload(0x40)\n      dup1\n      swap2\n      sub\n      swap1\n      0x00\n      create\n      dup1\n      iszero\n      dup1\n      iszero\n      tag_27\n      jumpi\n      returndatasize\n      0x00\n      dup1\n      returndatacopy\n      revert(0x00, returndatasize)\n    tag_27:\n      pop\n        /* \"FakeProdIden.sol\":344:397  address newManufacturer = address(new FakeProdIden()) */\n      swap1\n      pop\n        /* \"FakeProdIden.sol\":440:472  manufacturer(id,newManufacturer) */\n      mload(0x40)\n      dup1\n      0x40\n      add\n      0x40\n      mstore\n      dup1\n        /* \"FakeProdIden.sol\":453:455  id */\n      dup5\n        /* \"FakeProdIden.sol\":440:472  manufacturer(id,newManufacturer) */\n      dup2\n      mstore\n      0x20\n      add\n        /* \"FakeProdIden.sol\":456:471  newManufacturer */\n      dup3\n        /* \"FakeProdIden.sol\":440:472  manufacturer(id,newManufacturer) */\n      0xffffffffffffffffffffffffffffffffffffffff\n      and\n      dup2\n      mstore\n      pop\n        /* \"FakeProdIden.sol\":408:426  manufacturersField */\n      0x00\n        /* \"FakeProdIden.sol\":427:436  brandName */\n      dup4\n        /* \"FakeProdIden.sol\":408:437  manufacturersField[brandName] */\n      mload(0x40)\n      tag_28\n      swap2\n      swap1\n      tag_23\n      jump\t// in\n    tag_28:\n      swap1\n      dup2\n      mstore\n      0x20\n      add\n      mload(0x40)\n      dup1\n      swap2\n      sub\n      swap1\n      keccak256\n        /* \"FakeProdIden.sol\":408:472  manufacturersField[brandName] = manufacturer(id,newManufacturer) */\n      0x00\n      dup3\n      add\n      mload\n      dup2\n      0x00\n      add\n      swap1\n      dup2\n      tag_29\n      swap2\n      swap1\n      tag_30\n      jump\t// in\n    tag_29:\n      pop\n      0x20\n      dup3\n      add\n      mload\n      dup2\n      0x01\n      add\n      exp(0x0100, 0x00)\n      dup2\n      sload\n      dup2\n      0xffffffffffffffffffffffffffffffffffffffff\n      mul\n      not\n      and\n      swap1\n      dup4\n      0xffffffffffffffffffffffffffffffffffffffff\n      and\n      mul\n      or\n      swap1\n      sstore\n      pop\n      swap1\n      pop\n      pop\n        /* \"FakeProdIden.sol\":333:480  {... */\n      pop\n        /* \"FakeProdIden.sol\":249:480  function createManufacturer(string memory id, string memory brandName) public ... */\n      pop\n      pop\n      jump\t// out\n        /* \"FakeProdIden.sol\":183:240  mapping(string => manufacturer) public manufacturersField */\n    tag_18:\n      0x00\n      dup2\n      dup1\n      mload\n      0x20\n      dup2\n      add\n      dup3\n      add\n      dup1\n      mload\n      dup5\n      dup3\n      mstore\n      0x20\n      dup4\n      add\n      0x20\n      dup6\n      add\n      keccak256\n      dup2\n      dup4\n      mstore\n      dup1\n      swap6\n      pop\n      pop\n      pop\n      pop\n      pop\n      pop\n      0x00\n      swap2\n      pop\n      swap1\n      pop\n      dup1\n      0x00\n      add\n      dup1\n      sload\n      tag_31\n      swap1\n      tag_32\n      jump\t// in\n    tag_31:\n      dup1\n      0x1f\n      add\n      0x20\n      dup1\n      swap2\n      div\n      mul\n      0x20\n      add\n      mload(0x40)\n      swap1\n      dup2\n      add\n      0x40\n      mstore\n      dup1\n      swap3\n      swap2\n      swap1\n      dup2\n      dup2\n      mstore\n      0x20\n      add\n      dup3\n      dup1\n      sload\n      tag_33\n      swap1\n      tag_32\n      jump\t// in\n    tag_33:\n      dup1\n      iszero\n      tag_34\n      jumpi\n      dup1\n      0x1f\n      lt\n      tag_35\n      jumpi\n      0x0100\n      dup1\n      dup4\n      sload\n      div\n      mul\n      dup4\n      mstore\n      swap2\n      0x20\n      add\n      swap2\n      jump(tag_34)\n    tag_35:\n      dup3\n      add\n      swap2\n      swap1\n      0x00\n      mstore\n      keccak256(0x00, 0x20)\n      swap1\n    tag_36:\n      dup2\n      sload\n      dup2\n      mstore\n      swap1\n      0x01\n      add\n      swap1\n      0x20\n      add\n      dup1\n      dup4\n      gt\n      tag_36\n      jumpi\n      dup3\n      swap1\n      sub\n      0x1f\n      and\n      dup3\n      add\n      swap2\n    tag_34:\n      pop\n      pop\n      pop\n      pop\n      pop\n      swap1\n      dup1\n      0x01\n      add\n      0x00\n      swap1\n      sload\n      swap1\n      0x0100\n      exp\n      swap1\n      div\n      0xffffffffffffffffffffffffffffffffffffffff\n      and\n      swap1\n      pop\n      dup3\n      jump\t// out\n    tag_26:\n      dataSize(sub_0)\n      dup1\n      dataOffset(sub_0)\n      dup4\n      codecopy\n      add\n      swap1\n      jump\t// out\n        /* \"#utility.yul\":7:82   */\n    tag_37:\n        /* \"#utility.yul\":40:46   */\n      0x00\n        /* \"#utility.yul\":73:75   */\n      0x40\n        /* \"#utility.yul\":67:76   */\n      mload\n        /* \"#utility.yul\":57:76   */\n      swap1\n      pop\n        /* \"#utility.yul\":7:82   */\n      swap1\n      jump\t// out\n        /* \"#utility.yul\":88:205   */\n    tag_38:\n        /* \"#utility.yul\":197:198   */\n      0x00\n        /* \"#utility.yul\":194:195   */\n      dup1\n        /* \"#utility.yul\":187:199   */\n      revert\n        /* \"#utility.yul\":211:328   */\n    tag_39:\n        /* \"#utility.yul\":320:321   */\n      0x00\n        /* \"#utility.yul\":317:318   */\n      dup1\n        /* \"#utility.yul\":310:322   */\n      revert\n        /* \"#utility.yul\":334:451   */\n    tag_40:\n        /* \"#utility.yul\":443:444   */\n      0x00\n        /* \"#utility.yul\":440:441   */\n      dup1\n        /* \"#utility.yul\":433:445   */\n      revert\n        /* \"#utility.yul\":457:574   */\n    tag_41:\n        /* \"#utility.yul\":566:567   */\n      0x00\n        /* \"#utility.yul\":563:564   */\n      dup1\n        /* \"#utility.yul\":556:568   */\n      revert\n        /* \"#utility.yul\":580:682   */\n    tag_42:\n        /* \"#utility.yul\":621:627   */\n      0x00\n        /* \"#utility.yul\":672:674   */\n      0x1f\n        /* \"#utility.yul\":668:675   */\n      not\n        /* \"#utility.yul\":663:665   */\n      0x1f\n        /* \"#utility.yul\":656:661   */\n      dup4\n        /* \"#utility.yul\":652:666   */\n      add\n        /* \"#utility.yul\":648:676   */\n      and\n        /* \"#utility.yul\":638:676   */\n      swap1\n      pop\n        /* \"#utility.yul\":580:682   */\n      swap2\n      swap1\n      pop\n      jump\t// out\n        /* \"#utility.yul\":688:868   */\n    tag_43:\n        /* \"#utility.yul\":736:813   */\n      0x4e487b7100000000000000000000000000000000000000000000000000000000\n        /* \"#utility.yul\":733:734   */\n      0x00\n        /* \"#utility.yul\":726:814   */\n      mstore\n        /* \"#utility.yul\":833:837   */\n      0x41\n        /* \"#utility.yul\":830:831   */\n      0x04\n        /* \"#utility.yul\":823:838   */\n      mstore\n        /* \"#utility.yul\":857:861   */\n      0x24\n        /* \"#utility.yul\":854:855   */\n      0x00\n        /* \"#utility.yul\":847:862   */\n      revert\n        /* \"#utility.yul\":874:1155   */\n    tag_44:\n        /* \"#utility.yul\":957:984   */\n      tag_85\n        /* \"#utility.yul\":979:983   */\n      dup3\n        /* \"#utility.yul\":957:984   */\n      tag_42\n      jump\t// in\n    tag_85:\n        /* \"#utility.yul\":949:955   */\n      dup2\n        /* \"#utility.yul\":945:985   */\n      add\n        /* \"#utility.yul\":1087:1093   */\n      dup2\n        /* \"#utility.yul\":1075:1085   */\n      dup2\n        /* \"#utility.yul\":1072:1094   */\n      lt\n        /* \"#utility.yul\":1051:1069   */\n      0xffffffffffffffff\n        /* \"#utility.yul\":1039:1049   */\n      dup3\n        /* \"#utility.yul\":1036:1070   */\n      gt\n        /* \"#utility.yul\":1033:1095   */\n      or\n        /* \"#utility.yul\":1030:1118   */\n      iszero\n      tag_86\n      jumpi\n        /* \"#utility.yul\":1098:1116   */\n      tag_87\n      tag_43\n      jump\t// in\n    tag_87:\n        /* \"#utility.yul\":1030:1118   */\n    tag_86:\n        /* \"#utility.yul\":1138:1148   */\n      dup1\n        /* \"#utility.yul\":1134:1136   */\n      0x40\n        /* \"#utility.yul\":1127:1149   */\n      mstore\n        /* \"#utility.yul\":917:1155   */\n      pop\n        /* \"#utility.yul\":874:1155   */\n      pop\n      pop\n      jump\t// out\n        /* \"#utility.yul\":1161:1290   */\n    tag_45:\n        /* \"#utility.yul\":1195:1201   */\n      0x00\n        /* \"#utility.yul\":1222:1242   */\n      tag_89\n      tag_37\n      jump\t// in\n    tag_89:\n        /* \"#utility.yul\":1212:1242   */\n      swap1\n      pop\n        /* \"#utility.yul\":1251:1284   */\n      tag_90\n        /* \"#utility.yul\":1279:1283   */\n      dup3\n        /* \"#utility.yul\":1271:1277   */\n      dup3\n        /* \"#utility.yul\":1251:1284   */\n      tag_44\n      jump\t// in\n    tag_90:\n        /* \"#utility.yul\":1161:1290   */\n      swap2\n      swap1\n      pop\n      jump\t// out\n        /* \"#utility.yul\":1296:1604   */\n    tag_46:\n        /* \"#utility.yul\":1358:1362   */\n      0x00\n        /* \"#utility.yul\":1448:1466   */\n      0xffffffffffffffff\n        /* \"#utility.yul\":1440:1446   */\n      dup3\n        /* \"#utility.yul\":1437:1467   */\n      gt\n        /* \"#utility.yul\":1434:1490   */\n      iszero\n      tag_92\n      jumpi\n        /* \"#utility.yul\":1470:1488   */\n      tag_93\n      tag_43\n      jump\t// in\n    tag_93:\n        /* \"#utility.yul\":1434:1490   */\n    tag_92:\n        /* \"#utility.yul\":1508:1537   */\n      tag_94\n        /* \"#utility.yul\":1530:1536   */\n      dup3\n        /* \"#utility.yul\":1508:1537   */\n      tag_42\n      jump\t// in\n    tag_94:\n        /* \"#utility.yul\":1500:1537   */\n      swap1\n      pop\n        /* \"#utility.yul\":1592:1596   */\n      0x20\n        /* \"#utility.yul\":1586:1590   */\n      dup2\n        /* \"#utility.yul\":1582:1597   */\n      add\n        /* \"#utility.yul\":1574:1597   */\n      swap1\n      pop\n        /* \"#utility.yul\":1296:1604   */\n      swap2\n      swap1\n      pop\n      jump\t// out\n        /* \"#utility.yul\":1610:1756   */\n    tag_47:\n        /* \"#utility.yul\":1707:1713   */\n      dup3\n        /* \"#utility.yul\":1702:1705   */\n      dup2\n        /* \"#utility.yul\":1697:1700   */\n      dup4\n        /* \"#utility.yul\":1684:1714   */\n      calldatacopy\n        /* \"#utility.yul\":1748:1749   */\n      0x00\n        /* \"#utility.yul\":1739:1745   */\n      dup4\n        /* \"#utility.yul\":1734:1737   */\n      dup4\n        /* \"#utility.yul\":1730:1746   */\n      add\n        /* \"#utility.yul\":1723:1750   */\n      mstore\n        /* \"#utility.yul\":1610:1756   */\n      pop\n      pop\n      pop\n      jump\t// out\n        /* \"#utility.yul\":1762:2187   */\n    tag_48:\n        /* \"#utility.yul\":1840:1845   */\n      0x00\n        /* \"#utility.yul\":1865:1931   */\n      tag_97\n        /* \"#utility.yul\":1881:1930   */\n      tag_98\n        /* \"#utility.yul\":1923:1929   */\n      dup5\n        /* \"#utility.yul\":1881:1930   */\n      tag_46\n      jump\t// in\n    tag_98:\n        /* \"#utility.yul\":1865:1931   */\n      tag_45\n      jump\t// in\n    tag_97:\n        /* \"#utility.yul\":1856:1931   */\n      swap1\n      pop\n        /* \"#utility.yul\":1954:1960   */\n      dup3\n        /* \"#utility.yul\":1947:1952   */\n      dup2\n        /* \"#utility.yul\":1940:1961   */\n      mstore\n        /* \"#utility.yul\":1992:1996   */\n      0x20\n        /* \"#utility.yul\":1985:1990   */\n      dup2\n        /* \"#utility.yul\":1981:1997   */\n      add\n        /* \"#utility.yul\":2030:2033   */\n      dup5\n        /* \"#utility.yul\":2021:2027   */\n      dup5\n        /* \"#utility.yul\":2016:2019   */\n      dup5\n        /* \"#utility.yul\":2012:2028   */\n      add\n        /* \"#utility.yul\":2009:2034   */\n      gt\n        /* \"#utility.yul\":2006:2118   */\n      iszero\n      tag_99\n      jumpi\n        /* \"#utility.yul\":2037:2116   */\n      tag_100\n      tag_41\n      jump\t// in\n    tag_100:\n        /* \"#utility.yul\":2006:2118   */\n    tag_99:\n        /* \"#utility.yul\":2127:2181   */\n      tag_101\n        /* \"#utility.yul\":2174:2180   */\n      dup5\n        /* \"#utility.yul\":2169:2172   */\n      dup3\n        /* \"#utility.yul\":2164:2167   */\n      dup6\n        /* \"#utility.yul\":2127:2181   */\n      tag_47\n      jump\t// in\n    tag_101:\n        /* \"#utility.yul\":1846:2187   */\n      pop\n        /* \"#utility.yul\":1762:2187   */\n      swap4\n      swap3\n      pop\n      pop\n      pop\n      jump\t// out\n        /* \"#utility.yul\":2207:2547   */\n    tag_49:\n        /* \"#utility.yul\":2263:2268   */\n      0x00\n        /* \"#utility.yul\":2312:2315   */\n      dup3\n        /* \"#utility.yul\":2305:2309   */\n      0x1f\n        /* \"#utility.yul\":2297:2303   */\n      dup4\n        /* \"#utility.yul\":2293:2310   */\n      add\n        /* \"#utility.yul\":2289:2316   */\n      slt\n        /* \"#utility.yul\":2279:2401   */\n      tag_103\n      jumpi\n        /* \"#utility.yul\":2320:2399   */\n      tag_104\n      tag_40\n      jump\t// in\n    tag_104:\n        /* \"#utility.yul\":2279:2401   */\n    tag_103:\n        /* \"#utility.yul\":2437:2443   */\n      dup2\n        /* \"#utility.yul\":2424:2444   */\n      calldataload\n        /* \"#utility.yul\":2462:2541   */\n      tag_105\n        /* \"#utility.yul\":2537:2540   */\n      dup5\n        /* \"#utility.yul\":2529:2535   */\n      dup3\n        /* \"#utility.yul\":2522:2526   */\n      0x20\n        /* \"#utility.yul\":2514:2520   */\n      dup7\n        /* \"#utility.yul\":2510:2527   */\n      add\n        /* \"#utility.yul\":2462:2541   */\n      tag_48\n      jump\t// in\n    tag_105:\n        /* \"#utility.yul\":2453:2541   */\n      swap2\n      pop\n        /* \"#utility.yul\":2269:2547   */\n      pop\n        /* \"#utility.yul\":2207:2547   */\n      swap3\n      swap2\n      pop\n      pop\n      jump\t// out\n        /* \"#utility.yul\":2553:3062   */\n    tag_8:\n        /* \"#utility.yul\":2622:2628   */\n      0x00\n        /* \"#utility.yul\":2671:2673   */\n      0x20\n        /* \"#utility.yul\":2659:2668   */\n      dup3\n        /* \"#utility.yul\":2650:2657   */\n      dup5\n        /* \"#utility.yul\":2646:2669   */\n      sub\n        /* \"#utility.yul\":2642:2674   */\n      slt\n        /* \"#utility.yul\":2639:2758   */\n      iszero\n      tag_107\n      jumpi\n        /* \"#utility.yul\":2677:2756   */\n      tag_108\n      tag_38\n      jump\t// in\n    tag_108:\n        /* \"#utility.yul\":2639:2758   */\n    tag_107:\n        /* \"#utility.yul\":2825:2826   */\n      0x00\n        /* \"#utility.yul\":2814:2823   */\n      dup3\n        /* \"#utility.yul\":2810:2827   */\n      add\n        /* \"#utility.yul\":2797:2828   */\n      calldataload\n        /* \"#utility.yul\":2855:2873   */\n      0xffffffffffffffff\n        /* \"#utility.yul\":2847:2853   */\n      dup2\n        /* \"#utility.yul\":2844:2874   */\n      gt\n        /* \"#utility.yul\":2841:2958   */\n      iszero\n      tag_109\n      jumpi\n        /* \"#utility.yul\":2877:2956   */\n      tag_110\n      tag_39\n      jump\t// in\n    tag_110:\n        /* \"#utility.yul\":2841:2958   */\n    tag_109:\n        /* \"#utility.yul\":2982:3045   */\n      tag_111\n        /* \"#utility.yul\":3037:3044   */\n      dup5\n        /* \"#utility.yul\":3028:3034   */\n      dup3\n        /* \"#utility.yul\":3017:3026   */\n      dup6\n        /* \"#utility.yul\":3013:3035   */\n      add\n        /* \"#utility.yul\":2982:3045   */\n      tag_49\n      jump\t// in\n    tag_111:\n        /* \"#utility.yul\":2972:3045   */\n      swap2\n      pop\n        /* \"#utility.yul\":2768:3055   */\n      pop\n        /* \"#utility.yul\":2553:3062   */\n      swap3\n      swap2\n      pop\n      pop\n      jump\t// out\n        /* \"#utility.yul\":3068:3194   */\n    tag_50:\n        /* \"#utility.yul\":3105:3112   */\n      0x00\n        /* \"#utility.yul\":3145:3187   */\n      0xffffffffffffffffffffffffffffffffffffffff\n        /* \"#utility.yul\":3138:3143   */\n      dup3\n        /* \"#utility.yul\":3134:3188   */\n      and\n        /* \"#utility.yul\":3123:3188   */\n      swap1\n      pop\n        /* \"#utility.yul\":3068:3194   */\n      swap2\n      swap1\n      pop\n      jump\t// out\n        /* \"#utility.yul\":3200:3296   */\n    tag_51:\n        /* \"#utility.yul\":3237:3244   */\n      0x00\n        /* \"#utility.yul\":3266:3290   */\n      tag_114\n        /* \"#utility.yul\":3284:3289   */\n      dup3\n        /* \"#utility.yul\":3266:3290   */\n      tag_50\n      jump\t// in\n    tag_114:\n        /* \"#utility.yul\":3255:3290   */\n      swap1\n      pop\n        /* \"#utility.yul\":3200:3296   */\n      swap2\n      swap1\n      pop\n      jump\t// out\n        /* \"#utility.yul\":3302:3420   */\n    tag_52:\n        /* \"#utility.yul\":3389:3413   */\n      tag_116\n        /* \"#utility.yul\":3407:3412   */\n      dup2\n        /* \"#utility.yul\":3389:3413   */\n      tag_51\n      jump\t// in\n    tag_116:\n        /* \"#utility.yul\":3384:3387   */\n      dup3\n        /* \"#utility.yul\":3377:3414   */\n      mstore\n        /* \"#utility.yul\":3302:3420   */\n      pop\n      pop\n      jump\t// out\n        /* \"#utility.yul\":3426:3648   */\n    tag_11:\n        /* \"#utility.yul\":3519:3523   */\n      0x00\n        /* \"#utility.yul\":3557:3559   */\n      0x20\n        /* \"#utility.yul\":3546:3555   */\n      dup3\n        /* \"#utility.yul\":3542:3560   */\n      add\n        /* \"#utility.yul\":3534:3560   */\n      swap1\n      pop\n        /* \"#utility.yul\":3570:3641   */\n      tag_118\n        /* \"#utility.yul\":3638:3639   */\n      0x00\n        /* \"#utility.yul\":3627:3636   */\n      dup4\n        /* \"#utility.yul\":3623:3640   */\n      add\n        /* \"#utility.yul\":3614:3620   */\n      dup5\n        /* \"#utility.yul\":3570:3641   */\n      tag_52\n      jump\t// in\n    tag_118:\n        /* \"#utility.yul\":3426:3648   */\n      swap3\n      swap2\n      pop\n      pop\n      jump\t// out\n        /* \"#utility.yul\":3654:4488   */\n    tag_14:\n        /* \"#utility.yul\":3742:3748   */\n      0x00\n        /* \"#utility.yul\":3750:3756   */\n      dup1\n        /* \"#utility.yul\":3799:3801   */\n      0x40\n        /* \"#utility.yul\":3787:3796   */\n      dup4\n        /* \"#utility.yul\":3778:3785   */\n      dup6\n        /* \"#utility.yul\":3774:3797   */\n      sub\n        /* \"#utility.yul\":3770:3802   */\n      slt\n        /* \"#utility.yul\":3767:3886   */\n      iszero\n      tag_120\n      jumpi\n        /* \"#utility.yul\":3805:3884   */\n      tag_121\n      tag_38\n      jump\t// in\n    tag_121:\n        /* \"#utility.yul\":3767:3886   */\n    tag_120:\n        /* \"#utility.yul\":3953:3954   */\n      0x00\n        /* \"#utility.yul\":3942:3951   */\n      dup4\n        /* \"#utility.yul\":3938:3955   */\n      add\n        /* \"#utility.yul\":3925:3956   */\n      calldataload\n        /* \"#utility.yul\":3983:4001   */\n      0xffffffffffffffff\n        /* \"#utility.yul\":3975:3981   */\n      dup2\n        /* \"#utility.yul\":3972:4002   */\n      gt\n        /* \"#utility.yul\":3969:4086   */\n      iszero\n      tag_122\n      jumpi\n        /* \"#utility.yul\":4005:4084   */\n      tag_123\n      tag_39\n      jump\t// in\n    tag_123:\n        /* \"#utility.yul\":3969:4086   */\n    tag_122:\n        /* \"#utility.yul\":4110:4173   */\n      tag_124\n        /* \"#utility.yul\":4165:4172   */\n      dup6\n        /* \"#utility.yul\":4156:4162   */\n      dup3\n        /* \"#utility.yul\":4145:4154   */\n      dup7\n        /* \"#utility.yul\":4141:4163   */\n      add\n        /* \"#utility.yul\":4110:4173   */\n      tag_49\n      jump\t// in\n    tag_124:\n        /* \"#utility.yul\":4100:4173   */\n      swap3\n      pop\n        /* \"#utility.yul\":3896:4183   */\n      pop\n        /* \"#utility.yul\":4250:4252   */\n      0x20\n        /* \"#utility.yul\":4239:4248   */\n      dup4\n        /* \"#utility.yul\":4235:4253   */\n      add\n        /* \"#utility.yul\":4222:4254   */\n      calldataload\n        /* \"#utility.yul\":4281:4299   */\n      0xffffffffffffffff\n        /* \"#utility.yul\":4273:4279   */\n      dup2\n        /* \"#utility.yul\":4270:4300   */\n      gt\n        /* \"#utility.yul\":4267:4384   */\n      iszero\n      tag_125\n      jumpi\n        /* \"#utility.yul\":4303:4382   */\n      tag_126\n      tag_39\n      jump\t// in\n    tag_126:\n        /* \"#utility.yul\":4267:4384   */\n    tag_125:\n        /* \"#utility.yul\":4408:4471   */\n      tag_127\n        /* \"#utility.yul\":4463:4470   */\n      dup6\n        /* \"#utility.yul\":4454:4460   */\n      dup3\n        /* \"#utility.yul\":4443:4452   */\n      dup7\n        /* \"#utility.yul\":4439:4461   */\n      add\n        /* \"#utility.yul\":4408:4471   */\n      tag_49\n      jump\t// in\n    tag_127:\n        /* \"#utility.yul\":4398:4471   */\n      swap2\n      pop\n        /* \"#utility.yul\":4193:4481   */\n      pop\n        /* \"#utility.yul\":3654:4488   */\n      swap3\n      pop\n      swap3\n      swap1\n      pop\n      jump\t// out\n        /* \"#utility.yul\":4494:4593   */\n    tag_53:\n        /* \"#utility.yul\":4546:4552   */\n      0x00\n        /* \"#utility.yul\":4580:4585   */\n      dup2\n        /* \"#utility.yul\":4574:4586   */\n      mload\n        /* \"#utility.yul\":4564:4586   */\n      swap1\n      pop\n        /* \"#utility.yul\":4494:4593   */\n      swap2\n      swap1\n      pop\n      jump\t// out\n        /* \"#utility.yul\":4599:4768   */\n    tag_54:\n        /* \"#utility.yul\":4683:4694   */\n      0x00\n        /* \"#utility.yul\":4717:4723   */\n      dup3\n        /* \"#utility.yul\":4712:4715   */\n      dup3\n        /* \"#utility.yul\":4705:4724   */\n      mstore\n        /* \"#utility.yul\":4757:4761   */\n      0x20\n        /* \"#utility.yul\":4752:4755   */\n      dup3\n        /* \"#utility.yul\":4748:4762   */\n      add\n        /* \"#utility.yul\":4733:4762   */\n      swap1\n      pop\n        /* \"#utility.yul\":4599:4768   */\n      swap3\n      swap2\n      pop\n      pop\n      jump\t// out\n        /* \"#utility.yul\":4774:5020   */\n    tag_55:\n        /* \"#utility.yul\":4855:4856   */\n      0x00\n        /* \"#utility.yul\":4865:4978   */\n    tag_131:\n        /* \"#utility.yul\":4879:4885   */\n      dup4\n        /* \"#utility.yul\":4876:4877   */\n      dup2\n        /* \"#utility.yul\":4873:4886   */\n      lt\n        /* \"#utility.yul\":4865:4978   */\n      iszero\n      tag_133\n      jumpi\n        /* \"#utility.yul\":4964:4965   */\n      dup1\n        /* \"#utility.yul\":4959:4962   */\n      dup3\n        /* \"#utility.yul\":4955:4966   */\n      add\n        /* \"#utility.yul\":4949:4967   */\n      mload\n        /* \"#utility.yul\":4945:4946   */\n      dup2\n        /* \"#utility.yul\":4940:4943   */\n      dup5\n        /* \"#utility.yul\":4936:4947   */\n      add\n        /* \"#utility.yul\":4929:4968   */\n      mstore\n        /* \"#utility.yul\":4901:4903   */\n      0x20\n        /* \"#utility.yul\":4898:4899   */\n      dup2\n        /* \"#utility.yul\":4894:4904   */\n      add\n        /* \"#utility.yul\":4889:4904   */\n      swap1\n      pop\n        /* \"#utility.yul\":4865:4978   */\n      jump(tag_131)\n    tag_133:\n        /* \"#utility.yul\":5012:5013   */\n      0x00\n        /* \"#utility.yul\":5003:5009   */\n      dup5\n        /* \"#utility.yul\":4998:5001   */\n      dup5\n        /* \"#utility.yul\":4994:5010   */\n      add\n        /* \"#utility.yul\":4987:5014   */\n      mstore\n        /* \"#utility.yul\":4836:5020   */\n      pop\n        /* \"#utility.yul\":4774:5020   */\n      pop\n      pop\n      pop\n      jump\t// out\n        /* \"#utility.yul\":5026:5403   */\n    tag_56:\n        /* \"#utility.yul\":5114:5117   */\n      0x00\n        /* \"#utility.yul\":5142:5181   */\n      tag_135\n        /* \"#utility.yul\":5175:5180   */\n      dup3\n        /* \"#utility.yul\":5142:5181   */\n      tag_53\n      jump\t// in\n    tag_135:\n        /* \"#utility.yul\":5197:5268   */\n      tag_136\n        /* \"#utility.yul\":5261:5267   */\n      dup2\n        /* \"#utility.yul\":5256:5259   */\n      dup6\n        /* \"#utility.yul\":5197:5268   */\n      tag_54\n      jump\t// in\n    tag_136:\n        /* \"#utility.yul\":5190:5268   */\n      swap4\n      pop\n        /* \"#utility.yul\":5277:5342   */\n      tag_137\n        /* \"#utility.yul\":5335:5341   */\n      dup2\n        /* \"#utility.yul\":5330:5333   */\n      dup6\n        /* \"#utility.yul\":5323:5327   */\n      0x20\n        /* \"#utility.yul\":5316:5321   */\n      dup7\n        /* \"#utility.yul\":5312:5328   */\n      add\n        /* \"#utility.yul\":5277:5342   */\n      tag_55\n      jump\t// in\n    tag_137:\n        /* \"#utility.yul\":5367:5396   */\n      tag_138\n        /* \"#utility.yul\":5389:5395   */\n      dup2\n        /* \"#utility.yul\":5367:5396   */\n      tag_42\n      jump\t// in\n    tag_138:\n        /* \"#utility.yul\":5362:5365   */\n      dup5\n        /* \"#utility.yul\":5358:5397   */\n      add\n        /* \"#utility.yul\":5351:5397   */\n      swap2\n      pop\n        /* \"#utility.yul\":5118:5403   */\n      pop\n        /* \"#utility.yul\":5026:5403   */\n      swap3\n      swap2\n      pop\n      pop\n      jump\t// out\n        /* \"#utility.yul\":5409:5832   */\n    tag_20:\n        /* \"#utility.yul\":5550:5554   */\n      0x00\n        /* \"#utility.yul\":5588:5590   */\n      0x40\n        /* \"#utility.yul\":5577:5586   */\n      dup3\n        /* \"#utility.yul\":5573:5591   */\n      add\n        /* \"#utility.yul\":5565:5591   */\n      swap1\n      pop\n        /* \"#utility.yul\":5637:5646   */\n      dup2\n        /* \"#utility.yul\":5631:5635   */\n      dup2\n        /* \"#utility.yul\":5627:5647   */\n      sub\n        /* \"#utility.yul\":5623:5624   */\n      0x00\n        /* \"#utility.yul\":5612:5621   */\n      dup4\n        /* \"#utility.yul\":5608:5625   */\n      add\n        /* \"#utility.yul\":5601:5648   */\n      mstore\n        /* \"#utility.yul\":5665:5743   */\n      tag_140\n        /* \"#utility.yul\":5738:5742   */\n      dup2\n        /* \"#utility.yul\":5729:5735   */\n      dup6\n        /* \"#utility.yul\":5665:5743   */\n      tag_56\n      jump\t// in\n    tag_140:\n        /* \"#utility.yul\":5657:5743   */\n      swap1\n      pop\n        /* \"#utility.yul\":5753:5825   */\n      tag_141\n        /* \"#utility.yul\":5821:5823   */\n      0x20\n        /* \"#utility.yul\":5810:5819   */\n      dup4\n        /* \"#utility.yul\":5806:5824   */\n      add\n        /* \"#utility.yul\":5797:5803   */\n      dup5\n        /* \"#utility.yul\":5753:5825   */\n      tag_52\n      jump\t// in\n    tag_141:\n        /* \"#utility.yul\":5409:5832   */\n      swap4\n      swap3\n      pop\n      pop\n      pop\n      jump\t// out\n        /* \"#utility.yul\":5838:5986   */\n    tag_57:\n        /* \"#utility.yul\":5940:5951   */\n      0x00\n        /* \"#utility.yul\":5977:5980   */\n      dup2\n        /* \"#utility.yul\":5962:5980   */\n      swap1\n      pop\n        /* \"#utility.yul\":5838:5986   */\n      swap3\n      swap2\n      pop\n      pop\n      jump\t// out\n        /* \"#utility.yul\":5992:6382   */\n    tag_58:\n        /* \"#utility.yul\":6098:6101   */\n      0x00\n        /* \"#utility.yul\":6126:6165   */\n      tag_144\n        /* \"#utility.yul\":6159:6164   */\n      dup3\n        /* \"#utility.yul\":6126:6165   */\n      tag_53\n      jump\t// in\n    tag_144:\n        /* \"#utility.yul\":6181:6270   */\n      tag_145\n        /* \"#utility.yul\":6263:6269   */\n      dup2\n        /* \"#utility.yul\":6258:6261   */\n      dup6\n        /* \"#utility.yul\":6181:6270   */\n      tag_57\n      jump\t// in\n    tag_145:\n        /* \"#utility.yul\":6174:6270   */\n      swap4\n      pop\n        /* \"#utility.yul\":6279:6344   */\n      tag_146\n        /* \"#utility.yul\":6337:6343   */\n      dup2\n        /* \"#utility.yul\":6332:6335   */\n      dup6\n        /* \"#utility.yul\":6325:6329   */\n      0x20\n        /* \"#utility.yul\":6318:6323   */\n      dup7\n        /* \"#utility.yul\":6314:6330   */\n      add\n        /* \"#utility.yul\":6279:6344   */\n      tag_55\n      jump\t// in\n    tag_146:\n        /* \"#utility.yul\":6369:6375   */\n      dup1\n        /* \"#utility.yul\":6364:6367   */\n      dup5\n        /* \"#utility.yul\":6360:6376   */\n      add\n        /* \"#utility.yul\":6353:6376   */\n      swap2\n      pop\n        /* \"#utility.yul\":6102:6382   */\n      pop\n        /* \"#utility.yul\":5992:6382   */\n      swap3\n      swap2\n      pop\n      pop\n      jump\t// out\n        /* \"#utility.yul\":6388:6663   */\n    tag_23:\n        /* \"#utility.yul\":6520:6523   */\n      0x00\n        /* \"#utility.yul\":6542:6637   */\n      tag_148\n        /* \"#utility.yul\":6633:6636   */\n      dup3\n        /* \"#utility.yul\":6624:6630   */\n      dup5\n        /* \"#utility.yul\":6542:6637   */\n      tag_58\n      jump\t// in\n    tag_148:\n        /* \"#utility.yul\":6535:6637   */\n      swap2\n      pop\n        /* \"#utility.yul\":6654:6657   */\n      dup2\n        /* \"#utility.yul\":6647:6657   */\n      swap1\n      pop\n        /* \"#utility.yul\":6388:6663   */\n      swap3\n      swap2\n      pop\n      pop\n      jump\t// out\n        /* \"#utility.yul\":6669:6849   */\n    tag_59:\n        /* \"#utility.yul\":6717:6794   */\n      0x4e487b7100000000000000000000000000000000000000000000000000000000\n        /* \"#utility.yul\":6714:6715   */\n      0x00\n        /* \"#utility.yul\":6707:6795   */\n      mstore\n        /* \"#utility.yul\":6814:6818   */\n      0x22\n        /* \"#utility.yul\":6811:6812   */\n      0x04\n        /* \"#utility.yul\":6804:6819   */\n      mstore\n        /* \"#utility.yul\":6838:6842   */\n      0x24\n        /* \"#utility.yul\":6835:6836   */\n      0x00\n        /* \"#utility.yul\":6828:6843   */\n      revert\n        /* \"#utility.yul\":6855:7175   */\n    tag_32:\n        /* \"#utility.yul\":6899:6905   */\n      0x00\n        /* \"#utility.yul\":6936:6937   */\n      0x02\n        /* \"#utility.yul\":6930:6934   */\n      dup3\n        /* \"#utility.yul\":6926:6938   */\n      div\n        /* \"#utility.yul\":6916:6938   */\n      swap1\n      pop\n        /* \"#utility.yul\":6983:6984   */\n      0x01\n        /* \"#utility.yul\":6977:6981   */\n      dup3\n        /* \"#utility.yul\":6973:6985   */\n      and\n        /* \"#utility.yul\":7004:7022   */\n      dup1\n        /* \"#utility.yul\":6994:7075   */\n      tag_151\n      jumpi\n        /* \"#utility.yul\":7060:7064   */\n      0x7f\n        /* \"#utility.yul\":7052:7058   */\n      dup3\n        /* \"#utility.yul\":7048:7065   */\n      and\n        /* \"#utility.yul\":7038:7065   */\n      swap2\n      pop\n        /* \"#utility.yul\":6994:7075   */\n    tag_151:\n        /* \"#utility.yul\":7122:7124   */\n      0x20\n        /* \"#utility.yul\":7114:7120   */\n      dup3\n        /* \"#utility.yul\":7111:7125   */\n      lt\n        /* \"#utility.yul\":7091:7109   */\n      dup2\n        /* \"#utility.yul\":7088:7126   */\n      sub\n        /* \"#utility.yul\":7085:7169   */\n      tag_152\n      jumpi\n        /* \"#utility.yul\":7141:7159   */\n      tag_153\n      tag_59\n      jump\t// in\n    tag_153:\n        /* \"#utility.yul\":7085:7169   */\n    tag_152:\n        /* \"#utility.yul\":6906:7175   */\n      pop\n        /* \"#utility.yul\":6855:7175   */\n      swap2\n      swap1\n      pop\n      jump\t// out\n        /* \"#utility.yul\":7181:7322   */\n    tag_60:\n        /* \"#utility.yul\":7230:7234   */\n      0x00\n        /* \"#utility.yul\":7253:7256   */\n      dup2\n        /* \"#utility.yul\":7245:7256   */\n      swap1\n      pop\n        /* \"#utility.yul\":7276:7279   */\n      dup2\n        /* \"#utility.yul\":7273:7274   */\n      0x00\n        /* \"#utility.yul\":7266:7280   */\n      mstore\n        /* \"#utility.yul\":7310:7314   */\n      0x20\n        /* \"#utility.yul\":7307:7308   */\n      0x00\n        /* \"#utility.yul\":7297:7315   */\n      keccak256\n        /* \"#utility.yul\":7289:7315   */\n      swap1\n      pop\n        /* \"#utility.yul\":7181:7322   */\n      swap2\n      swap1\n      pop\n      jump\t// out\n        /* \"#utility.yul\":7328:7421   */\n    tag_61:\n        /* \"#utility.yul\":7365:7371   */\n      0x00\n        /* \"#utility.yul\":7412:7414   */\n      0x20\n        /* \"#utility.yul\":7407:7409   */\n      0x1f\n        /* \"#utility.yul\":7400:7405   */\n      dup4\n        /* \"#utility.yul\":7396:7410   */\n      add\n        /* \"#utility.yul\":7392:7415   */\n      div\n        /* \"#utility.yul\":7382:7415   */\n      swap1\n      pop\n        /* \"#utility.yul\":7328:7421   */\n      swap2\n      swap1\n      pop\n      jump\t// out\n        /* \"#utility.yul\":7427:7534   */\n    tag_62:\n        /* \"#utility.yul\":7471:7479   */\n      0x00\n        /* \"#utility.yul\":7521:7526   */\n      dup3\n        /* \"#utility.yul\":7515:7519   */\n      dup3\n        /* \"#utility.yul\":7511:7527   */\n      shl\n        /* \"#utility.yul\":7490:7527   */\n      swap1\n      pop\n        /* \"#utility.yul\":7427:7534   */\n      swap3\n      swap2\n      pop\n      pop\n      jump\t// out\n        /* \"#utility.yul\":7540:7933   */\n    tag_63:\n        /* \"#utility.yul\":7609:7615   */\n      0x00\n        /* \"#utility.yul\":7659:7660   */\n      0x08\n        /* \"#utility.yul\":7647:7657   */\n      dup4\n        /* \"#utility.yul\":7643:7661   */\n      mul\n        /* \"#utility.yul\":7682:7779   */\n      tag_158\n        /* \"#utility.yul\":7712:7778   */\n      0xffffffffffffffffffffffffffffffffffffffffffffffffffffffffffffffff\n        /* \"#utility.yul\":7701:7710   */\n      dup3\n        /* \"#utility.yul\":7682:7779   */\n      tag_62\n      jump\t// in\n    tag_158:\n        /* \"#utility.yul\":7800:7839   */\n      tag_159\n        /* \"#utility.yul\":7830:7838   */\n      dup7\n        /* \"#utility.yul\":7819:7828   */\n      dup4\n        /* \"#utility.yul\":7800:7839   */\n      tag_62\n      jump\t// in\n    tag_159:\n        /* \"#utility.yul\":7788:7839   */\n      swap6\n      pop\n        /* \"#utility.yul\":7872:7876   */\n      dup1\n        /* \"#utility.yul\":7868:7877   */\n      not\n        /* \"#utility.yul\":7861:7866   */\n      dup5\n        /* \"#utility.yul\":7857:7878   */\n      and\n        /* \"#utility.yul\":7848:7878   */\n      swap4\n      pop\n        /* \"#utility.yul\":7921:7925   */\n      dup1\n        /* \"#utility.yul\":7911:7919   */\n      dup7\n        /* \"#utility.yul\":7907:7926   */\n      and\n        /* \"#utility.yul\":7900:7905   */\n      dup5\n        /* \"#utility.yul\":7897:7927   */\n      or\n        /* \"#utility.yul\":7887:7927   */\n      swap3\n      pop\n        /* \"#utility.yul\":7616:7933   */\n      pop\n      pop\n        /* \"#utility.yul\":7540:7933   */\n      swap4\n      swap3\n      pop\n      pop\n      pop\n      jump\t// out\n        /* \"#utility.yul\":7939:8016   */\n    tag_64:\n        /* \"#utility.yul\":7976:7983   */\n      0x00\n        /* \"#utility.yul\":8005:8010   */\n      dup2\n        /* \"#utility.yul\":7994:8010   */\n      swap1\n      pop\n        /* \"#utility.yul\":7939:8016   */\n      swap2\n      swap1\n      pop\n      jump\t// out\n        /* \"#utility.yul\":8022:8082   */\n    tag_65:\n        /* \"#utility.yul\":8050:8053   */\n      0x00\n        /* \"#utility.yul\":8071:8076   */\n      dup2\n        /* \"#utility.yul\":8064:8076   */\n      swap1\n      pop\n        /* \"#utility.yul\":8022:8082   */\n      swap2\n      swap1\n      pop\n      jump\t// out\n        /* \"#utility.yul\":8088:8230   */\n    tag_66:\n        /* \"#utility.yul\":8138:8147   */\n      0x00\n        /* \"#utility.yul\":8171:8224   */\n      tag_163\n        /* \"#utility.yul\":8189:8223   */\n      tag_164\n        /* \"#utility.yul\":8198:8222   */\n      tag_165\n        /* \"#utility.yul\":8216:8221   */\n      dup5\n        /* \"#utility.yul\":8198:8222   */\n      tag_64\n      jump\t// in\n    tag_165:\n        /* \"#utility.yul\":8189:8223   */\n      tag_65\n      jump\t// in\n    tag_164:\n        /* \"#utility.yul\":8171:8224   */\n      tag_64\n      jump\t// in\n    tag_163:\n        /* \"#utility.yul\":8158:8224   */\n      swap1\n      pop\n        /* \"#utility.yul\":8088:8230   */\n      swap2\n      swap1\n      pop\n      jump\t// out\n        /* \"#utility.yul\":8236:8311   */\n    tag_67:\n        /* \"#utility.yul\":8279:8282   */\n      0x00\n        /* \"#utility.yul\":8300:8305   */\n      dup2\n        /* \"#utility.yul\":8293:8305   */\n      swap1\n      pop\n        /* \"#utility.yul\":8236:8311   */\n      swap2\n      swap1\n      pop\n      jump\t// out\n        /* \"#utility.yul\":8317:8586   */\n    tag_68:\n        /* \"#utility.yul\":8427:8466   */\n      tag_168\n        /* \"#utility.yul\":8458:8465   */\n      dup4\n        /* \"#utility.yul\":8427:8466   */\n      tag_66\n      jump\t// in\n    tag_168:\n        /* \"#utility.yul\":8488:8579   */\n      tag_169\n        /* \"#utility.yul\":8537:8578   */\n      tag_170\n        /* \"#utility.yul\":8561:8577   */\n      dup3\n        /* \"#utility.yul\":8537:8578   */\n      tag_67\n      jump\t// in\n    tag_170:\n        /* \"#utility.yul\":8529:8535   */\n      dup5\n        /* \"#utility.yul\":8522:8526   */\n      dup5\n        /* \"#utility.yul\":8516:8527   */\n      sload\n        /* \"#utility.yul\":8488:8579   */\n      tag_63\n      jump\t// in\n    tag_169:\n        /* \"#utility.yul\":8482:8486   */\n      dup3\n        /* \"#utility.yul\":8475:8580   */\n      sstore\n        /* \"#utility.yul\":8393:8586   */\n      pop\n        /* \"#utility.yul\":8317:8586   */\n      pop\n      pop\n      pop\n      jump\t// out\n        /* \"#utility.yul\":8592:8665   */\n    tag_69:\n        /* \"#utility.yul\":8637:8640   */\n      0x00\n        /* \"#utility.yul\":8592:8665   */\n      swap1\n      jump\t// out\n        /* \"#utility.yul\":8671:8860   */\n    tag_70:\n        /* \"#utility.yul\":8748:8780   */\n      tag_173\n      tag_69\n      jump\t// in\n    tag_173:\n        /* \"#utility.yul\":8789:8854   */\n      tag_174\n        /* \"#utility.yul\":8847:8853   */\n      dup2\n        /* \"#utility.yul\":8839:8845   */\n      dup5\n        /* \"#utility.yul\":8833:8837   */\n      dup5\n        /* \"#utility.yul\":8789:8854   */\n      tag_68\n      jump\t// in\n    tag_174:\n        /* \"#utility.yul\":8724:8860   */\n      pop\n        /* \"#utility.yul\":8671:8860   */\n      pop\n      pop\n      jump\t// out\n        /* \"#utility.yul\":8866:9052   */\n    tag_71:\n        /* \"#utility.yul\":8926:9046   */\n    tag_176:\n        /* \"#utility.yul\":8943:8946   */\n      dup2\n        /* \"#utility.yul\":8936:8941   */\n      dup2\n        /* \"#utility.yul\":8933:8947   */\n      lt\n        /* \"#utility.yul\":8926:9046   */\n      iszero\n      tag_178\n      jumpi\n        /* \"#utility.yul\":8997:9036   */\n      tag_179\n        /* \"#utility.yul\":9034:9035   */\n      0x00\n        /* \"#utility.yul\":9027:9032   */\n      dup3\n        /* \"#utility.yul\":8997:9036   */\n      tag_70\n      jump\t// in\n    tag_179:\n        /* \"#utility.yul\":8970:8971   */\n      0x01\n        /* \"#utility.yul\":8963:8968   */\n      dup2\n        /* \"#utility.yul\":8959:8972   */\n      add\n        /* \"#utility.yul\":8950:8972   */\n      swap1\n      pop\n        /* \"#utility.yul\":8926:9046   */\n      jump(tag_176)\n    tag_178:\n        /* \"#utility.yul\":8866:9052   */\n      pop\n      pop\n      jump\t// out\n        /* \"#utility.yul\":9058:9601   */\n    tag_72:\n        /* \"#utility.yul\":9159:9161   */\n      0x1f\n        /* \"#utility.yul\":9154:9157   */\n      dup3\n        /* \"#utility.yul\":9151:9162   */\n      gt\n        /* \"#utility.yul\":9148:9594   */\n      iszero\n      tag_181\n      jumpi\n        /* \"#utility.yul\":9193:9231   */\n      tag_182\n        /* \"#utility.yul\":9225:9230   */\n      dup2\n        /* \"#utility.yul\":9193:9231   */\n      tag_60\n      jump\t// in\n    tag_182:\n        /* \"#utility.yul\":9277:9306   */\n      tag_183\n        /* \"#utility.yul\":9295:9305   */\n      dup5\n        /* \"#utility.yul\":9277:9306   */\n      tag_61\n      jump\t// in\n    tag_183:\n        /* \"#utility.yul\":9267:9275   */\n      dup2\n        /* \"#utility.yul\":9263:9307   */\n      add\n        /* \"#utility.yul\":9460:9462   */\n      0x20\n        /* \"#utility.yul\":9448:9458   */\n      dup6\n        /* \"#utility.yul\":9445:9463   */\n      lt\n        /* \"#utility.yul\":9442:9491   */\n      iszero\n      tag_184\n      jumpi\n        /* \"#utility.yul\":9481:9489   */\n      dup2\n        /* \"#utility.yul\":9466:9489   */\n      swap1\n      pop\n        /* \"#utility.yul\":9442:9491   */\n    tag_184:\n        /* \"#utility.yul\":9504:9584   */\n      tag_185\n        /* \"#utility.yul\":9560:9582   */\n      tag_186\n        /* \"#utility.yul\":9578:9581   */\n      dup6\n        /* \"#utility.yul\":9560:9582   */\n      tag_61\n      jump\t// in\n    tag_186:\n        /* \"#utility.yul\":9550:9558   */\n      dup4\n        /* \"#utility.yul\":9546:9583   */\n      add\n        /* \"#utility.yul\":9533:9544   */\n      dup3\n        /* \"#utility.yul\":9504:9584   */\n      tag_71\n      jump\t// in\n    tag_185:\n        /* \"#utility.yul\":9163:9594   */\n      pop\n      pop\n        /* \"#utility.yul\":9148:9594   */\n    tag_181:\n        /* \"#utility.yul\":9058:9601   */\n      pop\n      pop\n      pop\n      jump\t// out\n        /* \"#utility.yul\":9607:9724   */\n    tag_73:\n        /* \"#utility.yul\":9661:9669   */\n      0x00\n        /* \"#utility.yul\":9711:9716   */\n      dup3\n        /* \"#utility.yul\":9705:9709   */\n      dup3\n        /* \"#utility.yul\":9701:9717   */\n      shr\n        /* \"#utility.yul\":9680:9717   */\n      swap1\n      pop\n        /* \"#utility.yul\":9607:9724   */\n      swap3\n      swap2\n      pop\n      pop\n      jump\t// out\n        /* \"#utility.yul\":9730:9899   */\n    tag_74:\n        /* \"#utility.yul\":9774:9780   */\n      0x00\n        /* \"#utility.yul\":9807:9858   */\n      tag_189\n        /* \"#utility.yul\":9855:9856   */\n      0x00\n        /* \"#utility.yul\":9851:9857   */\n      not\n        /* \"#utility.yul\":9843:9848   */\n      dup5\n        /* \"#utility.yul\":9840:9841   */\n      0x08\n        /* \"#utility.yul\":9836:9849   */\n      mul\n        /* \"#utility.yul\":9807:9858   */\n      tag_73\n      jump\t// in\n    tag_189:\n        /* \"#utility.yul\":9803:9859   */\n      not\n        /* \"#utility.yul\":9888:9892   */\n      dup1\n        /* \"#utility.yul\":9882:9886   */\n      dup4\n        /* \"#utility.yul\":9878:9893   */\n      and\n        /* \"#utility.yul\":9868:9893   */\n      swap2\n      pop\n        /* \"#utility.yul\":9781:9899   */\n      pop\n        /* \"#utility.yul\":9730:9899   */\n      swap3\n      swap2\n      pop\n      pop\n      jump\t// out\n        /* \"#utility.yul\":9904:10199   */\n    tag_75:\n        /* \"#utility.yul\":9980:9984   */\n      0x00\n        /* \"#utility.yul\":10126:10155   */\n      tag_191\n        /* \"#utility.yul\":10151:10154   */\n      dup4\n        /* \"#utility.yul\":10145:10149   */\n      dup4\n        /* \"#utility.yul\":10126:10155   */\n      tag_74\n      jump\t// in\n    tag_191:\n        /* \"#utility.yul\":10118:10155   */\n      swap2\n      pop\n        /* \"#utility.yul\":10188:10191   */\n      dup3\n        /* \"#utility.yul\":10185:10186   */\n      0x02\n        /* \"#utility.yul\":10181:10192   */\n      mul\n        /* \"#utility.yul\":10175:10179   */\n      dup3\n        /* \"#utility.yul\":10172:10193   */\n      or\n        /* \"#utility.yul\":10164:10193   */\n      swap1\n      pop\n        /* \"#utility.yul\":9904:10199   */\n      swap3\n      swap2\n      pop\n      pop\n      jump\t// out\n        /* \"#utility.yul\":10204:11599   */\n    tag_30:\n        /* \"#utility.yul\":10321:10358   */\n      tag_193\n        /* \"#utility.yul\":10354:10357   */\n      dup3\n        /* \"#utility.yul\":10321:10358   */\n      tag_53\n      jump\t// in\n    tag_193:\n        /* \"#utility.yul\":10423:10441   */\n      0xffffffffffffffff\n        /* \"#utility.yul\":10415:10421   */\n      dup2\n        /* \"#utility.yul\":10412:10442   */\n      gt\n        /* \"#utility.yul\":10409:10465   */\n      iszero\n      tag_194\n      jumpi\n        /* \"#utility.yul\":10445:10463   */\n      tag_195\n      tag_43\n      jump\t// in\n    tag_195:\n        /* \"#utility.yul\":10409:10465   */\n    tag_194:\n        /* \"#utility.yul\":10489:10527   */\n      tag_196\n        /* \"#utility.yul\":10521:10525   */\n      dup3\n        /* \"#utility.yul\":10515:10526   */\n      sload\n        /* \"#utility.yul\":10489:10527   */\n      tag_32\n      jump\t// in\n    tag_196:\n        /* \"#utility.yul\":10574:10641   */\n      tag_197\n        /* \"#utility.yul\":10634:10640   */\n      dup3\n        /* \"#utility.yul\":10626:10632   */\n      dup3\n        /* \"#utility.yul\":10620:10624   */\n      dup6\n        /* \"#utility.yul\":10574:10641   */\n      tag_72\n      jump\t// in\n    tag_197:\n        /* \"#utility.yul\":10668:10669   */\n      0x00\n        /* \"#utility.yul\":10692:10696   */\n      0x20\n        /* \"#utility.yul\":10679:10696   */\n      swap1\n      pop\n        /* \"#utility.yul\":10724:10726   */\n      0x1f\n        /* \"#utility.yul\":10716:10722   */\n      dup4\n        /* \"#utility.yul\":10713:10727   */\n      gt\n        /* \"#utility.yul\":10741:10742   */\n      0x01\n        /* \"#utility.yul\":10736:11354   */\n      dup2\n      eq\n      tag_199\n      jumpi\n        /* \"#utility.yul\":11398:11399   */\n      0x00\n        /* \"#utility.yul\":11415:11421   */\n      dup5\n        /* \"#utility.yul\":11412:11489   */\n      iszero\n      tag_200\n      jumpi\n        /* \"#utility.yul\":11464:11473   */\n      dup3\n        /* \"#utility.yul\":11459:11462   */\n      dup8\n        /* \"#utility.yul\":11455:11474   */\n      add\n        /* \"#utility.yul\":11449:11475   */\n      mload\n        /* \"#utility.yul\":11440:11475   */\n      swap1\n      pop\n        /* \"#utility.yul\":11412:11489   */\n    tag_200:\n        /* \"#utility.yul\":11515:11582   */\n      tag_201\n        /* \"#utility.yul\":11575:11581   */\n      dup6\n        /* \"#utility.yul\":11568:11573   */\n      dup3\n        /* \"#utility.yul\":11515:11582   */\n      tag_75\n      jump\t// in\n    tag_201:\n        /* \"#utility.yul\":11509:11513   */\n      dup7\n        /* \"#utility.yul\":11502:11583   */\n      sstore\n        /* \"#utility.yul\":11371:11593   */\n      pop\n        /* \"#utility.yul\":10706:11593   */\n      jump(tag_198)\n        /* \"#utility.yul\":10736:11354   */\n    tag_199:\n        /* \"#utility.yul\":10788:10792   */\n      0x1f\n        /* \"#utility.yul\":10784:10793   */\n      not\n        /* \"#utility.yul\":10776:10782   */\n      dup5\n        /* \"#utility.yul\":10772:10794   */\n      and\n        /* \"#utility.yul\":10822:10859   */\n      tag_202\n        /* \"#utility.yul\":10854:10858   */\n      dup7\n        /* \"#utility.yul\":10822:10859   */\n      tag_60\n      jump\t// in\n    tag_202:\n        /* \"#utility.yul\":10881:10882   */\n      0x00\n        /* \"#utility.yul\":10895:11103   */\n    tag_203:\n        /* \"#utility.yul\":10909:10916   */\n      dup3\n        /* \"#utility.yul\":10906:10907   */\n      dup2\n        /* \"#utility.yul\":10903:10917   */\n      lt\n        /* \"#utility.yul\":10895:11103   */\n      iszero\n      tag_205\n      jumpi\n        /* \"#utility.yul\":10988:10997   */\n      dup5\n        /* \"#utility.yul\":10983:10986   */\n      dup10\n        /* \"#utility.yul\":10979:10998   */\n      add\n        /* \"#utility.yul\":10973:10999   */\n      mload\n        /* \"#utility.yul\":10965:10971   */\n      dup3\n        /* \"#utility.yul\":10958:11000   */\n      sstore\n        /* \"#utility.yul\":11039:11040   */\n      0x01\n        /* \"#utility.yul\":11031:11037   */\n      dup3\n        /* \"#utility.yul\":11027:11041   */\n      add\n        /* \"#utility.yul\":11017:11041   */\n      swap2\n      pop\n        /* \"#utility.yul\":11086:11088   */\n      0x20\n        /* \"#utility.yul\":11075:11084   */\n      dup6\n        /* \"#utility.yul\":11071:11089   */\n      add\n        /* \"#utility.yul\":11058:11089   */\n      swap5\n      pop\n        /* \"#utility.yul\":10932:10936   */\n      0x20\n        /* \"#utility.yul\":10929:10930   */\n      dup2\n        /* \"#utility.yul\":10925:10937   */\n      add\n        /* \"#utility.yul\":10920:10937   */\n      swap1\n      pop\n        /* \"#utility.yul\":10895:11103   */\n      jump(tag_203)\n    tag_205:\n        /* \"#utility.yul\":11131:11137   */\n      dup7\n        /* \"#utility.yul\":11122:11129   */\n      dup4\n        /* \"#utility.yul\":11119:11138   */\n      lt\n        /* \"#utility.yul\":11116:11295   */\n      iszero\n      tag_206\n      jumpi\n        /* \"#utility.yul\":11189:11198   */\n      dup5\n        /* \"#utility.yul\":11184:11187   */\n      dup10\n        /* \"#utility.yul\":11180:11199   */\n      add\n        /* \"#utility.yul\":11174:11200   */\n      mload\n        /* \"#utility.yul\":11232:11280   */\n      tag_207\n        /* \"#utility.yul\":11274:11278   */\n      0x1f\n        /* \"#utility.yul\":11266:11272   */\n      dup10\n        /* \"#utility.yul\":11262:11279   */\n      and\n        /* \"#utility.yul\":11251:11260   */\n      dup3\n        /* \"#utility.yul\":11232:11280   */\n      tag_74\n      jump\t// in\n    tag_207:\n        /* \"#utility.yul\":11224:11230   */\n      dup4\n        /* \"#utility.yul\":11217:11281   */\n      sstore\n        /* \"#utility.yul\":11139:11295   */\n      pop\n        /* \"#utility.yul\":11116:11295   */\n    tag_206:\n        /* \"#utility.yul\":11341:11342   */\n      0x01\n        /* \"#utility.yul\":11337:11338   */\n      0x02\n        /* \"#utility.yul\":11329:11335   */\n      dup9\n        /* \"#utility.yul\":11325:11339   */\n      mul\n        /* \"#utility.yul\":11321:11343   */\n      add\n        /* \"#utility.yul\":11315:11319   */\n      dup9\n        /* \"#utility.yul\":11308:11344   */\n      sstore\n        /* \"#utility.yul\":10743:11354   */\n      pop\n      pop\n      pop\n        /* \"#utility.yul\":10706:11593   */\n    tag_198:\n      pop\n        /* \"#utility.yul\":10296:11599   */\n      pop\n      pop\n      pop\n        /* \"#utility.yul\":10204:11599   */\n      pop\n      pop\n      jump\t// out\n    stop\n\n    sub_0: assembly {\n            /* \"FakeProdIden.sol\":652:3292  contract FakeProdIden... */\n          mstore(0x40, 0x80)\n          callvalue\n          dup1\n          iszero\n          tag_1\n          jumpi\n          0x00\n          dup1\n          revert\n        tag_1:\n          pop\n          dataSize(sub_0)\n          dup1\n          dataOffset(sub_0)\n          0x00\n          codecopy\n          0x00\n          return\n        stop\n\n        sub_0: assembly {\n                /* \"FakeProdIden.sol\":652:3292  contract FakeProdIden... */\n              mstore(0x40, 0x80)\n              callvalue\n              dup1\n              iszero\n              tag_1\n              jumpi\n              0x00\n              dup1\n              revert\n            tag_1:\n              pop\n              jumpi(tag_2, lt(calldatasize, 0x04))\n              shr(0xe0, calldataload(0x00))\n              dup1\n              0xb15bf255\n              gt\n              tag_12\n              jumpi\n              dup1\n              0xb15bf255\n              eq\n              tag_7\n              jumpi\n              dup1\n              0xc0effb7d\n              eq\n              tag_8\n              jumpi\n              dup1\n              0xd8ce6572\n              eq\n              tag_9\n              jumpi\n              dup1\n              0xe47766ff\n              eq\n              tag_10\n              jumpi\n              dup1\n              0xea42c7ef\n              eq\n              tag_11\n              jumpi\n              jump(tag_2)\n            tag_12:\n              dup1\n              0x0e34b00e\n              eq\n              tag_3\n              jumpi\n              dup1\n              0x220f8ade\n              eq\n              tag_4\n              jumpi\n              dup1\n              0x7f975a37\n              eq\n              tag_5\n              jumpi\n              dup1\n              0x9ab1a6cc\n              eq\n              tag_6\n              jumpi\n            tag_2:\n              0x00\n              dup1\n              revert\n                /* \"FakeProdIden.sol\":1689:1855  function addProduct(string memory id, string memory name, string memory brandName) public... */\n            tag_3:\n              tag_13\n              0x04\n              dup1\n              calldatasize\n              sub\n              dup2\n              add\n              swap1\n              tag_14\n              swap2\n              swap1\n              tag_15\n              jump\t// in\n            tag_14:\n              tag_16\n              jump\t// in\n            tag_13:\n              stop\n                /* \"FakeProdIden.sol\":2682:3287  function productVerification(string memory prodId, uint32 consumerCode) public view returns(bool) ... */\n            tag_4:\n              tag_17\n              0x04\n              dup1\n              calldatasize\n              sub\n              dup2\n              add\n              swap1\n              tag_18\n              swap2\n              swap1\n              tag_19\n              jump\t// in\n            tag_18:\n              tag_20\n              jump\t// in\n            tag_17:\n              mload(0x40)\n              tag_21\n              swap2\n              swap1\n              tag_22\n              jump\t// in\n            tag_21:\n              mload(0x40)\n              dup1\n              swap2\n              sub\n              swap1\n              return\n                /* \"FakeProdIden.sol\":2428:2623  function sellToConsumer(string memory prodId, uint32 consumerCode) public ... */\n            tag_5:\n              tag_23\n              0x04\n              dup1\n              calldatasize\n              sub\n              dup2\n              add\n              swap1\n              tag_24\n              swap2\n              swap1\n              tag_19\n              jump\t// in\n            tag_24:\n              tag_25\n              jump\t// in\n            tag_23:\n              stop\n                /* \"FakeProdIden.sol\":1347:1398  mapping(string => bool) public hasReachedToConsumer */\n            tag_6:\n              tag_26\n              0x04\n              dup1\n              calldatasize\n              sub\n              dup2\n              add\n              swap1\n              tag_27\n              swap2\n              swap1\n              tag_28\n              jump\t// in\n            tag_27:\n              tag_29\n              jump\t// in\n            tag_26:\n              mload(0x40)\n              tag_30\n              swap2\n              swap1\n              tag_22\n              jump\t// in\n            tag_30:\n              mload(0x40)\n              dup1\n              swap2\n              sub\n              swap1\n              return\n                /* \"FakeProdIden.sol\":1437:1485  mapping(string => Product) public productStorage */\n            tag_7:\n              tag_31\n              0x04\n              dup1\n              calldatasize\n              sub\n              dup2\n              add\n              swap1\n              tag_32\n              swap2\n              swap1\n              tag_28\n              jump\t// in\n            tag_32:\n              tag_33\n              jump\t// in\n            tag_31:\n              mload(0x40)\n              tag_34\n              swap5\n              swap4\n              swap3\n              swap2\n              swap1\n              tag_35\n              jump\t// in\n            tag_34:\n              mload(0x40)\n              dup1\n              swap2\n              sub\n              swap1\n              return\n                /* \"FakeProdIden.sol\":1927:2129  function sellToSeller(string memory prodId, string memory sellerId) public ... */\n            tag_8:\n              tag_36\n              0x04\n              dup1\n              calldatasize\n              sub\n              dup2\n              add\n              swap1\n              tag_37\n              swap2\n              swap1\n              tag_38\n              jump\t// in\n            tag_37:\n              tag_39\n              jump\t// in\n            tag_36:\n              stop\n                /* \"FakeProdIden.sol\":1251:1307  mapping(string => reachSeller) public hasReachedToSeller */\n            tag_9:\n              tag_40\n              0x04\n              dup1\n              calldatasize\n              sub\n              dup2\n              add\n              swap1\n              tag_41\n              swap2\n              swap1\n              tag_28\n              jump\t// in\n            tag_41:\n              tag_42\n              jump\t// in\n            tag_40:\n              mload(0x40)\n              tag_43\n              swap3\n              swap2\n              swap1\n              tag_44\n              jump\t// in\n            tag_43:\n              mload(0x40)\n              dup1\n              swap2\n              sub\n              swap1\n              return\n                /* \"FakeProdIden.sol\":2223:2358  function addSellers(string memory sellerId) public ... */\n            tag_10:\n              tag_45\n              0x04\n              dup1\n              calldatasize\n              sub\n              dup2\n              add\n              swap1\n              tag_46\n              swap2\n              swap1\n              tag_28\n              jump\t// in\n            tag_46:\n              tag_47\n              jump\t// in\n            tag_45:\n              stop\n                /* \"FakeProdIden.sol\":1535:1586  mapping(string => SellerInfo) public allSellersInfo */\n            tag_11:\n              tag_48\n              0x04\n              dup1\n              calldatasize\n              sub\n              dup2\n              add\n              swap1\n              tag_49\n              swap2\n              swap1\n              tag_28\n              jump\t// in\n            tag_49:\n              tag_50\n              jump\t// in\n            tag_48:\n              mload(0x40)\n              tag_51\n              swap3\n              swap2\n              swap1\n              tag_52\n              jump\t// in\n            tag_51:\n              mload(0x40)\n              dup1\n              swap2\n              sub\n              swap1\n              return\n                /* \"FakeProdIden.sol\":1689:1855  function addProduct(string memory id, string memory name, string memory brandName) public... */\n            tag_16:\n                /* \"FakeProdIden.sol\":1816:1847  Product(id, name, brandName, 0) */\n              mload(0x40)\n              dup1\n              0x80\n              add\n              0x40\n              mstore\n              dup1\n                /* \"FakeProdIden.sol\":1824:1826  id */\n              dup5\n                /* \"FakeProdIden.sol\":1816:1847  Product(id, name, brandName, 0) */\n              dup2\n              mstore\n              0x20\n              add\n                /* \"FakeProdIden.sol\":1828:1832  name */\n              dup4\n                /* \"FakeProdIden.sol\":1816:1847  Product(id, name, brandName, 0) */\n              dup2\n              mstore\n              0x20\n              add\n                /* \"FakeProdIden.sol\":1834:1843  brandName */\n              dup3\n                /* \"FakeProdIden.sol\":1816:1847  Product(id, name, brandName, 0) */\n              dup2\n              mstore\n              0x20\n              add\n                /* \"FakeProdIden.sol\":1845:1846  0 */\n              0x00\n                /* \"FakeProdIden.sol\":1816:1847  Product(id, name, brandName, 0) */\n              0xffffffff\n              and\n              dup2\n              mstore\n              pop\n                /* \"FakeProdIden.sol\":1795:1809  productStorage */\n              0x03\n                /* \"FakeProdIden.sol\":1810:1812  id */\n              dup5\n                /* \"FakeProdIden.sol\":1795:1813  productStorage[id] */\n              mload(0x40)\n              tag_54\n              swap2\n              swap1\n              tag_55\n              jump\t// in\n            tag_54:\n              swap1\n              dup2\n              mstore\n              0x20\n              add\n              mload(0x40)\n              dup1\n              swap2\n              sub\n              swap1\n              keccak256\n                /* \"FakeProdIden.sol\":1795:1847  productStorage[id] = Product(id, name, brandName, 0) */\n              0x00\n              dup3\n              add\n              mload\n              dup2\n              0x00\n              add\n              swap1\n              dup2\n              tag_56\n              swap2\n              swap1\n              tag_57\n              jump\t// in\n            tag_56:\n              pop\n              0x20\n              dup3\n              add\n              mload\n              dup2\n              0x01\n              add\n              swap1\n              dup2\n              tag_58\n              swap2\n              swap1\n              tag_57\n              jump\t// in\n            tag_58:\n              pop\n              0x40\n              dup3\n              add\n              mload\n              dup2\n              0x02\n              add\n              swap1\n              dup2\n              tag_59\n              swap2\n              swap1\n              tag_57\n              jump\t// in\n            tag_59:\n              pop\n              0x60\n              dup3\n              add\n              mload\n              dup2\n              0x03\n              add\n              exp(0x0100, 0x00)\n              dup2\n              sload\n              dup2\n              0xffffffff\n              mul\n              not\n              and\n              swap1\n              dup4\n              0xffffffff\n              and\n              mul\n              or\n              swap1\n              sstore\n              pop\n              swap1\n              pop\n              pop\n                /* \"FakeProdIden.sol\":1689:1855  function addProduct(string memory id, string memory name, string memory brandName) public... */\n              pop\n              pop\n              pop\n              jump\t// out\n                /* \"FakeProdIden.sol\":2682:3287  function productVerification(string memory prodId, uint32 consumerCode) public view returns(bool) ... */\n            tag_20:\n                /* \"FakeProdIden.sol\":2774:2778  bool */\n              0x00\n                /* \"FakeProdIden.sol\":3069:3073  true */\n              0x01\n                /* \"FakeProdIden.sol\":3028:3073  hasReachedToSeller[prodId].hasReached == true */\n              iszero\n              iszero\n                /* \"FakeProdIden.sol\":3028:3046  hasReachedToSeller */\n              0x01\n                /* \"FakeProdIden.sol\":3047:3053  prodId */\n              dup5\n                /* \"FakeProdIden.sol\":3028:3054  hasReachedToSeller[prodId] */\n              mload(0x40)\n              tag_61\n              swap2\n              swap1\n              tag_55\n              jump\t// in\n            tag_61:\n              swap1\n              dup2\n              mstore\n              0x20\n              add\n              mload(0x40)\n              dup1\n              swap2\n              sub\n              swap1\n              keccak256\n                /* \"FakeProdIden.sol\":3028:3065  hasReachedToSeller[prodId].hasReached */\n              0x01\n              add\n              0x00\n              swap1\n              sload\n              swap1\n              0x0100\n              exp\n              swap1\n              div\n              0xff\n              and\n                /* \"FakeProdIden.sol\":3028:3073  hasReachedToSeller[prodId].hasReached == true */\n              iszero\n              iszero\n              eq\n                /* \"FakeProdIden.sol\":3028:3113  hasReachedToSeller[prodId].hasReached == true && hasReachedToConsumer[prodId] == true */\n              dup1\n              iszero\n              tag_62\n              jumpi\n              pop\n                /* \"FakeProdIden.sol\":3109:3113  true */\n              0x01\n                /* \"FakeProdIden.sol\":3077:3113  hasReachedToConsumer[prodId] == true */\n              iszero\n              iszero\n                /* \"FakeProdIden.sol\":3077:3097  hasReachedToConsumer */\n              0x02\n                /* \"FakeProdIden.sol\":3098:3104  prodId */\n              dup5\n                /* \"FakeProdIden.sol\":3077:3105  hasReachedToConsumer[prodId] */\n              mload(0x40)\n              tag_63\n              swap2\n              swap1\n              tag_55\n              jump\t// in\n            tag_63:\n              swap1\n              dup2\n              mstore\n              0x20\n              add\n              mload(0x40)\n              dup1\n              swap2\n              sub\n              swap1\n              keccak256\n              0x00\n              swap1\n              sload\n              swap1\n              0x0100\n              exp\n              swap1\n              div\n              0xff\n              and\n                /* \"FakeProdIden.sol\":3077:3113  hasReachedToConsumer[prodId] == true */\n              iszero\n              iszero\n              eq\n                /* \"FakeProdIden.sol\":3028:3113  hasReachedToSeller[prodId].hasReached == true && hasReachedToConsumer[prodId] == true */\n            tag_62:\n                /* \"FakeProdIden.sol\":3028:3168  hasReachedToSeller[prodId].hasReached == true && hasReachedToConsumer[prodId] == true && productStorage[prodId].consumerCode == consumerCode */\n              dup1\n              iszero\n              tag_64\n              jumpi\n              pop\n                /* \"FakeProdIden.sol\":3156:3168  consumerCode */\n              dup2\n                /* \"FakeProdIden.sol\":3117:3168  productStorage[prodId].consumerCode == consumerCode */\n              0xffffffff\n              and\n                /* \"FakeProdIden.sol\":3117:3131  productStorage */\n              0x03\n                /* \"FakeProdIden.sol\":3132:3138  prodId */\n              dup5\n                /* \"FakeProdIden.sol\":3117:3139  productStorage[prodId] */\n              mload(0x40)\n              tag_65\n              swap2\n              swap1\n              tag_55\n              jump\t// in\n            tag_65:\n              swap1\n              dup2\n              mstore\n              0x20\n              add\n              mload(0x40)\n              dup1\n              swap2\n              sub\n              swap1\n              keccak256\n                /* \"FakeProdIden.sol\":3117:3152  productStorage[prodId].consumerCode */\n              0x03\n              add\n              0x00\n              swap1\n              sload\n              swap1\n              0x0100\n              exp\n              swap1\n              div\n              0xffffffff\n              and\n                /* \"FakeProdIden.sol\":3117:3168  productStorage[prodId].consumerCode == consumerCode */\n              0xffffffff\n              and\n              eq\n                /* \"FakeProdIden.sol\":3028:3168  hasReachedToSeller[prodId].hasReached == true && hasReachedToConsumer[prodId] == true && productStorage[prodId].consumerCode == consumerCode */\n            tag_64:\n                /* \"FakeProdIden.sol\":3025:3280  if(hasReachedToSeller[prodId].hasReached == true && hasReachedToConsumer[prodId] == true && productStorage[prodId].consumerCode == consumerCode)... */\n              iszero\n              tag_66\n              jumpi\n                /* \"FakeProdIden.sol\":3201:3205  true */\n              0x01\n                /* \"FakeProdIden.sol\":3194:3205  return true */\n              swap1\n              pop\n              jump(tag_60)\n                /* \"FakeProdIden.sol\":3025:3280  if(hasReachedToSeller[prodId].hasReached == true && hasReachedToConsumer[prodId] == true && productStorage[prodId].consumerCode == consumerCode)... */\n            tag_66:\n                /* \"FakeProdIden.sol\":3263:3268  false */\n              0x00\n                /* \"FakeProdIden.sol\":3256:3268  return false */\n              swap1\n              pop\n                /* \"FakeProdIden.sol\":2682:3287  function productVerification(string memory prodId, uint32 consumerCode) public view returns(bool) ... */\n            tag_60:\n              swap3\n              swap2\n              pop\n              pop\n              jump\t// out\n                /* \"FakeProdIden.sol\":2428:2623  function sellToConsumer(string memory prodId, uint32 consumerCode) public ... */\n            tag_25:\n                /* \"FakeProdIden.sol\":2550:2554  true */\n              0x01\n                /* \"FakeProdIden.sol\":2519:2539  hasReachedToConsumer */\n              0x02\n                /* \"FakeProdIden.sol\":2540:2546  prodId */\n              dup4\n                /* \"FakeProdIden.sol\":2519:2547  hasReachedToConsumer[prodId] */\n              mload(0x40)\n              tag_69\n              swap2\n              swap1\n              tag_55\n              jump\t// in\n            tag_69:\n              swap1\n              dup2\n              mstore\n              0x20\n              add\n              mload(0x40)\n              dup1\n              swap2\n              sub\n              swap1\n              keccak256\n              0x00\n                /* \"FakeProdIden.sol\":2519:2554  hasReachedToConsumer[prodId] = true */\n              0x0100\n              exp\n              dup2\n              sload\n              dup2\n              0xff\n              mul\n              not\n              and\n              swap1\n              dup4\n              iszero\n              iszero\n              mul\n              or\n              swap1\n              sstore\n              pop\n                /* \"FakeProdIden.sol\":2603:2615  consumerCode */\n              dup1\n                /* \"FakeProdIden.sol\":2565:2579  productStorage */\n              0x03\n                /* \"FakeProdIden.sol\":2580:2586  prodId */\n              dup4\n                /* \"FakeProdIden.sol\":2565:2587  productStorage[prodId] */\n              mload(0x40)\n              tag_70\n              swap2\n              swap1\n              tag_55\n              jump\t// in\n            tag_70:\n              swap1\n              dup2\n              mstore\n              0x20\n              add\n              mload(0x40)\n              dup1\n              swap2\n              sub\n              swap1\n              keccak256\n                /* \"FakeProdIden.sol\":2565:2600  productStorage[prodId].consumerCode */\n              0x03\n              add\n              0x00\n                /* \"FakeProdIden.sol\":2565:2615  productStorage[prodId].consumerCode = consumerCode */\n              0x0100\n              exp\n              dup2\n              sload\n              dup2\n              0xffffffff\n              mul\n              not\n              and\n              swap1\n              dup4\n              0xffffffff\n              and\n              mul\n              or\n              swap1\n              sstore\n              pop\n                /* \"FakeProdIden.sol\":2428:2623  function sellToConsumer(string memory prodId, uint32 consumerCode) public ... */\n              pop\n              pop\n              jump\t// out\n                /* \"FakeProdIden.sol\":1347:1398  mapping(string => bool) public hasReachedToConsumer */\n            tag_29:\n              0x02\n              dup2\n              dup1\n              mload\n              0x20\n              dup2\n              add\n              dup3\n              add\n              dup1\n              mload\n              dup5\n              dup3\n              mstore\n              0x20\n              dup4\n              add\n              0x20\n              dup6\n              add\n              keccak256\n              dup2\n              dup4\n              mstore\n              dup1\n              swap6\n              pop\n              pop\n              pop\n              pop\n              pop\n              pop\n              0x00\n              swap2\n              pop\n              sload\n              swap1\n              0x0100\n              exp\n              swap1\n              div\n              0xff\n              and\n              dup2\n              jump\t// out\n                /* \"FakeProdIden.sol\":1437:1485  mapping(string => Product) public productStorage */\n            tag_33:\n              0x03\n              dup2\n              dup1\n              mload\n              0x20\n              dup2\n              add\n              dup3\n              add\n              dup1\n              mload\n              dup5\n              dup3\n              mstore\n              0x20\n              dup4\n              add\n              0x20\n              dup6\n              add\n              keccak256\n              dup2\n              dup4\n              mstore\n              dup1\n              swap6\n              pop\n              pop\n              pop\n              pop\n              pop\n              pop\n              0x00\n              swap2\n              pop\n              swap1\n              pop\n              dup1\n              0x00\n              add\n              dup1\n              sload\n              tag_71\n              swap1\n              tag_72\n              jump\t// in\n            tag_71:\n              dup1\n              0x1f\n              add\n              0x20\n              dup1\n              swap2\n              div\n              mul\n              0x20\n              add\n              mload(0x40)\n              swap1\n              dup2\n              add\n              0x40\n              mstore\n              dup1\n              swap3\n              swap2\n              swap1\n              dup2\n              dup2\n              mstore\n              0x20\n              add\n              dup3\n              dup1\n              sload\n              tag_73\n              swap1\n              tag_72\n              jump\t// in\n            tag_73:\n              dup1\n              iszero\n              tag_74\n              jumpi\n              dup1\n              0x1f\n              lt\n              tag_75\n              jumpi\n              0x0100\n              dup1\n              dup4\n              sload\n              div\n              mul\n              dup4\n              mstore\n              swap2\n              0x20\n              add\n              swap2\n              jump(tag_74)\n            tag_75:\n              dup3\n              add\n              swap2\n              swap1\n              0x00\n              mstore\n              keccak256(0x00, 0x20)\n              swap1\n            tag_76:\n              dup2\n              sload\n              dup2\n              mstore\n              swap1\n              0x01\n              add\n              swap1\n              0x20\n              add\n              dup1\n              dup4\n              gt\n              tag_76\n              jumpi\n              dup3\n              swap1\n              sub\n              0x1f\n              and\n              dup3\n              add\n              swap2\n            tag_74:\n              pop\n              pop\n              pop\n              pop\n              pop\n              swap1\n              dup1\n              0x01\n              add\n              dup1\n              sload\n              tag_77\n              swap1\n              tag_72\n              jump\t// in\n            tag_77:\n              dup1\n              0x1f\n              add\n              0x20\n              dup1\n              swap2\n              div\n              mul\n              0x20\n              add\n              mload(0x40)\n              swap1\n              dup2\n              add\n              0x40\n              mstore\n              dup1\n              swap3\n              swap2\n              swap1\n              dup2\n              dup2\n              mstore\n              0x20\n              add\n              dup3\n              dup1\n              sload\n              tag_78\n              swap1\n              tag_72\n              jump\t// in\n            tag_78:\n              dup1\n              iszero\n              tag_79\n              jumpi\n              dup1\n              0x1f\n              lt\n              tag_80\n              jumpi\n              0x0100\n              dup1\n              dup4\n              sload\n              div\n              mul\n              dup4\n              mstore\n              swap2\n              0x20\n              add\n              swap2\n              jump(tag_79)\n            tag_80:\n              dup3\n              add\n              swap2\n              swap1\n              0x00\n              mstore\n              keccak256(0x00, 0x20)\n              swap1\n            tag_81:\n              dup2\n              sload\n              dup2\n              mstore\n              swap1\n              0x01\n              add\n              swap1\n              0x20\n              add\n              dup1\n              dup4\n              gt\n              tag_81\n              jumpi\n              dup3\n              swap1\n              sub\n              0x1f\n              and\n              dup3\n              add\n              swap2\n            tag_79:\n              pop\n              pop\n              pop\n              pop\n              pop\n              swap1\n              dup1\n              0x02\n              add\n              dup1\n              sload\n              tag_82\n              swap1\n              tag_72\n              jump\t// in\n            tag_82:\n              dup1\n              0x1f\n              add\n              0x20\n              dup1\n              swap2\n              div\n              mul\n              0x20\n              add\n              mload(0x40)\n              swap1\n              dup2\n              add\n              0x40\n              mstore\n              dup1\n              swap3\n              swap2\n              swap1\n              dup2\n              dup2\n              mstore\n              0x20\n              add\n              dup3\n              dup1\n              sload\n              tag_83\n              swap1\n              tag_72\n              jump\t// in\n            tag_83:\n              dup1\n              iszero\n              tag_84\n              jumpi\n              dup1\n              0x1f\n              lt\n              tag_85\n              jumpi\n              0x0100\n              dup1\n              dup4\n              sload\n              div\n              mul\n              dup4\n              mstore\n              swap2\n              0x20\n              add\n              swap2\n              jump(tag_84)\n            tag_85:\n              dup3\n              add\n              swap2\n              swap1\n              0x00\n              mstore\n              keccak256(0x00, 0x20)\n              swap1\n            tag_86:\n              dup2\n              sload\n              dup2\n              mstore\n              swap1\n              0x01\n              add\n              swap1\n              0x20\n              add\n              dup1\n              dup4\n              gt\n              tag_86\n              jumpi\n              dup3\n              swap1\n              sub\n              0x1f\n              and\n              dup3\n              add\n              swap2\n            tag_84:\n              pop\n              pop\n              pop\n              pop\n              pop\n              swap1\n              dup1\n              0x03\n              add\n              0x00\n              swap1\n              sload\n              swap1\n              0x0100\n              exp\n              swap1\n              div\n              0xffffffff\n              and\n              swap1\n              pop\n              dup5\n              jump\t// out\n                /* \"FakeProdIden.sol\":1927:2129  function sellToSeller(string memory prodId, string memory sellerId) public ... */\n            tag_39:\n                /* \"FakeProdIden.sol\":2057:2065  sellerId */\n              dup1\n                /* \"FakeProdIden.sol\":2019:2037  hasReachedToSeller */\n              0x01\n                /* \"FakeProdIden.sol\":2038:2044  prodId */\n              dup4\n                /* \"FakeProdIden.sol\":2019:2045  hasReachedToSeller[prodId] */\n              mload(0x40)\n              tag_88\n              swap2\n              swap1\n              tag_55\n              jump\t// in\n            tag_88:\n              swap1\n              dup2\n              mstore\n              0x20\n              add\n              mload(0x40)\n              dup1\n              swap2\n              sub\n              swap1\n              keccak256\n                /* \"FakeProdIden.sol\":2019:2054  hasReachedToSeller[prodId].sellerId */\n              0x00\n              add\n                /* \"FakeProdIden.sol\":2019:2065  hasReachedToSeller[prodId].sellerId = sellerId */\n              swap1\n              dup2\n              tag_89\n              swap2\n              swap1\n              tag_57\n              jump\t// in\n            tag_89:\n              pop\n                /* \"FakeProdIden.sol\":2116:2120  true */\n              0x01\n                /* \"FakeProdIden.sol\":2076:2094  hasReachedToSeller */\n              dup1\n                /* \"FakeProdIden.sol\":2095:2101  prodId */\n              dup4\n                /* \"FakeProdIden.sol\":2076:2102  hasReachedToSeller[prodId] */\n              mload(0x40)\n              tag_90\n              swap2\n              swap1\n              tag_55\n              jump\t// in\n            tag_90:\n              swap1\n              dup2\n              mstore\n              0x20\n              add\n              mload(0x40)\n              dup1\n              swap2\n              sub\n              swap1\n              keccak256\n                /* \"FakeProdIden.sol\":2076:2113  hasReachedToSeller[prodId].hasReached */\n              0x01\n              add\n              0x00\n                /* \"FakeProdIden.sol\":2076:2120  hasReachedToSeller[prodId].hasReached = true */\n              0x0100\n              exp\n              dup2\n              sload\n              dup2\n              0xff\n              mul\n              not\n              and\n              swap1\n              dup4\n              iszero\n              iszero\n              mul\n              or\n              swap1\n              sstore\n              pop\n                /* \"FakeProdIden.sol\":1927:2129  function sellToSeller(string memory prodId, string memory sellerId) public ... */\n              pop\n              pop\n              jump\t// out\n                /* \"FakeProdIden.sol\":1251:1307  mapping(string => reachSeller) public hasReachedToSeller */\n            tag_42:\n              0x01\n              dup2\n              dup1\n              mload\n              0x20\n              dup2\n              add\n              dup3\n              add\n              dup1\n              mload\n              dup5\n              dup3\n              mstore\n              0x20\n              dup4\n              add\n              0x20\n              dup6\n              add\n              keccak256\n              dup2\n              dup4\n              mstore\n              dup1\n              swap6\n              pop\n              pop\n              pop\n              pop\n              pop\n              pop\n              0x00\n              swap2\n              pop\n              swap1\n              pop\n              dup1\n              0x00\n              add\n              dup1\n              sload\n              tag_91\n              swap1\n              tag_72\n              jump\t// in\n            tag_91:\n              dup1\n              0x1f\n              add\n              0x20\n              dup1\n              swap2\n              div\n              mul\n              0x20\n              add\n              mload(0x40)\n              swap1\n              dup2\n              add\n              0x40\n              mstore\n              dup1\n              swap3\n              swap2\n              swap1\n              dup2\n              dup2\n              mstore\n              0x20\n              add\n              dup3\n              dup1\n              sload\n              tag_92\n              swap1\n              tag_72\n              jump\t// in\n            tag_92:\n              dup1\n              iszero\n              tag_93\n              jumpi\n              dup1\n              0x1f\n              lt\n              tag_94\n              jumpi\n              0x0100\n              dup1\n              dup4\n              sload\n              div\n              mul\n              dup4\n              mstore\n              swap2\n              0x20\n              add\n              swap2\n              jump(tag_93)\n            tag_94:\n              dup3\n              add\n              swap2\n              swap1\n              0x00\n              mstore\n              keccak256(0x00, 0x20)\n              swap1\n            tag_95:\n              dup2\n              sload\n              dup2\n              mstore\n              swap1\n              0x01\n              add\n              swap1\n              0x20\n              add\n              dup1\n              dup4\n              gt\n              tag_95\n              jumpi\n              dup3\n              swap1\n              sub\n              0x1f\n              and\n              dup3\n              add\n              swap2\n            tag_93:\n              pop\n              pop\n              pop\n              pop\n              pop\n              swap1\n              dup1\n              0x01\n              add\n              0x00\n              swap1\n              sload\n              swap1\n              0x0100\n              exp\n              swap1\n              div\n              0xff\n              and\n              swap1\n              pop\n              dup3\n              jump\t// out\n                /* \"FakeProdIden.sol\":2223:2358  function addSellers(string memory sellerId) public ... */\n            tag_47:\n                /* \"FakeProdIden.sol\":2318:2350  SellerInfo(sellerId, msg.sender) */\n              mload(0x40)\n              dup1\n              0x40\n              add\n              0x40\n              mstore\n              dup1\n                /* \"FakeProdIden.sol\":2329:2337  sellerId */\n              dup3\n                /* \"FakeProdIden.sol\":2318:2350  SellerInfo(sellerId, msg.sender) */\n              dup2\n              mstore\n              0x20\n              add\n                /* \"FakeProdIden.sol\":2339:2349  msg.sender */\n              caller\n                /* \"FakeProdIden.sol\":2318:2350  SellerInfo(sellerId, msg.sender) */\n              0xffffffffffffffffffffffffffffffffffffffff\n              and\n              dup2\n              mstore\n              pop\n                /* \"FakeProdIden.sol\":2291:2305  allSellersInfo */\n              0x04\n                /* \"FakeProdIden.sol\":2306:2314  sellerId */\n              dup3\n                /* \"FakeProdIden.sol\":2291:2315  allSellersInfo[sellerId] */\n              mload(0x40)\n              tag_97\n              swap2\n              swap1\n              tag_55\n              jump\t// in\n            tag_97:\n              swap1\n              dup2\n              mstore\n              0x20\n              add\n              mload(0x40)\n              dup1\n              swap2\n              sub\n              swap1\n              keccak256\n                /* \"FakeProdIden.sol\":2291:2350  allSellersInfo[sellerId] = SellerInfo(sellerId, msg.sender) */\n              0x00\n              dup3\n              add\n              mload\n              dup2\n              0x00\n              add\n              swap1\n              dup2\n              tag_98\n              swap2\n              swap1\n              tag_57\n              jump\t// in\n            tag_98:\n              pop\n              0x20\n              dup3\n              add\n              mload\n              dup2\n              0x01\n              add\n              exp(0x0100, 0x00)\n              dup2\n              sload\n              dup2\n              0xffffffffffffffffffffffffffffffffffffffff\n              mul\n              not\n              and\n              swap1\n              dup4\n              0xffffffffffffffffffffffffffffffffffffffff\n              and\n              mul\n              or\n              swap1\n              sstore\n              pop\n              swap1\n              pop\n              pop\n                /* \"FakeProdIden.sol\":2223:2358  function addSellers(string memory sellerId) public ... */\n              pop\n              jump\t// out\n                /* \"FakeProdIden.sol\":1535:1586  mapping(string => SellerInfo) public allSellersInfo */\n            tag_50:\n              0x04\n              dup2\n              dup1\n              mload\n              0x20\n              dup2\n              add\n              dup3\n              add\n              dup1\n              mload\n              dup5\n              dup3\n              mstore\n              0x20\n              dup4\n              add\n              0x20\n              dup6\n              add\n              keccak256\n              dup2\n              dup4\n              mstore\n              dup1\n              swap6\n              pop\n              pop\n              pop\n              pop\n              pop\n              pop\n              0x00\n              swap2\n              pop\n              swap1\n              pop\n              dup1\n              0x00\n              add\n              dup1\n              sload\n              tag_99\n              swap1\n              tag_72\n              jump\t// in\n            tag_99:\n              dup1\n              0x1f\n              add\n              0x20\n              dup1\n              swap2\n              div\n              mul\n              0x20\n              add\n              mload(0x40)\n              swap1\n              dup2\n              add\n              0x40\n              mstore\n              dup1\n              swap3\n              swap2\n              swap1\n              dup2\n              dup2\n              mstore\n              0x20\n              add\n              dup3\n              dup1\n              sload\n              tag_100\n              swap1\n              tag_72\n              jump\t// in\n            tag_100:\n              dup1\n              iszero\n              tag_101\n              jumpi\n              dup1\n              0x1f\n              lt\n              tag_102\n              jumpi\n              0x0100\n              dup1\n              dup4\n              sload\n              div\n              mul\n              dup4\n              mstore\n              swap2\n              0x20\n              add\n              swap2\n              jump(tag_101)\n            tag_102:\n              dup3\n              add\n              swap2\n              swap1\n              0x00\n              mstore\n              keccak256(0x00, 0x20)\n              swap1\n            tag_103:\n              dup2\n              sload\n              dup2\n              mstore\n              swap1\n              0x01\n              add\n              swap1\n              0x20\n              add\n              dup1\n              dup4\n              gt\n              tag_103\n              jumpi\n              dup3\n              swap1\n              sub\n              0x1f\n              and\n              dup3\n              add\n              swap2\n            tag_101:\n              pop\n              pop\n              pop\n              pop\n              pop\n              swap1\n              dup1\n              0x01\n              add\n              0x00\n              swap1\n              sload\n              swap1\n              0x0100\n              exp\n              swap1\n              div\n              0xffffffffffffffffffffffffffffffffffffffff\n              and\n              swap1\n              pop\n              dup3\n              jump\t// out\n                /* \"#utility.yul\":7:82   */\n            tag_104:\n                /* \"#utility.yul\":40:46   */\n              0x00\n                /* \"#utility.yul\":73:75   */\n              0x40\n                /* \"#utility.yul\":67:76   */\n              mload\n                /* \"#utility.yul\":57:76   */\n              swap1\n              pop\n                /* \"#utility.yul\":7:82   */\n              swap1\n              jump\t// out\n                /* \"#utility.yul\":88:205   */\n            tag_105:\n                /* \"#utility.yul\":197:198   */\n              0x00\n                /* \"#utility.yul\":194:195   */\n              dup1\n                /* \"#utility.yul\":187:199   */\n              revert\n                /* \"#utility.yul\":211:328   */\n            tag_106:\n                /* \"#utility.yul\":320:321   */\n              0x00\n                /* \"#utility.yul\":317:318   */\n              dup1\n                /* \"#utility.yul\":310:322   */\n              revert\n                /* \"#utility.yul\":334:451   */\n            tag_107:\n                /* \"#utility.yul\":443:444   */\n              0x00\n                /* \"#utility.yul\":440:441   */\n              dup1\n                /* \"#utility.yul\":433:445   */\n              revert\n                /* \"#utility.yul\":457:574   */\n            tag_108:\n                /* \"#utility.yul\":566:567   */\n              0x00\n                /* \"#utility.yul\":563:564   */\n              dup1\n                /* \"#utility.yul\":556:568   */\n              revert\n                /* \"#utility.yul\":580:682   */\n            tag_109:\n                /* \"#utility.yul\":621:627   */\n              0x00\n                /* \"#utility.yul\":672:674   */\n              0x1f\n                /* \"#utility.yul\":668:675   */\n              not\n                /* \"#utility.yul\":663:665   */\n              0x1f\n                /* \"#utility.yul\":656:661   */\n              dup4\n                /* \"#utility.yul\":652:666   */\n              add\n                /* \"#utility.yul\":648:676   */\n              and\n                /* \"#utility.yul\":638:676   */\n              swap1\n              pop\n                /* \"#utility.yul\":580:682   */\n              swap2\n              swap1\n              pop\n              jump\t// out\n                /* \"#utility.yul\":688:868   */\n            tag_110:\n                /* \"#utility.yul\":736:813   */\n              0x4e487b7100000000000000000000000000000000000000000000000000000000\n                /* \"#utility.yul\":733:734   */\n              0x00\n                /* \"#utility.yul\":726:814   */\n              mstore\n                /* \"#utility.yul\":833:837   */\n              0x41\n                /* \"#utility.yul\":830:831   */\n              0x04\n                /* \"#utility.yul\":823:838   */\n              mstore\n                /* \"#utility.yul\":857:861   */\n              0x24\n                /* \"#utility.yul\":854:855   */\n              0x00\n                /* \"#utility.yul\":847:862   */\n              revert\n                /* \"#utility.yul\":874:1155   */\n            tag_111:\n                /* \"#utility.yul\":957:984   */\n              tag_158\n                /* \"#utility.yul\":979:983   */\n              dup3\n                /* \"#utility.yul\":957:984   */\n              tag_109\n              jump\t// in\n            tag_158:\n                /* \"#utility.yul\":949:955   */\n              dup2\n                /* \"#utility.yul\":945:985   */\n              add\n                /* \"#utility.yul\":1087:1093   */\n              dup2\n                /* \"#utility.yul\":1075:1085   */\n              dup2\n                /* \"#utility.yul\":1072:1094   */\n              lt\n                /* \"#utility.yul\":1051:1069   */\n              0xffffffffffffffff\n                /* \"#utility.yul\":1039:1049   */\n              dup3\n                /* \"#utility.yul\":1036:1070   */\n              gt\n                /* \"#utility.yul\":1033:1095   */\n              or\n                /* \"#utility.yul\":1030:1118   */\n              iszero\n              tag_159\n              jumpi\n                /* \"#utility.yul\":1098:1116   */\n              tag_160\n              tag_110\n              jump\t// in\n            tag_160:\n                /* \"#utility.yul\":1030:1118   */\n            tag_159:\n                /* \"#utility.yul\":1138:1148   */\n              dup1\n                /* \"#utility.yul\":1134:1136   */\n              0x40\n                /* \"#utility.yul\":1127:1149   */\n              mstore\n                /* \"#utility.yul\":917:1155   */\n              pop\n                /* \"#utility.yul\":874:1155   */\n              pop\n              pop\n              jump\t// out\n                /* \"#utility.yul\":1161:1290   */\n            tag_112:\n                /* \"#utility.yul\":1195:1201   */\n              0x00\n                /* \"#utility.yul\":1222:1242   */\n              tag_162\n              tag_104\n              jump\t// in\n            tag_162:\n                /* \"#utility.yul\":1212:1242   */\n              swap1\n              pop\n                /* \"#utility.yul\":1251:1284   */\n              tag_163\n                /* \"#utility.yul\":1279:1283   */\n              dup3\n                /* \"#utility.yul\":1271:1277   */\n              dup3\n                /* \"#utility.yul\":1251:1284   */\n              tag_111\n              jump\t// in\n            tag_163:\n                /* \"#utility.yul\":1161:1290   */\n              swap2\n              swap1\n              pop\n              jump\t// out\n                /* \"#utility.yul\":1296:1604   */\n            tag_113:\n                /* \"#utility.yul\":1358:1362   */\n              0x00\n                /* \"#utility.yul\":1448:1466   */\n              0xffffffffffffffff\n                /* \"#utility.yul\":1440:1446   */\n              dup3\n                /* \"#utility.yul\":1437:1467   */\n              gt\n                /* \"#utility.yul\":1434:1490   */\n              iszero\n              tag_165\n              jumpi\n                /* \"#utility.yul\":1470:1488   */\n              tag_166\n              tag_110\n              jump\t// in\n            tag_166:\n                /* \"#utility.yul\":1434:1490   */\n            tag_165:\n                /* \"#utility.yul\":1508:1537   */\n              tag_167\n                /* \"#utility.yul\":1530:1536   */\n              dup3\n                /* \"#utility.yul\":1508:1537   */\n              tag_109\n              jump\t// in\n            tag_167:\n                /* \"#utility.yul\":1500:1537   */\n              swap1\n              pop\n                /* \"#utility.yul\":1592:1596   */\n              0x20\n                /* \"#utility.yul\":1586:1590   */\n              dup2\n                /* \"#utility.yul\":1582:1597   */\n              add\n                /* \"#utility.yul\":1574:1597   */\n              swap1\n              pop\n                /* \"#utility.yul\":1296:1604   */\n              swap2\n              swap1\n              pop\n              jump\t// out\n                /* \"#utility.yul\":1610:1756   */\n            tag_114:\n                /* \"#utility.yul\":1707:1713   */\n              dup3\n                /* \"#utility.yul\":1702:1705   */\n              dup2\n                /* \"#utility.yul\":1697:1700   */\n              dup4\n                /* \"#utility.yul\":1684:1714   */\n              calldatacopy\n                /* \"#utility.yul\":1748:1749   */\n              0x00\n                /* \"#utility.yul\":1739:1745   */\n              dup4\n                /* \"#utility.yul\":1734:1737   */\n              dup4\n                /* \"#utility.yul\":1730:1746   */\n              add\n                /* \"#utility.yul\":1723:1750   */\n              mstore\n                /* \"#utility.yul\":1610:1756   */\n              pop\n              pop\n              pop\n              jump\t// out\n                /* \"#utility.yul\":1762:2187   */\n            tag_115:\n                /* \"#utility.yul\":1840:1845   */\n              0x00\n                /* \"#utility.yul\":1865:1931   */\n              tag_170\n                /* \"#utility.yul\":1881:1930   */\n              tag_171\n                /* \"#utility.yul\":1923:1929   */\n              dup5\n                /* \"#utility.yul\":1881:1930   */\n              tag_113\n              jump\t// in\n            tag_171:\n                /* \"#utility.yul\":1865:1931   */\n              tag_112\n              jump\t// in\n            tag_170:\n                /* \"#utility.yul\":1856:1931   */\n              swap1\n              pop\n                /* \"#utility.yul\":1954:1960   */\n              dup3\n                /* \"#utility.yul\":1947:1952   */\n              dup2\n                /* \"#utility.yul\":1940:1961   */\n              mstore\n                /* \"#utility.yul\":1992:1996   */\n              0x20\n                /* \"#utility.yul\":1985:1990   */\n              dup2\n                /* \"#utility.yul\":1981:1997   */\n              add\n                /* \"#utility.yul\":2030:2033   */\n              dup5\n                /* \"#utility.yul\":2021:2027   */\n              dup5\n                /* \"#utility.yul\":2016:2019   */\n              dup5\n                /* \"#utility.yul\":2012:2028   */\n              add\n                /* \"#utility.yul\":2009:2034   */\n              gt\n                /* \"#utility.yul\":2006:2118   */\n              iszero\n              tag_172\n              jumpi\n                /* \"#utility.yul\":2037:2116   */\n              tag_173\n              tag_108\n              jump\t// in\n            tag_173:\n                /* \"#utility.yul\":2006:2118   */\n            tag_172:\n                /* \"#utility.yul\":2127:2181   */\n              tag_174\n                /* \"#utility.yul\":2174:2180   */\n              dup5\n                /* \"#utility.yul\":2169:2172   */\n              dup3\n                /* \"#utility.yul\":2164:2167   */\n              dup6\n                /* \"#utility.yul\":2127:2181   */\n              tag_114\n              jump\t// in\n            tag_174:\n                /* \"#utility.yul\":1846:2187   */\n              pop\n                /* \"#utility.yul\":1762:2187   */\n              swap4\n              swap3\n              pop\n              pop\n              pop\n              jump\t// out\n                /* \"#utility.yul\":2207:2547   */\n            tag_116:\n                /* \"#utility.yul\":2263:2268   */\n              0x00\n                /* \"#utility.yul\":2312:2315   */\n              dup3\n                /* \"#utility.yul\":2305:2309   */\n              0x1f\n                /* \"#utility.yul\":2297:2303   */\n              dup4\n                /* \"#utility.yul\":2293:2310   */\n              add\n                /* \"#utility.yul\":2289:2316   */\n              slt\n                /* \"#utility.yul\":2279:2401   */\n              tag_176\n              jumpi\n                /* \"#utility.yul\":2320:2399   */\n              tag_177\n              tag_107\n              jump\t// in\n            tag_177:\n                /* \"#utility.yul\":2279:2401   */\n            tag_176:\n                /* \"#utility.yul\":2437:2443   */\n              dup2\n                /* \"#utility.yul\":2424:2444   */\n              calldataload\n                /* \"#utility.yul\":2462:2541   */\n              tag_178\n                /* \"#utility.yul\":2537:2540   */\n              dup5\n                /* \"#utility.yul\":2529:2535   */\n              dup3\n                /* \"#utility.yul\":2522:2526   */\n              0x20\n                /* \"#utility.yul\":2514:2520   */\n              dup7\n                /* \"#utility.yul\":2510:2527   */\n              add\n                /* \"#utility.yul\":2462:2541   */\n              tag_115\n              jump\t// in\n            tag_178:\n                /* \"#utility.yul\":2453:2541   */\n              swap2\n              pop\n                /* \"#utility.yul\":2269:2547   */\n              pop\n                /* \"#utility.yul\":2207:2547   */\n              swap3\n              swap2\n              pop\n              pop\n              jump\t// out\n                /* \"#utility.yul\":2553:3712   */\n            tag_15:\n                /* \"#utility.yul\":2660:2666   */\n              0x00\n                /* \"#utility.yul\":2668:2674   */\n              dup1\n                /* \"#utility.yul\":2676:2682   */\n              0x00\n                /* \"#utility.yul\":2725:2727   */\n              0x60\n                /* \"#utility.yul\":2713:2722   */\n              dup5\n                /* \"#utility.yul\":2704:2711   */\n              dup7\n                /* \"#utility.yul\":2700:2723   */\n              sub\n                /* \"#utility.yul\":2696:2728   */\n              slt\n                /* \"#utility.yul\":2693:2812   */\n              iszero\n              tag_180\n              jumpi\n                /* \"#utility.yul\":2731:2810   */\n              tag_181\n              tag_105\n              jump\t// in\n            tag_181:\n                /* \"#utility.yul\":2693:2812   */\n            tag_180:\n                /* \"#utility.yul\":2879:2880   */\n              0x00\n                /* \"#utility.yul\":2868:2877   */\n              dup5\n                /* \"#utility.yul\":2864:2881   */\n              add\n                /* \"#utility.yul\":2851:2882   */\n              calldataload\n                /* \"#utility.yul\":2909:2927   */\n              0xffffffffffffffff\n                /* \"#utility.yul\":2901:2907   */\n              dup2\n                /* \"#utility.yul\":2898:2928   */\n              gt\n                /* \"#utility.yul\":2895:3012   */\n              iszero\n              tag_182\n              jumpi\n                /* \"#utility.yul\":2931:3010   */\n              tag_183\n              tag_106\n              jump\t// in\n            tag_183:\n                /* \"#utility.yul\":2895:3012   */\n            tag_182:\n                /* \"#utility.yul\":3036:3099   */\n              tag_184\n                /* \"#utility.yul\":3091:3098   */\n              dup7\n                /* \"#utility.yul\":3082:3088   */\n              dup3\n                /* \"#utility.yul\":3071:3080   */\n              dup8\n                /* \"#utility.yul\":3067:3089   */\n              add\n                /* \"#utility.yul\":3036:3099   */\n              tag_116\n              jump\t// in\n            tag_184:\n                /* \"#utility.yul\":3026:3099   */\n              swap4\n              pop\n                /* \"#utility.yul\":2822:3109   */\n              pop\n                /* \"#utility.yul\":3176:3178   */\n              0x20\n                /* \"#utility.yul\":3165:3174   */\n              dup5\n                /* \"#utility.yul\":3161:3179   */\n              add\n                /* \"#utility.yul\":3148:3180   */\n              calldataload\n                /* \"#utility.yul\":3207:3225   */\n              0xffffffffffffffff\n                /* \"#utility.yul\":3199:3205   */\n              dup2\n                /* \"#utility.yul\":3196:3226   */\n              gt\n                /* \"#utility.yul\":3193:3310   */\n              iszero\n              tag_185\n              jumpi\n                /* \"#utility.yul\":3229:3308   */\n              tag_186\n              tag_106\n              jump\t// in\n            tag_186:\n                /* \"#utility.yul\":3193:3310   */\n            tag_185:\n                /* \"#utility.yul\":3334:3397   */\n              tag_187\n                /* \"#utility.yul\":3389:3396   */\n              dup7\n                /* \"#utility.yul\":3380:3386   */\n              dup3\n                /* \"#utility.yul\":3369:3378   */\n              dup8\n                /* \"#utility.yul\":3365:3387   */\n              add\n                /* \"#utility.yul\":3334:3397   */\n              tag_116\n              jump\t// in\n            tag_187:\n                /* \"#utility.yul\":3324:3397   */\n              swap3\n              pop\n                /* \"#utility.yul\":3119:3407   */\n              pop\n                /* \"#utility.yul\":3474:3476   */\n              0x40\n                /* \"#utility.yul\":3463:3472   */\n              dup5\n                /* \"#utility.yul\":3459:3477   */\n              add\n                /* \"#utility.yul\":3446:3478   */\n              calldataload\n                /* \"#utility.yul\":3505:3523   */\n              0xffffffffffffffff\n                /* \"#utility.yul\":3497:3503   */\n              dup2\n                /* \"#utility.yul\":3494:3524   */\n              gt\n                /* \"#utility.yul\":3491:3608   */\n              iszero\n              tag_188\n              jumpi\n                /* \"#utility.yul\":3527:3606   */\n              tag_189\n              tag_106\n              jump\t// in\n            tag_189:\n                /* \"#utility.yul\":3491:3608   */\n            tag_188:\n                /* \"#utility.yul\":3632:3695   */\n              tag_190\n                /* \"#utility.yul\":3687:3694   */\n              dup7\n                /* \"#utility.yul\":3678:3684   */\n              dup3\n                /* \"#utility.yul\":3667:3676   */\n              dup8\n                /* \"#utility.yul\":3663:3685   */\n              add\n                /* \"#utility.yul\":3632:3695   */\n              tag_116\n              jump\t// in\n            tag_190:\n                /* \"#utility.yul\":3622:3695   */\n              swap2\n              pop\n                /* \"#utility.yul\":3417:3705   */\n              pop\n                /* \"#utility.yul\":2553:3712   */\n              swap3\n              pop\n              swap3\n              pop\n              swap3\n              jump\t// out\n                /* \"#utility.yul\":3718:3811   */\n            tag_117:\n                /* \"#utility.yul\":3754:3761   */\n              0x00\n                /* \"#utility.yul\":3794:3804   */\n              0xffffffff\n                /* \"#utility.yul\":3787:3792   */\n              dup3\n                /* \"#utility.yul\":3783:3805   */\n              and\n                /* \"#utility.yul\":3772:3805   */\n              swap1\n              pop\n                /* \"#utility.yul\":3718:3811   */\n              swap2\n              swap1\n              pop\n              jump\t// out\n                /* \"#utility.yul\":3817:3937   */\n            tag_118:\n                /* \"#utility.yul\":3889:3912   */\n              tag_193\n                /* \"#utility.yul\":3906:3911   */\n              dup2\n                /* \"#utility.yul\":3889:3912   */\n              tag_117\n              jump\t// in\n            tag_193:\n                /* \"#utility.yul\":3882:3887   */\n              dup2\n                /* \"#utility.yul\":3879:3913   */\n              eq\n                /* \"#utility.yul\":3869:3931   */\n              tag_194\n              jumpi\n                /* \"#utility.yul\":3927:3928   */\n              0x00\n                /* \"#utility.yul\":3924:3925   */\n              dup1\n                /* \"#utility.yul\":3917:3929   */\n              revert\n                /* \"#utility.yul\":3869:3931   */\n            tag_194:\n                /* \"#utility.yul\":3817:3937   */\n              pop\n              jump\t// out\n                /* \"#utility.yul\":3943:4080   */\n            tag_119:\n                /* \"#utility.yul\":3988:3993   */\n              0x00\n                /* \"#utility.yul\":4026:4032   */\n              dup2\n                /* \"#utility.yul\":4013:4033   */\n              calldataload\n                /* \"#utility.yul\":4004:4033   */\n              swap1\n              pop\n                /* \"#utility.yul\":4042:4074   */\n              tag_196\n                /* \"#utility.yul\":4068:4073   */\n              dup2\n                /* \"#utility.yul\":4042:4074   */\n              tag_118\n              jump\t// in\n            tag_196:\n                /* \"#utility.yul\":3943:4080   */\n              swap3\n              swap2\n              pop\n              pop\n              jump\t// out\n                /* \"#utility.yul\":4086:4738   */\n            tag_19:\n                /* \"#utility.yul\":4163:4169   */\n              0x00\n                /* \"#utility.yul\":4171:4177   */\n              dup1\n                /* \"#utility.yul\":4220:4222   */\n              0x40\n                /* \"#utility.yul\":4208:4217   */\n              dup4\n                /* \"#utility.yul\":4199:4206   */\n              dup6\n                /* \"#utility.yul\":4195:4218   */\n              sub\n                /* \"#utility.yul\":4191:4223   */\n              slt\n                /* \"#utility.yul\":4188:4307   */\n              iszero\n              tag_198\n              jumpi\n                /* \"#utility.yul\":4226:4305   */\n              tag_199\n              tag_105\n              jump\t// in\n            tag_199:\n                /* \"#utility.yul\":4188:4307   */\n            tag_198:\n                /* \"#utility.yul\":4374:4375   */\n              0x00\n                /* \"#utility.yul\":4363:4372   */\n              dup4\n                /* \"#utility.yul\":4359:4376   */\n              add\n                /* \"#utility.yul\":4346:4377   */\n              calldataload\n                /* \"#utility.yul\":4404:4422   */\n              0xffffffffffffffff\n                /* \"#utility.yul\":4396:4402   */\n              dup2\n                /* \"#utility.yul\":4393:4423   */\n              gt\n                /* \"#utility.yul\":4390:4507   */\n              iszero\n              tag_200\n              jumpi\n                /* \"#utility.yul\":4426:4505   */\n              tag_201\n              tag_106\n              jump\t// in\n            tag_201:\n                /* \"#utility.yul\":4390:4507   */\n            tag_200:\n                /* \"#utility.yul\":4531:4594   */\n              tag_202\n                /* \"#utility.yul\":4586:4593   */\n              dup6\n                /* \"#utility.yul\":4577:4583   */\n              dup3\n                /* \"#utility.yul\":4566:4575   */\n              dup7\n                /* \"#utility.yul\":4562:4584   */\n              add\n                /* \"#utility.yul\":4531:4594   */\n              tag_116\n              jump\t// in\n            tag_202:\n                /* \"#utility.yul\":4521:4594   */\n              swap3\n              pop\n                /* \"#utility.yul\":4317:4604   */\n              pop\n                /* \"#utility.yul\":4643:4645   */\n              0x20\n                /* \"#utility.yul\":4669:4721   */\n              tag_203\n                /* \"#utility.yul\":4713:4720   */\n              dup6\n                /* \"#utility.yul\":4704:4710   */\n              dup3\n                /* \"#utility.yul\":4693:4702   */\n              dup7\n                /* \"#utility.yul\":4689:4711   */\n              add\n                /* \"#utility.yul\":4669:4721   */\n              tag_119\n              jump\t// in\n            tag_203:\n                /* \"#utility.yul\":4659:4721   */\n              swap2\n              pop\n                /* \"#utility.yul\":4614:4731   */\n              pop\n                /* \"#utility.yul\":4086:4738   */\n              swap3\n              pop\n              swap3\n              swap1\n              pop\n              jump\t// out\n                /* \"#utility.yul\":4744:4834   */\n            tag_120:\n                /* \"#utility.yul\":4778:4785   */\n              0x00\n                /* \"#utility.yul\":4821:4826   */\n              dup2\n                /* \"#utility.yul\":4814:4827   */\n              iszero\n                /* \"#utility.yul\":4807:4828   */\n              iszero\n                /* \"#utility.yul\":4796:4828   */\n              swap1\n              pop\n                /* \"#utility.yul\":4744:4834   */\n              swap2\n              swap1\n              pop\n              jump\t// out\n                /* \"#utility.yul\":4840:4949   */\n            tag_121:\n                /* \"#utility.yul\":4921:4942   */\n              tag_206\n                /* \"#utility.yul\":4936:4941   */\n              dup2\n                /* \"#utility.yul\":4921:4942   */\n              tag_120\n              jump\t// in\n            tag_206:\n                /* \"#utility.yul\":4916:4919   */\n              dup3\n                /* \"#utility.yul\":4909:4943   */\n              mstore\n                /* \"#utility.yul\":4840:4949   */\n              pop\n              pop\n              jump\t// out\n                /* \"#utility.yul\":4955:5165   */\n            tag_22:\n                /* \"#utility.yul\":5042:5046   */\n              0x00\n                /* \"#utility.yul\":5080:5082   */\n              0x20\n                /* \"#utility.yul\":5069:5078   */\n              dup3\n                /* \"#utility.yul\":5065:5083   */\n              add\n                /* \"#utility.yul\":5057:5083   */\n              swap1\n              pop\n                /* \"#utility.yul\":5093:5158   */\n              tag_208\n                /* \"#utility.yul\":5155:5156   */\n              0x00\n                /* \"#utility.yul\":5144:5153   */\n              dup4\n                /* \"#utility.yul\":5140:5157   */\n              add\n                /* \"#utility.yul\":5131:5137   */\n              dup5\n                /* \"#utility.yul\":5093:5158   */\n              tag_121\n              jump\t// in\n            tag_208:\n                /* \"#utility.yul\":4955:5165   */\n              swap3\n              swap2\n              pop\n              pop\n              jump\t// out\n                /* \"#utility.yul\":5171:5680   */\n            tag_28:\n                /* \"#utility.yul\":5240:5246   */\n              0x00\n                /* \"#utility.yul\":5289:5291   */\n              0x20\n                /* \"#utility.yul\":5277:5286   */\n              dup3\n                /* \"#utility.yul\":5268:5275   */\n              dup5\n                /* \"#utility.yul\":5264:5287   */\n              sub\n                /* \"#utility.yul\":5260:5292   */\n              slt\n                /* \"#utility.yul\":5257:5376   */\n              iszero\n              tag_210\n              jumpi\n                /* \"#utility.yul\":5295:5374   */\n              tag_211\n              tag_105\n              jump\t// in\n            tag_211:\n                /* \"#utility.yul\":5257:5376   */\n            tag_210:\n                /* \"#utility.yul\":5443:5444   */\n              0x00\n                /* \"#utility.yul\":5432:5441   */\n              dup3\n                /* \"#utility.yul\":5428:5445   */\n              add\n                /* \"#utility.yul\":5415:5446   */\n              calldataload\n                /* \"#utility.yul\":5473:5491   */\n              0xffffffffffffffff\n                /* \"#utility.yul\":5465:5471   */\n              dup2\n                /* \"#utility.yul\":5462:5492   */\n              gt\n                /* \"#utility.yul\":5459:5576   */\n              iszero\n              tag_212\n              jumpi\n                /* \"#utility.yul\":5495:5574   */\n              tag_213\n              tag_106\n              jump\t// in\n            tag_213:\n                /* \"#utility.yul\":5459:5576   */\n            tag_212:\n                /* \"#utility.yul\":5600:5663   */\n              tag_214\n                /* \"#utility.yul\":5655:5662   */\n              dup5\n                /* \"#utility.yul\":5646:5652   */\n              dup3\n                /* \"#utility.yul\":5635:5644   */\n              dup6\n                /* \"#utility.yul\":5631:5653   */\n              add\n                /* \"#utility.yul\":5600:5663   */\n              tag_116\n              jump\t// in\n            tag_214:\n                /* \"#utility.yul\":5590:5663   */\n              swap2\n              pop\n                /* \"#utility.yul\":5386:5673   */\n              pop\n                /* \"#utility.yul\":5171:5680   */\n              swap3\n              swap2\n              pop\n              pop\n              jump\t// out\n                /* \"#utility.yul\":5686:5785   */\n            tag_122:\n                /* \"#utility.yul\":5738:5744   */\n              0x00\n                /* \"#utility.yul\":5772:5777   */\n              dup2\n                /* \"#utility.yul\":5766:5778   */\n              mload\n                /* \"#utility.yul\":5756:5778   */\n              swap1\n              pop\n                /* \"#utility.yul\":5686:5785   */\n              swap2\n              swap1\n              pop\n              jump\t// out\n                /* \"#utility.yul\":5791:5960   */\n            tag_123:\n                /* \"#utility.yul\":5875:5886   */\n              0x00\n                /* \"#utility.yul\":5909:5915   */\n              dup3\n                /* \"#utility.yul\":5904:5907   */\n              dup3\n                /* \"#utility.yul\":5897:5916   */\n              mstore\n                /* \"#utility.yul\":5949:5953   */\n              0x20\n                /* \"#utility.yul\":5944:5947   */\n              dup3\n                /* \"#utility.yul\":5940:5954   */\n              add\n                /* \"#utility.yul\":5925:5954   */\n              swap1\n              pop\n                /* \"#utility.yul\":5791:5960   */\n              swap3\n              swap2\n              pop\n              pop\n              jump\t// out\n                /* \"#utility.yul\":5966:6212   */\n            tag_124:\n                /* \"#utility.yul\":6047:6048   */\n              0x00\n                /* \"#utility.yul\":6057:6170   */\n            tag_218:\n                /* \"#utility.yul\":6071:6077   */\n              dup4\n                /* \"#utility.yul\":6068:6069   */\n              dup2\n                /* \"#utility.yul\":6065:6078   */\n              lt\n                /* \"#utility.yul\":6057:6170   */\n              iszero\n              tag_220\n              jumpi\n                /* \"#utility.yul\":6156:6157   */\n              dup1\n                /* \"#utility.yul\":6151:6154   */\n              dup3\n                /* \"#utility.yul\":6147:6158   */\n              add\n                /* \"#utility.yul\":6141:6159   */\n              mload\n                /* \"#utility.yul\":6137:6138   */\n              dup2\n                /* \"#utility.yul\":6132:6135   */\n              dup5\n                /* \"#utility.yul\":6128:6139   */\n              add\n                /* \"#utility.yul\":6121:6160   */\n              mstore\n                /* \"#utility.yul\":6093:6095   */\n              0x20\n                /* \"#utility.yul\":6090:6091   */\n              dup2\n                /* \"#utility.yul\":6086:6096   */\n              add\n                /* \"#utility.yul\":6081:6096   */\n              swap1\n              pop\n                /* \"#utility.yul\":6057:6170   */\n              jump(tag_218)\n            tag_220:\n                /* \"#utility.yul\":6204:6205   */\n              0x00\n                /* \"#utility.yul\":6195:6201   */\n              dup5\n                /* \"#utility.yul\":6190:6193   */\n              dup5\n                /* \"#utility.yul\":6186:6202   */\n              add\n                /* \"#utility.yul\":6179:6206   */\n              mstore\n                /* \"#utility.yul\":6028:6212   */\n              pop\n                /* \"#utility.yul\":5966:6212   */\n              pop\n              pop\n              pop\n              jump\t// out\n                /* \"#utility.yul\":6218:6595   */\n            tag_125:\n                /* \"#utility.yul\":6306:6309   */\n              0x00\n                /* \"#utility.yul\":6334:6373   */\n              tag_222\n                /* \"#utility.yul\":6367:6372   */\n              dup3\n                /* \"#utility.yul\":6334:6373   */\n              tag_122\n              jump\t// in\n            tag_222:\n                /* \"#utility.yul\":6389:6460   */\n              tag_223\n                /* \"#utility.yul\":6453:6459   */\n              dup2\n                /* \"#utility.yul\":6448:6451   */\n              dup6\n                /* \"#utility.yul\":6389:6460   */\n              tag_123\n              jump\t// in\n            tag_223:\n                /* \"#utility.yul\":6382:6460   */\n              swap4\n              pop\n                /* \"#utility.yul\":6469:6534   */\n              tag_224\n                /* \"#utility.yul\":6527:6533   */\n              dup2\n                /* \"#utility.yul\":6522:6525   */\n              dup6\n                /* \"#utility.yul\":6515:6519   */\n              0x20\n                /* \"#utility.yul\":6508:6513   */\n              dup7\n                /* \"#utility.yul\":6504:6520   */\n              add\n                /* \"#utility.yul\":6469:6534   */\n              tag_124\n              jump\t// in\n            tag_224:\n                /* \"#utility.yul\":6559:6588   */\n              tag_225\n                /* \"#utility.yul\":6581:6587   */\n              dup2\n                /* \"#utility.yul\":6559:6588   */\n              tag_109\n              jump\t// in\n            tag_225:\n                /* \"#utility.yul\":6554:6557   */\n              dup5\n                /* \"#utility.yul\":6550:6589   */\n              add\n                /* \"#utility.yul\":6543:6589   */\n              swap2\n              pop\n                /* \"#utility.yul\":6310:6595   */\n              pop\n                /* \"#utility.yul\":6218:6595   */\n              swap3\n              swap2\n              pop\n              pop\n              jump\t// out\n                /* \"#utility.yul\":6601:6716   */\n            tag_126:\n                /* \"#utility.yul\":6686:6709   */\n              tag_227\n                /* \"#utility.yul\":6703:6708   */\n              dup2\n                /* \"#utility.yul\":6686:6709   */\n              tag_117\n              jump\t// in\n            tag_227:\n                /* \"#utility.yul\":6681:6684   */\n              dup3\n                /* \"#utility.yul\":6674:6710   */\n              mstore\n                /* \"#utility.yul\":6601:6716   */\n              pop\n              pop\n              jump\t// out\n                /* \"#utility.yul\":6722:7544   */\n            tag_35:\n                /* \"#utility.yul\":6957:6961   */\n              0x00\n                /* \"#utility.yul\":6995:6998   */\n              0x80\n                /* \"#utility.yul\":6984:6993   */\n              dup3\n                /* \"#utility.yul\":6980:6999   */\n              add\n                /* \"#utility.yul\":6972:6999   */\n              swap1\n              pop\n                /* \"#utility.yul\":7045:7054   */\n              dup2\n                /* \"#utility.yul\":7039:7043   */\n              dup2\n                /* \"#utility.yul\":7035:7055   */\n              sub\n                /* \"#utility.yul\":7031:7032   */\n              0x00\n                /* \"#utility.yul\":7020:7029   */\n              dup4\n                /* \"#utility.yul\":7016:7033   */\n              add\n                /* \"#utility.yul\":7009:7056   */\n              mstore\n                /* \"#utility.yul\":7073:7151   */\n              tag_229\n                /* \"#utility.yul\":7146:7150   */\n              dup2\n                /* \"#utility.yul\":7137:7143   */\n              dup8\n                /* \"#utility.yul\":7073:7151   */\n              tag_125\n              jump\t// in\n            tag_229:\n                /* \"#utility.yul\":7065:7151   */\n              swap1\n              pop\n                /* \"#utility.yul\":7198:7207   */\n              dup2\n                /* \"#utility.yul\":7192:7196   */\n              dup2\n                /* \"#utility.yul\":7188:7208   */\n              sub\n                /* \"#utility.yul\":7183:7185   */\n              0x20\n                /* \"#utility.yul\":7172:7181   */\n              dup4\n                /* \"#utility.yul\":7168:7186   */\n              add\n                /* \"#utility.yul\":7161:7209   */\n              mstore\n                /* \"#utility.yul\":7226:7304   */\n              tag_230\n                /* \"#utility.yul\":7299:7303   */\n              dup2\n                /* \"#utility.yul\":7290:7296   */\n              dup7\n                /* \"#utility.yul\":7226:7304   */\n              tag_125\n              jump\t// in\n            tag_230:\n                /* \"#utility.yul\":7218:7304   */\n              swap1\n              pop\n                /* \"#utility.yul\":7351:7360   */\n              dup2\n                /* \"#utility.yul\":7345:7349   */\n              dup2\n                /* \"#utility.yul\":7341:7361   */\n              sub\n                /* \"#utility.yul\":7336:7338   */\n              0x40\n                /* \"#utility.yul\":7325:7334   */\n              dup4\n                /* \"#utility.yul\":7321:7339   */\n              add\n                /* \"#utility.yul\":7314:7362   */\n              mstore\n                /* \"#utility.yul\":7379:7457   */\n              tag_231\n                /* \"#utility.yul\":7452:7456   */\n              dup2\n                /* \"#utility.yul\":7443:7449   */\n              dup6\n                /* \"#utility.yul\":7379:7457   */\n              tag_125\n              jump\t// in\n            tag_231:\n                /* \"#utility.yul\":7371:7457   */\n              swap1\n              pop\n                /* \"#utility.yul\":7467:7537   */\n              tag_232\n                /* \"#utility.yul\":7533:7535   */\n              0x60\n                /* \"#utility.yul\":7522:7531   */\n              dup4\n                /* \"#utility.yul\":7518:7536   */\n              add\n                /* \"#utility.yul\":7509:7515   */\n              dup5\n                /* \"#utility.yul\":7467:7537   */\n              tag_126\n              jump\t// in\n            tag_232:\n                /* \"#utility.yul\":6722:7544   */\n              swap6\n              swap5\n              pop\n              pop\n              pop\n              pop\n              pop\n              jump\t// out\n                /* \"#utility.yul\":7550:8384   */\n            tag_38:\n                /* \"#utility.yul\":7638:7644   */\n              0x00\n                /* \"#utility.yul\":7646:7652   */\n              dup1\n                /* \"#utility.yul\":7695:7697   */\n              0x40\n                /* \"#utility.yul\":7683:7692   */\n              dup4\n                /* \"#utility.yul\":7674:7681   */\n              dup6\n                /* \"#utility.yul\":7670:7693   */\n              sub\n                /* \"#utility.yul\":7666:7698   */\n              slt\n                /* \"#utility.yul\":7663:7782   */\n              iszero\n              tag_234\n              jumpi\n                /* \"#utility.yul\":7701:7780   */\n              tag_235\n              tag_105\n              jump\t// in\n            tag_235:\n                /* \"#utility.yul\":7663:7782   */\n            tag_234:\n                /* \"#utility.yul\":7849:7850   */\n              0x00\n                /* \"#utility.yul\":7838:7847   */\n              dup4\n                /* \"#utility.yul\":7834:7851   */\n              add\n                /* \"#utility.yul\":7821:7852   */\n              calldataload\n                /* \"#utility.yul\":7879:7897   */\n              0xffffffffffffffff\n                /* \"#utility.yul\":7871:7877   */\n              dup2\n                /* \"#utility.yul\":7868:7898   */\n              gt\n                /* \"#utility.yul\":7865:7982   */\n              iszero\n              tag_236\n              jumpi\n                /* \"#utility.yul\":7901:7980   */\n              tag_237\n              tag_106\n              jump\t// in\n            tag_237:\n                /* \"#utility.yul\":7865:7982   */\n            tag_236:\n                /* \"#utility.yul\":8006:8069   */\n              tag_238\n                /* \"#utility.yul\":8061:8068   */\n              dup6\n                /* \"#utility.yul\":8052:8058   */\n              dup3\n                /* \"#utility.yul\":8041:8050   */\n              dup7\n                /* \"#utility.yul\":8037:8059   */\n              add\n                /* \"#utility.yul\":8006:8069   */\n              tag_116\n              jump\t// in\n            tag_238:\n                /* \"#utility.yul\":7996:8069   */\n              swap3\n              pop\n                /* \"#utility.yul\":7792:8079   */\n              pop\n                /* \"#utility.yul\":8146:8148   */\n              0x20\n                /* \"#utility.yul\":8135:8144   */\n              dup4\n                /* \"#utility.yul\":8131:8149   */\n              add\n                /* \"#utility.yul\":8118:8150   */\n              calldataload\n                /* \"#utility.yul\":8177:8195   */\n              0xffffffffffffffff\n                /* \"#utility.yul\":8169:8175   */\n              dup2\n                /* \"#utility.yul\":8166:8196   */\n              gt\n                /* \"#utility.yul\":8163:8280   */\n              iszero\n              tag_239\n              jumpi\n                /* \"#utility.yul\":8199:8278   */\n              tag_240\n              tag_106\n              jump\t// in\n            tag_240:\n                /* \"#utility.yul\":8163:8280   */\n            tag_239:\n                /* \"#utility.yul\":8304:8367   */\n              tag_241\n                /* \"#utility.yul\":8359:8366   */\n              dup6\n                /* \"#utility.yul\":8350:8356   */\n              dup3\n                /* \"#utility.yul\":8339:8348   */\n              dup7\n                /* \"#utility.yul\":8335:8357   */\n              add\n                /* \"#utility.yul\":8304:8367   */\n              tag_116\n              jump\t// in\n            tag_241:\n                /* \"#utility.yul\":8294:8367   */\n              swap2\n              pop\n                /* \"#utility.yul\":8089:8377   */\n              pop\n                /* \"#utility.yul\":7550:8384   */\n              swap3\n              pop\n              swap3\n              swap1\n              pop\n              jump\t// out\n                /* \"#utility.yul\":8390:8801   */\n            tag_44:\n                /* \"#utility.yul\":8525:8529   */\n              0x00\n                /* \"#utility.yul\":8563:8565   */\n              0x40\n                /* \"#utility.yul\":8552:8561   */\n              dup3\n                /* \"#utility.yul\":8548:8566   */\n              add\n                /* \"#utility.yul\":8540:8566   */\n              swap1\n              pop\n                /* \"#utility.yul\":8612:8621   */\n              dup2\n                /* \"#utility.yul\":8606:8610   */\n              dup2\n                /* \"#utility.yul\":8602:8622   */\n              sub\n                /* \"#utility.yul\":8598:8599   */\n              0x00\n                /* \"#utility.yul\":8587:8596   */\n              dup4\n                /* \"#utility.yul\":8583:8600   */\n              add\n                /* \"#utility.yul\":8576:8623   */\n              mstore\n                /* \"#utility.yul\":8640:8718   */\n              tag_243\n                /* \"#utility.yul\":8713:8717   */\n              dup2\n                /* \"#utility.yul\":8704:8710   */\n              dup6\n                /* \"#utility.yul\":8640:8718   */\n              tag_125\n              jump\t// in\n            tag_243:\n                /* \"#utility.yul\":8632:8718   */\n              swap1\n              pop\n                /* \"#utility.yul\":8728:8794   */\n              tag_244\n                /* \"#utility.yul\":8790:8792   */\n              0x20\n                /* \"#utility.yul\":8779:8788   */\n              dup4\n                /* \"#utility.yul\":8775:8793   */\n              add\n                /* \"#utility.yul\":8766:8772   */\n              dup5\n                /* \"#utility.yul\":8728:8794   */\n              tag_121\n              jump\t// in\n            tag_244:\n                /* \"#utility.yul\":8390:8801   */\n              swap4\n              swap3\n              pop\n              pop\n              pop\n              jump\t// out\n                /* \"#utility.yul\":8807:8933   */\n            tag_127:\n                /* \"#utility.yul\":8844:8851   */\n              0x00\n                /* \"#utility.yul\":8884:8926   */\n              0xffffffffffffffffffffffffffffffffffffffff\n                /* \"#utility.yul\":8877:8882   */\n              dup3\n                /* \"#utility.yul\":8873:8927   */\n              and\n                /* \"#utility.yul\":8862:8927   */\n              swap1\n              pop\n                /* \"#utility.yul\":8807:8933   */\n              swap2\n              swap1\n              pop\n              jump\t// out\n                /* \"#utility.yul\":8939:9035   */\n            tag_128:\n                /* \"#utility.yul\":8976:8983   */\n              0x00\n                /* \"#utility.yul\":9005:9029   */\n              tag_247\n                /* \"#utility.yul\":9023:9028   */\n              dup3\n                /* \"#utility.yul\":9005:9029   */\n              tag_127\n              jump\t// in\n            tag_247:\n                /* \"#utility.yul\":8994:9029   */\n              swap1\n              pop\n                /* \"#utility.yul\":8939:9035   */\n              swap2\n              swap1\n              pop\n              jump\t// out\n                /* \"#utility.yul\":9041:9159   */\n            tag_129:\n                /* \"#utility.yul\":9128:9152   */\n              tag_249\n                /* \"#utility.yul\":9146:9151   */\n              dup2\n                /* \"#utility.yul\":9128:9152   */\n              tag_128\n              jump\t// in\n            tag_249:\n                /* \"#utility.yul\":9123:9126   */\n              dup3\n                /* \"#utility.yul\":9116:9153   */\n              mstore\n                /* \"#utility.yul\":9041:9159   */\n              pop\n              pop\n              jump\t// out\n                /* \"#utility.yul\":9165:9588   */\n            tag_52:\n                /* \"#utility.yul\":9306:9310   */\n              0x00\n                /* \"#utility.yul\":9344:9346   */\n              0x40\n                /* \"#utility.yul\":9333:9342   */\n              dup3\n                /* \"#utility.yul\":9329:9347   */\n              add\n                /* \"#utility.yul\":9321:9347   */\n              swap1\n              pop\n                /* \"#utility.yul\":9393:9402   */\n              dup2\n                /* \"#utility.yul\":9387:9391   */\n              dup2\n                /* \"#utility.yul\":9383:9403   */\n              sub\n                /* \"#utility.yul\":9379:9380   */\n              0x00\n                /* \"#utility.yul\":9368:9377   */\n              dup4\n                /* \"#utility.yul\":9364:9381   */\n              add\n                /* \"#utility.yul\":9357:9404   */\n              mstore\n                /* \"#utility.yul\":9421:9499   */\n              tag_251\n                /* \"#utility.yul\":9494:9498   */\n              dup2\n                /* \"#utility.yul\":9485:9491   */\n              dup6\n                /* \"#utility.yul\":9421:9499   */\n              tag_125\n              jump\t// in\n            tag_251:\n                /* \"#utility.yul\":9413:9499   */\n              swap1\n              pop\n                /* \"#utility.yul\":9509:9581   */\n              tag_252\n                /* \"#utility.yul\":9577:9579   */\n              0x20\n                /* \"#utility.yul\":9566:9575   */\n              dup4\n                /* \"#utility.yul\":9562:9580   */\n              add\n                /* \"#utility.yul\":9553:9559   */\n              dup5\n                /* \"#utility.yul\":9509:9581   */\n              tag_129\n              jump\t// in\n            tag_252:\n                /* \"#utility.yul\":9165:9588   */\n              swap4\n              swap3\n              pop\n              pop\n              pop\n              jump\t// out\n                /* \"#utility.yul\":9594:9742   */\n            tag_130:\n                /* \"#utility.yul\":9696:9707   */\n              0x00\n                /* \"#utility.yul\":9733:9736   */\n              dup2\n                /* \"#utility.yul\":9718:9736   */\n              swap1\n              pop\n                /* \"#utility.yul\":9594:9742   */\n              swap3\n              swap2\n              pop\n              pop\n              jump\t// out\n                /* \"#utility.yul\":9748:10138   */\n            tag_131:\n                /* \"#utility.yul\":9854:9857   */\n              0x00\n                /* \"#utility.yul\":9882:9921   */\n              tag_255\n                /* \"#utility.yul\":9915:9920   */\n              dup3\n                /* \"#utility.yul\":9882:9921   */\n              tag_122\n              jump\t// in\n            tag_255:\n                /* \"#utility.yul\":9937:10026   */\n              tag_256\n                /* \"#utility.yul\":10019:10025   */\n              dup2\n                /* \"#utility.yul\":10014:10017   */\n              dup6\n                /* \"#utility.yul\":9937:10026   */\n              tag_130\n              jump\t// in\n            tag_256:\n                /* \"#utility.yul\":9930:10026   */\n              swap4\n              pop\n                /* \"#utility.yul\":10035:10100   */\n              tag_257\n                /* \"#utility.yul\":10093:10099   */\n              dup2\n                /* \"#utility.yul\":10088:10091   */\n              dup6\n                /* \"#utility.yul\":10081:10085   */\n              0x20\n                /* \"#utility.yul\":10074:10079   */\n              dup7\n                /* \"#utility.yul\":10070:10086   */\n              add\n                /* \"#utility.yul\":10035:10100   */\n              tag_124\n              jump\t// in\n            tag_257:\n                /* \"#utility.yul\":10125:10131   */\n              dup1\n                /* \"#utility.yul\":10120:10123   */\n              dup5\n                /* \"#utility.yul\":10116:10132   */\n              add\n                /* \"#utility.yul\":10109:10132   */\n              swap2\n              pop\n                /* \"#utility.yul\":9858:10138   */\n              pop\n                /* \"#utility.yul\":9748:10138   */\n              swap3\n              swap2\n              pop\n              pop\n              jump\t// out\n                /* \"#utility.yul\":10144:10419   */\n            tag_55:\n                /* \"#utility.yul\":10276:10279   */\n              0x00\n                /* \"#utility.yul\":10298:10393   */\n              tag_259\n                /* \"#utility.yul\":10389:10392   */\n              dup3\n                /* \"#utility.yul\":10380:10386   */\n              dup5\n                /* \"#utility.yul\":10298:10393   */\n              tag_131\n              jump\t// in\n            tag_259:\n                /* \"#utility.yul\":10291:10393   */\n              swap2\n              pop\n                /* \"#utility.yul\":10410:10413   */\n              dup2\n                /* \"#utility.yul\":10403:10413   */\n              swap1\n              pop\n                /* \"#utility.yul\":10144:10419   */\n              swap3\n              swap2\n              pop\n              pop\n              jump\t// out\n                /* \"#utility.yul\":10425:10605   */\n            tag_132:\n                /* \"#utility.yul\":10473:10550   */\n              0x4e487b7100000000000000000000000000000000000000000000000000000000\n                /* \"#utility.yul\":10470:10471   */\n              0x00\n                /* \"#utility.yul\":10463:10551   */\n              mstore\n                /* \"#utility.yul\":10570:10574   */\n              0x22\n                /* \"#utility.yul\":10567:10568   */\n              0x04\n                /* \"#utility.yul\":10560:10575   */\n              mstore\n                /* \"#utility.yul\":10594:10598   */\n              0x24\n                /* \"#utility.yul\":10591:10592   */\n              0x00\n                /* \"#utility.yul\":10584:10599   */\n              revert\n                /* \"#utility.yul\":10611:10931   */\n            tag_72:\n                /* \"#utility.yul\":10655:10661   */\n              0x00\n                /* \"#utility.yul\":10692:10693   */\n              0x02\n                /* \"#utility.yul\":10686:10690   */\n              dup3\n                /* \"#utility.yul\":10682:10694   */\n              div\n                /* \"#utility.yul\":10672:10694   */\n              swap1\n              pop\n                /* \"#utility.yul\":10739:10740   */\n              0x01\n                /* \"#utility.yul\":10733:10737   */\n              dup3\n                /* \"#utility.yul\":10729:10741   */\n              and\n                /* \"#utility.yul\":10760:10778   */\n              dup1\n                /* \"#utility.yul\":10750:10831   */\n              tag_262\n              jumpi\n                /* \"#utility.yul\":10816:10820   */\n              0x7f\n                /* \"#utility.yul\":10808:10814   */\n              dup3\n                /* \"#utility.yul\":10804:10821   */\n              and\n                /* \"#utility.yul\":10794:10821   */\n              swap2\n              pop\n                /* \"#utility.yul\":10750:10831   */\n            tag_262:\n                /* \"#utility.yul\":10878:10880   */\n              0x20\n                /* \"#utility.yul\":10870:10876   */\n              dup3\n                /* \"#utility.yul\":10867:10881   */\n              lt\n                /* \"#utility.yul\":10847:10865   */\n              dup2\n                /* \"#utility.yul\":10844:10882   */\n              sub\n                /* \"#utility.yul\":10841:10925   */\n              tag_263\n              jumpi\n                /* \"#utility.yul\":10897:10915   */\n              tag_264\n              tag_132\n              jump\t// in\n            tag_264:\n                /* \"#utility.yul\":10841:10925   */\n            tag_263:\n                /* \"#utility.yul\":10662:10931   */\n              pop\n                /* \"#utility.yul\":10611:10931   */\n              swap2\n              swap1\n              pop\n              jump\t// out\n                /* \"#utility.yul\":10937:11078   */\n            tag_133:\n                /* \"#utility.yul\":10986:10990   */\n              0x00\n                /* \"#utility.yul\":11009:11012   */\n              dup2\n                /* \"#utility.yul\":11001:11012   */\n              swap1\n              pop\n                /* \"#utility.yul\":11032:11035   */\n              dup2\n                /* \"#utility.yul\":11029:11030   */\n              0x00\n                /* \"#utility.yul\":11022:11036   */\n              mstore\n                /* \"#utility.yul\":11066:11070   */\n              0x20\n                /* \"#utility.yul\":11063:11064   */\n              0x00\n                /* \"#utility.yul\":11053:11071   */\n              keccak256\n                /* \"#utility.yul\":11045:11071   */\n              swap1\n              pop\n                /* \"#utility.yul\":10937:11078   */\n              swap2\n              swap1\n              pop\n              jump\t// out\n                /* \"#utility.yul\":11084:11177   */\n            tag_134:\n                /* \"#utility.yul\":11121:11127   */\n              0x00\n                /* \"#utility.yul\":11168:11170   */\n              0x20\n                /* \"#utility.yul\":11163:11165   */\n              0x1f\n                /* \"#utility.yul\":11156:11161   */\n              dup4\n                /* \"#utility.yul\":11152:11166   */\n              add\n                /* \"#utility.yul\":11148:11171   */\n              div\n                /* \"#utility.yul\":11138:11171   */\n              swap1\n              pop\n                /* \"#utility.yul\":11084:11177   */\n              swap2\n              swap1\n              pop\n              jump\t// out\n                /* \"#utility.yul\":11183:11290   */\n            tag_135:\n                /* \"#utility.yul\":11227:11235   */\n              0x00\n                /* \"#utility.yul\":11277:11282   */\n              dup3\n                /* \"#utility.yul\":11271:11275   */\n              dup3\n                /* \"#utility.yul\":11267:11283   */\n              shl\n                /* \"#utility.yul\":11246:11283   */\n              swap1\n              pop\n                /* \"#utility.yul\":11183:11290   */\n              swap3\n              swap2\n              pop\n              pop\n              jump\t// out\n                /* \"#utility.yul\":11296:11689   */\n            tag_136:\n                /* \"#utility.yul\":11365:11371   */\n              0x00\n                /* \"#utility.yul\":11415:11416   */\n              0x08\n                /* \"#utility.yul\":11403:11413   */\n              dup4\n                /* \"#utility.yul\":11399:11417   */\n              mul\n                /* \"#utility.yul\":11438:11535   */\n              tag_269\n                /* \"#utility.yul\":11468:11534   */\n              0xffffffffffffffffffffffffffffffffffffffffffffffffffffffffffffffff\n                /* \"#utility.yul\":11457:11466   */\n              dup3\n                /* \"#utility.yul\":11438:11535   */\n              tag_135\n              jump\t// in\n            tag_269:\n                /* \"#utility.yul\":11556:11595   */\n              tag_270\n                /* \"#utility.yul\":11586:11594   */\n              dup7\n                /* \"#utility.yul\":11575:11584   */\n              dup4\n                /* \"#utility.yul\":11556:11595   */\n              tag_135\n              jump\t// in\n            tag_270:\n                /* \"#utility.yul\":11544:11595   */\n              swap6\n              pop\n                /* \"#utility.yul\":11628:11632   */\n              dup1\n                /* \"#utility.yul\":11624:11633   */\n              not\n                /* \"#utility.yul\":11617:11622   */\n              dup5\n                /* \"#utility.yul\":11613:11634   */\n              and\n                /* \"#utility.yul\":11604:11634   */\n              swap4\n              pop\n                /* \"#utility.yul\":11677:11681   */\n              dup1\n                /* \"#utility.yul\":11667:11675   */\n              dup7\n                /* \"#utility.yul\":11663:11682   */\n              and\n                /* \"#utility.yul\":11656:11661   */\n              dup5\n                /* \"#utility.yul\":11653:11683   */\n              or\n                /* \"#utility.yul\":11643:11683   */\n              swap3\n              pop\n                /* \"#utility.yul\":11372:11689   */\n              pop\n              pop\n                /* \"#utility.yul\":11296:11689   */\n              swap4\n              swap3\n              pop\n              pop\n              pop\n              jump\t// out\n                /* \"#utility.yul\":11695:11772   */\n            tag_137:\n                /* \"#utility.yul\":11732:11739   */\n              0x00\n                /* \"#utility.yul\":11761:11766   */\n              dup2\n                /* \"#utility.yul\":11750:11766   */\n              swap1\n              pop\n                /* \"#utility.yul\":11695:11772   */\n              swap2\n              swap1\n              pop\n              jump\t// out\n                /* \"#utility.yul\":11778:11838   */\n            tag_138:\n                /* \"#utility.yul\":11806:11809   */\n              0x00\n                /* \"#utility.yul\":11827:11832   */\n              dup2\n                /* \"#utility.yul\":11820:11832   */\n              swap1\n              pop\n                /* \"#utility.yul\":11778:11838   */\n              swap2\n              swap1\n              pop\n              jump\t// out\n                /* \"#utility.yul\":11844:11986   */\n            tag_139:\n                /* \"#utility.yul\":11894:11903   */\n              0x00\n                /* \"#utility.yul\":11927:11980   */\n              tag_274\n                /* \"#utility.yul\":11945:11979   */\n              tag_275\n                /* \"#utility.yul\":11954:11978   */\n              tag_276\n                /* \"#utility.yul\":11972:11977   */\n              dup5\n                /* \"#utility.yul\":11954:11978   */\n              tag_137\n              jump\t// in\n            tag_276:\n                /* \"#utility.yul\":11945:11979   */\n              tag_138\n              jump\t// in\n            tag_275:\n                /* \"#utility.yul\":11927:11980   */\n              tag_137\n              jump\t// in\n            tag_274:\n                /* \"#utility.yul\":11914:11980   */\n              swap1\n              pop\n                /* \"#utility.yul\":11844:11986   */\n              swap2\n              swap1\n              pop\n              jump\t// out\n                /* \"#utility.yul\":11992:12067   */\n            tag_140:\n                /* \"#utility.yul\":12035:12038   */\n              0x00\n                /* \"#utility.yul\":12056:12061   */\n              dup2\n                /* \"#utility.yul\":12049:12061   */\n              swap1\n              pop\n                /* \"#utility.yul\":11992:12067   */\n              swap2\n              swap1\n              pop\n              jump\t// out\n                /* \"#utility.yul\":12073:12342   */\n            tag_141:\n                /* \"#utility.yul\":12183:12222   */\n              tag_279\n                /* \"#utility.yul\":12214:12221   */\n              dup4\n                /* \"#utility.yul\":12183:12222   */\n              tag_139\n              jump\t// in\n            tag_279:\n                /* \"#utility.yul\":12244:12335   */\n              tag_280\n                /* \"#utility.yul\":12293:12334   */\n              tag_281\n                /* \"#utility.yul\":12317:12333   */\n              dup3\n                /* \"#utility.yul\":12293:12334   */\n              tag_140\n              jump\t// in\n            tag_281:\n                /* \"#utility.yul\":12285:12291   */\n              dup5\n                /* \"#utility.yul\":12278:12282   */\n              dup5\n                /* \"#utility.yul\":12272:12283   */\n              sload\n                /* \"#utility.yul\":12244:12335   */\n              tag_136\n              jump\t// in\n            tag_280:\n                /* \"#utility.yul\":12238:12242   */\n              dup3\n                /* \"#utility.yul\":12231:12336   */\n              sstore\n                /* \"#utility.yul\":12149:12342   */\n              pop\n                /* \"#utility.yul\":12073:12342   */\n              pop\n              pop\n              pop\n              jump\t// out\n                /* \"#utility.yul\":12348:12421   */\n            tag_142:\n                /* \"#utility.yul\":12393:12396   */\n              0x00\n                /* \"#utility.yul\":12348:12421   */\n              swap1\n              jump\t// out\n                /* \"#utility.yul\":12427:12616   */\n            tag_143:\n                /* \"#utility.yul\":12504:12536   */\n              tag_284\n              tag_142\n              jump\t// in\n            tag_284:\n                /* \"#utility.yul\":12545:12610   */\n              tag_285\n                /* \"#utility.yul\":12603:12609   */\n              dup2\n                /* \"#utility.yul\":12595:12601   */\n              dup5\n                /* \"#utility.yul\":12589:12593   */\n              dup5\n                /* \"#utility.yul\":12545:12610   */\n              tag_141\n              jump\t// in\n            tag_285:\n                /* \"#utility.yul\":12480:12616   */\n              pop\n                /* \"#utility.yul\":12427:12616   */\n              pop\n              pop\n              jump\t// out\n                /* \"#utility.yul\":12622:12808   */\n            tag_144:\n                /* \"#utility.yul\":12682:12802   */\n            tag_287:\n                /* \"#utility.yul\":12699:12702   */\n              dup2\n                /* \"#utility.yul\":12692:12697   */\n              dup2\n                /* \"#utility.yul\":12689:12703   */\n              lt\n                /* \"#utility.yul\":12682:12802   */\n              iszero\n              tag_289\n              jumpi\n                /* \"#utility.yul\":12753:12792   */\n              tag_290\n                /* \"#utility.yul\":12790:12791   */\n              0x00\n                /* \"#utility.yul\":12783:12788   */\n              dup3\n                /* \"#utility.yul\":12753:12792   */\n              tag_143\n              jump\t// in\n            tag_290:\n                /* \"#utility.yul\":12726:12727   */\n              0x01\n                /* \"#utility.yul\":12719:12724   */\n              dup2\n                /* \"#utility.yul\":12715:12728   */\n              add\n                /* \"#utility.yul\":12706:12728   */\n              swap1\n              pop\n                /* \"#utility.yul\":12682:12802   */\n              jump(tag_287)\n            tag_289:\n                /* \"#utility.yul\":12622:12808   */\n              pop\n              pop\n              jump\t// out\n                /* \"#utility.yul\":12814:13357   */\n            tag_145:\n                /* \"#utility.yul\":12915:12917   */\n              0x1f\n                /* \"#utility.yul\":12910:12913   */\n              dup3\n                /* \"#utility.yul\":12907:12918   */\n              gt\n                /* \"#utility.yul\":12904:13350   */\n              iszero\n              tag_292\n              jumpi\n                /* \"#utility.yul\":12949:12987   */\n              tag_293\n                /* \"#utility.yul\":12981:12986   */\n              dup2\n                /* \"#utility.yul\":12949:12987   */\n              tag_133\n              jump\t// in\n            tag_293:\n                /* \"#utility.yul\":13033:13062   */\n              tag_294\n                /* \"#utility.yul\":13051:13061   */\n              dup5\n                /* \"#utility.yul\":13033:13062   */\n              tag_134\n              jump\t// in\n            tag_294:\n                /* \"#utility.yul\":13023:13031   */\n              dup2\n                /* \"#utility.yul\":13019:13063   */\n              add\n                /* \"#utility.yul\":13216:13218   */\n              0x20\n                /* \"#utility.yul\":13204:13214   */\n              dup6\n                /* \"#utility.yul\":13201:13219   */\n              lt\n                /* \"#utility.yul\":13198:13247   */\n              iszero\n              tag_295\n              jumpi\n                /* \"#utility.yul\":13237:13245   */\n              dup2\n                /* \"#utility.yul\":13222:13245   */\n              swap1\n              pop\n                /* \"#utility.yul\":13198:13247   */\n            tag_295:\n                /* \"#utility.yul\":13260:13340   */\n              tag_296\n                /* \"#utility.yul\":13316:13338   */\n              tag_297\n                /* \"#utility.yul\":13334:13337   */\n              dup6\n                /* \"#utility.yul\":13316:13338   */\n              tag_134\n              jump\t// in\n            tag_297:\n                /* \"#utility.yul\":13306:13314   */\n              dup4\n                /* \"#utility.yul\":13302:13339   */\n              add\n                /* \"#utility.yul\":13289:13300   */\n              dup3\n                /* \"#utility.yul\":13260:13340   */\n              tag_144\n              jump\t// in\n            tag_296:\n                /* \"#utility.yul\":12919:13350   */\n              pop\n              pop\n                /* \"#utility.yul\":12904:13350   */\n            tag_292:\n                /* \"#utility.yul\":12814:13357   */\n              pop\n              pop\n              pop\n              jump\t// out\n                /* \"#utility.yul\":13363:13480   */\n            tag_146:\n                /* \"#utility.yul\":13417:13425   */\n              0x00\n                /* \"#utility.yul\":13467:13472   */\n              dup3\n                /* \"#utility.yul\":13461:13465   */\n              dup3\n                /* \"#utility.yul\":13457:13473   */\n              shr\n                /* \"#utility.yul\":13436:13473   */\n              swap1\n              pop\n                /* \"#utility.yul\":13363:13480   */\n              swap3\n              swap2\n              pop\n              pop\n              jump\t// out\n                /* \"#utility.yul\":13486:13655   */\n            tag_147:\n                /* \"#utility.yul\":13530:13536   */\n              0x00\n                /* \"#utility.yul\":13563:13614   */\n              tag_300\n                /* \"#utility.yul\":13611:13612   */\n              0x00\n                /* \"#utility.yul\":13607:13613   */\n              not\n                /* \"#utility.yul\":13599:13604   */\n              dup5\n                /* \"#utility.yul\":13596:13597   */\n              0x08\n                /* \"#utility.yul\":13592:13605   */\n              mul\n                /* \"#utility.yul\":13563:13614   */\n              tag_146\n              jump\t// in\n            tag_300:\n                /* \"#utility.yul\":13559:13615   */\n              not\n                /* \"#utility.yul\":13644:13648   */\n              dup1\n                /* \"#utility.yul\":13638:13642   */\n              dup4\n                /* \"#utility.yul\":13634:13649   */\n              and\n                /* \"#utility.yul\":13624:13649   */\n              swap2\n              pop\n                /* \"#utility.yul\":13537:13655   */\n              pop\n                /* \"#utility.yul\":13486:13655   */\n              swap3\n              swap2\n              pop\n              pop\n              jump\t// out\n                /* \"#utility.yul\":13660:13955   */\n            tag_148:\n                /* \"#utility.yul\":13736:13740   */\n              0x00\n                /* \"#utility.yul\":13882:13911   */\n              tag_302\n                /* \"#utility.yul\":13907:13910   */\n              dup4\n                /* \"#utility.yul\":13901:13905   */\n              dup4\n                /* \"#utility.yul\":13882:13911   */\n              tag_147\n              jump\t// in\n            tag_302:\n                /* \"#utility.yul\":13874:13911   */\n              swap2\n              pop\n                /* \"#utility.yul\":13944:13947   */\n              dup3\n                /* \"#utility.yul\":13941:13942   */\n              0x02\n                /* \"#utility.yul\":13937:13948   */\n              mul\n                /* \"#utility.yul\":13931:13935   */\n              dup3\n                /* \"#utility.yul\":13928:13949   */\n              or\n                /* \"#utility.yul\":13920:13949   */\n              swap1\n              pop\n                /* \"#utility.yul\":13660:13955   */\n              swap3\n              swap2\n              pop\n              pop\n              jump\t// out\n                /* \"#utility.yul\":13960:15355   */\n            tag_57:\n                /* \"#utility.yul\":14077:14114   */\n              tag_304\n                /* \"#utility.yul\":14110:14113   */\n              dup3\n                /* \"#utility.yul\":14077:14114   */\n              tag_122\n              jump\t// in\n            tag_304:\n                /* \"#utility.yul\":14179:14197   */\n              0xffffffffffffffff\n                /* \"#utility.yul\":14171:14177   */\n              dup2\n                /* \"#utility.yul\":14168:14198   */\n              gt\n                /* \"#utility.yul\":14165:14221   */\n              iszero\n              tag_305\n              jumpi\n                /* \"#utility.yul\":14201:14219   */\n              tag_306\n              tag_110\n              jump\t// in\n            tag_306:\n                /* \"#utility.yul\":14165:14221   */\n            tag_305:\n                /* \"#utility.yul\":14245:14283   */\n              tag_307\n                /* \"#utility.yul\":14277:14281   */\n              dup3\n                /* \"#utility.yul\":14271:14282   */\n              sload\n                /* \"#utility.yul\":14245:14283   */\n              tag_72\n              jump\t// in\n            tag_307:\n                /* \"#utility.yul\":14330:14397   */\n              tag_308\n                /* \"#utility.yul\":14390:14396   */\n              dup3\n                /* \"#utility.yul\":14382:14388   */\n              dup3\n                /* \"#utility.yul\":14376:14380   */\n              dup6\n                /* \"#utility.yul\":14330:14397   */\n              tag_145\n              jump\t// in\n            tag_308:\n                /* \"#utility.yul\":14424:14425   */\n              0x00\n                /* \"#utility.yul\":14448:14452   */\n              0x20\n                /* \"#utility.yul\":14435:14452   */\n              swap1\n              pop\n                /* \"#utility.yul\":14480:14482   */\n              0x1f\n                /* \"#utility.yul\":14472:14478   */\n              dup4\n                /* \"#utility.yul\":14469:14483   */\n              gt\n                /* \"#utility.yul\":14497:14498   */\n              0x01\n                /* \"#utility.yul\":14492:15110   */\n              dup2\n              eq\n              tag_310\n              jumpi\n                /* \"#utility.yul\":15154:15155   */\n              0x00\n                /* \"#utility.yul\":15171:15177   */\n              dup5\n                /* \"#utility.yul\":15168:15245   */\n              iszero\n              tag_311\n              jumpi\n                /* \"#utility.yul\":15220:15229   */\n              dup3\n                /* \"#utility.yul\":15215:15218   */\n              dup8\n                /* \"#utility.yul\":15211:15230   */\n              add\n                /* \"#utility.yul\":15205:15231   */\n              mload\n                /* \"#utility.yul\":15196:15231   */\n              swap1\n              pop\n                /* \"#utility.yul\":15168:15245   */\n            tag_311:\n                /* \"#utility.yul\":15271:15338   */\n              tag_312\n                /* \"#utility.yul\":15331:15337   */\n              dup6\n                /* \"#utility.yul\":15324:15329   */\n              dup3\n                /* \"#utility.yul\":15271:15338   */\n              tag_148\n              jump\t// in\n            tag_312:\n                /* \"#utility.yul\":15265:15269   */\n              dup7\n                /* \"#utility.yul\":15258:15339   */\n              sstore\n                /* \"#utility.yul\":15127:15349   */\n              pop\n                /* \"#utility.yul\":14462:15349   */\n              jump(tag_309)\n                /* \"#utility.yul\":14492:15110   */\n            tag_310:\n                /* \"#utility.yul\":14544:14548   */\n              0x1f\n                /* \"#utility.yul\":14540:14549   */\n              not\n                /* \"#utility.yul\":14532:14538   */\n              dup5\n                /* \"#utility.yul\":14528:14550   */\n              and\n                /* \"#utility.yul\":14578:14615   */\n              tag_313\n                /* \"#utility.yul\":14610:14614   */\n              dup7\n                /* \"#utility.yul\":14578:14615   */\n              tag_133\n              jump\t// in\n            tag_313:\n                /* \"#utility.yul\":14637:14638   */\n              0x00\n                /* \"#utility.yul\":14651:14859   */\n            tag_314:\n                /* \"#utility.yul\":14665:14672   */\n              dup3\n                /* \"#utility.yul\":14662:14663   */\n              dup2\n                /* \"#utility.yul\":14659:14673   */\n              lt\n                /* \"#utility.yul\":14651:14859   */\n              iszero\n              tag_316\n              jumpi\n                /* \"#utility.yul\":14744:14753   */\n              dup5\n                /* \"#utility.yul\":14739:14742   */\n              dup10\n                /* \"#utility.yul\":14735:14754   */\n              add\n                /* \"#utility.yul\":14729:14755   */\n              mload\n                /* \"#utility.yul\":14721:14727   */\n              dup3\n                /* \"#utility.yul\":14714:14756   */\n              sstore\n                /* \"#utility.yul\":14795:14796   */\n              0x01\n                /* \"#utility.yul\":14787:14793   */\n              dup3\n                /* \"#utility.yul\":14783:14797   */\n              add\n                /* \"#utility.yul\":14773:14797   */\n              swap2\n              pop\n                /* \"#utility.yul\":14842:14844   */\n              0x20\n                /* \"#utility.yul\":14831:14840   */\n              dup6\n                /* \"#utility.yul\":14827:14845   */\n              add\n                /* \"#utility.yul\":14814:14845   */\n              swap5\n              pop\n                /* \"#utility.yul\":14688:14692   */\n              0x20\n                /* \"#utility.yul\":14685:14686   */\n              dup2\n                /* \"#utility.yul\":14681:14693   */\n              add\n                /* \"#utility.yul\":14676:14693   */\n              swap1\n              pop\n                /* \"#utility.yul\":14651:14859   */\n              jump(tag_314)\n            tag_316:\n                /* \"#utility.yul\":14887:14893   */\n              dup7\n                /* \"#utility.yul\":14878:14885   */\n              dup4\n                /* \"#utility.yul\":14875:14894   */\n              lt\n                /* \"#utility.yul\":14872:15051   */\n              iszero\n              tag_317\n              jumpi\n                /* \"#utility.yul\":14945:14954   */\n              dup5\n                /* \"#utility.yul\":14940:14943   */\n              dup10\n                /* \"#utility.yul\":14936:14955   */\n              add\n                /* \"#utility.yul\":14930:14956   */\n              mload\n                /* \"#utility.yul\":14988:15036   */\n              tag_318\n                /* \"#utility.yul\":15030:15034   */\n              0x1f\n                /* \"#utility.yul\":15022:15028   */\n              dup10\n                /* \"#utility.yul\":15018:15035   */\n              and\n                /* \"#utility.yul\":15007:15016   */\n              dup3\n                /* \"#utility.yul\":14988:15036   */\n              tag_147\n              jump\t// in\n            tag_318:\n                /* \"#utility.yul\":14980:14986   */\n              dup4\n                /* \"#utility.yul\":14973:15037   */\n              sstore\n                /* \"#utility.yul\":14895:15051   */\n              pop\n                /* \"#utility.yul\":14872:15051   */\n            tag_317:\n                /* \"#utility.yul\":15097:15098   */\n              0x01\n                /* \"#utility.yul\":15093:15094   */\n              0x02\n                /* \"#utility.yul\":15085:15091   */\n              dup9\n                /* \"#utility.yul\":15081:15095   */\n              mul\n                /* \"#utility.yul\":15077:15099   */\n              add\n                /* \"#utility.yul\":15071:15075   */\n              dup9\n                /* \"#utility.yul\":15064:15100   */\n              sstore\n                /* \"#utility.yul\":14499:15110   */\n              pop\n              pop\n              pop\n                /* \"#utility.yul\":14462:15349   */\n            tag_309:\n              pop\n                /* \"#utility.yul\":14052:15355   */\n              pop\n              pop\n              pop\n                /* \"#utility.yul\":13960:15355   */\n              pop\n              pop\n              jump\t// out\n\n            auxdata: 0xa26469706673582212200a1f1f6e901ed0e998813d2e6ed685cafc91a699bfba98e768612e18da7ad9b464736f6c63430008180033\n        }\n    }\n\n    auxdata: 0xa26469706673582212205f938012f3b7e8cbf4214a80c0c0fee2dad676100d3cec6f80e4571fb8c592cd64736f6c63430008180033\n}\n","bytecode":{"linkReferences":{},"object":"608060405234801561000f575f80fd5b50611a548061001d5f395ff3fe608060405234801561000f575f80fd5b506004361061003f575f3560e01c806308ac800c1461004357806380b29bec14610073578063c0900bea1461008f575b5f80fd5b61005d60048036038101906100589190610411565b6100c0565b60405161006a9190610497565b60405180910390f35b61008d600480360381019061008891906104b0565b610108565b005b6100a960048036038101906100a49190610411565b6101db565b6040516100b79291906105a0565b60405180910390f35b5f80826040516100d09190610608565b90815260200160405180910390206001015f9054906101000a900473ffffffffffffffffffffffffffffffffffffffff169050919050565b5f604051610115906102b7565b604051809103905ff08015801561012e573d5f803e3d5ffd5b50905060405180604001604052808481526020018273ffffffffffffffffffffffffffffffffffffffff168152505f8360405161016b9190610608565b90815260200160405180910390205f820151815f01908161018c9190610821565b506020820151816001015f6101000a81548173ffffffffffffffffffffffffffffffffffffffff021916908373ffffffffffffffffffffffffffffffffffffffff160217905550905050505050565b5f818051602081018201805184825260208301602085012081835280955050505050505f91509050805f0180546102119061064b565b80601f016020809104026020016040519081016040528092919081815260200182805461023d9061064b565b80156102885780601f1061025f57610100808354040283529160200191610288565b820191905f5260205f20905b81548152906001019060200180831161026b57829003601f168201915b505050505090806001015f9054906101000a900473ffffffffffffffffffffffffffffffffffffffff16905082565b61112e806108f183390190565b5f604051905090565b5f80fd5b5f80fd5b5f80fd5b5f80fd5b5f601f19601f8301169050919050565b7f4e487b71000000000000000000000000000000000000000000000000000000005f52604160045260245ffd5b610323826102dd565b810181811067ffffffffffffffff82111715610342576103416102ed565b5b80604052505050565b5f6103546102c4565b9050610360828261031a565b919050565b5f67ffffffffffffffff82111561037f5761037e6102ed565b5b610388826102dd565b9050602081019050919050565b828183375f83830152505050565b5f6103b56103b084610365565b61034b565b9050828152602081018484840111156103d1576103d06102d9565b5b6103dc848285610395565b509392505050565b5f82601f8301126103f8576103f76102d5565b5b81356104088482602086016103a3565b91505092915050565b5f60208284031215610426576104256102cd565b5b5f82013567ffffffffffffffff811115610443576104426102d1565b5b61044f848285016103e4565b91505092915050565b5f73ffffffffffffffffffffffffffffffffffffffff82169050919050565b5f61048182610458565b9050919050565b61049181610477565b82525050565b5f6020820190506104aa5f830184610488565b92915050565b5f80604083850312156104c6576104c56102cd565b5b5f83013567ffffffffffffffff8111156104e3576104e26102d1565b5b6104ef858286016103e4565b925050602083013567ffffffffffffffff8111156105105761050f6102d1565b5b61051c858286016103e4565b9150509250929050565b5f81519050919050565b5f82825260208201905092915050565b5f5b8381101561055d578082015181840152602081019050610542565b5f8484015250505050565b5f61057282610526565b61057c8185610530565b935061058c818560208601610540565b610595816102dd565b840191505092915050565b5f6040820190508181035f8301526105b88185610568565b90506105c76020830184610488565b9392505050565b5f81905092915050565b5f6105e282610526565b6105ec81856105ce565b93506105fc818560208601610540565b80840191505092915050565b5f61061382846105d8565b915081905092915050565b7f4e487b71000000000000000000000000000000000000000000000000000000005f52602260045260245ffd5b5f600282049050600182168061066257607f821691505b6020821081036106755761067461061e565b5b50919050565b5f819050815f5260205f209050919050565b5f6020601f8301049050919050565b5f82821b905092915050565b5f600883026106d77fffffffffffffffffffffffffffffffffffffffffffffffffffffffffffffffff8261069c565b6106e1868361069c565b95508019841693508086168417925050509392505050565b5f819050919050565b5f819050919050565b5f61072561072061071b846106f9565b610702565b6106f9565b9050919050565b5f819050919050565b61073e8361070b565b61075261074a8261072c565b8484546106a8565b825550505050565b5f90565b61076661075a565b610771818484610735565b505050565b5b81811015610794576107895f8261075e565b600181019050610777565b5050565b601f8211156107d9576107aa8161067b565b6107b38461068d565b810160208510156107c2578190505b6107d66107ce8561068d565b830182610776565b50505b505050565b5f82821c905092915050565b5f6107f95f19846008026107de565b1980831691505092915050565b5f61081183836107ea565b9150826002028217905092915050565b61082a82610526565b67ffffffffffffffff811115610843576108426102ed565b5b61084d825461064b565b610858828285610798565b5f60209050601f831160018114610889575f8415610877578287015190505b6108818582610806565b8655506108e8565b601f1984166108978661067b565b5f5b828110156108be57848901518255600182019150602085019450602081019050610899565b868310156108db57848901516108d7601f8916826107ea565b8355505b6001600288020188555050505b50505050505056fe608060405234801561000f575f80fd5b506111118061001d5f395ff3fe608060405234801561000f575f80fd5b5060043610610091575f3560e01c8063b15bf25511610064578063b15bf2551461012d578063c0effb7d14610160578063d8ce65721461017c578063e47766ff146101ad578063ea42c7ef146101c957610091565b80630e34b00e14610095578063220f8ade146100b15780637f975a37146100e15780639ab1a6cc146100fd575b5f80fd5b6100af60048036038101906100aa9190610a16565b6101fa565b005b6100cb60048036038101906100c69190610af3565b6102ad565b6040516100d89190610b67565b60405180910390f35b6100fb60048036038101906100f69190610af3565b61037c565b005b61011760048036038101906101129190610b80565b6103f5565b6040516101249190610b67565b60405180910390f35b61014760048036038101906101429190610b80565b61042a565b6040516101579493929190610c50565b60405180910390f35b61017a60048036038101906101759190610ca8565b61060f565b005b61019660048036038101906101919190610b80565b610679565b6040516101a4929190610d1e565b60405180910390f35b6101c760048036038101906101c29190610b80565b610743565b005b6101e360048036038101906101de9190610b80565b6107ec565b6040516101f1929190610d8b565b60405180910390f35b60405180608001604052808481526020018381526020018281526020015f63ffffffff168152506003846040516102319190610df3565b90815260200160405180910390205f820151815f019081610252919061100c565b506020820151816001019081610268919061100c565b50604082015181600201908161027e919061100c565b506060820151816003015f6101000a81548163ffffffff021916908363ffffffff160217905550905050505050565b5f600115156001846040516102c29190610df3565b90815260200160405180910390206001015f9054906101000a900460ff16151514801561031d5750600115156002846040516102fe9190610df3565b90815260200160405180910390205f9054906101000a900460ff161515145b801561036457508163ffffffff1660038460405161033b9190610df3565b90815260200160405180910390206003015f9054906101000a900463ffffffff1663ffffffff16145b156103725760019050610376565b5f90505b92915050565b600160028360405161038e9190610df3565b90815260200160405180910390205f6101000a81548160ff021916908315150217905550806003836040516103c39190610df3565b90815260200160405180910390206003015f6101000a81548163ffffffff021916908363ffffffff1602179055505050565b6002818051602081018201805184825260208301602085012081835280955050505050505f915054906101000a900460ff1681565b6003818051602081018201805184825260208301602085012081835280955050505050505f91509050805f01805461046190610e36565b80601f016020809104026020016040519081016040528092919081815260200182805461048d90610e36565b80156104d85780601f106104af576101008083540402835291602001916104d8565b820191905f5260205f20905b8154815290600101906020018083116104bb57829003601f168201915b5050505050908060010180546104ed90610e36565b80601f016020809104026020016040519081016040528092919081815260200182805461051990610e36565b80156105645780601f1061053b57610100808354040283529160200191610564565b820191905f5260205f20905b81548152906001019060200180831161054757829003601f168201915b50505050509080600201805461057990610e36565b80601f01602080910402602001604051908101604052809291908181526020018280546105a590610e36565b80156105f05780601f106105c7576101008083540402835291602001916105f0565b820191905f5260205f20905b8154815290600101906020018083116105d357829003601f168201915b505050505090806003015f9054906101000a900463ffffffff16905084565b806001836040516106209190610df3565b90815260200160405180910390205f01908161063c919061100c565b506001808360405161064e9190610df3565b90815260200160405180910390206001015f6101000a81548160ff0219169083151502179055505050565b6001818051602081018201805184825260208301602085012081835280955050505050505f91509050805f0180546106b090610e36565b80601f01602080910402602001604051908101604052809291908181526020018280546106dc90610e36565b80156107275780601f106106fe57610100808354040283529160200191610727565b820191905f5260205f20905b81548152906001019060200180831161070a57829003601f168201915b505050505090806001015f9054906101000a900460ff16905082565b60405180604001604052808281526020013373ffffffffffffffffffffffffffffffffffffffff1681525060048260405161077e9190610df3565b90815260200160405180910390205f820151815f01908161079f919061100c565b506020820151816001015f6101000a81548173ffffffffffffffffffffffffffffffffffffffff021916908373ffffffffffffffffffffffffffffffffffffffff16021790555090505050565b6004818051602081018201805184825260208301602085012081835280955050505050505f91509050805f01805461082390610e36565b80601f016020809104026020016040519081016040528092919081815260200182805461084f90610e36565b801561089a5780601f106108715761010080835404028352916020019161089a565b820191905f5260205f20905b81548152906001019060200180831161087d57829003601f168201915b505050505090806001015f9054906101000a900473ffffffffffffffffffffffffffffffffffffffff16905082565b5f604051905090565b5f80fd5b5f80fd5b5f80fd5b5f80fd5b5f601f19601f8301169050919050565b7f4e487b71000000000000000000000000000000000000000000000000000000005f52604160045260245ffd5b610928826108e2565b810181811067ffffffffffffffff82111715610947576109466108f2565b5b80604052505050565b5f6109596108c9565b9050610965828261091f565b919050565b5f67ffffffffffffffff821115610984576109836108f2565b5b61098d826108e2565b9050602081019050919050565b828183375f83830152505050565b5f6109ba6109b58461096a565b610950565b9050828152602081018484840111156109d6576109d56108de565b5b6109e184828561099a565b509392505050565b5f82601f8301126109fd576109fc6108da565b5b8135610a0d8482602086016109a8565b91505092915050565b5f805f60608486031215610a2d57610a2c6108d2565b5b5f84013567ffffffffffffffff811115610a4a57610a496108d6565b5b610a56868287016109e9565b935050602084013567ffffffffffffffff811115610a7757610a766108d6565b5b610a83868287016109e9565b925050604084013567ffffffffffffffff811115610aa457610aa36108d6565b5b610ab0868287016109e9565b9150509250925092565b5f63ffffffff82169050919050565b610ad281610aba565b8114610adc575f80fd5b50565b5f81359050610aed81610ac9565b92915050565b5f8060408385031215610b0957610b086108d2565b5b5f83013567ffffffffffffffff811115610b2657610b256108d6565b5b610b32858286016109e9565b9250506020610b4385828601610adf565b9150509250929050565b5f8115159050919050565b610b6181610b4d565b82525050565b5f602082019050610b7a5f830184610b58565b92915050565b5f60208284031215610b9557610b946108d2565b5b5f82013567ffffffffffffffff811115610bb257610bb16108d6565b5b610bbe848285016109e9565b91505092915050565b5f81519050919050565b5f82825260208201905092915050565b5f5b83811015610bfe578082015181840152602081019050610be3565b5f8484015250505050565b5f610c1382610bc7565b610c1d8185610bd1565b9350610c2d818560208601610be1565b610c36816108e2565b840191505092915050565b610c4a81610aba565b82525050565b5f6080820190508181035f830152610c688187610c09565b90508181036020830152610c7c8186610c09565b90508181036040830152610c908185610c09565b9050610c9f6060830184610c41565b95945050505050565b5f8060408385031215610cbe57610cbd6108d2565b5b5f83013567ffffffffffffffff811115610cdb57610cda6108d6565b5b610ce7858286016109e9565b925050602083013567ffffffffffffffff811115610d0857610d076108d6565b5b610d14858286016109e9565b9150509250929050565b5f6040820190508181035f830152610d368185610c09565b9050610d456020830184610b58565b9392505050565b5f73ffffffffffffffffffffffffffffffffffffffff82169050919050565b5f610d7582610d4c565b9050919050565b610d8581610d6b565b82525050565b5f6040820190508181035f830152610da38185610c09565b9050610db26020830184610d7c565b9392505050565b5f81905092915050565b5f610dcd82610bc7565b610dd78185610db9565b9350610de7818560208601610be1565b80840191505092915050565b5f610dfe8284610dc3565b915081905092915050565b7f4e487b71000000000000000000000000000000000000000000000000000000005f52602260045260245ffd5b5f6002820490506001821680610e4d57607f821691505b602082108103610e6057610e5f610e09565b5b50919050565b5f819050815f5260205f209050919050565b5f6020601f8301049050919050565b5f82821b905092915050565b5f60088302610ec27fffffffffffffffffffffffffffffffffffffffffffffffffffffffffffffffff82610e87565b610ecc8683610e87565b95508019841693508086168417925050509392505050565b5f819050919050565b5f819050919050565b5f610f10610f0b610f0684610ee4565b610eed565b610ee4565b9050919050565b5f819050919050565b610f2983610ef6565b610f3d610f3582610f17565b848454610e93565b825550505050565b5f90565b610f51610f45565b610f5c818484610f20565b505050565b5b81811015610f7f57610f745f82610f49565b600181019050610f62565b5050565b601f821115610fc457610f9581610e66565b610f9e84610e78565b81016020851015610fad578190505b610fc1610fb985610e78565b830182610f61565b50505b505050565b5f82821c905092915050565b5f610fe45f1984600802610fc9565b1980831691505092915050565b5f610ffc8383610fd5565b9150826002028217905092915050565b61101582610bc7565b67ffffffffffffffff81111561102e5761102d6108f2565b5b6110388254610e36565b611043828285610f83565b5f60209050601f831160018114611074575f8415611062578287015190505b61106c8582610ff1565b8655506110d3565b601f19841661108286610e66565b5f5b828110156110a957848901518255600182019150602085019450602081019050611084565b868310156110c657848901516110c2601f891682610fd5565b8355505b6001600288020188555050505b50505050505056fea26469706673582212200a1f1f6e901ed0e998813d2e6ed685cafc91a699bfba98e768612e18da7ad9b464736f6c63430008180033a26469706673582212205f938012f3b7e8cbf4214a80c0c0fee2dad676100d3cec6f80e4571fb8c592cd64736f6c63430008180033","opcodes":"PUSH1 0x80 PUSH1 0x40 MSTORE CALLVALUE DUP1 ISZERO PUSH2 0xF JUMPI PUSH0 DUP1 REVERT JUMPDEST POP PUSH2 0x1A54 DUP1 PUSH2 0x1D PUSH0 CODECOPY PUSH0 RETURN INVALID PUSH1 0x80 PUSH1 0x40 MSTORE CALLVALUE DUP1 ISZERO PUSH2 0xF JUMPI PUSH0 DUP1 REVERT JUMPDEST POP PUSH1 0x4 CALLDATASIZE LT PUSH2 0x3F JUMPI PUSH0 CALLDATALOAD PUSH1 0xE0 SHR DUP1 PUSH4 0x8AC800C EQ PUSH2 0x43 JUMPI DUP1 PUSH4 0x80B29BEC EQ PUSH2 0x73 JUMPI DUP1 PUSH4 0xC0900BEA EQ PUSH2 0x8F JUMPI JUMPDEST PUSH0 DUP1 REVERT JUMPDEST PUSH2 0x5D PUSH1 0x4 DUP1 CALLDATASIZE SUB DUP2 ADD SWAP1 PUSH2 0x58 SWAP2 SWAP1 PUSH2 0x411 JUMP JUMPDEST PUSH2 0xC0 JUMP JUMPDEST PUSH1 0x40 MLOAD PUSH2 0x6A SWAP2 SWAP1 PUSH2 0x497 JUMP JUMPDEST PUSH1 0x40 MLOAD DUP1 SWAP2 SUB SWAP1 RETURN JUMPDEST PUSH2 0x8D PUSH1 0x4 DUP1 CALLDATASIZE SUB DUP2 ADD SWAP1 PUSH2 0x88 SWAP2 SWAP1 PUSH2 0x4B0 JUMP JUMPDEST PUSH2 0x108 JUMP JUMPDEST STOP JUMPDEST PUSH2 0xA9 PUSH1 0x4 DUP1 CALLDATASIZE SUB DUP2 ADD SWAP1 PUSH2 0xA4 SWAP2 SWAP1 PUSH2 0x411 JUMP JUMPDEST PUSH2 0x1DB JUMP JUMPDEST PUSH1 0x40 MLOAD PUSH2 0xB7 SWAP3 SWAP2 SWAP1 PUSH2 0x5A0 JUMP JUMPDEST PUSH1 0x40 MLOAD DUP1 SWAP2 SUB SWAP1 RETURN JUMPDEST PUSH0 DUP1 DUP3 PUSH1 0x40 MLOAD PUSH2 0xD0 SWAP2 SWAP1 PUSH2 0x608 JUMP JUMPDEST SWAP1 DUP2 MSTORE PUSH1 0x20 ADD PUSH1 0x40 MLOAD DUP1 SWAP2 SUB SWAP1 KECCAK256 PUSH1 0x1 ADD PUSH0 SWAP1 SLOAD SWAP1 PUSH2 0x100 EXP SWAP1 DIV PUSH20 0xFFFFFFFFFFFFFFFFFFFFFFFFFFFFFFFFFFFFFFFF AND SWAP1 POP SWAP2 SWAP1 POP JUMP JUMPDEST PUSH0 PUSH1 0x40 MLOAD PUSH2 0x115 SWAP1 PUSH2 0x2B7 JUMP JUMPDEST PUSH1 0x40 MLOAD DUP1 SWAP2 SUB SWAP1 PUSH0 CREATE DUP1 ISZERO DUP1 ISZERO PUSH2 0x12E JUMPI RETURNDATASIZE PUSH0 DUP1 RETURNDATACOPY RETURNDATASIZE PUSH0 REVERT JUMPDEST POP SWAP1 POP PUSH1 0x40 MLOAD DUP1 PUSH1 0x40 ADD PUSH1 0x40 MSTORE DUP1 DUP5 DUP2 MSTORE PUSH1 0x20 ADD DUP3 PUSH20 0xFFFFFFFFFFFFFFFFFFFFFFFFFFFFFFFFFFFFFFFF AND DUP2 MSTORE POP PUSH0 DUP4 PUSH1 0x40 MLOAD PUSH2 0x16B SWAP2 SWAP1 PUSH2 0x608 JUMP JUMPDEST SWAP1 DUP2 MSTORE PUSH1 0x20 ADD PUSH1 0x40 MLOAD DUP1 SWAP2 SUB SWAP1 KECCAK256 PUSH0 DUP3 ADD MLOAD DUP2 PUSH0 ADD SWAP1 DUP2 PUSH2 0x18C SWAP2 SWAP1 PUSH2 0x821 JUMP JUMPDEST POP PUSH1 0x20 DUP3 ADD MLOAD DUP2 PUSH1 0x1 ADD PUSH0 PUSH2 0x100 EXP DUP2 SLOAD DUP2 PUSH20 0xFFFFFFFFFFFFFFFFFFFFFFFFFFFFFFFFFFFFFFFF MUL NOT AND SWAP1 DUP4 PUSH20 0xFFFFFFFFFFFFFFFFFFFFFFFFFFFFFFFFFFFFFFFF AND MUL OR SWAP1 SSTORE POP SWAP1 POP POP POP POP POP JUMP JUMPDEST PUSH0 DUP2 DUP1 MLOAD PUSH1 0x20 DUP2 ADD DUP3 ADD DUP1 MLOAD DUP5 DUP3 MSTORE PUSH1 0x20 DUP4 ADD PUSH1 0x20 DUP6 ADD KECCAK256 DUP2 DUP4 MSTORE DUP1 SWAP6 POP POP POP POP POP POP PUSH0 SWAP2 POP SWAP1 POP DUP1 PUSH0 ADD DUP1 SLOAD PUSH2 0x211 SWAP1 PUSH2 0x64B JUMP JUMPDEST DUP1 PUSH1 0x1F ADD PUSH1 0x20 DUP1 SWAP2 DIV MUL PUSH1 0x20 ADD PUSH1 0x40 MLOAD SWAP1 DUP2 ADD PUSH1 0x40 MSTORE DUP1 SWAP3 SWAP2 SWAP1 DUP2 DUP2 MSTORE PUSH1 0x20 ADD DUP3 DUP1 SLOAD PUSH2 0x23D SWAP1 PUSH2 0x64B JUMP JUMPDEST DUP1 ISZERO PUSH2 0x288 JUMPI DUP1 PUSH1 0x1F LT PUSH2 0x25F JUMPI PUSH2 0x100 DUP1 DUP4 SLOAD DIV MUL DUP4 MSTORE SWAP2 PUSH1 0x20 ADD SWAP2 PUSH2 0x288 JUMP JUMPDEST DUP3 ADD SWAP2 SWAP1 PUSH0 MSTORE PUSH1 0x20 PUSH0 KECCAK256 SWAP1 JUMPDEST DUP2 SLOAD DUP2 MSTORE SWAP1 PUSH1 0x1 ADD SWAP1 PUSH1 0x20 ADD DUP1 DUP4 GT PUSH2 0x26B JUMPI DUP3 SWAP1 SUB PUSH1 0x1F AND DUP3 ADD SWAP2 JUMPDEST POP POP POP POP POP SWAP1 DUP1 PUSH1 0x1 ADD PUSH0 SWAP1 SLOAD SWAP1 PUSH2 0x100 EXP SWAP1 DIV PUSH20 0xFFFFFFFFFFFFFFFFFFFFFFFFFFFFFFFFFFFFFFFF AND SWAP1 POP DUP3 JUMP JUMPDEST PUSH2 0x112E DUP1 PUSH2 0x8F1 DUP4 CODECOPY ADD SWAP1 JUMP JUMPDEST PUSH0 PUSH1 0x40 MLOAD SWAP1 POP SWAP1 JUMP JUMPDEST PUSH0 DUP1 REVERT JUMPDEST PUSH0 DUP1 REVERT JUMPDEST PUSH0 DUP1 REVERT JUMPDEST PUSH0 DUP1 REVERT JUMPDEST PUSH0 PUSH1 0x1F NOT PUSH1 0x1F DUP4 ADD AND SWAP1 POP SWAP2 SWAP1 POP JUMP JUMPDEST PUSH32 0x4E487B7100000000000000000000000000000000000000000000000000000000 PUSH0 MSTORE PUSH1 0x41 PUSH1 0x4 MSTORE PUSH1 0x24 PUSH0 REVERT JUMPDEST PUSH2 0x323 DUP3 PUSH2 0x2DD JUMP JUMPDEST DUP2 ADD DUP2 DUP2 LT PUSH8 0xFFFFFFFFFFFFFFFF DUP3 GT OR ISZERO PUSH2 0x342 JUMPI PUSH2 0x341 PUSH2 0x2ED JUMP JUMPDEST JUMPDEST DUP1 PUSH1 0x40 MSTORE POP POP POP JUMP JUMPDEST PUSH0 PUSH2 0x354 PUSH2 0x2C4 JUMP JUMPDEST SWAP1 POP PUSH2 0x360 DUP3 DUP3 PUSH2 0x31A JUMP JUMPDEST SWAP2 SWAP1 POP JUMP JUMPDEST PUSH0 PUSH8 0xFFFFFFFFFFFFFFFF DUP3 GT ISZERO PUSH2 0x37F JUMPI PUSH2 0x37E PUSH2 0x2ED JUMP JUMPDEST JUMPDEST PUSH2 0x388 DUP3 PUSH2 0x2DD JUMP JUMPDEST SWAP1 POP PUSH1 0x20 DUP2 ADD SWAP1 POP SWAP2 SWAP1 POP JUMP JUMPDEST DUP3 DUP2 DUP4 CALLDATACOPY PUSH0 DUP4 DUP4 ADD MSTORE POP POP POP JUMP JUMPDEST PUSH0 PUSH2 0x3B5 PUSH2 0x3B0 DUP5 PUSH2 0x365 JUMP JUMPDEST PUSH2 0x34B JUMP JUMPDEST SWAP1 POP DUP3 DUP2 MSTORE PUSH1 0x20 DUP2 ADD DUP5 DUP5 DUP5 ADD GT ISZERO PUSH2 0x3D1 JUMPI PUSH2 0x3D0 PUSH2 0x2D9 JUMP JUMPDEST JUMPDEST PUSH2 0x3DC DUP5 DUP3 DUP6 PUSH2 0x395 JUMP JUMPDEST POP SWAP4 SWAP3 POP POP POP JUMP JUMPDEST PUSH0 DUP3 PUSH1 0x1F DUP4 ADD SLT PUSH2 0x3F8 JUMPI PUSH2 0x3F7 PUSH2 0x2D5 JUMP JUMPDEST JUMPDEST DUP2 CALLDATALOAD PUSH2 0x408 DUP5 DUP3 PUSH1 0x20 DUP7 ADD PUSH2 0x3A3 JUMP JUMPDEST SWAP2 POP POP SWAP3 SWAP2 POP POP JUMP JUMPDEST PUSH0 PUSH1 0x20 DUP3 DUP5 SUB SLT ISZERO PUSH2 0x426 JUMPI PUSH2 0x425 PUSH2 0x2CD JUMP JUMPDEST JUMPDEST PUSH0 DUP3 ADD CALLDATALOAD PUSH8 0xFFFFFFFFFFFFFFFF DUP2 GT ISZERO PUSH2 0x443 JUMPI PUSH2 0x442 PUSH2 0x2D1 JUMP JUMPDEST JUMPDEST PUSH2 0x44F DUP5 DUP3 DUP6 ADD PUSH2 0x3E4 JUMP JUMPDEST SWAP2 POP POP SWAP3 SWAP2 POP POP JUMP JUMPDEST PUSH0 PUSH20 0xFFFFFFFFFFFFFFFFFFFFFFFFFFFFFFFFFFFFFFFF DUP3 AND SWAP1 POP SWAP2 SWAP1 POP JUMP JUMPDEST PUSH0 PUSH2 0x481 DUP3 PUSH2 0x458 JUMP JUMPDEST SWAP1 POP SWAP2 SWAP1 POP JUMP JUMPDEST PUSH2 0x491 DUP2 PUSH2 0x477 JUMP JUMPDEST DUP3 MSTORE POP POP JUMP JUMPDEST PUSH0 PUSH1 0x20 DUP3 ADD SWAP1 POP PUSH2 0x4AA PUSH0 DUP4 ADD DUP5 PUSH2 0x488 JUMP JUMPDEST SWAP3 SWAP2 POP POP JUMP JUMPDEST PUSH0 DUP1 PUSH1 0x40 DUP4 DUP6 SUB SLT ISZERO PUSH2 0x4C6 JUMPI PUSH2 0x4C5 PUSH2 0x2CD JUMP JUMPDEST JUMPDEST PUSH0 DUP4 ADD CALLDATALOAD PUSH8 0xFFFFFFFFFFFFFFFF DUP2 GT ISZERO PUSH2 0x4E3 JUMPI PUSH2 0x4E2 PUSH2 0x2D1 JUMP JUMPDEST JUMPDEST PUSH2 0x4EF DUP6 DUP3 DUP7 ADD PUSH2 0x3E4 JUMP JUMPDEST SWAP3 POP POP PUSH1 0x20 DUP4 ADD CALLDATALOAD PUSH8 0xFFFFFFFFFFFFFFFF DUP2 GT ISZERO PUSH2 0x510 JUMPI PUSH2 0x50F PUSH2 0x2D1 JUMP JUMPDEST JUMPDEST PUSH2 0x51C DUP6 DUP3 DUP7 ADD PUSH2 0x3E4 JUMP JUMPDEST SWAP2 POP POP SWAP3 POP SWAP3 SWAP1 POP JUMP JUMPDEST PUSH0 DUP2 MLOAD SWAP1 POP SWAP2 SWAP1 POP JUMP JUMPDEST PUSH0 DUP3 DUP3 MSTORE PUSH1 0x20 DUP3 ADD SWAP1 POP SWAP3 SWAP2 POP POP JUMP JUMPDEST PUSH0 JUMPDEST DUP4 DUP2 LT ISZERO PUSH2 0x55D JUMPI DUP1 DUP3 ADD MLOAD DUP2 DUP5 ADD MSTORE PUSH1 0x20 DUP2 ADD SWAP1 POP PUSH2 0x542 JUMP JUMPDEST PUSH0 DUP5 DUP5 ADD MSTORE POP POP POP POP JUMP JUMPDEST PUSH0 PUSH2 0x572 DUP3 PUSH2 0x526 JUMP JUMPDEST PUSH2 0x57C DUP2 DUP6 PUSH2 0x530 JUMP JUMPDEST SWAP4 POP PUSH2 0x58C DUP2 DUP6 PUSH1 0x20 DUP7 ADD PUSH2 0x540 JUMP JUMPDEST PUSH2 0x595 DUP2 PUSH2 0x2DD JUMP JUMPDEST DUP5 ADD SWAP2 POP POP SWAP3 SWAP2 POP POP JUMP JUMPDEST PUSH0 PUSH1 0x40 DUP3 ADD SWAP1 POP DUP2 DUP2 SUB PUSH0 DUP4 ADD MSTORE PUSH2 0x5B8 DUP2 DUP6 PUSH2 0x568 JUMP JUMPDEST SWAP1 POP PUSH2 0x5C7 PUSH1 0x20 DUP4 ADD DUP5 PUSH2 0x488 JUMP JUMPDEST SWAP4 SWAP3 POP POP POP JUMP JUMPDEST PUSH0 DUP2 SWAP1 POP SWAP3 SWAP2 POP POP JUMP JUMPDEST PUSH0 PUSH2 0x5E2 DUP3 PUSH2 0x526 JUMP JUMPDEST PUSH2 0x5EC DUP2 DUP6 PUSH2 0x5CE JUMP JUMPDEST SWAP4 POP PUSH2 0x5FC DUP2 DUP6 PUSH1 0x20 DUP7 ADD PUSH2 0x540 JUMP JUMPDEST DUP1 DUP5 ADD SWAP2 POP POP SWAP3 SWAP2 POP POP JUMP JUMPDEST PUSH0 PUSH2 0x613 DUP3 DUP5 PUSH2 0x5D8 JUMP JUMPDEST SWAP2 POP DUP2 SWAP1 POP SWAP3 SWAP2 POP POP JUMP JUMPDEST PUSH32 0x4E487B7100000000000000000000000000000000000000000000000000000000 PUSH0 MSTORE PUSH1 0x22 PUSH1 0x4 MSTORE PUSH1 0x24 PUSH0 REVERT JUMPDEST PUSH0 PUSH1 0x2 DUP3 DIV SWAP1 POP PUSH1 0x1 DUP3 AND DUP1 PUSH2 0x662 JUMPI PUSH1 0x7F DUP3 AND SWAP2 POP JUMPDEST PUSH1 0x20 DUP3 LT DUP2 SUB PUSH2 0x675 JUMPI PUSH2 0x674 PUSH2 0x61E JUMP JUMPDEST JUMPDEST POP SWAP2 SWAP1 POP JUMP JUMPDEST PUSH0 DUP2 SWAP1 POP DUP2 PUSH0 MSTORE PUSH1 0x20 PUSH0 KECCAK256 SWAP1 POP SWAP2 SWAP1 POP JUMP JUMPDEST PUSH0 PUSH1 0x20 PUSH1 0x1F DUP4 ADD DIV SWAP1 POP SWAP2 SWAP1 POP JUMP JUMPDEST PUSH0 DUP3 DUP3 SHL SWAP1 POP SWAP3 SWAP2 POP POP JUMP JUMPDEST PUSH0 PUSH1 0x8 DUP4 MUL PUSH2 0x6D7 PUSH32 0xFFFFFFFFFFFFFFFFFFFFFFFFFFFFFFFFFFFFFFFFFFFFFFFFFFFFFFFFFFFFFFFF DUP3 PUSH2 0x69C JUMP JUMPDEST PUSH2 0x6E1 DUP7 DUP4 PUSH2 0x69C JUMP JUMPDEST SWAP6 POP DUP1 NOT DUP5 AND SWAP4 POP DUP1 DUP7 AND DUP5 OR SWAP3 POP POP POP SWAP4 SWAP3 POP POP POP JUMP JUMPDEST PUSH0 DUP2 SWAP1 POP SWAP2 SWAP1 POP JUMP JUMPDEST PUSH0 DUP2 SWAP1 POP SWAP2 SWAP1 POP JUMP JUMPDEST PUSH0 PUSH2 0x725 PUSH2 0x720 PUSH2 0x71B DUP5 PUSH2 0x6F9 JUMP JUMPDEST PUSH2 0x702 JUMP JUMPDEST PUSH2 0x6F9 JUMP JUMPDEST SWAP1 POP SWAP2 SWAP1 POP JUMP JUMPDEST PUSH0 DUP2 SWAP1 POP SWAP2 SWAP1 POP JUMP JUMPDEST PUSH2 0x73E DUP4 PUSH2 0x70B JUMP JUMPDEST PUSH2 0x752 PUSH2 0x74A DUP3 PUSH2 0x72C JUMP JUMPDEST DUP5 DUP5 SLOAD PUSH2 0x6A8 JUMP JUMPDEST DUP3 SSTORE POP POP POP POP JUMP JUMPDEST PUSH0 SWAP1 JUMP JUMPDEST PUSH2 0x766 PUSH2 0x75A JUMP JUMPDEST PUSH2 0x771 DUP2 DUP5 DUP5 PUSH2 0x735 JUMP JUMPDEST POP POP POP JUMP JUMPDEST JUMPDEST DUP2 DUP2 LT ISZERO PUSH2 0x794 JUMPI PUSH2 0x789 PUSH0 DUP3 PUSH2 0x75E JUMP JUMPDEST PUSH1 0x1 DUP2 ADD SWAP1 POP PUSH2 0x777 JUMP JUMPDEST POP POP JUMP JUMPDEST PUSH1 0x1F DUP3 GT ISZERO PUSH2 0x7D9 JUMPI PUSH2 0x7AA DUP2 PUSH2 0x67B JUMP JUMPDEST PUSH2 0x7B3 DUP5 PUSH2 0x68D JUMP JUMPDEST DUP2 ADD PUSH1 0x20 DUP6 LT ISZERO PUSH2 0x7C2 JUMPI DUP2 SWAP1 POP JUMPDEST PUSH2 0x7D6 PUSH2 0x7CE DUP6 PUSH2 0x68D JUMP JUMPDEST DUP4 ADD DUP3 PUSH2 0x776 JUMP JUMPDEST POP POP JUMPDEST POP POP POP JUMP JUMPDEST PUSH0 DUP3 DUP3 SHR SWAP1 POP SWAP3 SWAP2 POP POP JUMP JUMPDEST PUSH0 PUSH2 0x7F9 PUSH0 NOT DUP5 PUSH1 0x8 MUL PUSH2 0x7DE JUMP JUMPDEST NOT DUP1 DUP4 AND SWAP2 POP POP SWAP3 SWAP2 POP POP JUMP JUMPDEST PUSH0 PUSH2 0x811 DUP4 DUP4 PUSH2 0x7EA JUMP JUMPDEST SWAP2 POP DUP3 PUSH1 0x2 MUL DUP3 OR SWAP1 POP SWAP3 SWAP2 POP POP JUMP JUMPDEST PUSH2 0x82A DUP3 PUSH2 0x526 JUMP JUMPDEST PUSH8 0xFFFFFFFFFFFFFFFF DUP2 GT ISZERO PUSH2 0x843 JUMPI PUSH2 0x842 PUSH2 0x2ED JUMP JUMPDEST JUMPDEST PUSH2 0x84D DUP3 SLOAD PUSH2 0x64B JUMP JUMPDEST PUSH2 0x858 DUP3 DUP3 DUP6 PUSH2 0x798 JUMP JUMPDEST PUSH0 PUSH1 0x20 SWAP1 POP PUSH1 0x1F DUP4 GT PUSH1 0x1 DUP2 EQ PUSH2 0x889 JUMPI PUSH0 DUP5 ISZERO PUSH2 0x877 JUMPI DUP3 DUP8 ADD MLOAD SWAP1 POP JUMPDEST PUSH2 0x881 DUP6 DUP3 PUSH2 0x806 JUMP JUMPDEST DUP7 SSTORE POP PUSH2 0x8E8 JUMP JUMPDEST PUSH1 0x1F NOT DUP5 AND PUSH2 0x897 DUP7 PUSH2 0x67B JUMP JUMPDEST PUSH0 JUMPDEST DUP3 DUP2 LT ISZERO PUSH2 0x8BE JUMPI DUP5 DUP10 ADD MLOAD DUP3 SSTORE PUSH1 0x1 DUP3 ADD SWAP2 POP PUSH1 0x20 DUP6 ADD SWAP5 POP PUSH1 0x20 DUP2 ADD SWAP1 POP PUSH2 0x899 JUMP JUMPDEST DUP7 DUP4 LT ISZERO PUSH2 0x8DB JUMPI DUP5 DUP10 ADD MLOAD PUSH2 0x8D7 PUSH1 0x1F DUP10 AND DUP3 PUSH2 0x7EA JUMP JUMPDEST DUP4 SSTORE POP JUMPDEST PUSH1 0x1 PUSH1 0x2 DUP9 MUL ADD DUP9 SSTORE POP POP POP JUMPDEST POP POP POP POP POP POP JUMP INVALID PUSH1 0x80 PUSH1 0x40 MSTORE CALLVALUE DUP1 ISZERO PUSH2 0xF JUMPI PUSH0 DUP1 REVERT JUMPDEST POP PUSH2 0x1111 DUP1 PUSH2 0x1D PUSH0 CODECOPY PUSH0 RETURN INVALID PUSH1 0x80 PUSH1 0x40 MSTORE CALLVALUE DUP1 ISZERO PUSH2 0xF JUMPI PUSH0 DUP1 REVERT JUMPDEST POP PUSH1 0x4 CALLDATASIZE LT PUSH2 0x91 JUMPI PUSH0 CALLDATALOAD PUSH1 0xE0 SHR DUP1 PUSH4 0xB15BF255 GT PUSH2 0x64 JUMPI DUP1 PUSH4 0xB15BF255 EQ PUSH2 0x12D JUMPI DUP1 PUSH4 0xC0EFFB7D EQ PUSH2 0x160 JUMPI DUP1 PUSH4 0xD8CE6572 EQ PUSH2 0x17C JUMPI DUP1 PUSH4 0xE47766FF EQ PUSH2 0x1AD JUMPI DUP1 PUSH4 0xEA42C7EF EQ PUSH2 0x1C9 JUMPI PUSH2 0x91 JUMP JUMPDEST DUP1 PUSH4 0xE34B00E EQ PUSH2 0x95 JUMPI DUP1 PUSH4 0x220F8ADE EQ PUSH2 0xB1 JUMPI DUP1 PUSH4 0x7F975A37 EQ PUSH2 0xE1 JUMPI DUP1 PUSH4 0x9AB1A6CC EQ PUSH2 0xFD JUMPI JUMPDEST PUSH0 DUP1 REVERT JUMPDEST PUSH2 0xAF PUSH1 0x4 DUP1 CALLDATASIZE SUB DUP2 ADD SWAP1 PUSH2 0xAA SWAP2 SWAP1 PUSH2 0xA16 JUMP JUMPDEST PUSH2 0x1FA JUMP JUMPDEST STOP JUMPDEST PUSH2 0xCB PUSH1 0x4 DUP1 CALLDATASIZE SUB DUP2 ADD SWAP1 PUSH2 0xC6 SWAP2 SWAP1 PUSH2 0xAF3 JUMP JUMPDEST PUSH2 0x2AD JUMP JUMPDEST PUSH1 0x40 MLOAD PUSH2 0xD8 SWAP2 SWAP1 PUSH2 0xB67 JUMP JUMPDEST PUSH1 0x40 MLOAD DUP1 SWAP2 SUB SWAP1 RETURN JUMPDEST PUSH2 0xFB PUSH1 0x4 DUP1 CALLDATASIZE SUB DUP2 ADD SWAP1 PUSH2 0xF6 SWAP2 SWAP1 PUSH2 0xAF3 JUMP JUMPDEST PUSH2 0x37C JUMP JUMPDEST STOP JUMPDEST PUSH2 0x117 PUSH1 0x4 DUP1 CALLDATASIZE SUB DUP2 ADD SWAP1 PUSH2 0x112 SWAP2 SWAP1 PUSH2 0xB80 JUMP JUMPDEST PUSH2 0x3F5 JUMP JUMPDEST PUSH1 0x40 MLOAD PUSH2 0x124 SWAP2 SWAP1 PUSH2 0xB67 JUMP JUMPDEST PUSH1 0x40 MLOAD DUP1 SWAP2 SUB SWAP1 RETURN JUMPDEST PUSH2 0x147 PUSH1 0x4 DUP1 CALLDATASIZE SUB DUP2 ADD SWAP1 PUSH2 0x142 SWAP2 SWAP1 PUSH2 0xB80 JUMP JUMPDEST PUSH2 0x42A JUMP JUMPDEST PUSH1 0x40 MLOAD PUSH2 0x157 SWAP5 SWAP4 SWAP3 SWAP2 SWAP1 PUSH2 0xC50 JUMP JUMPDEST PUSH1 0x40 MLOAD DUP1 SWAP2 SUB SWAP1 RETURN JUMPDEST PUSH2 0x17A PUSH1 0x4 DUP1 CALLDATASIZE SUB DUP2 ADD SWAP1 PUSH2 0x175 SWAP2 SWAP1 PUSH2 0xCA8 JUMP JUMPDEST PUSH2 0x60F JUMP JUMPDEST STOP JUMPDEST PUSH2 0x196 PUSH1 0x4 DUP1 CALLDATASIZE SUB DUP2 ADD SWAP1 PUSH2 0x191 SWAP2 SWAP1 PUSH2 0xB80 JUMP JUMPDEST PUSH2 0x679 JUMP JUMPDEST PUSH1 0x40 MLOAD PUSH2 0x1A4 SWAP3 SWAP2 SWAP1 PUSH2 0xD1E JUMP JUMPDEST PUSH1 0x40 MLOAD DUP1 SWAP2 SUB SWAP1 RETURN JUMPDEST PUSH2 0x1C7 PUSH1 0x4 DUP1 CALLDATASIZE SUB DUP2 ADD SWAP1 PUSH2 0x1C2 SWAP2 SWAP1 PUSH2 0xB80 JUMP JUMPDEST PUSH2 0x743 JUMP JUMPDEST STOP JUMPDEST PUSH2 0x1E3 PUSH1 0x4 DUP1 CALLDATASIZE SUB DUP2 ADD SWAP1 PUSH2 0x1DE SWAP2 SWAP1 PUSH2 0xB80 JUMP JUMPDEST PUSH2 0x7EC JUMP JUMPDEST PUSH1 0x40 MLOAD PUSH2 0x1F1 SWAP3 SWAP2 SWAP1 PUSH2 0xD8B JUMP JUMPDEST PUSH1 0x40 MLOAD DUP1 SWAP2 SUB SWAP1 RETURN JUMPDEST PUSH1 0x40 MLOAD DUP1 PUSH1 0x80 ADD PUSH1 0x40 MSTORE DUP1 DUP5 DUP2 MSTORE PUSH1 0x20 ADD DUP4 DUP2 MSTORE PUSH1 0x20 ADD DUP3 DUP2 MSTORE PUSH1 0x20 ADD PUSH0 PUSH4 0xFFFFFFFF AND DUP2 MSTORE POP PUSH1 0x3 DUP5 PUSH1 0x40 MLOAD PUSH2 0x231 SWAP2 SWAP1 PUSH2 0xDF3 JUMP JUMPDEST SWAP1 DUP2 MSTORE PUSH1 0x20 ADD PUSH1 0x40 MLOAD DUP1 SWAP2 SUB SWAP1 KECCAK256 PUSH0 DUP3 ADD MLOAD DUP2 PUSH0 ADD SWAP1 DUP2 PUSH2 0x252 SWAP2 SWAP1 PUSH2 0x100C JUMP JUMPDEST POP PUSH1 0x20 DUP3 ADD MLOAD DUP2 PUSH1 0x1 ADD SWAP1 DUP2 PUSH2 0x268 SWAP2 SWAP1 PUSH2 0x100C JUMP JUMPDEST POP PUSH1 0x40 DUP3 ADD MLOAD DUP2 PUSH1 0x2 ADD SWAP1 DUP2 PUSH2 0x27E SWAP2 SWAP1 PUSH2 0x100C JUMP JUMPDEST POP PUSH1 0x60 DUP3 ADD MLOAD DUP2 PUSH1 0x3 ADD PUSH0 PUSH2 0x100 EXP DUP2 SLOAD DUP2 PUSH4 0xFFFFFFFF MUL NOT AND SWAP1 DUP4 PUSH4 0xFFFFFFFF AND MUL OR SWAP1 SSTORE POP SWAP1 POP POP POP POP POP JUMP JUMPDEST PUSH0 PUSH1 0x1 ISZERO ISZERO PUSH1 0x1 DUP5 PUSH1 0x40 MLOAD PUSH2 0x2C2 SWAP2 SWAP1 PUSH2 0xDF3 JUMP JUMPDEST SWAP1 DUP2 MSTORE PUSH1 0x20 ADD PUSH1 0x40 MLOAD DUP1 SWAP2 SUB SWAP1 KECCAK256 PUSH1 0x1 ADD PUSH0 SWAP1 SLOAD SWAP1 PUSH2 0x100 EXP SWAP1 DIV PUSH1 0xFF AND ISZERO ISZERO EQ DUP1 ISZERO PUSH2 0x31D JUMPI POP PUSH1 0x1 ISZERO ISZERO PUSH1 0x2 DUP5 PUSH1 0x40 MLOAD PUSH2 0x2FE SWAP2 SWAP1 PUSH2 0xDF3 JUMP JUMPDEST SWAP1 DUP2 MSTORE PUSH1 0x20 ADD PUSH1 0x40 MLOAD DUP1 SWAP2 SUB SWAP1 KECCAK256 PUSH0 SWAP1 SLOAD SWAP1 PUSH2 0x100 EXP SWAP1 DIV PUSH1 0xFF AND ISZERO ISZERO EQ JUMPDEST DUP1 ISZERO PUSH2 0x364 JUMPI POP DUP2 PUSH4 0xFFFFFFFF AND PUSH1 0x3 DUP5 PUSH1 0x40 MLOAD PUSH2 0x33B SWAP2 SWAP1 PUSH2 0xDF3 JUMP JUMPDEST SWAP1 DUP2 MSTORE PUSH1 0x20 ADD PUSH1 0x40 MLOAD DUP1 SWAP2 SUB SWAP1 KECCAK256 PUSH1 0x3 ADD PUSH0 SWAP1 SLOAD SWAP1 PUSH2 0x100 EXP SWAP1 DIV PUSH4 0xFFFFFFFF AND PUSH4 0xFFFFFFFF AND EQ JUMPDEST ISZERO PUSH2 0x372 JUMPI PUSH1 0x1 SWAP1 POP PUSH2 0x376 JUMP JUMPDEST PUSH0 SWAP1 POP JUMPDEST SWAP3 SWAP2 POP POP JUMP JUMPDEST PUSH1 0x1 PUSH1 0x2 DUP4 PUSH1 0x40 MLOAD PUSH2 0x38E SWAP2 SWAP1 PUSH2 0xDF3 JUMP JUMPDEST SWAP1 DUP2 MSTORE PUSH1 0x20 ADD PUSH1 0x40 MLOAD DUP1 SWAP2 SUB SWAP1 KECCAK256 PUSH0 PUSH2 0x100 EXP DUP2 SLOAD DUP2 PUSH1 0xFF MUL NOT AND SWAP1 DUP4 ISZERO ISZERO MUL OR SWAP1 SSTORE POP DUP1 PUSH1 0x3 DUP4 PUSH1 0x40 MLOAD PUSH2 0x3C3 SWAP2 SWAP1 PUSH2 0xDF3 JUMP JUMPDEST SWAP1 DUP2 MSTORE PUSH1 0x20 ADD PUSH1 0x40 MLOAD DUP1 SWAP2 SUB SWAP1 KECCAK256 PUSH1 0x3 ADD PUSH0 PUSH2 0x100 EXP DUP2 SLOAD DUP2 PUSH4 0xFFFFFFFF MUL NOT AND SWAP1 DUP4 PUSH4 0xFFFFFFFF AND MUL OR SWAP1 SSTORE POP POP POP JUMP JUMPDEST PUSH1 0x2 DUP2 DUP1 MLOAD PUSH1 0x20 DUP2 ADD DUP3 ADD DUP1 MLOAD DUP5 DUP3 MSTORE PUSH1 0x20 DUP4 ADD PUSH1 0x20 DUP6 ADD KECCAK256 DUP2 DUP4 MSTORE DUP1 SWAP6 POP POP POP POP POP POP PUSH0 SWAP2 POP SLOAD SWAP1 PUSH2 0x100 EXP SWAP1 DIV PUSH1 0xFF AND DUP2 JUMP JUMPDEST PUSH1 0x3 DUP2 DUP1 MLOAD PUSH1 0x20 DUP2 ADD DUP3 ADD DUP1 MLOAD DUP5 DUP3 MSTORE PUSH1 0x20 DUP4 ADD PUSH1 0x20 DUP6 ADD KECCAK256 DUP2 DUP4 MSTORE DUP1 SWAP6 POP POP POP POP POP POP PUSH0 SWAP2 POP SWAP1 POP DUP1 PUSH0 ADD DUP1 SLOAD PUSH2 0x461 SWAP1 PUSH2 0xE36 JUMP JUMPDEST DUP1 PUSH1 0x1F ADD PUSH1 0x20 DUP1 SWAP2 DIV MUL PUSH1 0x20 ADD PUSH1 0x40 MLOAD SWAP1 DUP2 ADD PUSH1 0x40 MSTORE DUP1 SWAP3 SWAP2 SWAP1 DUP2 DUP2 MSTORE PUSH1 0x20 ADD DUP3 DUP1 SLOAD PUSH2 0x48D SWAP1 PUSH2 0xE36 JUMP JUMPDEST DUP1 ISZERO PUSH2 0x4D8 JUMPI DUP1 PUSH1 0x1F LT PUSH2 0x4AF JUMPI PUSH2 0x100 DUP1 DUP4 SLOAD DIV MUL DUP4 MSTORE SWAP2 PUSH1 0x20 ADD SWAP2 PUSH2 0x4D8 JUMP JUMPDEST DUP3 ADD SWAP2 SWAP1 PUSH0 MSTORE PUSH1 0x20 PUSH0 KECCAK256 SWAP1 JUMPDEST DUP2 SLOAD DUP2 MSTORE SWAP1 PUSH1 0x1 ADD SWAP1 PUSH1 0x20 ADD DUP1 DUP4 GT PUSH2 0x4BB JUMPI DUP3 SWAP1 SUB PUSH1 0x1F AND DUP3 ADD SWAP2 JUMPDEST POP POP POP POP POP SWAP1 DUP1 PUSH1 0x1 ADD DUP1 SLOAD PUSH2 0x4ED SWAP1 PUSH2 0xE36 JUMP JUMPDEST DUP1 PUSH1 0x1F ADD PUSH1 0x20 DUP1 SWAP2 DIV MUL PUSH1 0x20 ADD PUSH1 0x40 MLOAD SWAP1 DUP2 ADD PUSH1 0x40 MSTORE DUP1 SWAP3 SWAP2 SWAP1 DUP2 DUP2 MSTORE PUSH1 0x20 ADD DUP3 DUP1 SLOAD PUSH2 0x519 SWAP1 PUSH2 0xE36 JUMP JUMPDEST DUP1 ISZERO PUSH2 0x564 JUMPI DUP1 PUSH1 0x1F LT PUSH2 0x53B JUMPI PUSH2 0x100 DUP1 DUP4 SLOAD DIV MUL DUP4 MSTORE SWAP2 PUSH1 0x20 ADD SWAP2 PUSH2 0x564 JUMP JUMPDEST DUP3 ADD SWAP2 SWAP1 PUSH0 MSTORE PUSH1 0x20 PUSH0 KECCAK256 SWAP1 JUMPDEST DUP2 SLOAD DUP2 MSTORE SWAP1 PUSH1 0x1 ADD SWAP1 PUSH1 0x20 ADD DUP1 DUP4 GT PUSH2 0x547 JUMPI DUP3 SWAP1 SUB PUSH1 0x1F AND DUP3 ADD SWAP2 JUMPDEST POP POP POP POP POP SWAP1 DUP1 PUSH1 0x2 ADD DUP1 SLOAD PUSH2 0x579 SWAP1 PUSH2 0xE36 JUMP JUMPDEST DUP1 PUSH1 0x1F ADD PUSH1 0x20 DUP1 SWAP2 DIV MUL PUSH1 0x20 ADD PUSH1 0x40 MLOAD SWAP1 DUP2 ADD PUSH1 0x40 MSTORE DUP1 SWAP3 SWAP2 SWAP1 DUP2 DUP2 MSTORE PUSH1 0x20 ADD DUP3 DUP1 SLOAD PUSH2 0x5A5 SWAP1 PUSH2 0xE36 JUMP JUMPDEST DUP1 ISZERO PUSH2 0x5F0 JUMPI DUP1 PUSH1 0x1F LT PUSH2 0x5C7 JUMPI PUSH2 0x100 DUP1 DUP4 SLOAD DIV MUL DUP4 MSTORE SWAP2 PUSH1 0x20 ADD SWAP2 PUSH2 0x5F0 JUMP JUMPDEST DUP3 ADD SWAP2 SWAP1 PUSH0 MSTORE PUSH1 0x20 PUSH0 KECCAK256 SWAP1 JUMPDEST DUP2 SLOAD DUP2 MSTORE SWAP1 PUSH1 0x1 ADD SWAP1 PUSH1 0x20 ADD DUP1 DUP4 GT PUSH2 0x5D3 JUMPI DUP3 SWAP1 SUB PUSH1 0x1F AND DUP3 ADD SWAP2 JUMPDEST POP POP POP POP POP SWAP1 DUP1 PUSH1 0x3 ADD PUSH0 SWAP1 SLOAD SWAP1 PUSH2 0x100 EXP SWAP1 DIV PUSH4 0xFFFFFFFF AND SWAP1 POP DUP5 JUMP JUMPDEST DUP1 PUSH1 0x1 DUP4 PUSH1 0x40 MLOAD PUSH2 0x620 SWAP2 SWAP1 PUSH2 0xDF3 JUMP JUMPDEST SWAP1 DUP2 MSTORE PUSH1 0x20 ADD PUSH1 0x40 MLOAD DUP1 SWAP2 SUB SWAP1 KECCAK256 PUSH0 ADD SWAP1 DUP2 PUSH2 0x63C SWAP2 SWAP1 PUSH2 0x100C JUMP JUMPDEST POP PUSH1 0x1 DUP1 DUP4 PUSH1 0x40 MLOAD PUSH2 0x64E SWAP2 SWAP1 PUSH2 0xDF3 JUMP JUMPDEST SWAP1 DUP2 MSTORE PUSH1 0x20 ADD PUSH1 0x40 MLOAD DUP1 SWAP2 SUB SWAP1 KECCAK256 PUSH1 0x1 ADD PUSH0 PUSH2 0x100 EXP DUP2 SLOAD DUP2 PUSH1 0xFF MUL NOT AND SWAP1 DUP4 ISZERO ISZERO MUL OR SWAP1 SSTORE POP POP POP JUMP JUMPDEST PUSH1 0x1 DUP2 DUP1 MLOAD PUSH1 0x20 DUP2 ADD DUP3 ADD DUP1 MLOAD DUP5 DUP3 MSTORE PUSH1 0x20 DUP4 ADD PUSH1 0x20 DUP6 ADD KECCAK256 DUP2 DUP4 MSTORE DUP1 SWAP6 POP POP POP POP POP POP PUSH0 SWAP2 POP SWAP1 POP DUP1 PUSH0 ADD DUP1 SLOAD PUSH2 0x6B0 SWAP1 PUSH2 0xE36 JUMP JUMPDEST DUP1 PUSH1 0x1F ADD PUSH1 0x20 DUP1 SWAP2 DIV MUL PUSH1 0x20 ADD PUSH1 0x40 MLOAD SWAP1 DUP2 ADD PUSH1 0x40 MSTORE DUP1 SWAP3 SWAP2 SWAP1 DUP2 DUP2 MSTORE PUSH1 0x20 ADD DUP3 DUP1 SLOAD PUSH2 0x6DC SWAP1 PUSH2 0xE36 JUMP JUMPDEST DUP1 ISZERO PUSH2 0x727 JUMPI DUP1 PUSH1 0x1F LT PUSH2 0x6FE JUMPI PUSH2 0x100 DUP1 DUP4 SLOAD DIV MUL DUP4 MSTORE SWAP2 PUSH1 0x20 ADD SWAP2 PUSH2 0x727 JUMP JUMPDEST DUP3 ADD SWAP2 SWAP1 PUSH0 MSTORE PUSH1 0x20 PUSH0 KECCAK256 SWAP1 JUMPDEST DUP2 SLOAD DUP2 MSTORE SWAP1 PUSH1 0x1 ADD SWAP1 PUSH1 0x20 ADD DUP1 DUP4 GT PUSH2 0x70A JUMPI DUP3 SWAP1 SUB PUSH1 0x1F AND DUP3 ADD SWAP2 JUMPDEST POP POP POP POP POP SWAP1 DUP1 PUSH1 0x1 ADD PUSH0 SWAP1 SLOAD SWAP1 PUSH2 0x100 EXP SWAP1 DIV PUSH1 0xFF AND SWAP1 POP DUP3 JUMP JUMPDEST PUSH1 0x40 MLOAD DUP1 PUSH1 0x40 ADD PUSH1 0x40 MSTORE DUP1 DUP3 DUP2 MSTORE PUSH1 0x20 ADD CALLER PUSH20 0xFFFFFFFFFFFFFFFFFFFFFFFFFFFFFFFFFFFFFFFF AND DUP2 MSTORE POP PUSH1 0x4 DUP3 PUSH1 0x40 MLOAD PUSH2 0x77E SWAP2 SWAP1 PUSH2 0xDF3 JUMP JUMPDEST SWAP1 DUP2 MSTORE PUSH1 0x20 ADD PUSH1 0x40 MLOAD DUP1 SWAP2 SUB SWAP1 KECCAK256 PUSH0 DUP3 ADD MLOAD DUP2 PUSH0 ADD SWAP1 DUP2 PUSH2 0x79F SWAP2 SWAP1 PUSH2 0x100C JUMP JUMPDEST POP PUSH1 0x20 DUP3 ADD MLOAD DUP2 PUSH1 0x1 ADD PUSH0 PUSH2 0x100 EXP DUP2 SLOAD DUP2 PUSH20 0xFFFFFFFFFFFFFFFFFFFFFFFFFFFFFFFFFFFFFFFF MUL NOT AND SWAP1 DUP4 PUSH20 0xFFFFFFFFFFFFFFFFFFFFFFFFFFFFFFFFFFFFFFFF AND MUL OR SWAP1 SSTORE POP SWAP1 POP POP POP JUMP JUMPDEST PUSH1 0x4 DUP2 DUP1 MLOAD PUSH1 0x20 DUP2 ADD DUP3 ADD DUP1 MLOAD DUP5 DUP3 MSTORE PUSH1 0x20 DUP4 ADD PUSH1 0x20 DUP6 ADD KECCAK256 DUP2 DUP4 MSTORE DUP1 SWAP6 POP POP POP POP POP POP PUSH0 SWAP2 POP SWAP1 POP DUP1 PUSH0 ADD DUP1 SLOAD PUSH2 0x823 SWAP1 PUSH2 0xE36 JUMP JUMPDEST DUP1 PUSH1 0x1F ADD PUSH1 0x20 DUP1 SWAP2 DIV MUL PUSH1 0x20 ADD PUSH1 0x40 MLOAD SWAP1 DUP2 ADD PUSH1 0x40 MSTORE DUP1 SWAP3 SWAP2 SWAP1 DUP2 DUP2 MSTORE PUSH1 0x20 ADD DUP3 DUP1 SLOAD PUSH2 0x84F SWAP1 PUSH2 0xE36 JUMP JUMPDEST DUP1 ISZERO PUSH2 0x89A JUMPI DUP1 PUSH1 0x1F LT PUSH2 0x871 JUMPI PUSH2 0x100 DUP1 DUP4 SLOAD DIV MUL DUP4 MSTORE SWAP2 PUSH1 0x20 ADD SWAP2 PUSH2 0x89A JUMP JUMPDEST DUP3 ADD SWAP2 SWAP1 PUSH0 MSTORE PUSH1 0x20 PUSH0 KECCAK256 SWAP1 JUMPDEST DUP2 SLOAD DUP2 MSTORE SWAP1 PUSH1 0x1 ADD SWAP1 PUSH1 0x20 ADD DUP1 DUP4 GT PUSH2 0x87D JUMPI DUP3 SWAP1 SUB PUSH1 0x1F AND DUP3 ADD SWAP2 JUMPDEST POP POP POP POP POP SWAP1 DUP1 PUSH1 0x1 ADD PUSH0 SWAP1 SLOAD SWAP1 PUSH2 0x100 EXP SWAP1 DIV PUSH20 0xFFFFFFFFFFFFFFFFFFFFFFFFFFFFFFFFFFFFFFFF AND SWAP1 POP DUP3 JUMP JUMPDEST PUSH0 PUSH1 0x40 MLOAD SWAP1 POP SWAP1 JUMP JUMPDEST PUSH0 DUP1 REVERT JUMPDEST PUSH0 DUP1 REVERT JUMPDEST PUSH0 DUP1 REVERT JUMPDEST PUSH0 DUP1 REVERT JUMPDEST PUSH0 PUSH1 0x1F NOT PUSH1 0x1F DUP4 ADD AND SWAP1 POP SWAP2 SWAP1 POP JUMP JUMPDEST PUSH32 0x4E487B7100000000000000000000000000000000000000000000000000000000 PUSH0 MSTORE PUSH1 0x41 PUSH1 0x4 MSTORE PUSH1 0x24 PUSH0 REVERT JUMPDEST PUSH2 0x928 DUP3 PUSH2 0x8E2 JUMP JUMPDEST DUP2 ADD DUP2 DUP2 LT PUSH8 0xFFFFFFFFFFFFFFFF DUP3 GT OR ISZERO PUSH2 0x947 JUMPI PUSH2 0x946 PUSH2 0x8F2 JUMP JUMPDEST JUMPDEST DUP1 PUSH1 0x40 MSTORE POP POP POP JUMP JUMPDEST PUSH0 PUSH2 0x959 PUSH2 0x8C9 JUMP JUMPDEST SWAP1 POP PUSH2 0x965 DUP3 DUP3 PUSH2 0x91F JUMP JUMPDEST SWAP2 SWAP1 POP JUMP JUMPDEST PUSH0 PUSH8 0xFFFFFFFFFFFFFFFF DUP3 GT ISZERO PUSH2 0x984 JUMPI PUSH2 0x983 PUSH2 0x8F2 JUMP JUMPDEST JUMPDEST PUSH2 0x98D DUP3 PUSH2 0x8E2 JUMP JUMPDEST SWAP1 POP PUSH1 0x20 DUP2 ADD SWAP1 POP SWAP2 SWAP1 POP JUMP JUMPDEST DUP3 DUP2 DUP4 CALLDATACOPY PUSH0 DUP4 DUP4 ADD MSTORE POP POP POP JUMP JUMPDEST PUSH0 PUSH2 0x9BA PUSH2 0x9B5 DUP5 PUSH2 0x96A JUMP JUMPDEST PUSH2 0x950 JUMP JUMPDEST SWAP1 POP DUP3 DUP2 MSTORE PUSH1 0x20 DUP2 ADD DUP5 DUP5 DUP5 ADD GT ISZERO PUSH2 0x9D6 JUMPI PUSH2 0x9D5 PUSH2 0x8DE JUMP JUMPDEST JUMPDEST PUSH2 0x9E1 DUP5 DUP3 DUP6 PUSH2 0x99A JUMP JUMPDEST POP SWAP4 SWAP3 POP POP POP JUMP JUMPDEST PUSH0 DUP3 PUSH1 0x1F DUP4 ADD SLT PUSH2 0x9FD JUMPI PUSH2 0x9FC PUSH2 0x8DA JUMP JUMPDEST JUMPDEST DUP2 CALLDATALOAD PUSH2 0xA0D DUP5 DUP3 PUSH1 0x20 DUP7 ADD PUSH2 0x9A8 JUMP JUMPDEST SWAP2 POP POP SWAP3 SWAP2 POP POP JUMP JUMPDEST PUSH0 DUP1 PUSH0 PUSH1 0x60 DUP5 DUP7 SUB SLT ISZERO PUSH2 0xA2D JUMPI PUSH2 0xA2C PUSH2 0x8D2 JUMP JUMPDEST JUMPDEST PUSH0 DUP5 ADD CALLDATALOAD PUSH8 0xFFFFFFFFFFFFFFFF DUP2 GT ISZERO PUSH2 0xA4A JUMPI PUSH2 0xA49 PUSH2 0x8D6 JUMP JUMPDEST JUMPDEST PUSH2 0xA56 DUP7 DUP3 DUP8 ADD PUSH2 0x9E9 JUMP JUMPDEST SWAP4 POP POP PUSH1 0x20 DUP5 ADD CALLDATALOAD PUSH8 0xFFFFFFFFFFFFFFFF DUP2 GT ISZERO PUSH2 0xA77 JUMPI PUSH2 0xA76 PUSH2 0x8D6 JUMP JUMPDEST JUMPDEST PUSH2 0xA83 DUP7 DUP3 DUP8 ADD PUSH2 0x9E9 JUMP JUMPDEST SWAP3 POP POP PUSH1 0x40 DUP5 ADD CALLDATALOAD PUSH8 0xFFFFFFFFFFFFFFFF DUP2 GT ISZERO PUSH2 0xAA4 JUMPI PUSH2 0xAA3 PUSH2 0x8D6 JUMP JUMPDEST JUMPDEST PUSH2 0xAB0 DUP7 DUP3 DUP8 ADD PUSH2 0x9E9 JUMP JUMPDEST SWAP2 POP POP SWAP3 POP SWAP3 POP SWAP3 JUMP JUMPDEST PUSH0 PUSH4 0xFFFFFFFF DUP3 AND SWAP1 POP SWAP2 SWAP1 POP JUMP JUMPDEST PUSH2 0xAD2 DUP2 PUSH2 0xABA JUMP JUMPDEST DUP2 EQ PUSH2 0xADC JUMPI PUSH0 DUP1 REVERT JUMPDEST POP JUMP JUMPDEST PUSH0 DUP2 CALLDATALOAD SWAP1 POP PUSH2 0xAED DUP2 PUSH2 0xAC9 JUMP JUMPDEST SWAP3 SWAP2 POP POP JUMP JUMPDEST PUSH0 DUP1 PUSH1 0x40 DUP4 DUP6 SUB SLT ISZERO PUSH2 0xB09 JUMPI PUSH2 0xB08 PUSH2 0x8D2 JUMP JUMPDEST JUMPDEST PUSH0 DUP4 ADD CALLDATALOAD PUSH8 0xFFFFFFFFFFFFFFFF DUP2 GT ISZERO PUSH2 0xB26 JUMPI PUSH2 0xB25 PUSH2 0x8D6 JUMP JUMPDEST JUMPDEST PUSH2 0xB32 DUP6 DUP3 DUP7 ADD PUSH2 0x9E9 JUMP JUMPDEST SWAP3 POP POP PUSH1 0x20 PUSH2 0xB43 DUP6 DUP3 DUP7 ADD PUSH2 0xADF JUMP JUMPDEST SWAP2 POP POP SWAP3 POP SWAP3 SWAP1 POP JUMP JUMPDEST PUSH0 DUP2 ISZERO ISZERO SWAP1 POP SWAP2 SWAP1 POP JUMP JUMPDEST PUSH2 0xB61 DUP2 PUSH2 0xB4D JUMP JUMPDEST DUP3 MSTORE POP POP JUMP JUMPDEST PUSH0 PUSH1 0x20 DUP3 ADD SWAP1 POP PUSH2 0xB7A PUSH0 DUP4 ADD DUP5 PUSH2 0xB58 JUMP JUMPDEST SWAP3 SWAP2 POP POP JUMP JUMPDEST PUSH0 PUSH1 0x20 DUP3 DUP5 SUB SLT ISZERO PUSH2 0xB95 JUMPI PUSH2 0xB94 PUSH2 0x8D2 JUMP JUMPDEST JUMPDEST PUSH0 DUP3 ADD CALLDATALOAD PUSH8 0xFFFFFFFFFFFFFFFF DUP2 GT ISZERO PUSH2 0xBB2 JUMPI PUSH2 0xBB1 PUSH2 0x8D6 JUMP JUMPDEST JUMPDEST PUSH2 0xBBE DUP5 DUP3 DUP6 ADD PUSH2 0x9E9 JUMP JUMPDEST SWAP2 POP POP SWAP3 SWAP2 POP POP JUMP JUMPDEST PUSH0 DUP2 MLOAD SWAP1 POP SWAP2 SWAP1 POP JUMP JUMPDEST PUSH0 DUP3 DUP3 MSTORE PUSH1 0x20 DUP3 ADD SWAP1 POP SWAP3 SWAP2 POP POP JUMP JUMPDEST PUSH0 JUMPDEST DUP4 DUP2 LT ISZERO PUSH2 0xBFE JUMPI DUP1 DUP3 ADD MLOAD DUP2 DUP5 ADD MSTORE PUSH1 0x20 DUP2 ADD SWAP1 POP PUSH2 0xBE3 JUMP JUMPDEST PUSH0 DUP5 DUP5 ADD MSTORE POP POP POP POP JUMP JUMPDEST PUSH0 PUSH2 0xC13 DUP3 PUSH2 0xBC7 JUMP JUMPDEST PUSH2 0xC1D DUP2 DUP6 PUSH2 0xBD1 JUMP JUMPDEST SWAP4 POP PUSH2 0xC2D DUP2 DUP6 PUSH1 0x20 DUP7 ADD PUSH2 0xBE1 JUMP JUMPDEST PUSH2 0xC36 DUP2 PUSH2 0x8E2 JUMP JUMPDEST DUP5 ADD SWAP2 POP POP SWAP3 SWAP2 POP POP JUMP JUMPDEST PUSH2 0xC4A DUP2 PUSH2 0xABA JUMP JUMPDEST DUP3 MSTORE POP POP JUMP JUMPDEST PUSH0 PUSH1 0x80 DUP3 ADD SWAP1 POP DUP2 DUP2 SUB PUSH0 DUP4 ADD MSTORE PUSH2 0xC68 DUP2 DUP8 PUSH2 0xC09 JUMP JUMPDEST SWAP1 POP DUP2 DUP2 SUB PUSH1 0x20 DUP4 ADD MSTORE PUSH2 0xC7C DUP2 DUP7 PUSH2 0xC09 JUMP JUMPDEST SWAP1 POP DUP2 DUP2 SUB PUSH1 0x40 DUP4 ADD MSTORE PUSH2 0xC90 DUP2 DUP6 PUSH2 0xC09 JUMP JUMPDEST SWAP1 POP PUSH2 0xC9F PUSH1 0x60 DUP4 ADD DUP5 PUSH2 0xC41 JUMP JUMPDEST SWAP6 SWAP5 POP POP POP POP POP JUMP JUMPDEST PUSH0 DUP1 PUSH1 0x40 DUP4 DUP6 SUB SLT ISZERO PUSH2 0xCBE JUMPI PUSH2 0xCBD PUSH2 0x8D2 JUMP JUMPDEST JUMPDEST PUSH0 DUP4 ADD CALLDATALOAD PUSH8 0xFFFFFFFFFFFFFFFF DUP2 GT ISZERO PUSH2 0xCDB JUMPI PUSH2 0xCDA PUSH2 0x8D6 JUMP JUMPDEST JUMPDEST PUSH2 0xCE7 DUP6 DUP3 DUP7 ADD PUSH2 0x9E9 JUMP JUMPDEST SWAP3 POP POP PUSH1 0x20 DUP4 ADD CALLDATALOAD PUSH8 0xFFFFFFFFFFFFFFFF DUP2 GT ISZERO PUSH2 0xD08 JUMPI PUSH2 0xD07 PUSH2 0x8D6 JUMP JUMPDEST JUMPDEST PUSH2 0xD14 DUP6 DUP3 DUP7 ADD PUSH2 0x9E9 JUMP JUMPDEST SWAP2 POP POP SWAP3 POP SWAP3 SWAP1 POP JUMP JUMPDEST PUSH0 PUSH1 0x40 DUP3 ADD SWAP1 POP DUP2 DUP2 SUB PUSH0 DUP4 ADD MSTORE PUSH2 0xD36 DUP2 DUP6 PUSH2 0xC09 JUMP JUMPDEST SWAP1 POP PUSH2 0xD45 PUSH1 0x20 DUP4 ADD DUP5 PUSH2 0xB58 JUMP JUMPDEST SWAP4 SWAP3 POP POP POP JUMP JUMPDEST PUSH0 PUSH20 0xFFFFFFFFFFFFFFFFFFFFFFFFFFFFFFFFFFFFFFFF DUP3 AND SWAP1 POP SWAP2 SWAP1 POP JUMP JUMPDEST PUSH0 PUSH2 0xD75 DUP3 PUSH2 0xD4C JUMP JUMPDEST SWAP1 POP SWAP2 SWAP1 POP JUMP JUMPDEST PUSH2 0xD85 DUP2 PUSH2 0xD6B JUMP JUMPDEST DUP3 MSTORE POP POP JUMP JUMPDEST PUSH0 PUSH1 0x40 DUP3 ADD SWAP1 POP DUP2 DUP2 SUB PUSH0 DUP4 ADD MSTORE PUSH2 0xDA3 DUP2 DUP6 PUSH2 0xC09 JUMP JUMPDEST SWAP1 POP PUSH2 0xDB2 PUSH1 0x20 DUP4 ADD DUP5 PUSH2 0xD7C JUMP JUMPDEST SWAP4 SWAP3 POP POP POP JUMP JUMPDEST PUSH0 DUP2 SWAP1 POP SWAP3 SWAP2 POP POP JUMP JUMPDEST PUSH0 PUSH2 0xDCD DUP3 PUSH2 0xBC7 JUMP JUMPDEST PUSH2 0xDD7 DUP2 DUP6 PUSH2 0xDB9 JUMP JUMPDEST SWAP4 POP PUSH2 0xDE7 DUP2 DUP6 PUSH1 0x20 DUP7 ADD PUSH2 0xBE1 JUMP JUMPDEST DUP1 DUP5 ADD SWAP2 POP POP SWAP3 SWAP2 POP POP JUMP JUMPDEST PUSH0 PUSH2 0xDFE DUP3 DUP5 PUSH2 0xDC3 JUMP JUMPDEST SWAP2 POP DUP2 SWAP1 POP SWAP3 SWAP2 POP POP JUMP JUMPDEST PUSH32 0x4E487B7100000000000000000000000000000000000000000000000000000000 PUSH0 MSTORE PUSH1 0x22 PUSH1 0x4 MSTORE PUSH1 0x24 PUSH0 REVERT JUMPDEST PUSH0 PUSH1 0x2 DUP3 DIV SWAP1 POP PUSH1 0x1 DUP3 AND DUP1 PUSH2 0xE4D JUMPI PUSH1 0x7F DUP3 AND SWAP2 POP JUMPDEST PUSH1 0x20 DUP3 LT DUP2 SUB PUSH2 0xE60 JUMPI PUSH2 0xE5F PUSH2 0xE09 JUMP JUMPDEST JUMPDEST POP SWAP2 SWAP1 POP JUMP JUMPDEST PUSH0 DUP2 SWAP1 POP DUP2 PUSH0 MSTORE PUSH1 0x20 PUSH0 KECCAK256 SWAP1 POP SWAP2 SWAP1 POP JUMP JUMPDEST PUSH0 PUSH1 0x20 PUSH1 0x1F DUP4 ADD DIV SWAP1 POP SWAP2 SWAP1 POP JUMP JUMPDEST PUSH0 DUP3 DUP3 SHL SWAP1 POP SWAP3 SWAP2 POP POP JUMP JUMPDEST PUSH0 PUSH1 0x8 DUP4 MUL PUSH2 0xEC2 PUSH32 0xFFFFFFFFFFFFFFFFFFFFFFFFFFFFFFFFFFFFFFFFFFFFFFFFFFFFFFFFFFFFFFFF DUP3 PUSH2 0xE87 JUMP JUMPDEST PUSH2 0xECC DUP7 DUP4 PUSH2 0xE87 JUMP JUMPDEST SWAP6 POP DUP1 NOT DUP5 AND SWAP4 POP DUP1 DUP7 AND DUP5 OR SWAP3 POP POP POP SWAP4 SWAP3 POP POP POP JUMP JUMPDEST PUSH0 DUP2 SWAP1 POP SWAP2 SWAP1 POP JUMP JUMPDEST PUSH0 DUP2 SWAP1 POP SWAP2 SWAP1 POP JUMP JUMPDEST PUSH0 PUSH2 0xF10 PUSH2 0xF0B PUSH2 0xF06 DUP5 PUSH2 0xEE4 JUMP JUMPDEST PUSH2 0xEED JUMP JUMPDEST PUSH2 0xEE4 JUMP JUMPDEST SWAP1 POP SWAP2 SWAP1 POP JUMP JUMPDEST PUSH0 DUP2 SWAP1 POP SWAP2 SWAP1 POP JUMP JUMPDEST PUSH2 0xF29 DUP4 PUSH2 0xEF6 JUMP JUMPDEST PUSH2 0xF3D PUSH2 0xF35 DUP3 PUSH2 0xF17 JUMP JUMPDEST DUP5 DUP5 SLOAD PUSH2 0xE93 JUMP JUMPDEST DUP3 SSTORE POP POP POP POP JUMP JUMPDEST PUSH0 SWAP1 JUMP JUMPDEST PUSH2 0xF51 PUSH2 0xF45 JUMP JUMPDEST PUSH2 0xF5C DUP2 DUP5 DUP5 PUSH2 0xF20 JUMP JUMPDEST POP POP POP JUMP JUMPDEST JUMPDEST DUP2 DUP2 LT ISZERO PUSH2 0xF7F JUMPI PUSH2 0xF74 PUSH0 DUP3 PUSH2 0xF49 JUMP JUMPDEST PUSH1 0x1 DUP2 ADD SWAP1 POP PUSH2 0xF62 JUMP JUMPDEST POP POP JUMP JUMPDEST PUSH1 0x1F DUP3 GT ISZERO PUSH2 0xFC4 JUMPI PUSH2 0xF95 DUP2 PUSH2 0xE66 JUMP JUMPDEST PUSH2 0xF9E DUP5 PUSH2 0xE78 JUMP JUMPDEST DUP2 ADD PUSH1 0x20 DUP6 LT ISZERO PUSH2 0xFAD JUMPI DUP2 SWAP1 POP JUMPDEST PUSH2 0xFC1 PUSH2 0xFB9 DUP6 PUSH2 0xE78 JUMP JUMPDEST DUP4 ADD DUP3 PUSH2 0xF61 JUMP JUMPDEST POP POP JUMPDEST POP POP POP JUMP JUMPDEST PUSH0 DUP3 DUP3 SHR SWAP1 POP SWAP3 SWAP2 POP POP JUMP JUMPDEST PUSH0 PUSH2 0xFE4 PUSH0 NOT DUP5 PUSH1 0x8 MUL PUSH2 0xFC9 JUMP JUMPDEST NOT DUP1 DUP4 AND SWAP2 POP POP SWAP3 SWAP2 POP POP JUMP JUMPDEST PUSH0 PUSH2 0xFFC DUP4 DUP4 PUSH2 0xFD5 JUMP JUMPDEST SWAP2 POP DUP3 PUSH1 0x2 MUL DUP3 OR SWAP1 POP SWAP3 SWAP2 POP POP JUMP JUMPDEST PUSH2 0x1015 DUP3 PUSH2 0xBC7 JUMP JUMPDEST PUSH8 0xFFFFFFFFFFFFFFFF DUP2 GT ISZERO PUSH2 0x102E JUMPI PUSH2 0x102D PUSH2 0x8F2 JUMP JUMPDEST JUMPDEST PUSH2 0x1038 DUP3 SLOAD PUSH2 0xE36 JUMP JUMPDEST PUSH2 0x1043 DUP3 DUP3 DUP6 PUSH2 0xF83 JUMP JUMPDEST PUSH0 PUSH1 0x20 SWAP1 POP PUSH1 0x1F DUP4 GT PUSH1 0x1 DUP2 EQ PUSH2 0x1074 JUMPI PUSH0 DUP5 ISZERO PUSH2 0x1062 JUMPI DUP3 DUP8 ADD MLOAD SWAP1 POP JUMPDEST PUSH2 0x106C DUP6 DUP3 PUSH2 0xFF1 JUMP JUMPDEST DUP7 SSTORE POP PUSH2 0x10D3 JUMP JUMPDEST PUSH1 0x1F NOT DUP5 AND PUSH2 0x1082 DUP7 PUSH2 0xE66 JUMP JUMPDEST PUSH0 JUMPDEST DUP3 DUP2 LT ISZERO PUSH2 0x10A9 JUMPI DUP5 DUP10 ADD MLOAD DUP3 SSTORE PUSH1 0x1 DUP3 ADD SWAP2 POP PUSH1 0x20 DUP6 ADD SWAP5 POP PUSH1 0x20 DUP2 ADD SWAP1 POP PUSH2 0x1084 JUMP JUMPDEST DUP7 DUP4 LT ISZERO PUSH2 0x10C6 JUMPI DUP5 DUP10 ADD MLOAD PUSH2 0x10C2 PUSH1 0x1F DUP10 AND DUP3 PUSH2 0xFD5 JUMP JUMPDEST DUP4 SSTORE POP JUMPDEST PUSH1 0x1 PUSH1 0x2 DUP9 MUL ADD DUP9 SSTORE POP POP POP JUMPDEST POP POP POP POP POP POP JUMP INVALID LOG2 PUSH5 0x6970667358 0x22 SLT KECCAK256 EXP 0x1F 0x1F PUSH15 0x901ED0E998813D2E6ED685CAFC91A6 SWAP10 0xBF 0xBA SWAP9 0xE7 PUSH9 0x612E18DA7AD9B46473 PUSH16 0x6C63430008180033A264697066735822 SLT KECCAK256 PUSH0 SWAP4 DUP1 SLT RETURN 0xB7 0xE8 0xCB DELEGATECALL 0x21 BLOBBASEFEE DUP1 0xC0 0xC0 INVALID 0xE2 0xDA 0xD6 PUSH23 0x100D3CEC6F80E4571FB8C592CD64736F6C634300081800 CALLER "},"gasEstimates":{"creation":{"codeDepositCost":"1348000","executionCost":"1401","totalCost":"1349401"},"external":{"createManufacturer(string,string)":"infinite","getManufacturerInstance(string)":"infinite","manufacturersField(string)":"infinite"}},"methodIdentifiers":{"createManufacturer(string,string)":"80b29bec","getManufacturerInstance(string)":"08ac800c","manufacturersField(string)":"c0900bea"}},"storageLayout":{"storage":[{"astId":11,"contract":"FakeProdIden.sol:manufacturerFactory","label":"manufacturersField","offset":0,"slot":"0","type":"t_mapping(t_string_memory_ptr,t_struct(manufacturer)6_storage)"}],"types":{"t_address":{"encoding":"inplace","label":"address","numberOfBytes":"20"},"t_mapping(t_string_memory_ptr,t_struct(manufacturer)6_storage)":{"encoding":"mapping","key":"t_string_memory_ptr","label":"mapping(string => struct manufacturerFactory.manufacturer)","numberOfBytes":"32","value":"t_struct(manufacturer)6_storage"},"t_string_memory_ptr":{"encoding":"bytes","label":"string","numberOfBytes":"32"},"t_string_storage":{"encoding":"bytes","label":"string","numberOfBytes":"32"},"t_struct(manufacturer)6_storage":{"encoding":"inplace","label":"struct manufacturerFactory.manufacturer","members":[{"astId":3,"contract":"FakeProdIden.sol:manufacturerFactory","label":"id","offset":0,"slot":"0","type":"t_string_storage"},{"astId":5,"contract":"FakeProdIden.sol:manufacturerFactory","label":"instance","offset":0,"slot":"1","type":"t_address"}],"numberOfBytes":"64"}}},"userdoc":{"kind":"user","methods":{},"version":1}}