{"abi":[{"inputs":[{"internalType":"string","name":"id","type":"string"},{"internalType":"string","name":"brandName","type":"string"}],"name":"createManufacturer","outputs":[],"stateMutability":"nonpayable","type":"function"},{"inputs":[{"internalType":"string","name":"","type":"string"}],"name":"manufacturersField","outputs":[{"internalType":"string","name":"brandName","type":"string"},{"internalType":"address","name":"instance","type":"address"}],"stateMutability":"view","type":"function"}],"devdoc":{"kind":"dev","methods":{},"version":1},"evm":{"assembly":"    /* \"FakeProdIden.sol\":60:490  contract manufacturerFactory... */\n  mstore(0x40, 0x80)\n  callvalue\n  dup1\n  iszero\n  tag_1\n  jumpi\n  0x00\n  dup1\n  revert\ntag_1:\n  pop\n  dataSize(sub_0)\n  dup1\n  dataOffset(sub_0)\n  0x00\n  codecopy\n  0x00\n  return\nstop\n\nsub_0: assembly {\n        /* \"FakeProdIden.sol\":60:490  contract manufacturerFactory... */\n      mstore(0x40, 0x80)\n      callvalue\n      dup1\n      iszero\n      tag_1\n      jumpi\n      0x00\n      dup1\n      revert\n    tag_1:\n      pop\n      jumpi(tag_2, lt(calldatasize, 0x04))\n      shr(0xe0, calldataload(0x00))\n      dup1\n      0x80b29bec\n      eq\n      tag_3\n      jumpi\n      dup1\n      0xc0900bea\n      eq\n      tag_4\n      jumpi\n    tag_2:\n      0x00\n      dup1\n      revert\n        /* \"FakeProdIden.sol\":256:487  function createManufacturer(string memory id, string memory brandName) public ... */\n    tag_3:\n      tag_5\n      0x04\n      dup1\n      calldatasize\n      sub\n      dup2\n      add\n      swap1\n      tag_6\n      swap2\n      swap1\n      tag_7\n      jump\t// in\n    tag_6:\n      tag_8\n      jump\t// in\n    tag_5:\n      stop\n        /* \"FakeProdIden.sol\":190:247  mapping(string => manufacturer) public manufacturersField */\n    tag_4:\n      tag_9\n      0x04\n      dup1\n      calldatasize\n      sub\n      dup2\n      add\n      swap1\n      tag_10\n      swap2\n      swap1\n      tag_11\n      jump\t// in\n    tag_10:\n      tag_12\n      jump\t// in\n    tag_9:\n      mload(0x40)\n      tag_13\n      swap3\n      swap2\n      swap1\n      tag_14\n      jump\t// in\n    tag_13:\n      mload(0x40)\n      dup1\n      swap2\n      sub\n      swap1\n      return\n        /* \"FakeProdIden.sol\":256:487  function createManufacturer(string memory id, string memory brandName) public ... */\n    tag_8:\n        /* \"FakeProdIden.sol\":351:374  address newManufacturer */\n      0x00\n        /* \"FakeProdIden.sol\":385:403  new FakeProdIden() */\n      mload(0x40)\n      tag_16\n      swap1\n      tag_17\n      jump\t// in\n    tag_16:\n      mload(0x40)\n      dup1\n      swap2\n      sub\n      swap1\n      0x00\n      create\n      dup1\n      iszero\n      dup1\n      iszero\n      tag_18\n      jumpi\n      returndatasize\n      0x00\n      dup1\n      returndatacopy\n      revert(0x00, returndatasize)\n    tag_18:\n      pop\n        /* \"FakeProdIden.sol\":351:404  address newManufacturer = address(new FakeProdIden()) */\n      swap1\n      pop\n        /* \"FakeProdIden.sol\":440:479  manufacturer(brandName,newManufacturer) */\n      mload(0x40)\n      dup1\n      0x40\n      add\n      0x40\n      mstore\n      dup1\n        /* \"FakeProdIden.sol\":453:462  brandName */\n      dup4\n        /* \"FakeProdIden.sol\":440:479  manufacturer(brandName,newManufacturer) */\n      dup2\n      mstore\n      0x20\n      add\n        /* \"FakeProdIden.sol\":463:478  newManufacturer */\n      dup3\n        /* \"FakeProdIden.sol\":440:479  manufacturer(brandName,newManufacturer) */\n      0xffffffffffffffffffffffffffffffffffffffff\n      and\n      dup2\n      mstore\n      pop\n        /* \"FakeProdIden.sol\":415:433  manufacturersField */\n      0x00\n        /* \"FakeProdIden.sol\":434:436  id */\n      dup5\n        /* \"FakeProdIden.sol\":415:437  manufacturersField[id] */\n      mload(0x40)\n      tag_19\n      swap2\n      swap1\n      tag_20\n      jump\t// in\n    tag_19:\n      swap1\n      dup2\n      mstore\n      0x20\n      add\n      mload(0x40)\n      dup1\n      swap2\n      sub\n      swap1\n      keccak256\n        /* \"FakeProdIden.sol\":415:479  manufacturersField[id] = manufacturer(brandName,newManufacturer) */\n      0x00\n      dup3\n      add\n      mload\n      dup2\n      0x00\n      add\n      swap1\n      dup2\n      tag_21\n      swap2\n      swap1\n      tag_22\n      jump\t// in\n    tag_21:\n      pop\n      0x20\n      dup3\n      add\n      mload\n      dup2\n      0x01\n      add\n      exp(0x0100, 0x00)\n      dup2\n      sload\n      dup2\n      0xffffffffffffffffffffffffffffffffffffffff\n      mul\n      not\n      and\n      swap1\n      dup4\n      0xffffffffffffffffffffffffffffffffffffffff\n      and\n      mul\n      or\n      swap1\n      sstore\n      pop\n      swap1\n      pop\n      pop\n        /* \"FakeProdIden.sol\":340:487  {... */\n      pop\n        /* \"FakeProdIden.sol\":256:487  function createManufacturer(string memory id, string memory brandName) public ... */\n      pop\n      pop\n      jump\t// out\n        /* \"FakeProdIden.sol\":190:247  mapping(string => manufacturer) public manufacturersField */\n    tag_12:\n      0x00\n      dup2\n      dup1\n      mload\n      0x20\n      dup2\n      add\n      dup3\n      add\n      dup1\n      mload\n      dup5\n      dup3\n      mstore\n      0x20\n      dup4\n      add\n      0x20\n      dup6\n      add\n      keccak256\n      dup2\n      dup4\n      mstore\n      dup1\n      swap6\n      pop\n      pop\n      pop\n      pop\n      pop\n      pop\n      0x00\n      swap2\n      pop\n      swap1\n      pop\n      dup1\n      0x00\n      add\n      dup1\n      sload\n      tag_23\n      swap1\n      tag_24\n      jump\t// in\n    tag_23:\n      dup1\n      0x1f\n      add\n      0x20\n      dup1\n      swap2\n      div\n      mul\n      0x20\n      add\n      mload(0x40)\n      swap1\n      dup2\n      add\n      0x40\n      mstore\n      dup1\n      swap3\n      swap2\n      swap1\n      dup2\n      dup2\n      mstore\n      0x20\n      add\n      dup3\n      dup1\n      sload\n      tag_25\n      swap1\n      tag_24\n      jump\t// in\n    tag_25:\n      dup1\n      iszero\n      tag_26\n      jumpi\n      dup1\n      0x1f\n      lt\n      tag_27\n      jumpi\n      0x0100\n      dup1\n      dup4\n      sload\n      div\n      mul\n      dup4\n      mstore\n      swap2\n      0x20\n      add\n      swap2\n      jump(tag_26)\n    tag_27:\n      dup3\n      add\n      swap2\n      swap1\n      0x00\n      mstore\n      keccak256(0x00, 0x20)\n      swap1\n    tag_28:\n      dup2\n      sload\n      dup2\n      mstore\n      swap1\n      0x01\n      add\n      swap1\n      0x20\n      add\n      dup1\n      dup4\n      gt\n      tag_28\n      jumpi\n      dup3\n      swap1\n      sub\n      0x1f\n      and\n      dup3\n      add\n      swap2\n    tag_26:\n      pop\n      pop\n      pop\n      pop\n      pop\n      swap1\n      dup1\n      0x01\n      add\n      0x00\n      swap1\n      sload\n      swap1\n      0x0100\n      exp\n      swap1\n      div\n      0xffffffffffffffffffffffffffffffffffffffff\n      and\n      swap1\n      pop\n      dup3\n      jump\t// out\n    tag_17:\n      dataSize(sub_0)\n      dup1\n      dataOffset(sub_0)\n      dup4\n      codecopy\n      add\n      swap1\n      jump\t// out\n        /* \"#utility.yul\":7:82   */\n    tag_29:\n        /* \"#utility.yul\":40:46   */\n      0x00\n        /* \"#utility.yul\":73:75   */\n      0x40\n        /* \"#utility.yul\":67:76   */\n      mload\n        /* \"#utility.yul\":57:76   */\n      swap1\n      pop\n        /* \"#utility.yul\":7:82   */\n      swap1\n      jump\t// out\n        /* \"#utility.yul\":88:205   */\n    tag_30:\n        /* \"#utility.yul\":197:198   */\n      0x00\n        /* \"#utility.yul\":194:195   */\n      dup1\n        /* \"#utility.yul\":187:199   */\n      revert\n        /* \"#utility.yul\":211:328   */\n    tag_31:\n        /* \"#utility.yul\":320:321   */\n      0x00\n        /* \"#utility.yul\":317:318   */\n      dup1\n        /* \"#utility.yul\":310:322   */\n      revert\n        /* \"#utility.yul\":334:451   */\n    tag_32:\n        /* \"#utility.yul\":443:444   */\n      0x00\n        /* \"#utility.yul\":440:441   */\n      dup1\n        /* \"#utility.yul\":433:445   */\n      revert\n        /* \"#utility.yul\":457:574   */\n    tag_33:\n        /* \"#utility.yul\":566:567   */\n      0x00\n        /* \"#utility.yul\":563:564   */\n      dup1\n        /* \"#utility.yul\":556:568   */\n      revert\n        /* \"#utility.yul\":580:682   */\n    tag_34:\n        /* \"#utility.yul\":621:627   */\n      0x00\n        /* \"#utility.yul\":672:674   */\n      0x1f\n        /* \"#utility.yul\":668:675   */\n      not\n        /* \"#utility.yul\":663:665   */\n      0x1f\n        /* \"#utility.yul\":656:661   */\n      dup4\n        /* \"#utility.yul\":652:666   */\n      add\n        /* \"#utility.yul\":648:676   */\n      and\n        /* \"#utility.yul\":638:676   */\n      swap1\n      pop\n        /* \"#utility.yul\":580:682   */\n      swap2\n      swap1\n      pop\n      jump\t// out\n        /* \"#utility.yul\":688:868   */\n    tag_35:\n        /* \"#utility.yul\":736:813   */\n      0x4e487b7100000000000000000000000000000000000000000000000000000000\n        /* \"#utility.yul\":733:734   */\n      0x00\n        /* \"#utility.yul\":726:814   */\n      mstore\n        /* \"#utility.yul\":833:837   */\n      0x41\n        /* \"#utility.yul\":830:831   */\n      0x04\n        /* \"#utility.yul\":823:838   */\n      mstore\n        /* \"#utility.yul\":857:861   */\n      0x24\n        /* \"#utility.yul\":854:855   */\n      0x00\n        /* \"#utility.yul\":847:862   */\n      revert\n        /* \"#utility.yul\":874:1155   */\n    tag_36:\n        /* \"#utility.yul\":957:984   */\n      tag_77\n        /* \"#utility.yul\":979:983   */\n      dup3\n        /* \"#utility.yul\":957:984   */\n      tag_34\n      jump\t// in\n    tag_77:\n        /* \"#utility.yul\":949:955   */\n      dup2\n        /* \"#utility.yul\":945:985   */\n      add\n        /* \"#utility.yul\":1087:1093   */\n      dup2\n        /* \"#utility.yul\":1075:1085   */\n      dup2\n        /* \"#utility.yul\":1072:1094   */\n      lt\n        /* \"#utility.yul\":1051:1069   */\n      0xffffffffffffffff\n        /* \"#utility.yul\":1039:1049   */\n      dup3\n        /* \"#utility.yul\":1036:1070   */\n      gt\n        /* \"#utility.yul\":1033:1095   */\n      or\n        /* \"#utility.yul\":1030:1118   */\n      iszero\n      tag_78\n      jumpi\n        /* \"#utility.yul\":1098:1116   */\n      tag_79\n      tag_35\n      jump\t// in\n    tag_79:\n        /* \"#utility.yul\":1030:1118   */\n    tag_78:\n        /* \"#utility.yul\":1138:1148   */\n      dup1\n        /* \"#utility.yul\":1134:1136   */\n      0x40\n        /* \"#utility.yul\":1127:1149   */\n      mstore\n        /* \"#utility.yul\":917:1155   */\n      pop\n        /* \"#utility.yul\":874:1155   */\n      pop\n      pop\n      jump\t// out\n        /* \"#utility.yul\":1161:1290   */\n    tag_37:\n        /* \"#utility.yul\":1195:1201   */\n      0x00\n        /* \"#utility.yul\":1222:1242   */\n      tag_81\n      tag_29\n      jump\t// in\n    tag_81:\n        /* \"#utility.yul\":1212:1242   */\n      swap1\n      pop\n        /* \"#utility.yul\":1251:1284   */\n      tag_82\n        /* \"#utility.yul\":1279:1283   */\n      dup3\n        /* \"#utility.yul\":1271:1277   */\n      dup3\n        /* \"#utility.yul\":1251:1284   */\n      tag_36\n      jump\t// in\n    tag_82:\n        /* \"#utility.yul\":1161:1290   */\n      swap2\n      swap1\n      pop\n      jump\t// out\n        /* \"#utility.yul\":1296:1604   */\n    tag_38:\n        /* \"#utility.yul\":1358:1362   */\n      0x00\n        /* \"#utility.yul\":1448:1466   */\n      0xffffffffffffffff\n        /* \"#utility.yul\":1440:1446   */\n      dup3\n        /* \"#utility.yul\":1437:1467   */\n      gt\n        /* \"#utility.yul\":1434:1490   */\n      iszero\n      tag_84\n      jumpi\n        /* \"#utility.yul\":1470:1488   */\n      tag_85\n      tag_35\n      jump\t// in\n    tag_85:\n        /* \"#utility.yul\":1434:1490   */\n    tag_84:\n        /* \"#utility.yul\":1508:1537   */\n      tag_86\n        /* \"#utility.yul\":1530:1536   */\n      dup3\n        /* \"#utility.yul\":1508:1537   */\n      tag_34\n      jump\t// in\n    tag_86:\n        /* \"#utility.yul\":1500:1537   */\n      swap1\n      pop\n        /* \"#utility.yul\":1592:1596   */\n      0x20\n        /* \"#utility.yul\":1586:1590   */\n      dup2\n        /* \"#utility.yul\":1582:1597   */\n      add\n        /* \"#utility.yul\":1574:1597   */\n      swap1\n      pop\n        /* \"#utility.yul\":1296:1604   */\n      swap2\n      swap1\n      pop\n      jump\t// out\n        /* \"#utility.yul\":1610:1756   */\n    tag_39:\n        /* \"#utility.yul\":1707:1713   */\n      dup3\n        /* \"#utility.yul\":1702:1705   */\n      dup2\n        /* \"#utility.yul\":1697:1700   */\n      dup4\n        /* \"#utility.yul\":1684:1714   */\n      calldatacopy\n        /* \"#utility.yul\":1748:1749   */\n      0x00\n        /* \"#utility.yul\":1739:1745   */\n      dup4\n        /* \"#utility.yul\":1734:1737   */\n      dup4\n        /* \"#utility.yul\":1730:1746   */\n      add\n        /* \"#utility.yul\":1723:1750   */\n      mstore\n        /* \"#utility.yul\":1610:1756   */\n      pop\n      pop\n      pop\n      jump\t// out\n        /* \"#utility.yul\":1762:2187   */\n    tag_40:\n        /* \"#utility.yul\":1840:1845   */\n      0x00\n        /* \"#utility.yul\":1865:1931   */\n      tag_89\n        /* \"#utility.yul\":1881:1930   */\n      tag_90\n        /* \"#utility.yul\":1923:1929   */\n      dup5\n        /* \"#utility.yul\":1881:1930   */\n      tag_38\n      jump\t// in\n    tag_90:\n        /* \"#utility.yul\":1865:1931   */\n      tag_37\n      jump\t// in\n    tag_89:\n        /* \"#utility.yul\":1856:1931   */\n      swap1\n      pop\n        /* \"#utility.yul\":1954:1960   */\n      dup3\n        /* \"#utility.yul\":1947:1952   */\n      dup2\n        /* \"#utility.yul\":1940:1961   */\n      mstore\n        /* \"#utility.yul\":1992:1996   */\n      0x20\n        /* \"#utility.yul\":1985:1990   */\n      dup2\n        /* \"#utility.yul\":1981:1997   */\n      add\n        /* \"#utility.yul\":2030:2033   */\n      dup5\n        /* \"#utility.yul\":2021:2027   */\n      dup5\n        /* \"#utility.yul\":2016:2019   */\n      dup5\n        /* \"#utility.yul\":2012:2028   */\n      add\n        /* \"#utility.yul\":2009:2034   */\n      gt\n        /* \"#utility.yul\":2006:2118   */\n      iszero\n      tag_91\n      jumpi\n        /* \"#utility.yul\":2037:2116   */\n      tag_92\n      tag_33\n      jump\t// in\n    tag_92:\n        /* \"#utility.yul\":2006:2118   */\n    tag_91:\n        /* \"#utility.yul\":2127:2181   */\n      tag_93\n        /* \"#utility.yul\":2174:2180   */\n      dup5\n        /* \"#utility.yul\":2169:2172   */\n      dup3\n        /* \"#utility.yul\":2164:2167   */\n      dup6\n        /* \"#utility.yul\":2127:2181   */\n      tag_39\n      jump\t// in\n    tag_93:\n        /* \"#utility.yul\":1846:2187   */\n      pop\n        /* \"#utility.yul\":1762:2187   */\n      swap4\n      swap3\n      pop\n      pop\n      pop\n      jump\t// out\n        /* \"#utility.yul\":2207:2547   */\n    tag_41:\n        /* \"#utility.yul\":2263:2268   */\n      0x00\n        /* \"#utility.yul\":2312:2315   */\n      dup3\n        /* \"#utility.yul\":2305:2309   */\n      0x1f\n        /* \"#utility.yul\":2297:2303   */\n      dup4\n        /* \"#utility.yul\":2293:2310   */\n      add\n        /* \"#utility.yul\":2289:2316   */\n      slt\n        /* \"#utility.yul\":2279:2401   */\n      tag_95\n      jumpi\n        /* \"#utility.yul\":2320:2399   */\n      tag_96\n      tag_32\n      jump\t// in\n    tag_96:\n        /* \"#utility.yul\":2279:2401   */\n    tag_95:\n        /* \"#utility.yul\":2437:2443   */\n      dup2\n        /* \"#utility.yul\":2424:2444   */\n      calldataload\n        /* \"#utility.yul\":2462:2541   */\n      tag_97\n        /* \"#utility.yul\":2537:2540   */\n      dup5\n        /* \"#utility.yul\":2529:2535   */\n      dup3\n        /* \"#utility.yul\":2522:2526   */\n      0x20\n        /* \"#utility.yul\":2514:2520   */\n      dup7\n        /* \"#utility.yul\":2510:2527   */\n      add\n        /* \"#utility.yul\":2462:2541   */\n      tag_40\n      jump\t// in\n    tag_97:\n        /* \"#utility.yul\":2453:2541   */\n      swap2\n      pop\n        /* \"#utility.yul\":2269:2547   */\n      pop\n        /* \"#utility.yul\":2207:2547   */\n      swap3\n      swap2\n      pop\n      pop\n      jump\t// out\n        /* \"#utility.yul\":2553:3387   */\n    tag_7:\n        /* \"#utility.yul\":2641:2647   */\n      0x00\n        /* \"#utility.yul\":2649:2655   */\n      dup1\n        /* \"#utility.yul\":2698:2700   */\n      0x40\n        /* \"#utility.yul\":2686:2695   */\n      dup4\n        /* \"#utility.yul\":2677:2684   */\n      dup6\n        /* \"#utility.yul\":2673:2696   */\n      sub\n        /* \"#utility.yul\":2669:2701   */\n      slt\n        /* \"#utility.yul\":2666:2785   */\n      iszero\n      tag_99\n      jumpi\n        /* \"#utility.yul\":2704:2783   */\n      tag_100\n      tag_30\n      jump\t// in\n    tag_100:\n        /* \"#utility.yul\":2666:2785   */\n    tag_99:\n        /* \"#utility.yul\":2852:2853   */\n      0x00\n        /* \"#utility.yul\":2841:2850   */\n      dup4\n        /* \"#utility.yul\":2837:2854   */\n      add\n        /* \"#utility.yul\":2824:2855   */\n      calldataload\n        /* \"#utility.yul\":2882:2900   */\n      0xffffffffffffffff\n        /* \"#utility.yul\":2874:2880   */\n      dup2\n        /* \"#utility.yul\":2871:2901   */\n      gt\n        /* \"#utility.yul\":2868:2985   */\n      iszero\n      tag_101\n      jumpi\n        /* \"#utility.yul\":2904:2983   */\n      tag_102\n      tag_31\n      jump\t// in\n    tag_102:\n        /* \"#utility.yul\":2868:2985   */\n    tag_101:\n        /* \"#utility.yul\":3009:3072   */\n      tag_103\n        /* \"#utility.yul\":3064:3071   */\n      dup6\n        /* \"#utility.yul\":3055:3061   */\n      dup3\n        /* \"#utility.yul\":3044:3053   */\n      dup7\n        /* \"#utility.yul\":3040:3062   */\n      add\n        /* \"#utility.yul\":3009:3072   */\n      tag_41\n      jump\t// in\n    tag_103:\n        /* \"#utility.yul\":2999:3072   */\n      swap3\n      pop\n        /* \"#utility.yul\":2795:3082   */\n      pop\n        /* \"#utility.yul\":3149:3151   */\n      0x20\n        /* \"#utility.yul\":3138:3147   */\n      dup4\n        /* \"#utility.yul\":3134:3152   */\n      add\n        /* \"#utility.yul\":3121:3153   */\n      calldataload\n        /* \"#utility.yul\":3180:3198   */\n      0xffffffffffffffff\n        /* \"#utility.yul\":3172:3178   */\n      dup2\n        /* \"#utility.yul\":3169:3199   */\n      gt\n        /* \"#utility.yul\":3166:3283   */\n      iszero\n      tag_104\n      jumpi\n        /* \"#utility.yul\":3202:3281   */\n      tag_105\n      tag_31\n      jump\t// in\n    tag_105:\n        /* \"#utility.yul\":3166:3283   */\n    tag_104:\n        /* \"#utility.yul\":3307:3370   */\n      tag_106\n        /* \"#utility.yul\":3362:3369   */\n      dup6\n        /* \"#utility.yul\":3353:3359   */\n      dup3\n        /* \"#utility.yul\":3342:3351   */\n      dup7\n        /* \"#utility.yul\":3338:3360   */\n      add\n        /* \"#utility.yul\":3307:3370   */\n      tag_41\n      jump\t// in\n    tag_106:\n        /* \"#utility.yul\":3297:3370   */\n      swap2\n      pop\n        /* \"#utility.yul\":3092:3380   */\n      pop\n        /* \"#utility.yul\":2553:3387   */\n      swap3\n      pop\n      swap3\n      swap1\n      pop\n      jump\t// out\n        /* \"#utility.yul\":3393:3902   */\n    tag_11:\n        /* \"#utility.yul\":3462:3468   */\n      0x00\n        /* \"#utility.yul\":3511:3513   */\n      0x20\n        /* \"#utility.yul\":3499:3508   */\n      dup3\n        /* \"#utility.yul\":3490:3497   */\n      dup5\n        /* \"#utility.yul\":3486:3509   */\n      sub\n        /* \"#utility.yul\":3482:3514   */\n      slt\n        /* \"#utility.yul\":3479:3598   */\n      iszero\n      tag_108\n      jumpi\n        /* \"#utility.yul\":3517:3596   */\n      tag_109\n      tag_30\n      jump\t// in\n    tag_109:\n        /* \"#utility.yul\":3479:3598   */\n    tag_108:\n        /* \"#utility.yul\":3665:3666   */\n      0x00\n        /* \"#utility.yul\":3654:3663   */\n      dup3\n        /* \"#utility.yul\":3650:3667   */\n      add\n        /* \"#utility.yul\":3637:3668   */\n      calldataload\n        /* \"#utility.yul\":3695:3713   */\n      0xffffffffffffffff\n        /* \"#utility.yul\":3687:3693   */\n      dup2\n        /* \"#utility.yul\":3684:3714   */\n      gt\n        /* \"#utility.yul\":3681:3798   */\n      iszero\n      tag_110\n      jumpi\n        /* \"#utility.yul\":3717:3796   */\n      tag_111\n      tag_31\n      jump\t// in\n    tag_111:\n        /* \"#utility.yul\":3681:3798   */\n    tag_110:\n        /* \"#utility.yul\":3822:3885   */\n      tag_112\n        /* \"#utility.yul\":3877:3884   */\n      dup5\n        /* \"#utility.yul\":3868:3874   */\n      dup3\n        /* \"#utility.yul\":3857:3866   */\n      dup6\n        /* \"#utility.yul\":3853:3875   */\n      add\n        /* \"#utility.yul\":3822:3885   */\n      tag_41\n      jump\t// in\n    tag_112:\n        /* \"#utility.yul\":3812:3885   */\n      swap2\n      pop\n        /* \"#utility.yul\":3608:3895   */\n      pop\n        /* \"#utility.yul\":3393:3902   */\n      swap3\n      swap2\n      pop\n      pop\n      jump\t// out\n        /* \"#utility.yul\":3908:4007   */\n    tag_42:\n        /* \"#utility.yul\":3960:3966   */\n      0x00\n        /* \"#utility.yul\":3994:3999   */\n      dup2\n        /* \"#utility.yul\":3988:4000   */\n      mload\n        /* \"#utility.yul\":3978:4000   */\n      swap1\n      pop\n        /* \"#utility.yul\":3908:4007   */\n      swap2\n      swap1\n      pop\n      jump\t// out\n        /* \"#utility.yul\":4013:4182   */\n    tag_43:\n        /* \"#utility.yul\":4097:4108   */\n      0x00\n        /* \"#utility.yul\":4131:4137   */\n      dup3\n        /* \"#utility.yul\":4126:4129   */\n      dup3\n        /* \"#utility.yul\":4119:4138   */\n      mstore\n        /* \"#utility.yul\":4171:4175   */\n      0x20\n        /* \"#utility.yul\":4166:4169   */\n      dup3\n        /* \"#utility.yul\":4162:4176   */\n      add\n        /* \"#utility.yul\":4147:4176   */\n      swap1\n      pop\n        /* \"#utility.yul\":4013:4182   */\n      swap3\n      swap2\n      pop\n      pop\n      jump\t// out\n        /* \"#utility.yul\":4188:4434   */\n    tag_44:\n        /* \"#utility.yul\":4269:4270   */\n      0x00\n        /* \"#utility.yul\":4279:4392   */\n    tag_116:\n        /* \"#utility.yul\":4293:4299   */\n      dup4\n        /* \"#utility.yul\":4290:4291   */\n      dup2\n        /* \"#utility.yul\":4287:4300   */\n      lt\n        /* \"#utility.yul\":4279:4392   */\n      iszero\n      tag_118\n      jumpi\n        /* \"#utility.yul\":4378:4379   */\n      dup1\n        /* \"#utility.yul\":4373:4376   */\n      dup3\n        /* \"#utility.yul\":4369:4380   */\n      add\n        /* \"#utility.yul\":4363:4381   */\n      mload\n        /* \"#utility.yul\":4359:4360   */\n      dup2\n        /* \"#utility.yul\":4354:4357   */\n      dup5\n        /* \"#utility.yul\":4350:4361   */\n      add\n        /* \"#utility.yul\":4343:4382   */\n      mstore\n        /* \"#utility.yul\":4315:4317   */\n      0x20\n        /* \"#utility.yul\":4312:4313   */\n      dup2\n        /* \"#utility.yul\":4308:4318   */\n      add\n        /* \"#utility.yul\":4303:4318   */\n      swap1\n      pop\n        /* \"#utility.yul\":4279:4392   */\n      jump(tag_116)\n    tag_118:\n        /* \"#utility.yul\":4426:4427   */\n      0x00\n        /* \"#utility.yul\":4417:4423   */\n      dup5\n        /* \"#utility.yul\":4412:4415   */\n      dup5\n        /* \"#utility.yul\":4408:4424   */\n      add\n        /* \"#utility.yul\":4401:4428   */\n      mstore\n        /* \"#utility.yul\":4250:4434   */\n      pop\n        /* \"#utility.yul\":4188:4434   */\n      pop\n      pop\n      pop\n      jump\t// out\n        /* \"#utility.yul\":4440:4817   */\n    tag_45:\n        /* \"#utility.yul\":4528:4531   */\n      0x00\n        /* \"#utility.yul\":4556:4595   */\n      tag_120\n        /* \"#utility.yul\":4589:4594   */\n      dup3\n        /* \"#utility.yul\":4556:4595   */\n      tag_42\n      jump\t// in\n    tag_120:\n        /* \"#utility.yul\":4611:4682   */\n      tag_121\n        /* \"#utility.yul\":4675:4681   */\n      dup2\n        /* \"#utility.yul\":4670:4673   */\n      dup6\n        /* \"#utility.yul\":4611:4682   */\n      tag_43\n      jump\t// in\n    tag_121:\n        /* \"#utility.yul\":4604:4682   */\n      swap4\n      pop\n        /* \"#utility.yul\":4691:4756   */\n      tag_122\n        /* \"#utility.yul\":4749:4755   */\n      dup2\n        /* \"#utility.yul\":4744:4747   */\n      dup6\n        /* \"#utility.yul\":4737:4741   */\n      0x20\n        /* \"#utility.yul\":4730:4735   */\n      dup7\n        /* \"#utility.yul\":4726:4742   */\n      add\n        /* \"#utility.yul\":4691:4756   */\n      tag_44\n      jump\t// in\n    tag_122:\n        /* \"#utility.yul\":4781:4810   */\n      tag_123\n        /* \"#utility.yul\":4803:4809   */\n      dup2\n        /* \"#utility.yul\":4781:4810   */\n      tag_34\n      jump\t// in\n    tag_123:\n        /* \"#utility.yul\":4776:4779   */\n      dup5\n        /* \"#utility.yul\":4772:4811   */\n      add\n        /* \"#utility.yul\":4765:4811   */\n      swap2\n      pop\n        /* \"#utility.yul\":4532:4817   */\n      pop\n        /* \"#utility.yul\":4440:4817   */\n      swap3\n      swap2\n      pop\n      pop\n      jump\t// out\n        /* \"#utility.yul\":4823:4949   */\n    tag_46:\n        /* \"#utility.yul\":4860:4867   */\n      0x00\n        /* \"#utility.yul\":4900:4942   */\n      0xffffffffffffffffffffffffffffffffffffffff\n        /* \"#utility.yul\":4893:4898   */\n      dup3\n        /* \"#utility.yul\":4889:4943   */\n      and\n        /* \"#utility.yul\":4878:4943   */\n      swap1\n      pop\n        /* \"#utility.yul\":4823:4949   */\n      swap2\n      swap1\n      pop\n      jump\t// out\n        /* \"#utility.yul\":4955:5051   */\n    tag_47:\n        /* \"#utility.yul\":4992:4999   */\n      0x00\n        /* \"#utility.yul\":5021:5045   */\n      tag_126\n        /* \"#utility.yul\":5039:5044   */\n      dup3\n        /* \"#utility.yul\":5021:5045   */\n      tag_46\n      jump\t// in\n    tag_126:\n        /* \"#utility.yul\":5010:5045   */\n      swap1\n      pop\n        /* \"#utility.yul\":4955:5051   */\n      swap2\n      swap1\n      pop\n      jump\t// out\n        /* \"#utility.yul\":5057:5175   */\n    tag_48:\n        /* \"#utility.yul\":5144:5168   */\n      tag_128\n        /* \"#utility.yul\":5162:5167   */\n      dup2\n        /* \"#utility.yul\":5144:5168   */\n      tag_47\n      jump\t// in\n    tag_128:\n        /* \"#utility.yul\":5139:5142   */\n      dup3\n        /* \"#utility.yul\":5132:5169   */\n      mstore\n        /* \"#utility.yul\":5057:5175   */\n      pop\n      pop\n      jump\t// out\n        /* \"#utility.yul\":5181:5604   */\n    tag_14:\n        /* \"#utility.yul\":5322:5326   */\n      0x00\n        /* \"#utility.yul\":5360:5362   */\n      0x40\n        /* \"#utility.yul\":5349:5358   */\n      dup3\n        /* \"#utility.yul\":5345:5363   */\n      add\n        /* \"#utility.yul\":5337:5363   */\n      swap1\n      pop\n        /* \"#utility.yul\":5409:5418   */\n      dup2\n        /* \"#utility.yul\":5403:5407   */\n      dup2\n        /* \"#utility.yul\":5399:5419   */\n      sub\n        /* \"#utility.yul\":5395:5396   */\n      0x00\n        /* \"#utility.yul\":5384:5393   */\n      dup4\n        /* \"#utility.yul\":5380:5397   */\n      add\n        /* \"#utility.yul\":5373:5420   */\n      mstore\n        /* \"#utility.yul\":5437:5515   */\n      tag_130\n        /* \"#utility.yul\":5510:5514   */\n      dup2\n        /* \"#utility.yul\":5501:5507   */\n      dup6\n        /* \"#utility.yul\":5437:5515   */\n      tag_45\n      jump\t// in\n    tag_130:\n        /* \"#utility.yul\":5429:5515   */\n      swap1\n      pop\n        /* \"#utility.yul\":5525:5597   */\n      tag_131\n        /* \"#utility.yul\":5593:5595   */\n      0x20\n        /* \"#utility.yul\":5582:5591   */\n      dup4\n        /* \"#utility.yul\":5578:5596   */\n      add\n        /* \"#utility.yul\":5569:5575   */\n      dup5\n        /* \"#utility.yul\":5525:5597   */\n      tag_48\n      jump\t// in\n    tag_131:\n        /* \"#utility.yul\":5181:5604   */\n      swap4\n      swap3\n      pop\n      pop\n      pop\n      jump\t// out\n        /* \"#utility.yul\":5610:5758   */\n    tag_49:\n        /* \"#utility.yul\":5712:5723   */\n      0x00\n        /* \"#utility.yul\":5749:5752   */\n      dup2\n        /* \"#utility.yul\":5734:5752   */\n      swap1\n      pop\n        /* \"#utility.yul\":5610:5758   */\n      swap3\n      swap2\n      pop\n      pop\n      jump\t// out\n        /* \"#utility.yul\":5764:6154   */\n    tag_50:\n        /* \"#utility.yul\":5870:5873   */\n      0x00\n        /* \"#utility.yul\":5898:5937   */\n      tag_134\n        /* \"#utility.yul\":5931:5936   */\n      dup3\n        /* \"#utility.yul\":5898:5937   */\n      tag_42\n      jump\t// in\n    tag_134:\n        /* \"#utility.yul\":5953:6042   */\n      tag_135\n        /* \"#utility.yul\":6035:6041   */\n      dup2\n        /* \"#utility.yul\":6030:6033   */\n      dup6\n        /* \"#utility.yul\":5953:6042   */\n      tag_49\n      jump\t// in\n    tag_135:\n        /* \"#utility.yul\":5946:6042   */\n      swap4\n      pop\n        /* \"#utility.yul\":6051:6116   */\n      tag_136\n        /* \"#utility.yul\":6109:6115   */\n      dup2\n        /* \"#utility.yul\":6104:6107   */\n      dup6\n        /* \"#utility.yul\":6097:6101   */\n      0x20\n        /* \"#utility.yul\":6090:6095   */\n      dup7\n        /* \"#utility.yul\":6086:6102   */\n      add\n        /* \"#utility.yul\":6051:6116   */\n      tag_44\n      jump\t// in\n    tag_136:\n        /* \"#utility.yul\":6141:6147   */\n      dup1\n        /* \"#utility.yul\":6136:6139   */\n      dup5\n        /* \"#utility.yul\":6132:6148   */\n      add\n        /* \"#utility.yul\":6125:6148   */\n      swap2\n      pop\n        /* \"#utility.yul\":5874:6154   */\n      pop\n        /* \"#utility.yul\":5764:6154   */\n      swap3\n      swap2\n      pop\n      pop\n      jump\t// out\n        /* \"#utility.yul\":6160:6435   */\n    tag_20:\n        /* \"#utility.yul\":6292:6295   */\n      0x00\n        /* \"#utility.yul\":6314:6409   */\n      tag_138\n        /* \"#utility.yul\":6405:6408   */\n      dup3\n        /* \"#utility.yul\":6396:6402   */\n      dup5\n        /* \"#utility.yul\":6314:6409   */\n      tag_50\n      jump\t// in\n    tag_138:\n        /* \"#utility.yul\":6307:6409   */\n      swap2\n      pop\n        /* \"#utility.yul\":6426:6429   */\n      dup2\n        /* \"#utility.yul\":6419:6429   */\n      swap1\n      pop\n        /* \"#utility.yul\":6160:6435   */\n      swap3\n      swap2\n      pop\n      pop\n      jump\t// out\n        /* \"#utility.yul\":6441:6621   */\n    tag_51:\n        /* \"#utility.yul\":6489:6566   */\n      0x4e487b7100000000000000000000000000000000000000000000000000000000\n        /* \"#utility.yul\":6486:6487   */\n      0x00\n        /* \"#utility.yul\":6479:6567   */\n      mstore\n        /* \"#utility.yul\":6586:6590   */\n      0x22\n        /* \"#utility.yul\":6583:6584   */\n      0x04\n        /* \"#utility.yul\":6576:6591   */\n      mstore\n        /* \"#utility.yul\":6610:6614   */\n      0x24\n        /* \"#utility.yul\":6607:6608   */\n      0x00\n        /* \"#utility.yul\":6600:6615   */\n      revert\n        /* \"#utility.yul\":6627:6947   */\n    tag_24:\n        /* \"#utility.yul\":6671:6677   */\n      0x00\n        /* \"#utility.yul\":6708:6709   */\n      0x02\n        /* \"#utility.yul\":6702:6706   */\n      dup3\n        /* \"#utility.yul\":6698:6710   */\n      div\n        /* \"#utility.yul\":6688:6710   */\n      swap1\n      pop\n        /* \"#utility.yul\":6755:6756   */\n      0x01\n        /* \"#utility.yul\":6749:6753   */\n      dup3\n        /* \"#utility.yul\":6745:6757   */\n      and\n        /* \"#utility.yul\":6776:6794   */\n      dup1\n        /* \"#utility.yul\":6766:6847   */\n      tag_141\n      jumpi\n        /* \"#utility.yul\":6832:6836   */\n      0x7f\n        /* \"#utility.yul\":6824:6830   */\n      dup3\n        /* \"#utility.yul\":6820:6837   */\n      and\n        /* \"#utility.yul\":6810:6837   */\n      swap2\n      pop\n        /* \"#utility.yul\":6766:6847   */\n    tag_141:\n        /* \"#utility.yul\":6894:6896   */\n      0x20\n        /* \"#utility.yul\":6886:6892   */\n      dup3\n        /* \"#utility.yul\":6883:6897   */\n      lt\n        /* \"#utility.yul\":6863:6881   */\n      dup2\n        /* \"#utility.yul\":6860:6898   */\n      sub\n        /* \"#utility.yul\":6857:6941   */\n      tag_142\n      jumpi\n        /* \"#utility.yul\":6913:6931   */\n      tag_143\n      tag_51\n      jump\t// in\n    tag_143:\n        /* \"#utility.yul\":6857:6941   */\n    tag_142:\n        /* \"#utility.yul\":6678:6947   */\n      pop\n        /* \"#utility.yul\":6627:6947   */\n      swap2\n      swap1\n      pop\n      jump\t// out\n        /* \"#utility.yul\":6953:7094   */\n    tag_52:\n        /* \"#utility.yul\":7002:7006   */\n      0x00\n        /* \"#utility.yul\":7025:7028   */\n      dup2\n        /* \"#utility.yul\":7017:7028   */\n      swap1\n      pop\n        /* \"#utility.yul\":7048:7051   */\n      dup2\n        /* \"#utility.yul\":7045:7046   */\n      0x00\n        /* \"#utility.yul\":7038:7052   */\n      mstore\n        /* \"#utility.yul\":7082:7086   */\n      0x20\n        /* \"#utility.yul\":7079:7080   */\n      0x00\n        /* \"#utility.yul\":7069:7087   */\n      keccak256\n        /* \"#utility.yul\":7061:7087   */\n      swap1\n      pop\n        /* \"#utility.yul\":6953:7094   */\n      swap2\n      swap1\n      pop\n      jump\t// out\n        /* \"#utility.yul\":7100:7193   */\n    tag_53:\n        /* \"#utility.yul\":7137:7143   */\n      0x00\n        /* \"#utility.yul\":7184:7186   */\n      0x20\n        /* \"#utility.yul\":7179:7181   */\n      0x1f\n        /* \"#utility.yul\":7172:7177   */\n      dup4\n        /* \"#utility.yul\":7168:7182   */\n      add\n        /* \"#utility.yul\":7164:7187   */\n      div\n        /* \"#utility.yul\":7154:7187   */\n      swap1\n      pop\n        /* \"#utility.yul\":7100:7193   */\n      swap2\n      swap1\n      pop\n      jump\t// out\n        /* \"#utility.yul\":7199:7306   */\n    tag_54:\n        /* \"#utility.yul\":7243:7251   */\n      0x00\n        /* \"#utility.yul\":7293:7298   */\n      dup3\n        /* \"#utility.yul\":7287:7291   */\n      dup3\n        /* \"#utility.yul\":7283:7299   */\n      shl\n        /* \"#utility.yul\":7262:7299   */\n      swap1\n      pop\n        /* \"#utility.yul\":7199:7306   */\n      swap3\n      swap2\n      pop\n      pop\n      jump\t// out\n        /* \"#utility.yul\":7312:7705   */\n    tag_55:\n        /* \"#utility.yul\":7381:7387   */\n      0x00\n        /* \"#utility.yul\":7431:7432   */\n      0x08\n        /* \"#utility.yul\":7419:7429   */\n      dup4\n        /* \"#utility.yul\":7415:7433   */\n      mul\n        /* \"#utility.yul\":7454:7551   */\n      tag_148\n        /* \"#utility.yul\":7484:7550   */\n      0xffffffffffffffffffffffffffffffffffffffffffffffffffffffffffffffff\n        /* \"#utility.yul\":7473:7482   */\n      dup3\n        /* \"#utility.yul\":7454:7551   */\n      tag_54\n      jump\t// in\n    tag_148:\n        /* \"#utility.yul\":7572:7611   */\n      tag_149\n        /* \"#utility.yul\":7602:7610   */\n      dup7\n        /* \"#utility.yul\":7591:7600   */\n      dup4\n        /* \"#utility.yul\":7572:7611   */\n      tag_54\n      jump\t// in\n    tag_149:\n        /* \"#utility.yul\":7560:7611   */\n      swap6\n      pop\n        /* \"#utility.yul\":7644:7648   */\n      dup1\n        /* \"#utility.yul\":7640:7649   */\n      not\n        /* \"#utility.yul\":7633:7638   */\n      dup5\n        /* \"#utility.yul\":7629:7650   */\n      and\n        /* \"#utility.yul\":7620:7650   */\n      swap4\n      pop\n        /* \"#utility.yul\":7693:7697   */\n      dup1\n        /* \"#utility.yul\":7683:7691   */\n      dup7\n        /* \"#utility.yul\":7679:7698   */\n      and\n        /* \"#utility.yul\":7672:7677   */\n      dup5\n        /* \"#utility.yul\":7669:7699   */\n      or\n        /* \"#utility.yul\":7659:7699   */\n      swap3\n      pop\n        /* \"#utility.yul\":7388:7705   */\n      pop\n      pop\n        /* \"#utility.yul\":7312:7705   */\n      swap4\n      swap3\n      pop\n      pop\n      pop\n      jump\t// out\n        /* \"#utility.yul\":7711:7788   */\n    tag_56:\n        /* \"#utility.yul\":7748:7755   */\n      0x00\n        /* \"#utility.yul\":7777:7782   */\n      dup2\n        /* \"#utility.yul\":7766:7782   */\n      swap1\n      pop\n        /* \"#utility.yul\":7711:7788   */\n      swap2\n      swap1\n      pop\n      jump\t// out\n        /* \"#utility.yul\":7794:7854   */\n    tag_57:\n        /* \"#utility.yul\":7822:7825   */\n      0x00\n        /* \"#utility.yul\":7843:7848   */\n      dup2\n        /* \"#utility.yul\":7836:7848   */\n      swap1\n      pop\n        /* \"#utility.yul\":7794:7854   */\n      swap2\n      swap1\n      pop\n      jump\t// out\n        /* \"#utility.yul\":7860:8002   */\n    tag_58:\n        /* \"#utility.yul\":7910:7919   */\n      0x00\n        /* \"#utility.yul\":7943:7996   */\n      tag_153\n        /* \"#utility.yul\":7961:7995   */\n      tag_154\n        /* \"#utility.yul\":7970:7994   */\n      tag_155\n        /* \"#utility.yul\":7988:7993   */\n      dup5\n        /* \"#utility.yul\":7970:7994   */\n      tag_56\n      jump\t// in\n    tag_155:\n        /* \"#utility.yul\":7961:7995   */\n      tag_57\n      jump\t// in\n    tag_154:\n        /* \"#utility.yul\":7943:7996   */\n      tag_56\n      jump\t// in\n    tag_153:\n        /* \"#utility.yul\":7930:7996   */\n      swap1\n      pop\n        /* \"#utility.yul\":7860:8002   */\n      swap2\n      swap1\n      pop\n      jump\t// out\n        /* \"#utility.yul\":8008:8083   */\n    tag_59:\n        /* \"#utility.yul\":8051:8054   */\n      0x00\n        /* \"#utility.yul\":8072:8077   */\n      dup2\n        /* \"#utility.yul\":8065:8077   */\n      swap1\n      pop\n        /* \"#utility.yul\":8008:8083   */\n      swap2\n      swap1\n      pop\n      jump\t// out\n        /* \"#utility.yul\":8089:8358   */\n    tag_60:\n        /* \"#utility.yul\":8199:8238   */\n      tag_158\n        /* \"#utility.yul\":8230:8237   */\n      dup4\n        /* \"#utility.yul\":8199:8238   */\n      tag_58\n      jump\t// in\n    tag_158:\n        /* \"#utility.yul\":8260:8351   */\n      tag_159\n        /* \"#utility.yul\":8309:8350   */\n      tag_160\n        /* \"#utility.yul\":8333:8349   */\n      dup3\n        /* \"#utility.yul\":8309:8350   */\n      tag_59\n      jump\t// in\n    tag_160:\n        /* \"#utility.yul\":8301:8307   */\n      dup5\n        /* \"#utility.yul\":8294:8298   */\n      dup5\n        /* \"#utility.yul\":8288:8299   */\n      sload\n        /* \"#utility.yul\":8260:8351   */\n      tag_55\n      jump\t// in\n    tag_159:\n        /* \"#utility.yul\":8254:8258   */\n      dup3\n        /* \"#utility.yul\":8247:8352   */\n      sstore\n        /* \"#utility.yul\":8165:8358   */\n      pop\n        /* \"#utility.yul\":8089:8358   */\n      pop\n      pop\n      pop\n      jump\t// out\n        /* \"#utility.yul\":8364:8437   */\n    tag_61:\n        /* \"#utility.yul\":8409:8412   */\n      0x00\n        /* \"#utility.yul\":8364:8437   */\n      swap1\n      jump\t// out\n        /* \"#utility.yul\":8443:8632   */\n    tag_62:\n        /* \"#utility.yul\":8520:8552   */\n      tag_163\n      tag_61\n      jump\t// in\n    tag_163:\n        /* \"#utility.yul\":8561:8626   */\n      tag_164\n        /* \"#utility.yul\":8619:8625   */\n      dup2\n        /* \"#utility.yul\":8611:8617   */\n      dup5\n        /* \"#utility.yul\":8605:8609   */\n      dup5\n        /* \"#utility.yul\":8561:8626   */\n      tag_60\n      jump\t// in\n    tag_164:\n        /* \"#utility.yul\":8496:8632   */\n      pop\n        /* \"#utility.yul\":8443:8632   */\n      pop\n      pop\n      jump\t// out\n        /* \"#utility.yul\":8638:8824   */\n    tag_63:\n        /* \"#utility.yul\":8698:8818   */\n    tag_166:\n        /* \"#utility.yul\":8715:8718   */\n      dup2\n        /* \"#utility.yul\":8708:8713   */\n      dup2\n        /* \"#utility.yul\":8705:8719   */\n      lt\n        /* \"#utility.yul\":8698:8818   */\n      iszero\n      tag_168\n      jumpi\n        /* \"#utility.yul\":8769:8808   */\n      tag_169\n        /* \"#utility.yul\":8806:8807   */\n      0x00\n        /* \"#utility.yul\":8799:8804   */\n      dup3\n        /* \"#utility.yul\":8769:8808   */\n      tag_62\n      jump\t// in\n    tag_169:\n        /* \"#utility.yul\":8742:8743   */\n      0x01\n        /* \"#utility.yul\":8735:8740   */\n      dup2\n        /* \"#utility.yul\":8731:8744   */\n      add\n        /* \"#utility.yul\":8722:8744   */\n      swap1\n      pop\n        /* \"#utility.yul\":8698:8818   */\n      jump(tag_166)\n    tag_168:\n        /* \"#utility.yul\":8638:8824   */\n      pop\n      pop\n      jump\t// out\n        /* \"#utility.yul\":8830:9373   */\n    tag_64:\n        /* \"#utility.yul\":8931:8933   */\n      0x1f\n        /* \"#utility.yul\":8926:8929   */\n      dup3\n        /* \"#utility.yul\":8923:8934   */\n      gt\n        /* \"#utility.yul\":8920:9366   */\n      iszero\n      tag_171\n      jumpi\n        /* \"#utility.yul\":8965:9003   */\n      tag_172\n        /* \"#utility.yul\":8997:9002   */\n      dup2\n        /* \"#utility.yul\":8965:9003   */\n      tag_52\n      jump\t// in\n    tag_172:\n        /* \"#utility.yul\":9049:9078   */\n      tag_173\n        /* \"#utility.yul\":9067:9077   */\n      dup5\n        /* \"#utility.yul\":9049:9078   */\n      tag_53\n      jump\t// in\n    tag_173:\n        /* \"#utility.yul\":9039:9047   */\n      dup2\n        /* \"#utility.yul\":9035:9079   */\n      add\n        /* \"#utility.yul\":9232:9234   */\n      0x20\n        /* \"#utility.yul\":9220:9230   */\n      dup6\n        /* \"#utility.yul\":9217:9235   */\n      lt\n        /* \"#utility.yul\":9214:9263   */\n      iszero\n      tag_174\n      jumpi\n        /* \"#utility.yul\":9253:9261   */\n      dup2\n        /* \"#utility.yul\":9238:9261   */\n      swap1\n      pop\n        /* \"#utility.yul\":9214:9263   */\n    tag_174:\n        /* \"#utility.yul\":9276:9356   */\n      tag_175\n        /* \"#utility.yul\":9332:9354   */\n      tag_176\n        /* \"#utility.yul\":9350:9353   */\n      dup6\n        /* \"#utility.yul\":9332:9354   */\n      tag_53\n      jump\t// in\n    tag_176:\n        /* \"#utility.yul\":9322:9330   */\n      dup4\n        /* \"#utility.yul\":9318:9355   */\n      add\n        /* \"#utility.yul\":9305:9316   */\n      dup3\n        /* \"#utility.yul\":9276:9356   */\n      tag_63\n      jump\t// in\n    tag_175:\n        /* \"#utility.yul\":8935:9366   */\n      pop\n      pop\n        /* \"#utility.yul\":8920:9366   */\n    tag_171:\n        /* \"#utility.yul\":8830:9373   */\n      pop\n      pop\n      pop\n      jump\t// out\n        /* \"#utility.yul\":9379:9496   */\n    tag_65:\n        /* \"#utility.yul\":9433:9441   */\n      0x00\n        /* \"#utility.yul\":9483:9488   */\n      dup3\n        /* \"#utility.yul\":9477:9481   */\n      dup3\n        /* \"#utility.yul\":9473:9489   */\n      shr\n        /* \"#utility.yul\":9452:9489   */\n      swap1\n      pop\n        /* \"#utility.yul\":9379:9496   */\n      swap3\n      swap2\n      pop\n      pop\n      jump\t// out\n        /* \"#utility.yul\":9502:9671   */\n    tag_66:\n        /* \"#utility.yul\":9546:9552   */\n      0x00\n        /* \"#utility.yul\":9579:9630   */\n      tag_179\n        /* \"#utility.yul\":9627:9628   */\n      0x00\n        /* \"#utility.yul\":9623:9629   */\n      not\n        /* \"#utility.yul\":9615:9620   */\n      dup5\n        /* \"#utility.yul\":9612:9613   */\n      0x08\n        /* \"#utility.yul\":9608:9621   */\n      mul\n        /* \"#utility.yul\":9579:9630   */\n      tag_65\n      jump\t// in\n    tag_179:\n        /* \"#utility.yul\":9575:9631   */\n      not\n        /* \"#utility.yul\":9660:9664   */\n      dup1\n        /* \"#utility.yul\":9654:9658   */\n      dup4\n        /* \"#utility.yul\":9650:9665   */\n      and\n        /* \"#utility.yul\":9640:9665   */\n      swap2\n      pop\n        /* \"#utility.yul\":9553:9671   */\n      pop\n        /* \"#utility.yul\":9502:9671   */\n      swap3\n      swap2\n      pop\n      pop\n      jump\t// out\n        /* \"#utility.yul\":9676:9971   */\n    tag_67:\n        /* \"#utility.yul\":9752:9756   */\n      0x00\n        /* \"#utility.yul\":9898:9927   */\n      tag_181\n        /* \"#utility.yul\":9923:9926   */\n      dup4\n        /* \"#utility.yul\":9917:9921   */\n      dup4\n        /* \"#utility.yul\":9898:9927   */\n      tag_66\n      jump\t// in\n    tag_181:\n        /* \"#utility.yul\":9890:9927   */\n      swap2\n      pop\n        /* \"#utility.yul\":9960:9963   */\n      dup3\n        /* \"#utility.yul\":9957:9958   */\n      0x02\n        /* \"#utility.yul\":9953:9964   */\n      mul\n        /* \"#utility.yul\":9947:9951   */\n      dup3\n        /* \"#utility.yul\":9944:9965   */\n      or\n        /* \"#utility.yul\":9936:9965   */\n      swap1\n      pop\n        /* \"#utility.yul\":9676:9971   */\n      swap3\n      swap2\n      pop\n      pop\n      jump\t// out\n        /* \"#utility.yul\":9976:11371   */\n    tag_22:\n        /* \"#utility.yul\":10093:10130   */\n      tag_183\n        /* \"#utility.yul\":10126:10129   */\n      dup3\n        /* \"#utility.yul\":10093:10130   */\n      tag_42\n      jump\t// in\n    tag_183:\n        /* \"#utility.yul\":10195:10213   */\n      0xffffffffffffffff\n        /* \"#utility.yul\":10187:10193   */\n      dup2\n        /* \"#utility.yul\":10184:10214   */\n      gt\n        /* \"#utility.yul\":10181:10237   */\n      iszero\n      tag_184\n      jumpi\n        /* \"#utility.yul\":10217:10235   */\n      tag_185\n      tag_35\n      jump\t// in\n    tag_185:\n        /* \"#utility.yul\":10181:10237   */\n    tag_184:\n        /* \"#utility.yul\":10261:10299   */\n      tag_186\n        /* \"#utility.yul\":10293:10297   */\n      dup3\n        /* \"#utility.yul\":10287:10298   */\n      sload\n        /* \"#utility.yul\":10261:10299   */\n      tag_24\n      jump\t// in\n    tag_186:\n        /* \"#utility.yul\":10346:10413   */\n      tag_187\n        /* \"#utility.yul\":10406:10412   */\n      dup3\n        /* \"#utility.yul\":10398:10404   */\n      dup3\n        /* \"#utility.yul\":10392:10396   */\n      dup6\n        /* \"#utility.yul\":10346:10413   */\n      tag_64\n      jump\t// in\n    tag_187:\n        /* \"#utility.yul\":10440:10441   */\n      0x00\n        /* \"#utility.yul\":10464:10468   */\n      0x20\n        /* \"#utility.yul\":10451:10468   */\n      swap1\n      pop\n        /* \"#utility.yul\":10496:10498   */\n      0x1f\n        /* \"#utility.yul\":10488:10494   */\n      dup4\n        /* \"#utility.yul\":10485:10499   */\n      gt\n        /* \"#utility.yul\":10513:10514   */\n      0x01\n        /* \"#utility.yul\":10508:11126   */\n      dup2\n      eq\n      tag_189\n      jumpi\n        /* \"#utility.yul\":11170:11171   */\n      0x00\n        /* \"#utility.yul\":11187:11193   */\n      dup5\n        /* \"#utility.yul\":11184:11261   */\n      iszero\n      tag_190\n      jumpi\n        /* \"#utility.yul\":11236:11245   */\n      dup3\n        /* \"#utility.yul\":11231:11234   */\n      dup8\n        /* \"#utility.yul\":11227:11246   */\n      add\n        /* \"#utility.yul\":11221:11247   */\n      mload\n        /* \"#utility.yul\":11212:11247   */\n      swap1\n      pop\n        /* \"#utility.yul\":11184:11261   */\n    tag_190:\n        /* \"#utility.yul\":11287:11354   */\n      tag_191\n        /* \"#utility.yul\":11347:11353   */\n      dup6\n        /* \"#utility.yul\":11340:11345   */\n      dup3\n        /* \"#utility.yul\":11287:11354   */\n      tag_67\n      jump\t// in\n    tag_191:\n        /* \"#utility.yul\":11281:11285   */\n      dup7\n        /* \"#utility.yul\":11274:11355   */\n      sstore\n        /* \"#utility.yul\":11143:11365   */\n      pop\n        /* \"#utility.yul\":10478:11365   */\n      jump(tag_188)\n        /* \"#utility.yul\":10508:11126   */\n    tag_189:\n        /* \"#utility.yul\":10560:10564   */\n      0x1f\n        /* \"#utility.yul\":10556:10565   */\n      not\n        /* \"#utility.yul\":10548:10554   */\n      dup5\n        /* \"#utility.yul\":10544:10566   */\n      and\n        /* \"#utility.yul\":10594:10631   */\n      tag_192\n        /* \"#utility.yul\":10626:10630   */\n      dup7\n        /* \"#utility.yul\":10594:10631   */\n      tag_52\n      jump\t// in\n    tag_192:\n        /* \"#utility.yul\":10653:10654   */\n      0x00\n        /* \"#utility.yul\":10667:10875   */\n    tag_193:\n        /* \"#utility.yul\":10681:10688   */\n      dup3\n        /* \"#utility.yul\":10678:10679   */\n      dup2\n        /* \"#utility.yul\":10675:10689   */\n      lt\n        /* \"#utility.yul\":10667:10875   */\n      iszero\n      tag_195\n      jumpi\n        /* \"#utility.yul\":10760:10769   */\n      dup5\n        /* \"#utility.yul\":10755:10758   */\n      dup10\n        /* \"#utility.yul\":10751:10770   */\n      add\n        /* \"#utility.yul\":10745:10771   */\n      mload\n        /* \"#utility.yul\":10737:10743   */\n      dup3\n        /* \"#utility.yul\":10730:10772   */\n      sstore\n        /* \"#utility.yul\":10811:10812   */\n      0x01\n        /* \"#utility.yul\":10803:10809   */\n      dup3\n        /* \"#utility.yul\":10799:10813   */\n      add\n        /* \"#utility.yul\":10789:10813   */\n      swap2\n      pop\n        /* \"#utility.yul\":10858:10860   */\n      0x20\n        /* \"#utility.yul\":10847:10856   */\n      dup6\n        /* \"#utility.yul\":10843:10861   */\n      add\n        /* \"#utility.yul\":10830:10861   */\n      swap5\n      pop\n        /* \"#utility.yul\":10704:10708   */\n      0x20\n        /* \"#utility.yul\":10701:10702   */\n      dup2\n        /* \"#utility.yul\":10697:10709   */\n      add\n        /* \"#utility.yul\":10692:10709   */\n      swap1\n      pop\n        /* \"#utility.yul\":10667:10875   */\n      jump(tag_193)\n    tag_195:\n        /* \"#utility.yul\":10903:10909   */\n      dup7\n        /* \"#utility.yul\":10894:10901   */\n      dup4\n        /* \"#utility.yul\":10891:10910   */\n      lt\n        /* \"#utility.yul\":10888:11067   */\n      iszero\n      tag_196\n      jumpi\n        /* \"#utility.yul\":10961:10970   */\n      dup5\n        /* \"#utility.yul\":10956:10959   */\n      dup10\n        /* \"#utility.yul\":10952:10971   */\n      add\n        /* \"#utility.yul\":10946:10972   */\n      mload\n        /* \"#utility.yul\":11004:11052   */\n      tag_197\n        /* \"#utility.yul\":11046:11050   */\n      0x1f\n        /* \"#utility.yul\":11038:11044   */\n      dup10\n        /* \"#utility.yul\":11034:11051   */\n      and\n        /* \"#utility.yul\":11023:11032   */\n      dup3\n        /* \"#utility.yul\":11004:11052   */\n      tag_66\n      jump\t// in\n    tag_197:\n        /* \"#utility.yul\":10996:11002   */\n      dup4\n        /* \"#utility.yul\":10989:11053   */\n      sstore\n        /* \"#utility.yul\":10911:11067   */\n      pop\n        /* \"#utility.yul\":10888:11067   */\n    tag_196:\n        /* \"#utility.yul\":11113:11114   */\n      0x01\n        /* \"#utility.yul\":11109:11110   */\n      0x02\n        /* \"#utility.yul\":11101:11107   */\n      dup9\n        /* \"#utility.yul\":11097:11111   */\n      mul\n        /* \"#utility.yul\":11093:11115   */\n      add\n        /* \"#utility.yul\":11087:11091   */\n      dup9\n        /* \"#utility.yul\":11080:11116   */\n      sstore\n        /* \"#utility.yul\":10515:11126   */\n      pop\n      pop\n      pop\n        /* \"#utility.yul\":10478:11365   */\n    tag_188:\n      pop\n        /* \"#utility.yul\":10068:11371   */\n      pop\n      pop\n      pop\n        /* \"#utility.yul\":9976:11371   */\n      pop\n      pop\n      jump\t// out\n    stop\n\n    sub_0: assembly {\n            /* \"FakeProdIden.sol\":494:3134  contract FakeProdIden... */\n          mstore(0x40, 0x80)\n          callvalue\n          dup1\n          iszero\n          tag_1\n          jumpi\n          0x00\n          dup1\n          revert\n        tag_1:\n          pop\n          dataSize(sub_0)\n          dup1\n          dataOffset(sub_0)\n          0x00\n          codecopy\n          0x00\n          return\n        stop\n\n        sub_0: assembly {\n                /* \"FakeProdIden.sol\":494:3134  contract FakeProdIden... */\n              mstore(0x40, 0x80)\n              callvalue\n              dup1\n              iszero\n              tag_1\n              jumpi\n              0x00\n              dup1\n              revert\n            tag_1:\n              pop\n              jumpi(tag_2, lt(calldatasize, 0x04))\n              shr(0xe0, calldataload(0x00))\n              dup1\n              0xb15bf255\n              gt\n              tag_12\n              jumpi\n              dup1\n              0xb15bf255\n              eq\n              tag_7\n              jumpi\n              dup1\n              0xc0effb7d\n              eq\n              tag_8\n              jumpi\n              dup1\n              0xd8ce6572\n              eq\n              tag_9\n              jumpi\n              dup1\n              0xe47766ff\n              eq\n              tag_10\n              jumpi\n              dup1\n              0xea42c7ef\n              eq\n              tag_11\n              jumpi\n              jump(tag_2)\n            tag_12:\n              dup1\n              0x0e34b00e\n              eq\n              tag_3\n              jumpi\n              dup1\n              0x220f8ade\n              eq\n              tag_4\n              jumpi\n              dup1\n              0x7f975a37\n              eq\n              tag_5\n              jumpi\n              dup1\n              0x9ab1a6cc\n              eq\n              tag_6\n              jumpi\n            tag_2:\n              0x00\n              dup1\n              revert\n                /* \"FakeProdIden.sol\":1531:1697  function addProduct(string memory id, string memory name, string memory brandName) public... */\n            tag_3:\n              tag_13\n              0x04\n              dup1\n              calldatasize\n              sub\n              dup2\n              add\n              swap1\n              tag_14\n              swap2\n              swap1\n              tag_15\n              jump\t// in\n            tag_14:\n              tag_16\n              jump\t// in\n            tag_13:\n              stop\n                /* \"FakeProdIden.sol\":2524:3129  function productVerification(string memory prodId, uint32 consumerCode) public view returns(bool) ... */\n            tag_4:\n              tag_17\n              0x04\n              dup1\n              calldatasize\n              sub\n              dup2\n              add\n              swap1\n              tag_18\n              swap2\n              swap1\n              tag_19\n              jump\t// in\n            tag_18:\n              tag_20\n              jump\t// in\n            tag_17:\n              mload(0x40)\n              tag_21\n              swap2\n              swap1\n              tag_22\n              jump\t// in\n            tag_21:\n              mload(0x40)\n              dup1\n              swap2\n              sub\n              swap1\n              return\n                /* \"FakeProdIden.sol\":2270:2465  function sellToConsumer(string memory prodId, uint32 consumerCode) public ... */\n            tag_5:\n              tag_23\n              0x04\n              dup1\n              calldatasize\n              sub\n              dup2\n              add\n              swap1\n              tag_24\n              swap2\n              swap1\n              tag_19\n              jump\t// in\n            tag_24:\n              tag_25\n              jump\t// in\n            tag_23:\n              stop\n                /* \"FakeProdIden.sol\":1189:1240  mapping(string => bool) public hasReachedToConsumer */\n            tag_6:\n              tag_26\n              0x04\n              dup1\n              calldatasize\n              sub\n              dup2\n              add\n              swap1\n              tag_27\n              swap2\n              swap1\n              tag_28\n              jump\t// in\n            tag_27:\n              tag_29\n              jump\t// in\n            tag_26:\n              mload(0x40)\n              tag_30\n              swap2\n              swap1\n              tag_22\n              jump\t// in\n            tag_30:\n              mload(0x40)\n              dup1\n              swap2\n              sub\n              swap1\n              return\n                /* \"FakeProdIden.sol\":1279:1327  mapping(string => Product) public productStorage */\n            tag_7:\n              tag_31\n              0x04\n              dup1\n              calldatasize\n              sub\n              dup2\n              add\n              swap1\n              tag_32\n              swap2\n              swap1\n              tag_28\n              jump\t// in\n            tag_32:\n              tag_33\n              jump\t// in\n            tag_31:\n              mload(0x40)\n              tag_34\n              swap5\n              swap4\n              swap3\n              swap2\n              swap1\n              tag_35\n              jump\t// in\n            tag_34:\n              mload(0x40)\n              dup1\n              swap2\n              sub\n              swap1\n              return\n                /* \"FakeProdIden.sol\":1769:1971  function sellToSeller(string memory prodId, string memory sellerId) public ... */\n            tag_8:\n              tag_36\n              0x04\n              dup1\n              calldatasize\n              sub\n              dup2\n              add\n              swap1\n              tag_37\n              swap2\n              swap1\n              tag_38\n              jump\t// in\n            tag_37:\n              tag_39\n              jump\t// in\n            tag_36:\n              stop\n                /* \"FakeProdIden.sol\":1093:1149  mapping(string => reachSeller) public hasReachedToSeller */\n            tag_9:\n              tag_40\n              0x04\n              dup1\n              calldatasize\n              sub\n              dup2\n              add\n              swap1\n              tag_41\n              swap2\n              swap1\n              tag_28\n              jump\t// in\n            tag_41:\n              tag_42\n              jump\t// in\n            tag_40:\n              mload(0x40)\n              tag_43\n              swap3\n              swap2\n              swap1\n              tag_44\n              jump\t// in\n            tag_43:\n              mload(0x40)\n              dup1\n              swap2\n              sub\n              swap1\n              return\n                /* \"FakeProdIden.sol\":2065:2200  function addSellers(string memory sellerId) public ... */\n            tag_10:\n              tag_45\n              0x04\n              dup1\n              calldatasize\n              sub\n              dup2\n              add\n              swap1\n              tag_46\n              swap2\n              swap1\n              tag_28\n              jump\t// in\n            tag_46:\n              tag_47\n              jump\t// in\n            tag_45:\n              stop\n                /* \"FakeProdIden.sol\":1377:1428  mapping(string => SellerInfo) public allSellersInfo */\n            tag_11:\n              tag_48\n              0x04\n              dup1\n              calldatasize\n              sub\n              dup2\n              add\n              swap1\n              tag_49\n              swap2\n              swap1\n              tag_28\n              jump\t// in\n            tag_49:\n              tag_50\n              jump\t// in\n            tag_48:\n              mload(0x40)\n              tag_51\n              swap3\n              swap2\n              swap1\n              tag_52\n              jump\t// in\n            tag_51:\n              mload(0x40)\n              dup1\n              swap2\n              sub\n              swap1\n              return\n                /* \"FakeProdIden.sol\":1531:1697  function addProduct(string memory id, string memory name, string memory brandName) public... */\n            tag_16:\n                /* \"FakeProdIden.sol\":1658:1689  Product(id, name, brandName, 0) */\n              mload(0x40)\n              dup1\n              0x80\n              add\n              0x40\n              mstore\n              dup1\n                /* \"FakeProdIden.sol\":1666:1668  id */\n              dup5\n                /* \"FakeProdIden.sol\":1658:1689  Product(id, name, brandName, 0) */\n              dup2\n              mstore\n              0x20\n              add\n                /* \"FakeProdIden.sol\":1670:1674  name */\n              dup4\n                /* \"FakeProdIden.sol\":1658:1689  Product(id, name, brandName, 0) */\n              dup2\n              mstore\n              0x20\n              add\n                /* \"FakeProdIden.sol\":1676:1685  brandName */\n              dup3\n                /* \"FakeProdIden.sol\":1658:1689  Product(id, name, brandName, 0) */\n              dup2\n              mstore\n              0x20\n              add\n                /* \"FakeProdIden.sol\":1687:1688  0 */\n              0x00\n                /* \"FakeProdIden.sol\":1658:1689  Product(id, name, brandName, 0) */\n              0xffffffff\n              and\n              dup2\n              mstore\n              pop\n                /* \"FakeProdIden.sol\":1637:1651  productStorage */\n              0x03\n                /* \"FakeProdIden.sol\":1652:1654  id */\n              dup5\n                /* \"FakeProdIden.sol\":1637:1655  productStorage[id] */\n              mload(0x40)\n              tag_54\n              swap2\n              swap1\n              tag_55\n              jump\t// in\n            tag_54:\n              swap1\n              dup2\n              mstore\n              0x20\n              add\n              mload(0x40)\n              dup1\n              swap2\n              sub\n              swap1\n              keccak256\n                /* \"FakeProdIden.sol\":1637:1689  productStorage[id] = Product(id, name, brandName, 0) */\n              0x00\n              dup3\n              add\n              mload\n              dup2\n              0x00\n              add\n              swap1\n              dup2\n              tag_56\n              swap2\n              swap1\n              tag_57\n              jump\t// in\n            tag_56:\n              pop\n              0x20\n              dup3\n              add\n              mload\n              dup2\n              0x01\n              add\n              swap1\n              dup2\n              tag_58\n              swap2\n              swap1\n              tag_57\n              jump\t// in\n            tag_58:\n              pop\n              0x40\n              dup3\n              add\n              mload\n              dup2\n              0x02\n              add\n              swap1\n              dup2\n              tag_59\n              swap2\n              swap1\n              tag_57\n              jump\t// in\n            tag_59:\n              pop\n              0x60\n              dup3\n              add\n              mload\n              dup2\n              0x03\n              add\n              exp(0x0100, 0x00)\n              dup2\n              sload\n              dup2\n              0xffffffff\n              mul\n              not\n              and\n              swap1\n              dup4\n              0xffffffff\n              and\n              mul\n              or\n              swap1\n              sstore\n              pop\n              swap1\n              pop\n              pop\n                /* \"FakeProdIden.sol\":1531:1697  function addProduct(string memory id, string memory name, string memory brandName) public... */\n              pop\n              pop\n              pop\n              jump\t// out\n                /* \"FakeProdIden.sol\":2524:3129  function productVerification(string memory prodId, uint32 consumerCode) public view returns(bool) ... */\n            tag_20:\n                /* \"FakeProdIden.sol\":2616:2620  bool */\n              0x00\n                /* \"FakeProdIden.sol\":2911:2915  true */\n              0x01\n                /* \"FakeProdIden.sol\":2870:2915  hasReachedToSeller[prodId].hasReached == true */\n              iszero\n              iszero\n                /* \"FakeProdIden.sol\":2870:2888  hasReachedToSeller */\n              0x01\n                /* \"FakeProdIden.sol\":2889:2895  prodId */\n              dup5\n                /* \"FakeProdIden.sol\":2870:2896  hasReachedToSeller[prodId] */\n              mload(0x40)\n              tag_61\n              swap2\n              swap1\n              tag_55\n              jump\t// in\n            tag_61:\n              swap1\n              dup2\n              mstore\n              0x20\n              add\n              mload(0x40)\n              dup1\n              swap2\n              sub\n              swap1\n              keccak256\n                /* \"FakeProdIden.sol\":2870:2907  hasReachedToSeller[prodId].hasReached */\n              0x01\n              add\n              0x00\n              swap1\n              sload\n              swap1\n              0x0100\n              exp\n              swap1\n              div\n              0xff\n              and\n                /* \"FakeProdIden.sol\":2870:2915  hasReachedToSeller[prodId].hasReached == true */\n              iszero\n              iszero\n              eq\n                /* \"FakeProdIden.sol\":2870:2955  hasReachedToSeller[prodId].hasReached == true && hasReachedToConsumer[prodId] == true */\n              dup1\n              iszero\n              tag_62\n              jumpi\n              pop\n                /* \"FakeProdIden.sol\":2951:2955  true */\n              0x01\n                /* \"FakeProdIden.sol\":2919:2955  hasReachedToConsumer[prodId] == true */\n              iszero\n              iszero\n                /* \"FakeProdIden.sol\":2919:2939  hasReachedToConsumer */\n              0x02\n                /* \"FakeProdIden.sol\":2940:2946  prodId */\n              dup5\n                /* \"FakeProdIden.sol\":2919:2947  hasReachedToConsumer[prodId] */\n              mload(0x40)\n              tag_63\n              swap2\n              swap1\n              tag_55\n              jump\t// in\n            tag_63:\n              swap1\n              dup2\n              mstore\n              0x20\n              add\n              mload(0x40)\n              dup1\n              swap2\n              sub\n              swap1\n              keccak256\n              0x00\n              swap1\n              sload\n              swap1\n              0x0100\n              exp\n              swap1\n              div\n              0xff\n              and\n                /* \"FakeProdIden.sol\":2919:2955  hasReachedToConsumer[prodId] == true */\n              iszero\n              iszero\n              eq\n                /* \"FakeProdIden.sol\":2870:2955  hasReachedToSeller[prodId].hasReached == true && hasReachedToConsumer[prodId] == true */\n            tag_62:\n                /* \"FakeProdIden.sol\":2870:3010  hasReachedToSeller[prodId].hasReached == true && hasReachedToConsumer[prodId] == true && productStorage[prodId].consumerCode == consumerCode */\n              dup1\n              iszero\n              tag_64\n              jumpi\n              pop\n                /* \"FakeProdIden.sol\":2998:3010  consumerCode */\n              dup2\n                /* \"FakeProdIden.sol\":2959:3010  productStorage[prodId].consumerCode == consumerCode */\n              0xffffffff\n              and\n                /* \"FakeProdIden.sol\":2959:2973  productStorage */\n              0x03\n                /* \"FakeProdIden.sol\":2974:2980  prodId */\n              dup5\n                /* \"FakeProdIden.sol\":2959:2981  productStorage[prodId] */\n              mload(0x40)\n              tag_65\n              swap2\n              swap1\n              tag_55\n              jump\t// in\n            tag_65:\n              swap1\n              dup2\n              mstore\n              0x20\n              add\n              mload(0x40)\n              dup1\n              swap2\n              sub\n              swap1\n              keccak256\n                /* \"FakeProdIden.sol\":2959:2994  productStorage[prodId].consumerCode */\n              0x03\n              add\n              0x00\n              swap1\n              sload\n              swap1\n              0x0100\n              exp\n              swap1\n              div\n              0xffffffff\n              and\n                /* \"FakeProdIden.sol\":2959:3010  productStorage[prodId].consumerCode == consumerCode */\n              0xffffffff\n              and\n              eq\n                /* \"FakeProdIden.sol\":2870:3010  hasReachedToSeller[prodId].hasReached == true && hasReachedToConsumer[prodId] == true && productStorage[prodId].consumerCode == consumerCode */\n            tag_64:\n                /* \"FakeProdIden.sol\":2867:3122  if(hasReachedToSeller[prodId].hasReached == true && hasReachedToConsumer[prodId] == true && productStorage[prodId].consumerCode == consumerCode)... */\n              iszero\n              tag_66\n              jumpi\n                /* \"FakeProdIden.sol\":3043:3047  true */\n              0x01\n                /* \"FakeProdIden.sol\":3036:3047  return true */\n              swap1\n              pop\n              jump(tag_60)\n                /* \"FakeProdIden.sol\":2867:3122  if(hasReachedToSeller[prodId].hasReached == true && hasReachedToConsumer[prodId] == true && productStorage[prodId].consumerCode == consumerCode)... */\n            tag_66:\n                /* \"FakeProdIden.sol\":3105:3110  false */\n              0x00\n                /* \"FakeProdIden.sol\":3098:3110  return false */\n              swap1\n              pop\n                /* \"FakeProdIden.sol\":2524:3129  function productVerification(string memory prodId, uint32 consumerCode) public view returns(bool) ... */\n            tag_60:\n              swap3\n              swap2\n              pop\n              pop\n              jump\t// out\n                /* \"FakeProdIden.sol\":2270:2465  function sellToConsumer(string memory prodId, uint32 consumerCode) public ... */\n            tag_25:\n                /* \"FakeProdIden.sol\":2392:2396  true */\n              0x01\n                /* \"FakeProdIden.sol\":2361:2381  hasReachedToConsumer */\n              0x02\n                /* \"FakeProdIden.sol\":2382:2388  prodId */\n              dup4\n                /* \"FakeProdIden.sol\":2361:2389  hasReachedToConsumer[prodId] */\n              mload(0x40)\n              tag_69\n              swap2\n              swap1\n              tag_55\n              jump\t// in\n            tag_69:\n              swap1\n              dup2\n              mstore\n              0x20\n              add\n              mload(0x40)\n              dup1\n              swap2\n              sub\n              swap1\n              keccak256\n              0x00\n                /* \"FakeProdIden.sol\":2361:2396  hasReachedToConsumer[prodId] = true */\n              0x0100\n              exp\n              dup2\n              sload\n              dup2\n              0xff\n              mul\n              not\n              and\n              swap1\n              dup4\n              iszero\n              iszero\n              mul\n              or\n              swap1\n              sstore\n              pop\n                /* \"FakeProdIden.sol\":2445:2457  consumerCode */\n              dup1\n                /* \"FakeProdIden.sol\":2407:2421  productStorage */\n              0x03\n                /* \"FakeProdIden.sol\":2422:2428  prodId */\n              dup4\n                /* \"FakeProdIden.sol\":2407:2429  productStorage[prodId] */\n              mload(0x40)\n              tag_70\n              swap2\n              swap1\n              tag_55\n              jump\t// in\n            tag_70:\n              swap1\n              dup2\n              mstore\n              0x20\n              add\n              mload(0x40)\n              dup1\n              swap2\n              sub\n              swap1\n              keccak256\n                /* \"FakeProdIden.sol\":2407:2442  productStorage[prodId].consumerCode */\n              0x03\n              add\n              0x00\n                /* \"FakeProdIden.sol\":2407:2457  productStorage[prodId].consumerCode = consumerCode */\n              0x0100\n              exp\n              dup2\n              sload\n              dup2\n              0xffffffff\n              mul\n              not\n              and\n              swap1\n              dup4\n              0xffffffff\n              and\n              mul\n              or\n              swap1\n              sstore\n              pop\n                /* \"FakeProdIden.sol\":2270:2465  function sellToConsumer(string memory prodId, uint32 consumerCode) public ... */\n              pop\n              pop\n              jump\t// out\n                /* \"FakeProdIden.sol\":1189:1240  mapping(string => bool) public hasReachedToConsumer */\n            tag_29:\n              0x02\n              dup2\n              dup1\n              mload\n              0x20\n              dup2\n              add\n              dup3\n              add\n              dup1\n              mload\n              dup5\n              dup3\n              mstore\n              0x20\n              dup4\n              add\n              0x20\n              dup6\n              add\n              keccak256\n              dup2\n              dup4\n              mstore\n              dup1\n              swap6\n              pop\n              pop\n              pop\n              pop\n              pop\n              pop\n              0x00\n              swap2\n              pop\n              sload\n              swap1\n              0x0100\n              exp\n              swap1\n              div\n              0xff\n              and\n              dup2\n              jump\t// out\n                /* \"FakeProdIden.sol\":1279:1327  mapping(string => Product) public productStorage */\n            tag_33:\n              0x03\n              dup2\n              dup1\n              mload\n              0x20\n              dup2\n              add\n              dup3\n              add\n              dup1\n              mload\n              dup5\n              dup3\n              mstore\n              0x20\n              dup4\n              add\n              0x20\n              dup6\n              add\n              keccak256\n              dup2\n              dup4\n              mstore\n              dup1\n              swap6\n              pop\n              pop\n              pop\n              pop\n              pop\n              pop\n              0x00\n              swap2\n              pop\n              swap1\n              pop\n              dup1\n              0x00\n              add\n              dup1\n              sload\n              tag_71\n              swap1\n              tag_72\n              jump\t// in\n            tag_71:\n              dup1\n              0x1f\n              add\n              0x20\n              dup1\n              swap2\n              div\n              mul\n              0x20\n              add\n              mload(0x40)\n              swap1\n              dup2\n              add\n              0x40\n              mstore\n              dup1\n              swap3\n              swap2\n              swap1\n              dup2\n              dup2\n              mstore\n              0x20\n              add\n              dup3\n              dup1\n              sload\n              tag_73\n              swap1\n              tag_72\n              jump\t// in\n            tag_73:\n              dup1\n              iszero\n              tag_74\n              jumpi\n              dup1\n              0x1f\n              lt\n              tag_75\n              jumpi\n              0x0100\n              dup1\n              dup4\n              sload\n              div\n              mul\n              dup4\n              mstore\n              swap2\n              0x20\n              add\n              swap2\n              jump(tag_74)\n            tag_75:\n              dup3\n              add\n              swap2\n              swap1\n              0x00\n              mstore\n              keccak256(0x00, 0x20)\n              swap1\n            tag_76:\n              dup2\n              sload\n              dup2\n              mstore\n              swap1\n              0x01\n              add\n              swap1\n              0x20\n              add\n              dup1\n              dup4\n              gt\n              tag_76\n              jumpi\n              dup3\n              swap1\n              sub\n              0x1f\n              and\n              dup3\n              add\n              swap2\n            tag_74:\n              pop\n              pop\n              pop\n              pop\n              pop\n              swap1\n              dup1\n              0x01\n              add\n              dup1\n              sload\n              tag_77\n              swap1\n              tag_72\n              jump\t// in\n            tag_77:\n              dup1\n              0x1f\n              add\n              0x20\n              dup1\n              swap2\n              div\n              mul\n              0x20\n              add\n              mload(0x40)\n              swap1\n              dup2\n              add\n              0x40\n              mstore\n              dup1\n              swap3\n              swap2\n              swap1\n              dup2\n              dup2\n              mstore\n              0x20\n              add\n              dup3\n              dup1\n              sload\n              tag_78\n              swap1\n              tag_72\n              jump\t// in\n            tag_78:\n              dup1\n              iszero\n              tag_79\n              jumpi\n              dup1\n              0x1f\n              lt\n              tag_80\n              jumpi\n              0x0100\n              dup1\n              dup4\n              sload\n              div\n              mul\n              dup4\n              mstore\n              swap2\n              0x20\n              add\n              swap2\n              jump(tag_79)\n            tag_80:\n              dup3\n              add\n              swap2\n              swap1\n              0x00\n              mstore\n              keccak256(0x00, 0x20)\n              swap1\n            tag_81:\n              dup2\n              sload\n              dup2\n              mstore\n              swap1\n              0x01\n              add\n              swap1\n              0x20\n              add\n              dup1\n              dup4\n              gt\n              tag_81\n              jumpi\n              dup3\n              swap1\n              sub\n              0x1f\n              and\n              dup3\n              add\n              swap2\n            tag_79:\n              pop\n              pop\n              pop\n              pop\n              pop\n              swap1\n              dup1\n              0x02\n              add\n              dup1\n              sload\n              tag_82\n              swap1\n              tag_72\n              jump\t// in\n            tag_82:\n              dup1\n              0x1f\n              add\n              0x20\n              dup1\n              swap2\n              div\n              mul\n              0x20\n              add\n              mload(0x40)\n              swap1\n              dup2\n              add\n              0x40\n              mstore\n              dup1\n              swap3\n              swap2\n              swap1\n              dup2\n              dup2\n              mstore\n              0x20\n              add\n              dup3\n              dup1\n              sload\n              tag_83\n              swap1\n              tag_72\n              jump\t// in\n            tag_83:\n              dup1\n              iszero\n              tag_84\n              jumpi\n              dup1\n              0x1f\n              lt\n              tag_85\n              jumpi\n              0x0100\n              dup1\n              dup4\n              sload\n              div\n              mul\n              dup4\n              mstore\n              swap2\n              0x20\n              add\n              swap2\n              jump(tag_84)\n            tag_85:\n              dup3\n              add\n              swap2\n              swap1\n              0x00\n              mstore\n              keccak256(0x00, 0x20)\n              swap1\n            tag_86:\n              dup2\n              sload\n              dup2\n              mstore\n              swap1\n              0x01\n              add\n              swap1\n              0x20\n              add\n              dup1\n              dup4\n              gt\n              tag_86\n              jumpi\n              dup3\n              swap1\n              sub\n              0x1f\n              and\n              dup3\n              add\n              swap2\n            tag_84:\n              pop\n              pop\n              pop\n              pop\n              pop\n              swap1\n              dup1\n              0x03\n              add\n              0x00\n              swap1\n              sload\n              swap1\n              0x0100\n              exp\n              swap1\n              div\n              0xffffffff\n              and\n              swap1\n              pop\n              dup5\n              jump\t// out\n                /* \"FakeProdIden.sol\":1769:1971  function sellToSeller(string memory prodId, string memory sellerId) public ... */\n            tag_39:\n                /* \"FakeProdIden.sol\":1899:1907  sellerId */\n              dup1\n                /* \"FakeProdIden.sol\":1861:1879  hasReachedToSeller */\n              0x01\n                /* \"FakeProdIden.sol\":1880:1886  prodId */\n              dup4\n                /* \"FakeProdIden.sol\":1861:1887  hasReachedToSeller[prodId] */\n              mload(0x40)\n              tag_88\n              swap2\n              swap1\n              tag_55\n              jump\t// in\n            tag_88:\n              swap1\n              dup2\n              mstore\n              0x20\n              add\n              mload(0x40)\n              dup1\n              swap2\n              sub\n              swap1\n              keccak256\n                /* \"FakeProdIden.sol\":1861:1896  hasReachedToSeller[prodId].sellerId */\n              0x00\n              add\n                /* \"FakeProdIden.sol\":1861:1907  hasReachedToSeller[prodId].sellerId = sellerId */\n              swap1\n              dup2\n              tag_89\n              swap2\n              swap1\n              tag_57\n              jump\t// in\n            tag_89:\n              pop\n                /* \"FakeProdIden.sol\":1958:1962  true */\n              0x01\n                /* \"FakeProdIden.sol\":1918:1936  hasReachedToSeller */\n              dup1\n                /* \"FakeProdIden.sol\":1937:1943  prodId */\n              dup4\n                /* \"FakeProdIden.sol\":1918:1944  hasReachedToSeller[prodId] */\n              mload(0x40)\n              tag_90\n              swap2\n              swap1\n              tag_55\n              jump\t// in\n            tag_90:\n              swap1\n              dup2\n              mstore\n              0x20\n              add\n              mload(0x40)\n              dup1\n              swap2\n              sub\n              swap1\n              keccak256\n                /* \"FakeProdIden.sol\":1918:1955  hasReachedToSeller[prodId].hasReached */\n              0x01\n              add\n              0x00\n                /* \"FakeProdIden.sol\":1918:1962  hasReachedToSeller[prodId].hasReached = true */\n              0x0100\n              exp\n              dup2\n              sload\n              dup2\n              0xff\n              mul\n              not\n              and\n              swap1\n              dup4\n              iszero\n              iszero\n              mul\n              or\n              swap1\n              sstore\n              pop\n                /* \"FakeProdIden.sol\":1769:1971  function sellToSeller(string memory prodId, string memory sellerId) public ... */\n              pop\n              pop\n              jump\t// out\n                /* \"FakeProdIden.sol\":1093:1149  mapping(string => reachSeller) public hasReachedToSeller */\n            tag_42:\n              0x01\n              dup2\n              dup1\n              mload\n              0x20\n              dup2\n              add\n              dup3\n              add\n              dup1\n              mload\n              dup5\n              dup3\n              mstore\n              0x20\n              dup4\n              add\n              0x20\n              dup6\n              add\n              keccak256\n              dup2\n              dup4\n              mstore\n              dup1\n              swap6\n              pop\n              pop\n              pop\n              pop\n              pop\n              pop\n              0x00\n              swap2\n              pop\n              swap1\n              pop\n              dup1\n              0x00\n              add\n              dup1\n              sload\n              tag_91\n              swap1\n              tag_72\n              jump\t// in\n            tag_91:\n              dup1\n              0x1f\n              add\n              0x20\n              dup1\n              swap2\n              div\n              mul\n              0x20\n              add\n              mload(0x40)\n              swap1\n              dup2\n              add\n              0x40\n              mstore\n              dup1\n              swap3\n              swap2\n              swap1\n              dup2\n              dup2\n              mstore\n              0x20\n              add\n              dup3\n              dup1\n              sload\n              tag_92\n              swap1\n              tag_72\n              jump\t// in\n            tag_92:\n              dup1\n              iszero\n              tag_93\n              jumpi\n              dup1\n              0x1f\n              lt\n              tag_94\n              jumpi\n              0x0100\n              dup1\n              dup4\n              sload\n              div\n              mul\n              dup4\n              mstore\n              swap2\n              0x20\n              add\n              swap2\n              jump(tag_93)\n            tag_94:\n              dup3\n              add\n              swap2\n              swap1\n              0x00\n              mstore\n              keccak256(0x00, 0x20)\n              swap1\n            tag_95:\n              dup2\n              sload\n              dup2\n              mstore\n              swap1\n              0x01\n              add\n              swap1\n              0x20\n              add\n              dup1\n              dup4\n              gt\n              tag_95\n              jumpi\n              dup3\n              swap1\n              sub\n              0x1f\n              and\n              dup3\n              add\n              swap2\n            tag_93:\n              pop\n              pop\n              pop\n              pop\n              pop\n              swap1\n              dup1\n              0x01\n              add\n              0x00\n              swap1\n              sload\n              swap1\n              0x0100\n              exp\n              swap1\n              div\n              0xff\n              and\n              swap1\n              pop\n              dup3\n              jump\t// out\n                /* \"FakeProdIden.sol\":2065:2200  function addSellers(string memory sellerId) public ... */\n            tag_47:\n                /* \"FakeProdIden.sol\":2160:2192  SellerInfo(sellerId, msg.sender) */\n              mload(0x40)\n              dup1\n              0x40\n              add\n              0x40\n              mstore\n              dup1\n                /* \"FakeProdIden.sol\":2171:2179  sellerId */\n              dup3\n                /* \"FakeProdIden.sol\":2160:2192  SellerInfo(sellerId, msg.sender) */\n              dup2\n              mstore\n              0x20\n              add\n                /* \"FakeProdIden.sol\":2181:2191  msg.sender */\n              caller\n                /* \"FakeProdIden.sol\":2160:2192  SellerInfo(sellerId, msg.sender) */\n              0xffffffffffffffffffffffffffffffffffffffff\n              and\n              dup2\n              mstore\n              pop\n                /* \"FakeProdIden.sol\":2133:2147  allSellersInfo */\n              0x04\n                /* \"FakeProdIden.sol\":2148:2156  sellerId */\n              dup3\n                /* \"FakeProdIden.sol\":2133:2157  allSellersInfo[sellerId] */\n              mload(0x40)\n              tag_97\n              swap2\n              swap1\n              tag_55\n              jump\t// in\n            tag_97:\n              swap1\n              dup2\n              mstore\n              0x20\n              add\n              mload(0x40)\n              dup1\n              swap2\n              sub\n              swap1\n              keccak256\n                /* \"FakeProdIden.sol\":2133:2192  allSellersInfo[sellerId] = SellerInfo(sellerId, msg.sender) */\n              0x00\n              dup3\n              add\n              mload\n              dup2\n              0x00\n              add\n              swap1\n              dup2\n              tag_98\n              swap2\n              swap1\n              tag_57\n              jump\t// in\n            tag_98:\n              pop\n              0x20\n              dup3\n              add\n              mload\n              dup2\n              0x01\n              add\n              exp(0x0100, 0x00)\n              dup2\n              sload\n              dup2\n              0xffffffffffffffffffffffffffffffffffffffff\n              mul\n              not\n              and\n              swap1\n              dup4\n              0xffffffffffffffffffffffffffffffffffffffff\n              and\n              mul\n              or\n              swap1\n              sstore\n              pop\n              swap1\n              pop\n              pop\n                /* \"FakeProdIden.sol\":2065:2200  function addSellers(string memory sellerId) public ... */\n              pop\n              jump\t// out\n                /* \"FakeProdIden.sol\":1377:1428  mapping(string => SellerInfo) public allSellersInfo */\n            tag_50:\n              0x04\n              dup2\n              dup1\n              mload\n              0x20\n              dup2\n              add\n              dup3\n              add\n              dup1\n              mload\n              dup5\n              dup3\n              mstore\n              0x20\n              dup4\n              add\n              0x20\n              dup6\n              add\n              keccak256\n              dup2\n              dup4\n              mstore\n              dup1\n              swap6\n              pop\n              pop\n              pop\n              pop\n              pop\n              pop\n              0x00\n              swap2\n              pop\n              swap1\n              pop\n              dup1\n              0x00\n              add\n              dup1\n              sload\n              tag_99\n              swap1\n              tag_72\n              jump\t// in\n            tag_99:\n              dup1\n              0x1f\n              add\n              0x20\n              dup1\n              swap2\n              div\n              mul\n              0x20\n              add\n              mload(0x40)\n              swap1\n              dup2\n              add\n              0x40\n              mstore\n              dup1\n              swap3\n              swap2\n              swap1\n              dup2\n              dup2\n              mstore\n              0x20\n              add\n              dup3\n              dup1\n              sload\n              tag_100\n              swap1\n              tag_72\n              jump\t// in\n            tag_100:\n              dup1\n              iszero\n              tag_101\n              jumpi\n              dup1\n              0x1f\n              lt\n              tag_102\n              jumpi\n              0x0100\n              dup1\n              dup4\n              sload\n              div\n              mul\n              dup4\n              mstore\n              swap2\n              0x20\n              add\n              swap2\n              jump(tag_101)\n            tag_102:\n              dup3\n              add\n              swap2\n              swap1\n              0x00\n              mstore\n              keccak256(0x00, 0x20)\n              swap1\n            tag_103:\n              dup2\n              sload\n              dup2\n              mstore\n              swap1\n              0x01\n              add\n              swap1\n              0x20\n              add\n              dup1\n              dup4\n              gt\n              tag_103\n              jumpi\n              dup3\n              swap1\n              sub\n              0x1f\n              and\n              dup3\n              add\n              swap2\n            tag_101:\n              pop\n              pop\n              pop\n              pop\n              pop\n              swap1\n              dup1\n              0x01\n              add\n              0x00\n              swap1\n              sload\n              swap1\n              0x0100\n              exp\n              swap1\n              div\n              0xffffffffffffffffffffffffffffffffffffffff\n              and\n              swap1\n              pop\n              dup3\n              jump\t// out\n                /* \"#utility.yul\":7:82   */\n            tag_104:\n                /* \"#utility.yul\":40:46   */\n              0x00\n                /* \"#utility.yul\":73:75   */\n              0x40\n                /* \"#utility.yul\":67:76   */\n              mload\n                /* \"#utility.yul\":57:76   */\n              swap1\n              pop\n                /* \"#utility.yul\":7:82   */\n              swap1\n              jump\t// out\n                /* \"#utility.yul\":88:205   */\n            tag_105:\n                /* \"#utility.yul\":197:198   */\n              0x00\n                /* \"#utility.yul\":194:195   */\n              dup1\n                /* \"#utility.yul\":187:199   */\n              revert\n                /* \"#utility.yul\":211:328   */\n            tag_106:\n                /* \"#utility.yul\":320:321   */\n              0x00\n                /* \"#utility.yul\":317:318   */\n              dup1\n                /* \"#utility.yul\":310:322   */\n              revert\n                /* \"#utility.yul\":334:451   */\n            tag_107:\n                /* \"#utility.yul\":443:444   */\n              0x00\n                /* \"#utility.yul\":440:441   */\n              dup1\n                /* \"#utility.yul\":433:445   */\n              revert\n                /* \"#utility.yul\":457:574   */\n            tag_108:\n                /* \"#utility.yul\":566:567   */\n              0x00\n                /* \"#utility.yul\":563:564   */\n              dup1\n                /* \"#utility.yul\":556:568   */\n              revert\n                /* \"#utility.yul\":580:682   */\n            tag_109:\n                /* \"#utility.yul\":621:627   */\n              0x00\n                /* \"#utility.yul\":672:674   */\n              0x1f\n                /* \"#utility.yul\":668:675   */\n              not\n                /* \"#utility.yul\":663:665   */\n              0x1f\n                /* \"#utility.yul\":656:661   */\n              dup4\n                /* \"#utility.yul\":652:666   */\n              add\n                /* \"#utility.yul\":648:676   */\n              and\n                /* \"#utility.yul\":638:676   */\n              swap1\n              pop\n                /* \"#utility.yul\":580:682   */\n              swap2\n              swap1\n              pop\n              jump\t// out\n                /* \"#utility.yul\":688:868   */\n            tag_110:\n                /* \"#utility.yul\":736:813   */\n              0x4e487b7100000000000000000000000000000000000000000000000000000000\n                /* \"#utility.yul\":733:734   */\n              0x00\n                /* \"#utility.yul\":726:814   */\n              mstore\n                /* \"#utility.yul\":833:837   */\n              0x41\n                /* \"#utility.yul\":830:831   */\n              0x04\n                /* \"#utility.yul\":823:838   */\n              mstore\n                /* \"#utility.yul\":857:861   */\n              0x24\n                /* \"#utility.yul\":854:855   */\n              0x00\n                /* \"#utility.yul\":847:862   */\n              revert\n                /* \"#utility.yul\":874:1155   */\n            tag_111:\n                /* \"#utility.yul\":957:984   */\n              tag_158\n                /* \"#utility.yul\":979:983   */\n              dup3\n                /* \"#utility.yul\":957:984   */\n              tag_109\n              jump\t// in\n            tag_158:\n                /* \"#utility.yul\":949:955   */\n              dup2\n                /* \"#utility.yul\":945:985   */\n              add\n                /* \"#utility.yul\":1087:1093   */\n              dup2\n                /* \"#utility.yul\":1075:1085   */\n              dup2\n                /* \"#utility.yul\":1072:1094   */\n              lt\n                /* \"#utility.yul\":1051:1069   */\n              0xffffffffffffffff\n                /* \"#utility.yul\":1039:1049   */\n              dup3\n                /* \"#utility.yul\":1036:1070   */\n              gt\n                /* \"#utility.yul\":1033:1095   */\n              or\n                /* \"#utility.yul\":1030:1118   */\n              iszero\n              tag_159\n              jumpi\n                /* \"#utility.yul\":1098:1116   */\n              tag_160\n              tag_110\n              jump\t// in\n            tag_160:\n                /* \"#utility.yul\":1030:1118   */\n            tag_159:\n                /* \"#utility.yul\":1138:1148   */\n              dup1\n                /* \"#utility.yul\":1134:1136   */\n              0x40\n                /* \"#utility.yul\":1127:1149   */\n              mstore\n                /* \"#utility.yul\":917:1155   */\n              pop\n                /* \"#utility.yul\":874:1155   */\n              pop\n              pop\n              jump\t// out\n                /* \"#utility.yul\":1161:1290   */\n            tag_112:\n                /* \"#utility.yul\":1195:1201   */\n              0x00\n                /* \"#utility.yul\":1222:1242   */\n              tag_162\n              tag_104\n              jump\t// in\n            tag_162:\n                /* \"#utility.yul\":1212:1242   */\n              swap1\n              pop\n                /* \"#utility.yul\":1251:1284   */\n              tag_163\n                /* \"#utility.yul\":1279:1283   */\n              dup3\n                /* \"#utility.yul\":1271:1277   */\n              dup3\n                /* \"#utility.yul\":1251:1284   */\n              tag_111\n              jump\t// in\n            tag_163:\n                /* \"#utility.yul\":1161:1290   */\n              swap2\n              swap1\n              pop\n              jump\t// out\n                /* \"#utility.yul\":1296:1604   */\n            tag_113:\n                /* \"#utility.yul\":1358:1362   */\n              0x00\n                /* \"#utility.yul\":1448:1466   */\n              0xffffffffffffffff\n                /* \"#utility.yul\":1440:1446   */\n              dup3\n                /* \"#utility.yul\":1437:1467   */\n              gt\n                /* \"#utility.yul\":1434:1490   */\n              iszero\n              tag_165\n              jumpi\n                /* \"#utility.yul\":1470:1488   */\n              tag_166\n              tag_110\n              jump\t// in\n            tag_166:\n                /* \"#utility.yul\":1434:1490   */\n            tag_165:\n                /* \"#utility.yul\":1508:1537   */\n              tag_167\n                /* \"#utility.yul\":1530:1536   */\n              dup3\n                /* \"#utility.yul\":1508:1537   */\n              tag_109\n              jump\t// in\n            tag_167:\n                /* \"#utility.yul\":1500:1537   */\n              swap1\n              pop\n                /* \"#utility.yul\":1592:1596   */\n              0x20\n                /* \"#utility.yul\":1586:1590   */\n              dup2\n                /* \"#utility.yul\":1582:1597   */\n              add\n                /* \"#utility.yul\":1574:1597   */\n              swap1\n              pop\n                /* \"#utility.yul\":1296:1604   */\n              swap2\n              swap1\n              pop\n              jump\t// out\n                /* \"#utility.yul\":1610:1756   */\n            tag_114:\n                /* \"#utility.yul\":1707:1713   */\n              dup3\n                /* \"#utility.yul\":1702:1705   */\n              dup2\n                /* \"#utility.yul\":1697:1700   */\n              dup4\n                /* \"#utility.yul\":1684:1714   */\n              calldatacopy\n                /* \"#utility.yul\":1748:1749   */\n              0x00\n                /* \"#utility.yul\":1739:1745   */\n              dup4\n                /* \"#utility.yul\":1734:1737   */\n              dup4\n                /* \"#utility.yul\":1730:1746   */\n              add\n                /* \"#utility.yul\":1723:1750   */\n              mstore\n                /* \"#utility.yul\":1610:1756   */\n              pop\n              pop\n              pop\n              jump\t// out\n                /* \"#utility.yul\":1762:2187   */\n            tag_115:\n                /* \"#utility.yul\":1840:1845   */\n              0x00\n                /* \"#utility.yul\":1865:1931   */\n              tag_170\n                /* \"#utility.yul\":1881:1930   */\n              tag_171\n                /* \"#utility.yul\":1923:1929   */\n              dup5\n                /* \"#utility.yul\":1881:1930   */\n              tag_113\n              jump\t// in\n            tag_171:\n                /* \"#utility.yul\":1865:1931   */\n              tag_112\n              jump\t// in\n            tag_170:\n                /* \"#utility.yul\":1856:1931   */\n              swap1\n              pop\n                /* \"#utility.yul\":1954:1960   */\n              dup3\n                /* \"#utility.yul\":1947:1952   */\n              dup2\n                /* \"#utility.yul\":1940:1961   */\n              mstore\n                /* \"#utility.yul\":1992:1996   */\n              0x20\n                /* \"#utility.yul\":1985:1990   */\n              dup2\n                /* \"#utility.yul\":1981:1997   */\n              add\n                /* \"#utility.yul\":2030:2033   */\n              dup5\n                /* \"#utility.yul\":2021:2027   */\n              dup5\n                /* \"#utility.yul\":2016:2019   */\n              dup5\n                /* \"#utility.yul\":2012:2028   */\n              add\n                /* \"#utility.yul\":2009:2034   */\n              gt\n                /* \"#utility.yul\":2006:2118   */\n              iszero\n              tag_172\n              jumpi\n                /* \"#utility.yul\":2037:2116   */\n              tag_173\n              tag_108\n              jump\t// in\n            tag_173:\n                /* \"#utility.yul\":2006:2118   */\n            tag_172:\n                /* \"#utility.yul\":2127:2181   */\n              tag_174\n                /* \"#utility.yul\":2174:2180   */\n              dup5\n                /* \"#utility.yul\":2169:2172   */\n              dup3\n                /* \"#utility.yul\":2164:2167   */\n              dup6\n                /* \"#utility.yul\":2127:2181   */\n              tag_114\n              jump\t// in\n            tag_174:\n                /* \"#utility.yul\":1846:2187   */\n              pop\n                /* \"#utility.yul\":1762:2187   */\n              swap4\n              swap3\n              pop\n              pop\n              pop\n              jump\t// out\n                /* \"#utility.yul\":2207:2547   */\n            tag_116:\n                /* \"#utility.yul\":2263:2268   */\n              0x00\n                /* \"#utility.yul\":2312:2315   */\n              dup3\n                /* \"#utility.yul\":2305:2309   */\n              0x1f\n                /* \"#utility.yul\":2297:2303   */\n              dup4\n                /* \"#utility.yul\":2293:2310   */\n              add\n                /* \"#utility.yul\":2289:2316   */\n              slt\n                /* \"#utility.yul\":2279:2401   */\n              tag_176\n              jumpi\n                /* \"#utility.yul\":2320:2399   */\n              tag_177\n              tag_107\n              jump\t// in\n            tag_177:\n                /* \"#utility.yul\":2279:2401   */\n            tag_176:\n                /* \"#utility.yul\":2437:2443   */\n              dup2\n                /* \"#utility.yul\":2424:2444   */\n              calldataload\n                /* \"#utility.yul\":2462:2541   */\n              tag_178\n                /* \"#utility.yul\":2537:2540   */\n              dup5\n                /* \"#utility.yul\":2529:2535   */\n              dup3\n                /* \"#utility.yul\":2522:2526   */\n              0x20\n                /* \"#utility.yul\":2514:2520   */\n              dup7\n                /* \"#utility.yul\":2510:2527   */\n              add\n                /* \"#utility.yul\":2462:2541   */\n              tag_115\n              jump\t// in\n            tag_178:\n                /* \"#utility.yul\":2453:2541   */\n              swap2\n              pop\n                /* \"#utility.yul\":2269:2547   */\n              pop\n                /* \"#utility.yul\":2207:2547   */\n              swap3\n              swap2\n              pop\n              pop\n              jump\t// out\n                /* \"#utility.yul\":2553:3712   */\n            tag_15:\n                /* \"#utility.yul\":2660:2666   */\n              0x00\n                /* \"#utility.yul\":2668:2674   */\n              dup1\n                /* \"#utility.yul\":2676:2682   */\n              0x00\n                /* \"#utility.yul\":2725:2727   */\n              0x60\n                /* \"#utility.yul\":2713:2722   */\n              dup5\n                /* \"#utility.yul\":2704:2711   */\n              dup7\n                /* \"#utility.yul\":2700:2723   */\n              sub\n                /* \"#utility.yul\":2696:2728   */\n              slt\n                /* \"#utility.yul\":2693:2812   */\n              iszero\n              tag_180\n              jumpi\n                /* \"#utility.yul\":2731:2810   */\n              tag_181\n              tag_105\n              jump\t// in\n            tag_181:\n                /* \"#utility.yul\":2693:2812   */\n            tag_180:\n                /* \"#utility.yul\":2879:2880   */\n              0x00\n                /* \"#utility.yul\":2868:2877   */\n              dup5\n                /* \"#utility.yul\":2864:2881   */\n              add\n                /* \"#utility.yul\":2851:2882   */\n              calldataload\n                /* \"#utility.yul\":2909:2927   */\n              0xffffffffffffffff\n                /* \"#utility.yul\":2901:2907   */\n              dup2\n                /* \"#utility.yul\":2898:2928   */\n              gt\n                /* \"#utility.yul\":2895:3012   */\n              iszero\n              tag_182\n              jumpi\n                /* \"#utility.yul\":2931:3010   */\n              tag_183\n              tag_106\n              jump\t// in\n            tag_183:\n                /* \"#utility.yul\":2895:3012   */\n            tag_182:\n                /* \"#utility.yul\":3036:3099   */\n              tag_184\n                /* \"#utility.yul\":3091:3098   */\n              dup7\n                /* \"#utility.yul\":3082:3088   */\n              dup3\n                /* \"#utility.yul\":3071:3080   */\n              dup8\n                /* \"#utility.yul\":3067:3089   */\n              add\n                /* \"#utility.yul\":3036:3099   */\n              tag_116\n              jump\t// in\n            tag_184:\n                /* \"#utility.yul\":3026:3099   */\n              swap4\n              pop\n                /* \"#utility.yul\":2822:3109   */\n              pop\n                /* \"#utility.yul\":3176:3178   */\n              0x20\n                /* \"#utility.yul\":3165:3174   */\n              dup5\n                /* \"#utility.yul\":3161:3179   */\n              add\n                /* \"#utility.yul\":3148:3180   */\n              calldataload\n                /* \"#utility.yul\":3207:3225   */\n              0xffffffffffffffff\n                /* \"#utility.yul\":3199:3205   */\n              dup2\n                /* \"#utility.yul\":3196:3226   */\n              gt\n                /* \"#utility.yul\":3193:3310   */\n              iszero\n              tag_185\n              jumpi\n                /* \"#utility.yul\":3229:3308   */\n              tag_186\n              tag_106\n              jump\t// in\n            tag_186:\n                /* \"#utility.yul\":3193:3310   */\n            tag_185:\n                /* \"#utility.yul\":3334:3397   */\n              tag_187\n                /* \"#utility.yul\":3389:3396   */\n              dup7\n                /* \"#utility.yul\":3380:3386   */\n              dup3\n                /* \"#utility.yul\":3369:3378   */\n              dup8\n                /* \"#utility.yul\":3365:3387   */\n              add\n                /* \"#utility.yul\":3334:3397   */\n              tag_116\n              jump\t// in\n            tag_187:\n                /* \"#utility.yul\":3324:3397   */\n              swap3\n              pop\n                /* \"#utility.yul\":3119:3407   */\n              pop\n                /* \"#utility.yul\":3474:3476   */\n              0x40\n                /* \"#utility.yul\":3463:3472   */\n              dup5\n                /* \"#utility.yul\":3459:3477   */\n              add\n                /* \"#utility.yul\":3446:3478   */\n              calldataload\n                /* \"#utility.yul\":3505:3523   */\n              0xffffffffffffffff\n                /* \"#utility.yul\":3497:3503   */\n              dup2\n                /* \"#utility.yul\":3494:3524   */\n              gt\n                /* \"#utility.yul\":3491:3608   */\n              iszero\n              tag_188\n              jumpi\n                /* \"#utility.yul\":3527:3606   */\n              tag_189\n              tag_106\n              jump\t// in\n            tag_189:\n                /* \"#utility.yul\":3491:3608   */\n            tag_188:\n                /* \"#utility.yul\":3632:3695   */\n              tag_190\n                /* \"#utility.yul\":3687:3694   */\n              dup7\n                /* \"#utility.yul\":3678:3684   */\n              dup3\n                /* \"#utility.yul\":3667:3676   */\n              dup8\n                /* \"#utility.yul\":3663:3685   */\n              add\n                /* \"#utility.yul\":3632:3695   */\n              tag_116\n              jump\t// in\n            tag_190:\n                /* \"#utility.yul\":3622:3695   */\n              swap2\n              pop\n                /* \"#utility.yul\":3417:3705   */\n              pop\n                /* \"#utility.yul\":2553:3712   */\n              swap3\n              pop\n              swap3\n              pop\n              swap3\n              jump\t// out\n                /* \"#utility.yul\":3718:3811   */\n            tag_117:\n                /* \"#utility.yul\":3754:3761   */\n              0x00\n                /* \"#utility.yul\":3794:3804   */\n              0xffffffff\n                /* \"#utility.yul\":3787:3792   */\n              dup3\n                /* \"#utility.yul\":3783:3805   */\n              and\n                /* \"#utility.yul\":3772:3805   */\n              swap1\n              pop\n                /* \"#utility.yul\":3718:3811   */\n              swap2\n              swap1\n              pop\n              jump\t// out\n                /* \"#utility.yul\":3817:3937   */\n            tag_118:\n                /* \"#utility.yul\":3889:3912   */\n              tag_193\n                /* \"#utility.yul\":3906:3911   */\n              dup2\n                /* \"#utility.yul\":3889:3912   */\n              tag_117\n              jump\t// in\n            tag_193:\n                /* \"#utility.yul\":3882:3887   */\n              dup2\n                /* \"#utility.yul\":3879:3913   */\n              eq\n                /* \"#utility.yul\":3869:3931   */\n              tag_194\n              jumpi\n                /* \"#utility.yul\":3927:3928   */\n              0x00\n                /* \"#utility.yul\":3924:3925   */\n              dup1\n                /* \"#utility.yul\":3917:3929   */\n              revert\n                /* \"#utility.yul\":3869:3931   */\n            tag_194:\n                /* \"#utility.yul\":3817:3937   */\n              pop\n              jump\t// out\n                /* \"#utility.yul\":3943:4080   */\n            tag_119:\n                /* \"#utility.yul\":3988:3993   */\n              0x00\n                /* \"#utility.yul\":4026:4032   */\n              dup2\n                /* \"#utility.yul\":4013:4033   */\n              calldataload\n                /* \"#utility.yul\":4004:4033   */\n              swap1\n              pop\n                /* \"#utility.yul\":4042:4074   */\n              tag_196\n                /* \"#utility.yul\":4068:4073   */\n              dup2\n                /* \"#utility.yul\":4042:4074   */\n              tag_118\n              jump\t// in\n            tag_196:\n                /* \"#utility.yul\":3943:4080   */\n              swap3\n              swap2\n              pop\n              pop\n              jump\t// out\n                /* \"#utility.yul\":4086:4738   */\n            tag_19:\n                /* \"#utility.yul\":4163:4169   */\n              0x00\n                /* \"#utility.yul\":4171:4177   */\n              dup1\n                /* \"#utility.yul\":4220:4222   */\n              0x40\n                /* \"#utility.yul\":4208:4217   */\n              dup4\n                /* \"#utility.yul\":4199:4206   */\n              dup6\n                /* \"#utility.yul\":4195:4218   */\n              sub\n                /* \"#utility.yul\":4191:4223   */\n              slt\n                /* \"#utility.yul\":4188:4307   */\n              iszero\n              tag_198\n              jumpi\n                /* \"#utility.yul\":4226:4305   */\n              tag_199\n              tag_105\n              jump\t// in\n            tag_199:\n                /* \"#utility.yul\":4188:4307   */\n            tag_198:\n                /* \"#utility.yul\":4374:4375   */\n              0x00\n                /* \"#utility.yul\":4363:4372   */\n              dup4\n                /* \"#utility.yul\":4359:4376   */\n              add\n                /* \"#utility.yul\":4346:4377   */\n              calldataload\n                /* \"#utility.yul\":4404:4422   */\n              0xffffffffffffffff\n                /* \"#utility.yul\":4396:4402   */\n              dup2\n                /* \"#utility.yul\":4393:4423   */\n              gt\n                /* \"#utility.yul\":4390:4507   */\n              iszero\n              tag_200\n              jumpi\n                /* \"#utility.yul\":4426:4505   */\n              tag_201\n              tag_106\n              jump\t// in\n            tag_201:\n                /* \"#utility.yul\":4390:4507   */\n            tag_200:\n                /* \"#utility.yul\":4531:4594   */\n              tag_202\n                /* \"#utility.yul\":4586:4593   */\n              dup6\n                /* \"#utility.yul\":4577:4583   */\n              dup3\n                /* \"#utility.yul\":4566:4575   */\n              dup7\n                /* \"#utility.yul\":4562:4584   */\n              add\n                /* \"#utility.yul\":4531:4594   */\n              tag_116\n              jump\t// in\n            tag_202:\n                /* \"#utility.yul\":4521:4594   */\n              swap3\n              pop\n                /* \"#utility.yul\":4317:4604   */\n              pop\n                /* \"#utility.yul\":4643:4645   */\n              0x20\n                /* \"#utility.yul\":4669:4721   */\n              tag_203\n                /* \"#utility.yul\":4713:4720   */\n              dup6\n                /* \"#utility.yul\":4704:4710   */\n              dup3\n                /* \"#utility.yul\":4693:4702   */\n              dup7\n                /* \"#utility.yul\":4689:4711   */\n              add\n                /* \"#utility.yul\":4669:4721   */\n              tag_119\n              jump\t// in\n            tag_203:\n                /* \"#utility.yul\":4659:4721   */\n              swap2\n              pop\n                /* \"#utility.yul\":4614:4731   */\n              pop\n                /* \"#utility.yul\":4086:4738   */\n              swap3\n              pop\n              swap3\n              swap1\n              pop\n              jump\t// out\n                /* \"#utility.yul\":4744:4834   */\n            tag_120:\n                /* \"#utility.yul\":4778:4785   */\n              0x00\n                /* \"#utility.yul\":4821:4826   */\n              dup2\n                /* \"#utility.yul\":4814:4827   */\n              iszero\n                /* \"#utility.yul\":4807:4828   */\n              iszero\n                /* \"#utility.yul\":4796:4828   */\n              swap1\n              pop\n                /* \"#utility.yul\":4744:4834   */\n              swap2\n              swap1\n              pop\n              jump\t// out\n                /* \"#utility.yul\":4840:4949   */\n            tag_121:\n                /* \"#utility.yul\":4921:4942   */\n              tag_206\n                /* \"#utility.yul\":4936:4941   */\n              dup2\n                /* \"#utility.yul\":4921:4942   */\n              tag_120\n              jump\t// in\n            tag_206:\n                /* \"#utility.yul\":4916:4919   */\n              dup3\n                /* \"#utility.yul\":4909:4943   */\n              mstore\n                /* \"#utility.yul\":4840:4949   */\n              pop\n              pop\n              jump\t// out\n                /* \"#utility.yul\":4955:5165   */\n            tag_22:\n                /* \"#utility.yul\":5042:5046   */\n              0x00\n                /* \"#utility.yul\":5080:5082   */\n              0x20\n                /* \"#utility.yul\":5069:5078   */\n              dup3\n                /* \"#utility.yul\":5065:5083   */\n              add\n                /* \"#utility.yul\":5057:5083   */\n              swap1\n              pop\n                /* \"#utility.yul\":5093:5158   */\n              tag_208\n                /* \"#utility.yul\":5155:5156   */\n              0x00\n                /* \"#utility.yul\":5144:5153   */\n              dup4\n                /* \"#utility.yul\":5140:5157   */\n              add\n                /* \"#utility.yul\":5131:5137   */\n              dup5\n                /* \"#utility.yul\":5093:5158   */\n              tag_121\n              jump\t// in\n            tag_208:\n                /* \"#utility.yul\":4955:5165   */\n              swap3\n              swap2\n              pop\n              pop\n              jump\t// out\n                /* \"#utility.yul\":5171:5680   */\n            tag_28:\n                /* \"#utility.yul\":5240:5246   */\n              0x00\n                /* \"#utility.yul\":5289:5291   */\n              0x20\n                /* \"#utility.yul\":5277:5286   */\n              dup3\n                /* \"#utility.yul\":5268:5275   */\n              dup5\n                /* \"#utility.yul\":5264:5287   */\n              sub\n                /* \"#utility.yul\":5260:5292   */\n              slt\n                /* \"#utility.yul\":5257:5376   */\n              iszero\n              tag_210\n              jumpi\n                /* \"#utility.yul\":5295:5374   */\n              tag_211\n              tag_105\n              jump\t// in\n            tag_211:\n                /* \"#utility.yul\":5257:5376   */\n            tag_210:\n                /* \"#utility.yul\":5443:5444   */\n              0x00\n                /* \"#utility.yul\":5432:5441   */\n              dup3\n                /* \"#utility.yul\":5428:5445   */\n              add\n                /* \"#utility.yul\":5415:5446   */\n              calldataload\n                /* \"#utility.yul\":5473:5491   */\n              0xffffffffffffffff\n                /* \"#utility.yul\":5465:5471   */\n              dup2\n                /* \"#utility.yul\":5462:5492   */\n              gt\n                /* \"#utility.yul\":5459:5576   */\n              iszero\n              tag_212\n              jumpi\n                /* \"#utility.yul\":5495:5574   */\n              tag_213\n              tag_106\n              jump\t// in\n            tag_213:\n                /* \"#utility.yul\":5459:5576   */\n            tag_212:\n                /* \"#utility.yul\":5600:5663   */\n              tag_214\n                /* \"#utility.yul\":5655:5662   */\n              dup5\n                /* \"#utility.yul\":5646:5652   */\n              dup3\n                /* \"#utility.yul\":5635:5644   */\n              dup6\n                /* \"#utility.yul\":5631:5653   */\n              add\n                /* \"#utility.yul\":5600:5663   */\n              tag_116\n              jump\t// in\n            tag_214:\n                /* \"#utility.yul\":5590:5663   */\n              swap2\n              pop\n                /* \"#utility.yul\":5386:5673   */\n              pop\n                /* \"#utility.yul\":5171:5680   */\n              swap3\n              swap2\n              pop\n              pop\n              jump\t// out\n                /* \"#utility.yul\":5686:5785   */\n            tag_122:\n                /* \"#utility.yul\":5738:5744   */\n              0x00\n                /* \"#utility.yul\":5772:5777   */\n              dup2\n                /* \"#utility.yul\":5766:5778   */\n              mload\n                /* \"#utility.yul\":5756:5778   */\n              swap1\n              pop\n                /* \"#utility.yul\":5686:5785   */\n              swap2\n              swap1\n              pop\n              jump\t// out\n                /* \"#utility.yul\":5791:5960   */\n            tag_123:\n                /* \"#utility.yul\":5875:5886   */\n              0x00\n                /* \"#utility.yul\":5909:5915   */\n              dup3\n                /* \"#utility.yul\":5904:5907   */\n              dup3\n                /* \"#utility.yul\":5897:5916   */\n              mstore\n                /* \"#utility.yul\":5949:5953   */\n              0x20\n                /* \"#utility.yul\":5944:5947   */\n              dup3\n                /* \"#utility.yul\":5940:5954   */\n              add\n                /* \"#utility.yul\":5925:5954   */\n              swap1\n              pop\n                /* \"#utility.yul\":5791:5960   */\n              swap3\n              swap2\n              pop\n              pop\n              jump\t// out\n                /* \"#utility.yul\":5966:6212   */\n            tag_124:\n                /* \"#utility.yul\":6047:6048   */\n              0x00\n                /* \"#utility.yul\":6057:6170   */\n            tag_218:\n                /* \"#utility.yul\":6071:6077   */\n              dup4\n                /* \"#utility.yul\":6068:6069   */\n              dup2\n                /* \"#utility.yul\":6065:6078   */\n              lt\n                /* \"#utility.yul\":6057:6170   */\n              iszero\n              tag_220\n              jumpi\n                /* \"#utility.yul\":6156:6157   */\n              dup1\n                /* \"#utility.yul\":6151:6154   */\n              dup3\n                /* \"#utility.yul\":6147:6158   */\n              add\n                /* \"#utility.yul\":6141:6159   */\n              mload\n                /* \"#utility.yul\":6137:6138   */\n              dup2\n                /* \"#utility.yul\":6132:6135   */\n              dup5\n                /* \"#utility.yul\":6128:6139   */\n              add\n                /* \"#utility.yul\":6121:6160   */\n              mstore\n                /* \"#utility.yul\":6093:6095   */\n              0x20\n                /* \"#utility.yul\":6090:6091   */\n              dup2\n                /* \"#utility.yul\":6086:6096   */\n              add\n                /* \"#utility.yul\":6081:6096   */\n              swap1\n              pop\n                /* \"#utility.yul\":6057:6170   */\n              jump(tag_218)\n            tag_220:\n                /* \"#utility.yul\":6204:6205   */\n              0x00\n                /* \"#utility.yul\":6195:6201   */\n              dup5\n                /* \"#utility.yul\":6190:6193   */\n              dup5\n                /* \"#utility.yul\":6186:6202   */\n              add\n                /* \"#utility.yul\":6179:6206   */\n              mstore\n                /* \"#utility.yul\":6028:6212   */\n              pop\n                /* \"#utility.yul\":5966:6212   */\n              pop\n              pop\n              pop\n              jump\t// out\n                /* \"#utility.yul\":6218:6595   */\n            tag_125:\n                /* \"#utility.yul\":6306:6309   */\n              0x00\n                /* \"#utility.yul\":6334:6373   */\n              tag_222\n                /* \"#utility.yul\":6367:6372   */\n              dup3\n                /* \"#utility.yul\":6334:6373   */\n              tag_122\n              jump\t// in\n            tag_222:\n                /* \"#utility.yul\":6389:6460   */\n              tag_223\n                /* \"#utility.yul\":6453:6459   */\n              dup2\n                /* \"#utility.yul\":6448:6451   */\n              dup6\n                /* \"#utility.yul\":6389:6460   */\n              tag_123\n              jump\t// in\n            tag_223:\n                /* \"#utility.yul\":6382:6460   */\n              swap4\n              pop\n                /* \"#utility.yul\":6469:6534   */\n              tag_224\n                /* \"#utility.yul\":6527:6533   */\n              dup2\n                /* \"#utility.yul\":6522:6525   */\n              dup6\n                /* \"#utility.yul\":6515:6519   */\n              0x20\n                /* \"#utility.yul\":6508:6513   */\n              dup7\n                /* \"#utility.yul\":6504:6520   */\n              add\n                /* \"#utility.yul\":6469:6534   */\n              tag_124\n              jump\t// in\n            tag_224:\n                /* \"#utility.yul\":6559:6588   */\n              tag_225\n                /* \"#utility.yul\":6581:6587   */\n              dup2\n                /* \"#utility.yul\":6559:6588   */\n              tag_109\n              jump\t// in\n            tag_225:\n                /* \"#utility.yul\":6554:6557   */\n              dup5\n                /* \"#utility.yul\":6550:6589   */\n              add\n                /* \"#utility.yul\":6543:6589   */\n              swap2\n              pop\n                /* \"#utility.yul\":6310:6595   */\n              pop\n                /* \"#utility.yul\":6218:6595   */\n              swap3\n              swap2\n              pop\n              pop\n              jump\t// out\n                /* \"#utility.yul\":6601:6716   */\n            tag_126:\n                /* \"#utility.yul\":6686:6709   */\n              tag_227\n                /* \"#utility.yul\":6703:6708   */\n              dup2\n                /* \"#utility.yul\":6686:6709   */\n              tag_117\n              jump\t// in\n            tag_227:\n                /* \"#utility.yul\":6681:6684   */\n              dup3\n                /* \"#utility.yul\":6674:6710   */\n              mstore\n                /* \"#utility.yul\":6601:6716   */\n              pop\n              pop\n              jump\t// out\n                /* \"#utility.yul\":6722:7544   */\n            tag_35:\n                /* \"#utility.yul\":6957:6961   */\n              0x00\n                /* \"#utility.yul\":6995:6998   */\n              0x80\n                /* \"#utility.yul\":6984:6993   */\n              dup3\n                /* \"#utility.yul\":6980:6999   */\n              add\n                /* \"#utility.yul\":6972:6999   */\n              swap1\n              pop\n                /* \"#utility.yul\":7045:7054   */\n              dup2\n                /* \"#utility.yul\":7039:7043   */\n              dup2\n                /* \"#utility.yul\":7035:7055   */\n              sub\n                /* \"#utility.yul\":7031:7032   */\n              0x00\n                /* \"#utility.yul\":7020:7029   */\n              dup4\n                /* \"#utility.yul\":7016:7033   */\n              add\n                /* \"#utility.yul\":7009:7056   */\n              mstore\n                /* \"#utility.yul\":7073:7151   */\n              tag_229\n                /* \"#utility.yul\":7146:7150   */\n              dup2\n                /* \"#utility.yul\":7137:7143   */\n              dup8\n                /* \"#utility.yul\":7073:7151   */\n              tag_125\n              jump\t// in\n            tag_229:\n                /* \"#utility.yul\":7065:7151   */\n              swap1\n              pop\n                /* \"#utility.yul\":7198:7207   */\n              dup2\n                /* \"#utility.yul\":7192:7196   */\n              dup2\n                /* \"#utility.yul\":7188:7208   */\n              sub\n                /* \"#utility.yul\":7183:7185   */\n              0x20\n                /* \"#utility.yul\":7172:7181   */\n              dup4\n                /* \"#utility.yul\":7168:7186   */\n              add\n                /* \"#utility.yul\":7161:7209   */\n              mstore\n                /* \"#utility.yul\":7226:7304   */\n              tag_230\n                /* \"#utility.yul\":7299:7303   */\n              dup2\n                /* \"#utility.yul\":7290:7296   */\n              dup7\n                /* \"#utility.yul\":7226:7304   */\n              tag_125\n              jump\t// in\n            tag_230:\n                /* \"#utility.yul\":7218:7304   */\n              swap1\n              pop\n                /* \"#utility.yul\":7351:7360   */\n              dup2\n                /* \"#utility.yul\":7345:7349   */\n              dup2\n                /* \"#utility.yul\":7341:7361   */\n              sub\n                /* \"#utility.yul\":7336:7338   */\n              0x40\n                /* \"#utility.yul\":7325:7334   */\n              dup4\n                /* \"#utility.yul\":7321:7339   */\n              add\n                /* \"#utility.yul\":7314:7362   */\n              mstore\n                /* \"#utility.yul\":7379:7457   */\n              tag_231\n                /* \"#utility.yul\":7452:7456   */\n              dup2\n                /* \"#utility.yul\":7443:7449   */\n              dup6\n                /* \"#utility.yul\":7379:7457   */\n              tag_125\n              jump\t// in\n            tag_231:\n                /* \"#utility.yul\":7371:7457   */\n              swap1\n              pop\n                /* \"#utility.yul\":7467:7537   */\n              tag_232\n                /* \"#utility.yul\":7533:7535   */\n              0x60\n                /* \"#utility.yul\":7522:7531   */\n              dup4\n                /* \"#utility.yul\":7518:7536   */\n              add\n                /* \"#utility.yul\":7509:7515   */\n              dup5\n                /* \"#utility.yul\":7467:7537   */\n              tag_126\n              jump\t// in\n            tag_232:\n                /* \"#utility.yul\":6722:7544   */\n              swap6\n              swap5\n              pop\n              pop\n              pop\n              pop\n              pop\n              jump\t// out\n                /* \"#utility.yul\":7550:8384   */\n            tag_38:\n                /* \"#utility.yul\":7638:7644   */\n              0x00\n                /* \"#utility.yul\":7646:7652   */\n              dup1\n                /* \"#utility.yul\":7695:7697   */\n              0x40\n                /* \"#utility.yul\":7683:7692   */\n              dup4\n                /* \"#utility.yul\":7674:7681   */\n              dup6\n                /* \"#utility.yul\":7670:7693   */\n              sub\n                /* \"#utility.yul\":7666:7698   */\n              slt\n                /* \"#utility.yul\":7663:7782   */\n              iszero\n              tag_234\n              jumpi\n                /* \"#utility.yul\":7701:7780   */\n              tag_235\n              tag_105\n              jump\t// in\n            tag_235:\n                /* \"#utility.yul\":7663:7782   */\n            tag_234:\n                /* \"#utility.yul\":7849:7850   */\n              0x00\n                /* \"#utility.yul\":7838:7847   */\n              dup4\n                /* \"#utility.yul\":7834:7851   */\n              add\n                /* \"#utility.yul\":7821:7852   */\n              calldataload\n                /* \"#utility.yul\":7879:7897   */\n              0xffffffffffffffff\n                /* \"#utility.yul\":7871:7877   */\n              dup2\n                /* \"#utility.yul\":7868:7898   */\n              gt\n                /* \"#utility.yul\":7865:7982   */\n              iszero\n              tag_236\n              jumpi\n                /* \"#utility.yul\":7901:7980   */\n              tag_237\n              tag_106\n              jump\t// in\n            tag_237:\n                /* \"#utility.yul\":7865:7982   */\n            tag_236:\n                /* \"#utility.yul\":8006:8069   */\n              tag_238\n                /* \"#utility.yul\":8061:8068   */\n              dup6\n                /* \"#utility.yul\":8052:8058   */\n              dup3\n                /* \"#utility.yul\":8041:8050   */\n              dup7\n                /* \"#utility.yul\":8037:8059   */\n              add\n                /* \"#utility.yul\":8006:8069   */\n              tag_116\n              jump\t// in\n            tag_238:\n                /* \"#utility.yul\":7996:8069   */\n              swap3\n              pop\n                /* \"#utility.yul\":7792:8079   */\n              pop\n                /* \"#utility.yul\":8146:8148   */\n              0x20\n                /* \"#utility.yul\":8135:8144   */\n              dup4\n                /* \"#utility.yul\":8131:8149   */\n              add\n                /* \"#utility.yul\":8118:8150   */\n              calldataload\n                /* \"#utility.yul\":8177:8195   */\n              0xffffffffffffffff\n                /* \"#utility.yul\":8169:8175   */\n              dup2\n                /* \"#utility.yul\":8166:8196   */\n              gt\n                /* \"#utility.yul\":8163:8280   */\n              iszero\n              tag_239\n              jumpi\n                /* \"#utility.yul\":8199:8278   */\n              tag_240\n              tag_106\n              jump\t// in\n            tag_240:\n                /* \"#utility.yul\":8163:8280   */\n            tag_239:\n                /* \"#utility.yul\":8304:8367   */\n              tag_241\n                /* \"#utility.yul\":8359:8366   */\n              dup6\n                /* \"#utility.yul\":8350:8356   */\n              dup3\n                /* \"#utility.yul\":8339:8348   */\n              dup7\n                /* \"#utility.yul\":8335:8357   */\n              add\n                /* \"#utility.yul\":8304:8367   */\n              tag_116\n              jump\t// in\n            tag_241:\n                /* \"#utility.yul\":8294:8367   */\n              swap2\n              pop\n                /* \"#utility.yul\":8089:8377   */\n              pop\n                /* \"#utility.yul\":7550:8384   */\n              swap3\n              pop\n              swap3\n              swap1\n              pop\n              jump\t// out\n                /* \"#utility.yul\":8390:8801   */\n            tag_44:\n                /* \"#utility.yul\":8525:8529   */\n              0x00\n                /* \"#utility.yul\":8563:8565   */\n              0x40\n                /* \"#utility.yul\":8552:8561   */\n              dup3\n                /* \"#utility.yul\":8548:8566   */\n              add\n                /* \"#utility.yul\":8540:8566   */\n              swap1\n              pop\n                /* \"#utility.yul\":8612:8621   */\n              dup2\n                /* \"#utility.yul\":8606:8610   */\n              dup2\n                /* \"#utility.yul\":8602:8622   */\n              sub\n                /* \"#utility.yul\":8598:8599   */\n              0x00\n                /* \"#utility.yul\":8587:8596   */\n              dup4\n                /* \"#utility.yul\":8583:8600   */\n              add\n                /* \"#utility.yul\":8576:8623   */\n              mstore\n                /* \"#utility.yul\":8640:8718   */\n              tag_243\n                /* \"#utility.yul\":8713:8717   */\n              dup2\n                /* \"#utility.yul\":8704:8710   */\n              dup6\n                /* \"#utility.yul\":8640:8718   */\n              tag_125\n              jump\t// in\n            tag_243:\n                /* \"#utility.yul\":8632:8718   */\n              swap1\n              pop\n                /* \"#utility.yul\":8728:8794   */\n              tag_244\n                /* \"#utility.yul\":8790:8792   */\n              0x20\n                /* \"#utility.yul\":8779:8788   */\n              dup4\n                /* \"#utility.yul\":8775:8793   */\n              add\n                /* \"#utility.yul\":8766:8772   */\n              dup5\n                /* \"#utility.yul\":8728:8794   */\n              tag_121\n              jump\t// in\n            tag_244:\n                /* \"#utility.yul\":8390:8801   */\n              swap4\n              swap3\n              pop\n              pop\n              pop\n              jump\t// out\n                /* \"#utility.yul\":8807:8933   */\n            tag_127:\n                /* \"#utility.yul\":8844:8851   */\n              0x00\n                /* \"#utility.yul\":8884:8926   */\n              0xffffffffffffffffffffffffffffffffffffffff\n                /* \"#utility.yul\":8877:8882   */\n              dup3\n                /* \"#utility.yul\":8873:8927   */\n              and\n                /* \"#utility.yul\":8862:8927   */\n              swap1\n              pop\n                /* \"#utility.yul\":8807:8933   */\n              swap2\n              swap1\n              pop\n              jump\t// out\n                /* \"#utility.yul\":8939:9035   */\n            tag_128:\n                /* \"#utility.yul\":8976:8983   */\n              0x00\n                /* \"#utility.yul\":9005:9029   */\n              tag_247\n                /* \"#utility.yul\":9023:9028   */\n              dup3\n                /* \"#utility.yul\":9005:9029   */\n              tag_127\n              jump\t// in\n            tag_247:\n                /* \"#utility.yul\":8994:9029   */\n              swap1\n              pop\n                /* \"#utility.yul\":8939:9035   */\n              swap2\n              swap1\n              pop\n              jump\t// out\n                /* \"#utility.yul\":9041:9159   */\n            tag_129:\n                /* \"#utility.yul\":9128:9152   */\n              tag_249\n                /* \"#utility.yul\":9146:9151   */\n              dup2\n                /* \"#utility.yul\":9128:9152   */\n              tag_128\n              jump\t// in\n            tag_249:\n                /* \"#utility.yul\":9123:9126   */\n              dup3\n                /* \"#utility.yul\":9116:9153   */\n              mstore\n                /* \"#utility.yul\":9041:9159   */\n              pop\n              pop\n              jump\t// out\n                /* \"#utility.yul\":9165:9588   */\n            tag_52:\n                /* \"#utility.yul\":9306:9310   */\n              0x00\n                /* \"#utility.yul\":9344:9346   */\n              0x40\n                /* \"#utility.yul\":9333:9342   */\n              dup3\n                /* \"#utility.yul\":9329:9347   */\n              add\n                /* \"#utility.yul\":9321:9347   */\n              swap1\n              pop\n                /* \"#utility.yul\":9393:9402   */\n              dup2\n                /* \"#utility.yul\":9387:9391   */\n              dup2\n                /* \"#utility.yul\":9383:9403   */\n              sub\n                /* \"#utility.yul\":9379:9380   */\n              0x00\n                /* \"#utility.yul\":9368:9377   */\n              dup4\n                /* \"#utility.yul\":9364:9381   */\n              add\n                /* \"#utility.yul\":9357:9404   */\n              mstore\n                /* \"#utility.yul\":9421:9499   */\n              tag_251\n                /* \"#utility.yul\":9494:9498   */\n              dup2\n                /* \"#utility.yul\":9485:9491   */\n              dup6\n                /* \"#utility.yul\":9421:9499   */\n              tag_125\n              jump\t// in\n            tag_251:\n                /* \"#utility.yul\":9413:9499   */\n              swap1\n              pop\n                /* \"#utility.yul\":9509:9581   */\n              tag_252\n                /* \"#utility.yul\":9577:9579   */\n              0x20\n                /* \"#utility.yul\":9566:9575   */\n              dup4\n                /* \"#utility.yul\":9562:9580   */\n              add\n                /* \"#utility.yul\":9553:9559   */\n              dup5\n                /* \"#utility.yul\":9509:9581   */\n              tag_129\n              jump\t// in\n            tag_252:\n                /* \"#utility.yul\":9165:9588   */\n              swap4\n              swap3\n              pop\n              pop\n              pop\n              jump\t// out\n                /* \"#utility.yul\":9594:9742   */\n            tag_130:\n                /* \"#utility.yul\":9696:9707   */\n              0x00\n                /* \"#utility.yul\":9733:9736   */\n              dup2\n                /* \"#utility.yul\":9718:9736   */\n              swap1\n              pop\n                /* \"#utility.yul\":9594:9742   */\n              swap3\n              swap2\n              pop\n              pop\n              jump\t// out\n                /* \"#utility.yul\":9748:10138   */\n            tag_131:\n                /* \"#utility.yul\":9854:9857   */\n              0x00\n                /* \"#utility.yul\":9882:9921   */\n              tag_255\n                /* \"#utility.yul\":9915:9920   */\n              dup3\n                /* \"#utility.yul\":9882:9921   */\n              tag_122\n              jump\t// in\n            tag_255:\n                /* \"#utility.yul\":9937:10026   */\n              tag_256\n                /* \"#utility.yul\":10019:10025   */\n              dup2\n                /* \"#utility.yul\":10014:10017   */\n              dup6\n                /* \"#utility.yul\":9937:10026   */\n              tag_130\n              jump\t// in\n            tag_256:\n                /* \"#utility.yul\":9930:10026   */\n              swap4\n              pop\n                /* \"#utility.yul\":10035:10100   */\n              tag_257\n                /* \"#utility.yul\":10093:10099   */\n              dup2\n                /* \"#utility.yul\":10088:10091   */\n              dup6\n                /* \"#utility.yul\":10081:10085   */\n              0x20\n                /* \"#utility.yul\":10074:10079   */\n              dup7\n                /* \"#utility.yul\":10070:10086   */\n              add\n                /* \"#utility.yul\":10035:10100   */\n              tag_124\n              jump\t// in\n            tag_257:\n                /* \"#utility.yul\":10125:10131   */\n              dup1\n                /* \"#utility.yul\":10120:10123   */\n              dup5\n                /* \"#utility.yul\":10116:10132   */\n              add\n                /* \"#utility.yul\":10109:10132   */\n              swap2\n              pop\n                /* \"#utility.yul\":9858:10138   */\n              pop\n                /* \"#utility.yul\":9748:10138   */\n              swap3\n              swap2\n              pop\n              pop\n              jump\t// out\n                /* \"#utility.yul\":10144:10419   */\n            tag_55:\n                /* \"#utility.yul\":10276:10279   */\n              0x00\n                /* \"#utility.yul\":10298:10393   */\n              tag_259\n                /* \"#utility.yul\":10389:10392   */\n              dup3\n                /* \"#utility.yul\":10380:10386   */\n              dup5\n                /* \"#utility.yul\":10298:10393   */\n              tag_131\n              jump\t// in\n            tag_259:\n                /* \"#utility.yul\":10291:10393   */\n              swap2\n              pop\n                /* \"#utility.yul\":10410:10413   */\n              dup2\n                /* \"#utility.yul\":10403:10413   */\n              swap1\n              pop\n                /* \"#utility.yul\":10144:10419   */\n              swap3\n              swap2\n              pop\n              pop\n              jump\t// out\n                /* \"#utility.yul\":10425:10605   */\n            tag_132:\n                /* \"#utility.yul\":10473:10550   */\n              0x4e487b7100000000000000000000000000000000000000000000000000000000\n                /* \"#utility.yul\":10470:10471   */\n              0x00\n                /* \"#utility.yul\":10463:10551   */\n              mstore\n                /* \"#utility.yul\":10570:10574   */\n              0x22\n                /* \"#utility.yul\":10567:10568   */\n              0x04\n                /* \"#utility.yul\":10560:10575   */\n              mstore\n                /* \"#utility.yul\":10594:10598   */\n              0x24\n                /* \"#utility.yul\":10591:10592   */\n              0x00\n                /* \"#utility.yul\":10584:10599   */\n              revert\n                /* \"#utility.yul\":10611:10931   */\n            tag_72:\n                /* \"#utility.yul\":10655:10661   */\n              0x00\n                /* \"#utility.yul\":10692:10693   */\n              0x02\n                /* \"#utility.yul\":10686:10690   */\n              dup3\n                /* \"#utility.yul\":10682:10694   */\n              div\n                /* \"#utility.yul\":10672:10694   */\n              swap1\n              pop\n                /* \"#utility.yul\":10739:10740   */\n              0x01\n                /* \"#utility.yul\":10733:10737   */\n              dup3\n                /* \"#utility.yul\":10729:10741   */\n              and\n                /* \"#utility.yul\":10760:10778   */\n              dup1\n                /* \"#utility.yul\":10750:10831   */\n              tag_262\n              jumpi\n                /* \"#utility.yul\":10816:10820   */\n              0x7f\n                /* \"#utility.yul\":10808:10814   */\n              dup3\n                /* \"#utility.yul\":10804:10821   */\n              and\n                /* \"#utility.yul\":10794:10821   */\n              swap2\n              pop\n                /* \"#utility.yul\":10750:10831   */\n            tag_262:\n                /* \"#utility.yul\":10878:10880   */\n              0x20\n                /* \"#utility.yul\":10870:10876   */\n              dup3\n                /* \"#utility.yul\":10867:10881   */\n              lt\n                /* \"#utility.yul\":10847:10865   */\n              dup2\n                /* \"#utility.yul\":10844:10882   */\n              sub\n                /* \"#utility.yul\":10841:10925   */\n              tag_263\n              jumpi\n                /* \"#utility.yul\":10897:10915   */\n              tag_264\n              tag_132\n              jump\t// in\n            tag_264:\n                /* \"#utility.yul\":10841:10925   */\n            tag_263:\n                /* \"#utility.yul\":10662:10931   */\n              pop\n                /* \"#utility.yul\":10611:10931   */\n              swap2\n              swap1\n              pop\n              jump\t// out\n                /* \"#utility.yul\":10937:11078   */\n            tag_133:\n                /* \"#utility.yul\":10986:10990   */\n              0x00\n                /* \"#utility.yul\":11009:11012   */\n              dup2\n                /* \"#utility.yul\":11001:11012   */\n              swap1\n              pop\n                /* \"#utility.yul\":11032:11035   */\n              dup2\n                /* \"#utility.yul\":11029:11030   */\n              0x00\n                /* \"#utility.yul\":11022:11036   */\n              mstore\n                /* \"#utility.yul\":11066:11070   */\n              0x20\n                /* \"#utility.yul\":11063:11064   */\n              0x00\n                /* \"#utility.yul\":11053:11071   */\n              keccak256\n                /* \"#utility.yul\":11045:11071   */\n              swap1\n              pop\n                /* \"#utility.yul\":10937:11078   */\n              swap2\n              swap1\n              pop\n              jump\t// out\n                /* \"#utility.yul\":11084:11177   */\n            tag_134:\n                /* \"#utility.yul\":11121:11127   */\n              0x00\n                /* \"#utility.yul\":11168:11170   */\n              0x20\n                /* \"#utility.yul\":11163:11165   */\n              0x1f\n                /* \"#utility.yul\":11156:11161   */\n              dup4\n                /* \"#utility.yul\":11152:11166   */\n              add\n                /* \"#utility.yul\":11148:11171   */\n              div\n                /* \"#utility.yul\":11138:11171   */\n              swap1\n              pop\n                /* \"#utility.yul\":11084:11177   */\n              swap2\n              swap1\n              pop\n              jump\t// out\n                /* \"#utility.yul\":11183:11290   */\n            tag_135:\n                /* \"#utility.yul\":11227:11235   */\n              0x00\n                /* \"#utility.yul\":11277:11282   */\n              dup3\n                /* \"#utility.yul\":11271:11275   */\n              dup3\n                /* \"#utility.yul\":11267:11283   */\n              shl\n                /* \"#utility.yul\":11246:11283   */\n              swap1\n              pop\n                /* \"#utility.yul\":11183:11290   */\n              swap3\n              swap2\n              pop\n              pop\n              jump\t// out\n                /* \"#utility.yul\":11296:11689   */\n            tag_136:\n                /* \"#utility.yul\":11365:11371   */\n              0x00\n                /* \"#utility.yul\":11415:11416   */\n              0x08\n                /* \"#utility.yul\":11403:11413   */\n              dup4\n                /* \"#utility.yul\":11399:11417   */\n              mul\n                /* \"#utility.yul\":11438:11535   */\n              tag_269\n                /* \"#utility.yul\":11468:11534   */\n              0xffffffffffffffffffffffffffffffffffffffffffffffffffffffffffffffff\n                /* \"#utility.yul\":11457:11466   */\n              dup3\n                /* \"#utility.yul\":11438:11535   */\n              tag_135\n              jump\t// in\n            tag_269:\n                /* \"#utility.yul\":11556:11595   */\n              tag_270\n                /* \"#utility.yul\":11586:11594   */\n              dup7\n                /* \"#utility.yul\":11575:11584   */\n              dup4\n                /* \"#utility.yul\":11556:11595   */\n              tag_135\n              jump\t// in\n            tag_270:\n                /* \"#utility.yul\":11544:11595   */\n              swap6\n              pop\n                /* \"#utility.yul\":11628:11632   */\n              dup1\n                /* \"#utility.yul\":11624:11633   */\n              not\n                /* \"#utility.yul\":11617:11622   */\n              dup5\n                /* \"#utility.yul\":11613:11634   */\n              and\n                /* \"#utility.yul\":11604:11634   */\n              swap4\n              pop\n                /* \"#utility.yul\":11677:11681   */\n              dup1\n                /* \"#utility.yul\":11667:11675   */\n              dup7\n                /* \"#utility.yul\":11663:11682   */\n              and\n                /* \"#utility.yul\":11656:11661   */\n              dup5\n                /* \"#utility.yul\":11653:11683   */\n              or\n                /* \"#utility.yul\":11643:11683   */\n              swap3\n              pop\n                /* \"#utility.yul\":11372:11689   */\n              pop\n              pop\n                /* \"#utility.yul\":11296:11689   */\n              swap4\n              swap3\n              pop\n              pop\n              pop\n              jump\t// out\n                /* \"#utility.yul\":11695:11772   */\n            tag_137:\n                /* \"#utility.yul\":11732:11739   */\n              0x00\n                /* \"#utility.yul\":11761:11766   */\n              dup2\n                /* \"#utility.yul\":11750:11766   */\n              swap1\n              pop\n                /* \"#utility.yul\":11695:11772   */\n              swap2\n              swap1\n              pop\n              jump\t// out\n                /* \"#utility.yul\":11778:11838   */\n            tag_138:\n                /* \"#utility.yul\":11806:11809   */\n              0x00\n                /* \"#utility.yul\":11827:11832   */\n              dup2\n                /* \"#utility.yul\":11820:11832   */\n              swap1\n              pop\n                /* \"#utility.yul\":11778:11838   */\n              swap2\n              swap1\n              pop\n              jump\t// out\n                /* \"#utility.yul\":11844:11986   */\n            tag_139:\n                /* \"#utility.yul\":11894:11903   */\n              0x00\n                /* \"#utility.yul\":11927:11980   */\n              tag_274\n                /* \"#utility.yul\":11945:11979   */\n              tag_275\n                /* \"#utility.yul\":11954:11978   */\n              tag_276\n                /* \"#utility.yul\":11972:11977   */\n              dup5\n                /* \"#utility.yul\":11954:11978   */\n              tag_137\n              jump\t// in\n            tag_276:\n                /* \"#utility.yul\":11945:11979   */\n              tag_138\n              jump\t// in\n            tag_275:\n                /* \"#utility.yul\":11927:11980   */\n              tag_137\n              jump\t// in\n            tag_274:\n                /* \"#utility.yul\":11914:11980   */\n              swap1\n              pop\n                /* \"#utility.yul\":11844:11986   */\n              swap2\n              swap1\n              pop\n              jump\t// out\n                /* \"#utility.yul\":11992:12067   */\n            tag_140:\n                /* \"#utility.yul\":12035:12038   */\n              0x00\n                /* \"#utility.yul\":12056:12061   */\n              dup2\n                /* \"#utility.yul\":12049:12061   */\n              swap1\n              pop\n                /* \"#utility.yul\":11992:12067   */\n              swap2\n              swap1\n              pop\n              jump\t// out\n                /* \"#utility.yul\":12073:12342   */\n            tag_141:\n                /* \"#utility.yul\":12183:12222   */\n              tag_279\n                /* \"#utility.yul\":12214:12221   */\n              dup4\n                /* \"#utility.yul\":12183:12222   */\n              tag_139\n              jump\t// in\n            tag_279:\n                /* \"#utility.yul\":12244:12335   */\n              tag_280\n                /* \"#utility.yul\":12293:12334   */\n              tag_281\n                /* \"#utility.yul\":12317:12333   */\n              dup3\n                /* \"#utility.yul\":12293:12334   */\n              tag_140\n              jump\t// in\n            tag_281:\n                /* \"#utility.yul\":12285:12291   */\n              dup5\n                /* \"#utility.yul\":12278:12282   */\n              dup5\n                /* \"#utility.yul\":12272:12283   */\n              sload\n                /* \"#utility.yul\":12244:12335   */\n              tag_136\n              jump\t// in\n            tag_280:\n                /* \"#utility.yul\":12238:12242   */\n              dup3\n                /* \"#utility.yul\":12231:12336   */\n              sstore\n                /* \"#utility.yul\":12149:12342   */\n              pop\n                /* \"#utility.yul\":12073:12342   */\n              pop\n              pop\n              pop\n              jump\t// out\n                /* \"#utility.yul\":12348:12421   */\n            tag_142:\n                /* \"#utility.yul\":12393:12396   */\n              0x00\n                /* \"#utility.yul\":12348:12421   */\n              swap1\n              jump\t// out\n                /* \"#utility.yul\":12427:12616   */\n            tag_143:\n                /* \"#utility.yul\":12504:12536   */\n              tag_284\n              tag_142\n              jump\t// in\n            tag_284:\n                /* \"#utility.yul\":12545:12610   */\n              tag_285\n                /* \"#utility.yul\":12603:12609   */\n              dup2\n                /* \"#utility.yul\":12595:12601   */\n              dup5\n                /* \"#utility.yul\":12589:12593   */\n              dup5\n                /* \"#utility.yul\":12545:12610   */\n              tag_141\n              jump\t// in\n            tag_285:\n                /* \"#utility.yul\":12480:12616   */\n              pop\n                /* \"#utility.yul\":12427:12616   */\n              pop\n              pop\n              jump\t// out\n                /* \"#utility.yul\":12622:12808   */\n            tag_144:\n                /* \"#utility.yul\":12682:12802   */\n            tag_287:\n                /* \"#utility.yul\":12699:12702   */\n              dup2\n                /* \"#utility.yul\":12692:12697   */\n              dup2\n                /* \"#utility.yul\":12689:12703   */\n              lt\n                /* \"#utility.yul\":12682:12802   */\n              iszero\n              tag_289\n              jumpi\n                /* \"#utility.yul\":12753:12792   */\n              tag_290\n                /* \"#utility.yul\":12790:12791   */\n              0x00\n                /* \"#utility.yul\":12783:12788   */\n              dup3\n                /* \"#utility.yul\":12753:12792   */\n              tag_143\n              jump\t// in\n            tag_290:\n                /* \"#utility.yul\":12726:12727   */\n              0x01\n                /* \"#utility.yul\":12719:12724   */\n              dup2\n                /* \"#utility.yul\":12715:12728   */\n              add\n                /* \"#utility.yul\":12706:12728   */\n              swap1\n              pop\n                /* \"#utility.yul\":12682:12802   */\n              jump(tag_287)\n            tag_289:\n                /* \"#utility.yul\":12622:12808   */\n              pop\n              pop\n              jump\t// out\n                /* \"#utility.yul\":12814:13357   */\n            tag_145:\n                /* \"#utility.yul\":12915:12917   */\n              0x1f\n                /* \"#utility.yul\":12910:12913   */\n              dup3\n                /* \"#utility.yul\":12907:12918   */\n              gt\n                /* \"#utility.yul\":12904:13350   */\n              iszero\n              tag_292\n              jumpi\n                /* \"#utility.yul\":12949:12987   */\n              tag_293\n                /* \"#utility.yul\":12981:12986   */\n              dup2\n                /* \"#utility.yul\":12949:12987   */\n              tag_133\n              jump\t// in\n            tag_293:\n                /* \"#utility.yul\":13033:13062   */\n              tag_294\n                /* \"#utility.yul\":13051:13061   */\n              dup5\n                /* \"#utility.yul\":13033:13062   */\n              tag_134\n              jump\t// in\n            tag_294:\n                /* \"#utility.yul\":13023:13031   */\n              dup2\n                /* \"#utility.yul\":13019:13063   */\n              add\n                /* \"#utility.yul\":13216:13218   */\n              0x20\n                /* \"#utility.yul\":13204:13214   */\n              dup6\n                /* \"#utility.yul\":13201:13219   */\n              lt\n                /* \"#utility.yul\":13198:13247   */\n              iszero\n              tag_295\n              jumpi\n                /* \"#utility.yul\":13237:13245   */\n              dup2\n                /* \"#utility.yul\":13222:13245   */\n              swap1\n              pop\n                /* \"#utility.yul\":13198:13247   */\n            tag_295:\n                /* \"#utility.yul\":13260:13340   */\n              tag_296\n                /* \"#utility.yul\":13316:13338   */\n              tag_297\n                /* \"#utility.yul\":13334:13337   */\n              dup6\n                /* \"#utility.yul\":13316:13338   */\n              tag_134\n              jump\t// in\n            tag_297:\n                /* \"#utility.yul\":13306:13314   */\n              dup4\n                /* \"#utility.yul\":13302:13339   */\n              add\n                /* \"#utility.yul\":13289:13300   */\n              dup3\n                /* \"#utility.yul\":13260:13340   */\n              tag_144\n              jump\t// in\n            tag_296:\n                /* \"#utility.yul\":12919:13350   */\n              pop\n              pop\n                /* \"#utility.yul\":12904:13350   */\n            tag_292:\n                /* \"#utility.yul\":12814:13357   */\n              pop\n              pop\n              pop\n              jump\t// out\n                /* \"#utility.yul\":13363:13480   */\n            tag_146:\n                /* \"#utility.yul\":13417:13425   */\n              0x00\n                /* \"#utility.yul\":13467:13472   */\n              dup3\n                /* \"#utility.yul\":13461:13465   */\n              dup3\n                /* \"#utility.yul\":13457:13473   */\n              shr\n                /* \"#utility.yul\":13436:13473   */\n              swap1\n              pop\n                /* \"#utility.yul\":13363:13480   */\n              swap3\n              swap2\n              pop\n              pop\n              jump\t// out\n                /* \"#utility.yul\":13486:13655   */\n            tag_147:\n                /* \"#utility.yul\":13530:13536   */\n              0x00\n                /* \"#utility.yul\":13563:13614   */\n              tag_300\n                /* \"#utility.yul\":13611:13612   */\n              0x00\n                /* \"#utility.yul\":13607:13613   */\n              not\n                /* \"#utility.yul\":13599:13604   */\n              dup5\n                /* \"#utility.yul\":13596:13597   */\n              0x08\n                /* \"#utility.yul\":13592:13605   */\n              mul\n                /* \"#utility.yul\":13563:13614   */\n              tag_146\n              jump\t// in\n            tag_300:\n                /* \"#utility.yul\":13559:13615   */\n              not\n                /* \"#utility.yul\":13644:13648   */\n              dup1\n                /* \"#utility.yul\":13638:13642   */\n              dup4\n                /* \"#utility.yul\":13634:13649   */\n              and\n                /* \"#utility.yul\":13624:13649   */\n              swap2\n              pop\n                /* \"#utility.yul\":13537:13655   */\n              pop\n                /* \"#utility.yul\":13486:13655   */\n              swap3\n              swap2\n              pop\n              pop\n              jump\t// out\n                /* \"#utility.yul\":13660:13955   */\n            tag_148:\n                /* \"#utility.yul\":13736:13740   */\n              0x00\n                /* \"#utility.yul\":13882:13911   */\n              tag_302\n                /* \"#utility.yul\":13907:13910   */\n              dup4\n                /* \"#utility.yul\":13901:13905   */\n              dup4\n                /* \"#utility.yul\":13882:13911   */\n              tag_147\n              jump\t// in\n            tag_302:\n                /* \"#utility.yul\":13874:13911   */\n              swap2\n              pop\n                /* \"#utility.yul\":13944:13947   */\n              dup3\n                /* \"#utility.yul\":13941:13942   */\n              0x02\n                /* \"#utility.yul\":13937:13948   */\n              mul\n                /* \"#utility.yul\":13931:13935   */\n              dup3\n                /* \"#utility.yul\":13928:13949   */\n              or\n                /* \"#utility.yul\":13920:13949   */\n              swap1\n              pop\n                /* \"#utility.yul\":13660:13955   */\n              swap3\n              swap2\n              pop\n              pop\n              jump\t// out\n                /* \"#utility.yul\":13960:15355   */\n            tag_57:\n                /* \"#utility.yul\":14077:14114   */\n              tag_304\n                /* \"#utility.yul\":14110:14113   */\n              dup3\n                /* \"#utility.yul\":14077:14114   */\n              tag_122\n              jump\t// in\n            tag_304:\n                /* \"#utility.yul\":14179:14197   */\n              0xffffffffffffffff\n                /* \"#utility.yul\":14171:14177   */\n              dup2\n                /* \"#utility.yul\":14168:14198   */\n              gt\n                /* \"#utility.yul\":14165:14221   */\n              iszero\n              tag_305\n              jumpi\n                /* \"#utility.yul\":14201:14219   */\n              tag_306\n              tag_110\n              jump\t// in\n            tag_306:\n                /* \"#utility.yul\":14165:14221   */\n            tag_305:\n                /* \"#utility.yul\":14245:14283   */\n              tag_307\n                /* \"#utility.yul\":14277:14281   */\n              dup3\n                /* \"#utility.yul\":14271:14282   */\n              sload\n                /* \"#utility.yul\":14245:14283   */\n              tag_72\n              jump\t// in\n            tag_307:\n                /* \"#utility.yul\":14330:14397   */\n              tag_308\n                /* \"#utility.yul\":14390:14396   */\n              dup3\n                /* \"#utility.yul\":14382:14388   */\n              dup3\n                /* \"#utility.yul\":14376:14380   */\n              dup6\n                /* \"#utility.yul\":14330:14397   */\n              tag_145\n              jump\t// in\n            tag_308:\n                /* \"#utility.yul\":14424:14425   */\n              0x00\n                /* \"#utility.yul\":14448:14452   */\n              0x20\n                /* \"#utility.yul\":14435:14452   */\n              swap1\n              pop\n                /* \"#utility.yul\":14480:14482   */\n              0x1f\n                /* \"#utility.yul\":14472:14478   */\n              dup4\n                /* \"#utility.yul\":14469:14483   */\n              gt\n                /* \"#utility.yul\":14497:14498   */\n              0x01\n                /* \"#utility.yul\":14492:15110   */\n              dup2\n              eq\n              tag_310\n              jumpi\n                /* \"#utility.yul\":15154:15155   */\n              0x00\n                /* \"#utility.yul\":15171:15177   */\n              dup5\n                /* \"#utility.yul\":15168:15245   */\n              iszero\n              tag_311\n              jumpi\n                /* \"#utility.yul\":15220:15229   */\n              dup3\n                /* \"#utility.yul\":15215:15218   */\n              dup8\n                /* \"#utility.yul\":15211:15230   */\n              add\n                /* \"#utility.yul\":15205:15231   */\n              mload\n                /* \"#utility.yul\":15196:15231   */\n              swap1\n              pop\n                /* \"#utility.yul\":15168:15245   */\n            tag_311:\n                /* \"#utility.yul\":15271:15338   */\n              tag_312\n                /* \"#utility.yul\":15331:15337   */\n              dup6\n                /* \"#utility.yul\":15324:15329   */\n              dup3\n                /* \"#utility.yul\":15271:15338   */\n              tag_148\n              jump\t// in\n            tag_312:\n                /* \"#utility.yul\":15265:15269   */\n              dup7\n                /* \"#utility.yul\":15258:15339   */\n              sstore\n                /* \"#utility.yul\":15127:15349   */\n              pop\n                /* \"#utility.yul\":14462:15349   */\n              jump(tag_309)\n                /* \"#utility.yul\":14492:15110   */\n            tag_310:\n                /* \"#utility.yul\":14544:14548   */\n              0x1f\n                /* \"#utility.yul\":14540:14549   */\n              not\n                /* \"#utility.yul\":14532:14538   */\n              dup5\n                /* \"#utility.yul\":14528:14550   */\n              and\n                /* \"#utility.yul\":14578:14615   */\n              tag_313\n                /* \"#utility.yul\":14610:14614   */\n              dup7\n                /* \"#utility.yul\":14578:14615   */\n              tag_133\n              jump\t// in\n            tag_313:\n                /* \"#utility.yul\":14637:14638   */\n              0x00\n                /* \"#utility.yul\":14651:14859   */\n            tag_314:\n                /* \"#utility.yul\":14665:14672   */\n              dup3\n                /* \"#utility.yul\":14662:14663   */\n              dup2\n                /* \"#utility.yul\":14659:14673   */\n              lt\n                /* \"#utility.yul\":14651:14859   */\n              iszero\n              tag_316\n              jumpi\n                /* \"#utility.yul\":14744:14753   */\n              dup5\n                /* \"#utility.yul\":14739:14742   */\n              dup10\n                /* \"#utility.yul\":14735:14754   */\n              add\n                /* \"#utility.yul\":14729:14755   */\n              mload\n                /* \"#utility.yul\":14721:14727   */\n              dup3\n                /* \"#utility.yul\":14714:14756   */\n              sstore\n                /* \"#utility.yul\":14795:14796   */\n              0x01\n                /* \"#utility.yul\":14787:14793   */\n              dup3\n                /* \"#utility.yul\":14783:14797   */\n              add\n                /* \"#utility.yul\":14773:14797   */\n              swap2\n              pop\n                /* \"#utility.yul\":14842:14844   */\n              0x20\n                /* \"#utility.yul\":14831:14840   */\n              dup6\n                /* \"#utility.yul\":14827:14845   */\n              add\n                /* \"#utility.yul\":14814:14845   */\n              swap5\n              pop\n                /* \"#utility.yul\":14688:14692   */\n              0x20\n                /* \"#utility.yul\":14685:14686   */\n              dup2\n                /* \"#utility.yul\":14681:14693   */\n              add\n                /* \"#utility.yul\":14676:14693   */\n              swap1\n              pop\n                /* \"#utility.yul\":14651:14859   */\n              jump(tag_314)\n            tag_316:\n                /* \"#utility.yul\":14887:14893   */\n              dup7\n                /* \"#utility.yul\":14878:14885   */\n              dup4\n                /* \"#utility.yul\":14875:14894   */\n              lt\n                /* \"#utility.yul\":14872:15051   */\n              iszero\n              tag_317\n              jumpi\n                /* \"#utility.yul\":14945:14954   */\n              dup5\n                /* \"#utility.yul\":14940:14943   */\n              dup10\n                /* \"#utility.yul\":14936:14955   */\n              add\n                /* \"#utility.yul\":14930:14956   */\n              mload\n                /* \"#utility.yul\":14988:15036   */\n              tag_318\n                /* \"#utility.yul\":15030:15034   */\n              0x1f\n                /* \"#utility.yul\":15022:15028   */\n              dup10\n                /* \"#utility.yul\":15018:15035   */\n              and\n                /* \"#utility.yul\":15007:15016   */\n              dup3\n                /* \"#utility.yul\":14988:15036   */\n              tag_147\n              jump\t// in\n            tag_318:\n                /* \"#utility.yul\":14980:14986   */\n              dup4\n                /* \"#utility.yul\":14973:15037   */\n              sstore\n                /* \"#utility.yul\":14895:15051   */\n              pop\n                /* \"#utility.yul\":14872:15051   */\n            tag_317:\n                /* \"#utility.yul\":15097:15098   */\n              0x01\n                /* \"#utility.yul\":15093:15094   */\n              0x02\n                /* \"#utility.yul\":15085:15091   */\n              dup9\n                /* \"#utility.yul\":15081:15095   */\n              mul\n                /* \"#utility.yul\":15077:15099   */\n              add\n                /* \"#utility.yul\":15071:15075   */\n              dup9\n                /* \"#utility.yul\":15064:15100   */\n              sstore\n                /* \"#utility.yul\":14499:15110   */\n              pop\n              pop\n              pop\n                /* \"#utility.yul\":14462:15349   */\n            tag_309:\n              pop\n                /* \"#utility.yul\":14052:15355   */\n              pop\n              pop\n              pop\n                /* \"#utility.yul\":13960:15355   */\n              pop\n              pop\n              jump\t// out\n\n            auxdata: 0xa264697066735822122069b756d19aa42af243f95d24f6b416c07e91a10ccc33df1e79c96171bfe5401764736f6c63430008180033\n        }\n    }\n\n    auxdata: 0xa2646970667358221220872c05e54cba99ad8860acf46e5569736c001fd4b763a455f9d79eb9613cf8f564736f6c63430008180033\n}\n","bytecode":{"linkReferences":{},"object":"608060405234801561000f575f80fd5b506119b88061001d5f395ff3fe608060405234801561000f575f80fd5b5060043610610034575f3560e01c806380b29bec14610038578063c0900bea14610054575b5f80fd5b610052600480360381019061004d919061038e565b610085565b005b61006e60048036038101906100699190610404565b610158565b60405161007c929190610504565b60405180910390f35b5f60405161009290610234565b604051809103905ff0801580156100ab573d5f803e3d5ffd5b50905060405180604001604052808381526020018273ffffffffffffffffffffffffffffffffffffffff168152505f846040516100e8919061056c565b90815260200160405180910390205f820151815f0190816101099190610785565b506020820151816001015f6101000a81548173ffffffffffffffffffffffffffffffffffffffff021916908373ffffffffffffffffffffffffffffffffffffffff160217905550905050505050565b5f818051602081018201805184825260208301602085012081835280955050505050505f91509050805f01805461018e906105af565b80601f01602080910402602001604051908101604052809291908181526020018280546101ba906105af565b80156102055780601f106101dc57610100808354040283529160200191610205565b820191905f5260205f20905b8154815290600101906020018083116101e857829003601f168201915b505050505090806001015f9054906101000a900473ffffffffffffffffffffffffffffffffffffffff16905082565b61112e8061085583390190565b5f604051905090565b5f80fd5b5f80fd5b5f80fd5b5f80fd5b5f601f19601f8301169050919050565b7f4e487b71000000000000000000000000000000000000000000000000000000005f52604160045260245ffd5b6102a08261025a565b810181811067ffffffffffffffff821117156102bf576102be61026a565b5b80604052505050565b5f6102d1610241565b90506102dd8282610297565b919050565b5f67ffffffffffffffff8211156102fc576102fb61026a565b5b6103058261025a565b9050602081019050919050565b828183375f83830152505050565b5f61033261032d846102e2565b6102c8565b90508281526020810184848401111561034e5761034d610256565b5b610359848285610312565b509392505050565b5f82601f83011261037557610374610252565b5b8135610385848260208601610320565b91505092915050565b5f80604083850312156103a4576103a361024a565b5b5f83013567ffffffffffffffff8111156103c1576103c061024e565b5b6103cd85828601610361565b925050602083013567ffffffffffffffff8111156103ee576103ed61024e565b5b6103fa85828601610361565b9150509250929050565b5f602082840312156104195761041861024a565b5b5f82013567ffffffffffffffff8111156104365761043561024e565b5b61044284828501610361565b91505092915050565b5f81519050919050565b5f82825260208201905092915050565b5f5b83811015610482578082015181840152602081019050610467565b5f8484015250505050565b5f6104978261044b565b6104a18185610455565b93506104b1818560208601610465565b6104ba8161025a565b840191505092915050565b5f73ffffffffffffffffffffffffffffffffffffffff82169050919050565b5f6104ee826104c5565b9050919050565b6104fe816104e4565b82525050565b5f6040820190508181035f83015261051c818561048d565b905061052b60208301846104f5565b9392505050565b5f81905092915050565b5f6105468261044b565b6105508185610532565b9350610560818560208601610465565b80840191505092915050565b5f610577828461053c565b915081905092915050565b7f4e487b71000000000000000000000000000000000000000000000000000000005f52602260045260245ffd5b5f60028204905060018216806105c657607f821691505b6020821081036105d9576105d8610582565b5b50919050565b5f819050815f5260205f209050919050565b5f6020601f8301049050919050565b5f82821b905092915050565b5f6008830261063b7fffffffffffffffffffffffffffffffffffffffffffffffffffffffffffffffff82610600565b6106458683610600565b95508019841693508086168417925050509392505050565b5f819050919050565b5f819050919050565b5f61068961068461067f8461065d565b610666565b61065d565b9050919050565b5f819050919050565b6106a28361066f565b6106b66106ae82610690565b84845461060c565b825550505050565b5f90565b6106ca6106be565b6106d5818484610699565b505050565b5b818110156106f8576106ed5f826106c2565b6001810190506106db565b5050565b601f82111561073d5761070e816105df565b610717846105f1565b81016020851015610726578190505b61073a610732856105f1565b8301826106da565b50505b505050565b5f82821c905092915050565b5f61075d5f1984600802610742565b1980831691505092915050565b5f610775838361074e565b9150826002028217905092915050565b61078e8261044b565b67ffffffffffffffff8111156107a7576107a661026a565b5b6107b182546105af565b6107bc8282856106fc565b5f60209050601f8311600181146107ed575f84156107db578287015190505b6107e5858261076a565b86555061084c565b601f1984166107fb866105df565b5f5b82811015610822578489015182556001820191506020850194506020810190506107fd565b8683101561083f578489015161083b601f89168261074e565b8355505b6001600288020188555050505b50505050505056fe608060405234801561000f575f80fd5b506111118061001d5f395ff3fe608060405234801561000f575f80fd5b5060043610610091575f3560e01c8063b15bf25511610064578063b15bf2551461012d578063c0effb7d14610160578063d8ce65721461017c578063e47766ff146101ad578063ea42c7ef146101c957610091565b80630e34b00e14610095578063220f8ade146100b15780637f975a37146100e15780639ab1a6cc146100fd575b5f80fd5b6100af60048036038101906100aa9190610a16565b6101fa565b005b6100cb60048036038101906100c69190610af3565b6102ad565b6040516100d89190610b67565b60405180910390f35b6100fb60048036038101906100f69190610af3565b61037c565b005b61011760048036038101906101129190610b80565b6103f5565b6040516101249190610b67565b60405180910390f35b61014760048036038101906101429190610b80565b61042a565b6040516101579493929190610c50565b60405180910390f35b61017a60048036038101906101759190610ca8565b61060f565b005b61019660048036038101906101919190610b80565b610679565b6040516101a4929190610d1e565b60405180910390f35b6101c760048036038101906101c29190610b80565b610743565b005b6101e360048036038101906101de9190610b80565b6107ec565b6040516101f1929190610d8b565b60405180910390f35b60405180608001604052808481526020018381526020018281526020015f63ffffffff168152506003846040516102319190610df3565b90815260200160405180910390205f820151815f019081610252919061100c565b506020820151816001019081610268919061100c565b50604082015181600201908161027e919061100c565b506060820151816003015f6101000a81548163ffffffff021916908363ffffffff160217905550905050505050565b5f600115156001846040516102c29190610df3565b90815260200160405180910390206001015f9054906101000a900460ff16151514801561031d5750600115156002846040516102fe9190610df3565b90815260200160405180910390205f9054906101000a900460ff161515145b801561036457508163ffffffff1660038460405161033b9190610df3565b90815260200160405180910390206003015f9054906101000a900463ffffffff1663ffffffff16145b156103725760019050610376565b5f90505b92915050565b600160028360405161038e9190610df3565b90815260200160405180910390205f6101000a81548160ff021916908315150217905550806003836040516103c39190610df3565b90815260200160405180910390206003015f6101000a81548163ffffffff021916908363ffffffff1602179055505050565b6002818051602081018201805184825260208301602085012081835280955050505050505f915054906101000a900460ff1681565b6003818051602081018201805184825260208301602085012081835280955050505050505f91509050805f01805461046190610e36565b80601f016020809104026020016040519081016040528092919081815260200182805461048d90610e36565b80156104d85780601f106104af576101008083540402835291602001916104d8565b820191905f5260205f20905b8154815290600101906020018083116104bb57829003601f168201915b5050505050908060010180546104ed90610e36565b80601f016020809104026020016040519081016040528092919081815260200182805461051990610e36565b80156105645780601f1061053b57610100808354040283529160200191610564565b820191905f5260205f20905b81548152906001019060200180831161054757829003601f168201915b50505050509080600201805461057990610e36565b80601f01602080910402602001604051908101604052809291908181526020018280546105a590610e36565b80156105f05780601f106105c7576101008083540402835291602001916105f0565b820191905f5260205f20905b8154815290600101906020018083116105d357829003601f168201915b505050505090806003015f9054906101000a900463ffffffff16905084565b806001836040516106209190610df3565b90815260200160405180910390205f01908161063c919061100c565b506001808360405161064e9190610df3565b90815260200160405180910390206001015f6101000a81548160ff0219169083151502179055505050565b6001818051602081018201805184825260208301602085012081835280955050505050505f91509050805f0180546106b090610e36565b80601f01602080910402602001604051908101604052809291908181526020018280546106dc90610e36565b80156107275780601f106106fe57610100808354040283529160200191610727565b820191905f5260205f20905b81548152906001019060200180831161070a57829003601f168201915b505050505090806001015f9054906101000a900460ff16905082565b60405180604001604052808281526020013373ffffffffffffffffffffffffffffffffffffffff1681525060048260405161077e9190610df3565b90815260200160405180910390205f820151815f01908161079f919061100c565b506020820151816001015f6101000a81548173ffffffffffffffffffffffffffffffffffffffff021916908373ffffffffffffffffffffffffffffffffffffffff16021790555090505050565b6004818051602081018201805184825260208301602085012081835280955050505050505f91509050805f01805461082390610e36565b80601f016020809104026020016040519081016040528092919081815260200182805461084f90610e36565b801561089a5780601f106108715761010080835404028352916020019161089a565b820191905f5260205f20905b81548152906001019060200180831161087d57829003601f168201915b505050505090806001015f9054906101000a900473ffffffffffffffffffffffffffffffffffffffff16905082565b5f604051905090565b5f80fd5b5f80fd5b5f80fd5b5f80fd5b5f601f19601f8301169050919050565b7f4e487b71000000000000000000000000000000000000000000000000000000005f52604160045260245ffd5b610928826108e2565b810181811067ffffffffffffffff82111715610947576109466108f2565b5b80604052505050565b5f6109596108c9565b9050610965828261091f565b919050565b5f67ffffffffffffffff821115610984576109836108f2565b5b61098d826108e2565b9050602081019050919050565b828183375f83830152505050565b5f6109ba6109b58461096a565b610950565b9050828152602081018484840111156109d6576109d56108de565b5b6109e184828561099a565b509392505050565b5f82601f8301126109fd576109fc6108da565b5b8135610a0d8482602086016109a8565b91505092915050565b5f805f60608486031215610a2d57610a2c6108d2565b5b5f84013567ffffffffffffffff811115610a4a57610a496108d6565b5b610a56868287016109e9565b935050602084013567ffffffffffffffff811115610a7757610a766108d6565b5b610a83868287016109e9565b925050604084013567ffffffffffffffff811115610aa457610aa36108d6565b5b610ab0868287016109e9565b9150509250925092565b5f63ffffffff82169050919050565b610ad281610aba565b8114610adc575f80fd5b50565b5f81359050610aed81610ac9565b92915050565b5f8060408385031215610b0957610b086108d2565b5b5f83013567ffffffffffffffff811115610b2657610b256108d6565b5b610b32858286016109e9565b9250506020610b4385828601610adf565b9150509250929050565b5f8115159050919050565b610b6181610b4d565b82525050565b5f602082019050610b7a5f830184610b58565b92915050565b5f60208284031215610b9557610b946108d2565b5b5f82013567ffffffffffffffff811115610bb257610bb16108d6565b5b610bbe848285016109e9565b91505092915050565b5f81519050919050565b5f82825260208201905092915050565b5f5b83811015610bfe578082015181840152602081019050610be3565b5f8484015250505050565b5f610c1382610bc7565b610c1d8185610bd1565b9350610c2d818560208601610be1565b610c36816108e2565b840191505092915050565b610c4a81610aba565b82525050565b5f6080820190508181035f830152610c688187610c09565b90508181036020830152610c7c8186610c09565b90508181036040830152610c908185610c09565b9050610c9f6060830184610c41565b95945050505050565b5f8060408385031215610cbe57610cbd6108d2565b5b5f83013567ffffffffffffffff811115610cdb57610cda6108d6565b5b610ce7858286016109e9565b925050602083013567ffffffffffffffff811115610d0857610d076108d6565b5b610d14858286016109e9565b9150509250929050565b5f6040820190508181035f830152610d368185610c09565b9050610d456020830184610b58565b9392505050565b5f73ffffffffffffffffffffffffffffffffffffffff82169050919050565b5f610d7582610d4c565b9050919050565b610d8581610d6b565b82525050565b5f6040820190508181035f830152610da38185610c09565b9050610db26020830184610d7c565b9392505050565b5f81905092915050565b5f610dcd82610bc7565b610dd78185610db9565b9350610de7818560208601610be1565b80840191505092915050565b5f610dfe8284610dc3565b915081905092915050565b7f4e487b71000000000000000000000000000000000000000000000000000000005f52602260045260245ffd5b5f6002820490506001821680610e4d57607f821691505b602082108103610e6057610e5f610e09565b5b50919050565b5f819050815f5260205f209050919050565b5f6020601f8301049050919050565b5f82821b905092915050565b5f60088302610ec27fffffffffffffffffffffffffffffffffffffffffffffffffffffffffffffffff82610e87565b610ecc8683610e87565b95508019841693508086168417925050509392505050565b5f819050919050565b5f819050919050565b5f610f10610f0b610f0684610ee4565b610eed565b610ee4565b9050919050565b5f819050919050565b610f2983610ef6565b610f3d610f3582610f17565b848454610e93565b825550505050565b5f90565b610f51610f45565b610f5c818484610f20565b505050565b5b81811015610f7f57610f745f82610f49565b600181019050610f62565b5050565b601f821115610fc457610f9581610e66565b610f9e84610e78565b81016020851015610fad578190505b610fc1610fb985610e78565b830182610f61565b50505b505050565b5f82821c905092915050565b5f610fe45f1984600802610fc9565b1980831691505092915050565b5f610ffc8383610fd5565b9150826002028217905092915050565b61101582610bc7565b67ffffffffffffffff81111561102e5761102d6108f2565b5b6110388254610e36565b611043828285610f83565b5f60209050601f831160018114611074575f8415611062578287015190505b61106c8582610ff1565b8655506110d3565b601f19841661108286610e66565b5f5b828110156110a957848901518255600182019150602085019450602081019050611084565b868310156110c657848901516110c2601f891682610fd5565b8355505b6001600288020188555050505b50505050505056fea264697066735822122069b756d19aa42af243f95d24f6b416c07e91a10ccc33df1e79c96171bfe5401764736f6c63430008180033a2646970667358221220872c05e54cba99ad8860acf46e5569736c001fd4b763a455f9d79eb9613cf8f564736f6c63430008180033","opcodes":"PUSH1 0x80 PUSH1 0x40 MSTORE CALLVALUE DUP1 ISZERO PUSH2 0xF JUMPI PUSH0 DUP1 REVERT JUMPDEST POP PUSH2 0x19B8 DUP1 PUSH2 0x1D PUSH0 CODECOPY PUSH0 RETURN INVALID PUSH1 0x80 PUSH1 0x40 MSTORE CALLVALUE DUP1 ISZERO PUSH2 0xF JUMPI PUSH0 DUP1 REVERT JUMPDEST POP PUSH1 0x4 CALLDATASIZE LT PUSH2 0x34 JUMPI PUSH0 CALLDATALOAD PUSH1 0xE0 SHR DUP1 PUSH4 0x80B29BEC EQ PUSH2 0x38 JUMPI DUP1 PUSH4 0xC0900BEA EQ PUSH2 0x54 JUMPI JUMPDEST PUSH0 DUP1 REVERT JUMPDEST PUSH2 0x52 PUSH1 0x4 DUP1 CALLDATASIZE SUB DUP2 ADD SWAP1 PUSH2 0x4D SWAP2 SWAP1 PUSH2 0x38E JUMP JUMPDEST PUSH2 0x85 JUMP JUMPDEST STOP JUMPDEST PUSH2 0x6E PUSH1 0x4 DUP1 CALLDATASIZE SUB DUP2 ADD SWAP1 PUSH2 0x69 SWAP2 SWAP1 PUSH2 0x404 JUMP JUMPDEST PUSH2 0x158 JUMP JUMPDEST PUSH1 0x40 MLOAD PUSH2 0x7C SWAP3 SWAP2 SWAP1 PUSH2 0x504 JUMP JUMPDEST PUSH1 0x40 MLOAD DUP1 SWAP2 SUB SWAP1 RETURN JUMPDEST PUSH0 PUSH1 0x40 MLOAD PUSH2 0x92 SWAP1 PUSH2 0x234 JUMP JUMPDEST PUSH1 0x40 MLOAD DUP1 SWAP2 SUB SWAP1 PUSH0 CREATE DUP1 ISZERO DUP1 ISZERO PUSH2 0xAB JUMPI RETURNDATASIZE PUSH0 DUP1 RETURNDATACOPY RETURNDATASIZE PUSH0 REVERT JUMPDEST POP SWAP1 POP PUSH1 0x40 MLOAD DUP1 PUSH1 0x40 ADD PUSH1 0x40 MSTORE DUP1 DUP4 DUP2 MSTORE PUSH1 0x20 ADD DUP3 PUSH20 0xFFFFFFFFFFFFFFFFFFFFFFFFFFFFFFFFFFFFFFFF AND DUP2 MSTORE POP PUSH0 DUP5 PUSH1 0x40 MLOAD PUSH2 0xE8 SWAP2 SWAP1 PUSH2 0x56C JUMP JUMPDEST SWAP1 DUP2 MSTORE PUSH1 0x20 ADD PUSH1 0x40 MLOAD DUP1 SWAP2 SUB SWAP1 KECCAK256 PUSH0 DUP3 ADD MLOAD DUP2 PUSH0 ADD SWAP1 DUP2 PUSH2 0x109 SWAP2 SWAP1 PUSH2 0x785 JUMP JUMPDEST POP PUSH1 0x20 DUP3 ADD MLOAD DUP2 PUSH1 0x1 ADD PUSH0 PUSH2 0x100 EXP DUP2 SLOAD DUP2 PUSH20 0xFFFFFFFFFFFFFFFFFFFFFFFFFFFFFFFFFFFFFFFF MUL NOT AND SWAP1 DUP4 PUSH20 0xFFFFFFFFFFFFFFFFFFFFFFFFFFFFFFFFFFFFFFFF AND MUL OR SWAP1 SSTORE POP SWAP1 POP POP POP POP POP JUMP JUMPDEST PUSH0 DUP2 DUP1 MLOAD PUSH1 0x20 DUP2 ADD DUP3 ADD DUP1 MLOAD DUP5 DUP3 MSTORE PUSH1 0x20 DUP4 ADD PUSH1 0x20 DUP6 ADD KECCAK256 DUP2 DUP4 MSTORE DUP1 SWAP6 POP POP POP POP POP POP PUSH0 SWAP2 POP SWAP1 POP DUP1 PUSH0 ADD DUP1 SLOAD PUSH2 0x18E SWAP1 PUSH2 0x5AF JUMP JUMPDEST DUP1 PUSH1 0x1F ADD PUSH1 0x20 DUP1 SWAP2 DIV MUL PUSH1 0x20 ADD PUSH1 0x40 MLOAD SWAP1 DUP2 ADD PUSH1 0x40 MSTORE DUP1 SWAP3 SWAP2 SWAP1 DUP2 DUP2 MSTORE PUSH1 0x20 ADD DUP3 DUP1 SLOAD PUSH2 0x1BA SWAP1 PUSH2 0x5AF JUMP JUMPDEST DUP1 ISZERO PUSH2 0x205 JUMPI DUP1 PUSH1 0x1F LT PUSH2 0x1DC JUMPI PUSH2 0x100 DUP1 DUP4 SLOAD DIV MUL DUP4 MSTORE SWAP2 PUSH1 0x20 ADD SWAP2 PUSH2 0x205 JUMP JUMPDEST DUP3 ADD SWAP2 SWAP1 PUSH0 MSTORE PUSH1 0x20 PUSH0 KECCAK256 SWAP1 JUMPDEST DUP2 SLOAD DUP2 MSTORE SWAP1 PUSH1 0x1 ADD SWAP1 PUSH1 0x20 ADD DUP1 DUP4 GT PUSH2 0x1E8 JUMPI DUP3 SWAP1 SUB PUSH1 0x1F AND DUP3 ADD SWAP2 JUMPDEST POP POP POP POP POP SWAP1 DUP1 PUSH1 0x1 ADD PUSH0 SWAP1 SLOAD SWAP1 PUSH2 0x100 EXP SWAP1 DIV PUSH20 0xFFFFFFFFFFFFFFFFFFFFFFFFFFFFFFFFFFFFFFFF AND SWAP1 POP DUP3 JUMP JUMPDEST PUSH2 0x112E DUP1 PUSH2 0x855 DUP4 CODECOPY ADD SWAP1 JUMP JUMPDEST PUSH0 PUSH1 0x40 MLOAD SWAP1 POP SWAP1 JUMP JUMPDEST PUSH0 DUP1 REVERT JUMPDEST PUSH0 DUP1 REVERT JUMPDEST PUSH0 DUP1 REVERT JUMPDEST PUSH0 DUP1 REVERT JUMPDEST PUSH0 PUSH1 0x1F NOT PUSH1 0x1F DUP4 ADD AND SWAP1 POP SWAP2 SWAP1 POP JUMP JUMPDEST PUSH32 0x4E487B7100000000000000000000000000000000000000000000000000000000 PUSH0 MSTORE PUSH1 0x41 PUSH1 0x4 MSTORE PUSH1 0x24 PUSH0 REVERT JUMPDEST PUSH2 0x2A0 DUP3 PUSH2 0x25A JUMP JUMPDEST DUP2 ADD DUP2 DUP2 LT PUSH8 0xFFFFFFFFFFFFFFFF DUP3 GT OR ISZERO PUSH2 0x2BF JUMPI PUSH2 0x2BE PUSH2 0x26A JUMP JUMPDEST JUMPDEST DUP1 PUSH1 0x40 MSTORE POP POP POP JUMP JUMPDEST PUSH0 PUSH2 0x2D1 PUSH2 0x241 JUMP JUMPDEST SWAP1 POP PUSH2 0x2DD DUP3 DUP3 PUSH2 0x297 JUMP JUMPDEST SWAP2 SWAP1 POP JUMP JUMPDEST PUSH0 PUSH8 0xFFFFFFFFFFFFFFFF DUP3 GT ISZERO PUSH2 0x2FC JUMPI PUSH2 0x2FB PUSH2 0x26A JUMP JUMPDEST JUMPDEST PUSH2 0x305 DUP3 PUSH2 0x25A JUMP JUMPDEST SWAP1 POP PUSH1 0x20 DUP2 ADD SWAP1 POP SWAP2 SWAP1 POP JUMP JUMPDEST DUP3 DUP2 DUP4 CALLDATACOPY PUSH0 DUP4 DUP4 ADD MSTORE POP POP POP JUMP JUMPDEST PUSH0 PUSH2 0x332 PUSH2 0x32D DUP5 PUSH2 0x2E2 JUMP JUMPDEST PUSH2 0x2C8 JUMP JUMPDEST SWAP1 POP DUP3 DUP2 MSTORE PUSH1 0x20 DUP2 ADD DUP5 DUP5 DUP5 ADD GT ISZERO PUSH2 0x34E JUMPI PUSH2 0x34D PUSH2 0x256 JUMP JUMPDEST JUMPDEST PUSH2 0x359 DUP5 DUP3 DUP6 PUSH2 0x312 JUMP JUMPDEST POP SWAP4 SWAP3 POP POP POP JUMP JUMPDEST PUSH0 DUP3 PUSH1 0x1F DUP4 ADD SLT PUSH2 0x375 JUMPI PUSH2 0x374 PUSH2 0x252 JUMP JUMPDEST JUMPDEST DUP2 CALLDATALOAD PUSH2 0x385 DUP5 DUP3 PUSH1 0x20 DUP7 ADD PUSH2 0x320 JUMP JUMPDEST SWAP2 POP POP SWAP3 SWAP2 POP POP JUMP JUMPDEST PUSH0 DUP1 PUSH1 0x40 DUP4 DUP6 SUB SLT ISZERO PUSH2 0x3A4 JUMPI PUSH2 0x3A3 PUSH2 0x24A JUMP JUMPDEST JUMPDEST PUSH0 DUP4 ADD CALLDATALOAD PUSH8 0xFFFFFFFFFFFFFFFF DUP2 GT ISZERO PUSH2 0x3C1 JUMPI PUSH2 0x3C0 PUSH2 0x24E JUMP JUMPDEST JUMPDEST PUSH2 0x3CD DUP6 DUP3 DUP7 ADD PUSH2 0x361 JUMP JUMPDEST SWAP3 POP POP PUSH1 0x20 DUP4 ADD CALLDATALOAD PUSH8 0xFFFFFFFFFFFFFFFF DUP2 GT ISZERO PUSH2 0x3EE JUMPI PUSH2 0x3ED PUSH2 0x24E JUMP JUMPDEST JUMPDEST PUSH2 0x3FA DUP6 DUP3 DUP7 ADD PUSH2 0x361 JUMP JUMPDEST SWAP2 POP POP SWAP3 POP SWAP3 SWAP1 POP JUMP JUMPDEST PUSH0 PUSH1 0x20 DUP3 DUP5 SUB SLT ISZERO PUSH2 0x419 JUMPI PUSH2 0x418 PUSH2 0x24A JUMP JUMPDEST JUMPDEST PUSH0 DUP3 ADD CALLDATALOAD PUSH8 0xFFFFFFFFFFFFFFFF DUP2 GT ISZERO PUSH2 0x436 JUMPI PUSH2 0x435 PUSH2 0x24E JUMP JUMPDEST JUMPDEST PUSH2 0x442 DUP5 DUP3 DUP6 ADD PUSH2 0x361 JUMP JUMPDEST SWAP2 POP POP SWAP3 SWAP2 POP POP JUMP JUMPDEST PUSH0 DUP2 MLOAD SWAP1 POP SWAP2 SWAP1 POP JUMP JUMPDEST PUSH0 DUP3 DUP3 MSTORE PUSH1 0x20 DUP3 ADD SWAP1 POP SWAP3 SWAP2 POP POP JUMP JUMPDEST PUSH0 JUMPDEST DUP4 DUP2 LT ISZERO PUSH2 0x482 JUMPI DUP1 DUP3 ADD MLOAD DUP2 DUP5 ADD MSTORE PUSH1 0x20 DUP2 ADD SWAP1 POP PUSH2 0x467 JUMP JUMPDEST PUSH0 DUP5 DUP5 ADD MSTORE POP POP POP POP JUMP JUMPDEST PUSH0 PUSH2 0x497 DUP3 PUSH2 0x44B JUMP JUMPDEST PUSH2 0x4A1 DUP2 DUP6 PUSH2 0x455 JUMP JUMPDEST SWAP4 POP PUSH2 0x4B1 DUP2 DUP6 PUSH1 0x20 DUP7 ADD PUSH2 0x465 JUMP JUMPDEST PUSH2 0x4BA DUP2 PUSH2 0x25A JUMP JUMPDEST DUP5 ADD SWAP2 POP POP SWAP3 SWAP2 POP POP JUMP JUMPDEST PUSH0 PUSH20 0xFFFFFFFFFFFFFFFFFFFFFFFFFFFFFFFFFFFFFFFF DUP3 AND SWAP1 POP SWAP2 SWAP1 POP JUMP JUMPDEST PUSH0 PUSH2 0x4EE DUP3 PUSH2 0x4C5 JUMP JUMPDEST SWAP1 POP SWAP2 SWAP1 POP JUMP JUMPDEST PUSH2 0x4FE DUP2 PUSH2 0x4E4 JUMP JUMPDEST DUP3 MSTORE POP POP JUMP JUMPDEST PUSH0 PUSH1 0x40 DUP3 ADD SWAP1 POP DUP2 DUP2 SUB PUSH0 DUP4 ADD MSTORE PUSH2 0x51C DUP2 DUP6 PUSH2 0x48D JUMP JUMPDEST SWAP1 POP PUSH2 0x52B PUSH1 0x20 DUP4 ADD DUP5 PUSH2 0x4F5 JUMP JUMPDEST SWAP4 SWAP3 POP POP POP JUMP JUMPDEST PUSH0 DUP2 SWAP1 POP SWAP3 SWAP2 POP POP JUMP JUMPDEST PUSH0 PUSH2 0x546 DUP3 PUSH2 0x44B JUMP JUMPDEST PUSH2 0x550 DUP2 DUP6 PUSH2 0x532 JUMP JUMPDEST SWAP4 POP PUSH2 0x560 DUP2 DUP6 PUSH1 0x20 DUP7 ADD PUSH2 0x465 JUMP JUMPDEST DUP1 DUP5 ADD SWAP2 POP POP SWAP3 SWAP2 POP POP JUMP JUMPDEST PUSH0 PUSH2 0x577 DUP3 DUP5 PUSH2 0x53C JUMP JUMPDEST SWAP2 POP DUP2 SWAP1 POP SWAP3 SWAP2 POP POP JUMP JUMPDEST PUSH32 0x4E487B7100000000000000000000000000000000000000000000000000000000 PUSH0 MSTORE PUSH1 0x22 PUSH1 0x4 MSTORE PUSH1 0x24 PUSH0 REVERT JUMPDEST PUSH0 PUSH1 0x2 DUP3 DIV SWAP1 POP PUSH1 0x1 DUP3 AND DUP1 PUSH2 0x5C6 JUMPI PUSH1 0x7F DUP3 AND SWAP2 POP JUMPDEST PUSH1 0x20 DUP3 LT DUP2 SUB PUSH2 0x5D9 JUMPI PUSH2 0x5D8 PUSH2 0x582 JUMP JUMPDEST JUMPDEST POP SWAP2 SWAP1 POP JUMP JUMPDEST PUSH0 DUP2 SWAP1 POP DUP2 PUSH0 MSTORE PUSH1 0x20 PUSH0 KECCAK256 SWAP1 POP SWAP2 SWAP1 POP JUMP JUMPDEST PUSH0 PUSH1 0x20 PUSH1 0x1F DUP4 ADD DIV SWAP1 POP SWAP2 SWAP1 POP JUMP JUMPDEST PUSH0 DUP3 DUP3 SHL SWAP1 POP SWAP3 SWAP2 POP POP JUMP JUMPDEST PUSH0 PUSH1 0x8 DUP4 MUL PUSH2 0x63B PUSH32 0xFFFFFFFFFFFFFFFFFFFFFFFFFFFFFFFFFFFFFFFFFFFFFFFFFFFFFFFFFFFFFFFF DUP3 PUSH2 0x600 JUMP JUMPDEST PUSH2 0x645 DUP7 DUP4 PUSH2 0x600 JUMP JUMPDEST SWAP6 POP DUP1 NOT DUP5 AND SWAP4 POP DUP1 DUP7 AND DUP5 OR SWAP3 POP POP POP SWAP4 SWAP3 POP POP POP JUMP JUMPDEST PUSH0 DUP2 SWAP1 POP SWAP2 SWAP1 POP JUMP JUMPDEST PUSH0 DUP2 SWAP1 POP SWAP2 SWAP1 POP JUMP JUMPDEST PUSH0 PUSH2 0x689 PUSH2 0x684 PUSH2 0x67F DUP5 PUSH2 0x65D JUMP JUMPDEST PUSH2 0x666 JUMP JUMPDEST PUSH2 0x65D JUMP JUMPDEST SWAP1 POP SWAP2 SWAP1 POP JUMP JUMPDEST PUSH0 DUP2 SWAP1 POP SWAP2 SWAP1 POP JUMP JUMPDEST PUSH2 0x6A2 DUP4 PUSH2 0x66F JUMP JUMPDEST PUSH2 0x6B6 PUSH2 0x6AE DUP3 PUSH2 0x690 JUMP JUMPDEST DUP5 DUP5 SLOAD PUSH2 0x60C JUMP JUMPDEST DUP3 SSTORE POP POP POP POP JUMP JUMPDEST PUSH0 SWAP1 JUMP JUMPDEST PUSH2 0x6CA PUSH2 0x6BE JUMP JUMPDEST PUSH2 0x6D5 DUP2 DUP5 DUP5 PUSH2 0x699 JUMP JUMPDEST POP POP POP JUMP JUMPDEST JUMPDEST DUP2 DUP2 LT ISZERO PUSH2 0x6F8 JUMPI PUSH2 0x6ED PUSH0 DUP3 PUSH2 0x6C2 JUMP JUMPDEST PUSH1 0x1 DUP2 ADD SWAP1 POP PUSH2 0x6DB JUMP JUMPDEST POP POP JUMP JUMPDEST PUSH1 0x1F DUP3 GT ISZERO PUSH2 0x73D JUMPI PUSH2 0x70E DUP2 PUSH2 0x5DF JUMP JUMPDEST PUSH2 0x717 DUP5 PUSH2 0x5F1 JUMP JUMPDEST DUP2 ADD PUSH1 0x20 DUP6 LT ISZERO PUSH2 0x726 JUMPI DUP2 SWAP1 POP JUMPDEST PUSH2 0x73A PUSH2 0x732 DUP6 PUSH2 0x5F1 JUMP JUMPDEST DUP4 ADD DUP3 PUSH2 0x6DA JUMP JUMPDEST POP POP JUMPDEST POP POP POP JUMP JUMPDEST PUSH0 DUP3 DUP3 SHR SWAP1 POP SWAP3 SWAP2 POP POP JUMP JUMPDEST PUSH0 PUSH2 0x75D PUSH0 NOT DUP5 PUSH1 0x8 MUL PUSH2 0x742 JUMP JUMPDEST NOT DUP1 DUP4 AND SWAP2 POP POP SWAP3 SWAP2 POP POP JUMP JUMPDEST PUSH0 PUSH2 0x775 DUP4 DUP4 PUSH2 0x74E JUMP JUMPDEST SWAP2 POP DUP3 PUSH1 0x2 MUL DUP3 OR SWAP1 POP SWAP3 SWAP2 POP POP JUMP JUMPDEST PUSH2 0x78E DUP3 PUSH2 0x44B JUMP JUMPDEST PUSH8 0xFFFFFFFFFFFFFFFF DUP2 GT ISZERO PUSH2 0x7A7 JUMPI PUSH2 0x7A6 PUSH2 0x26A JUMP JUMPDEST JUMPDEST PUSH2 0x7B1 DUP3 SLOAD PUSH2 0x5AF JUMP JUMPDEST PUSH2 0x7BC DUP3 DUP3 DUP6 PUSH2 0x6FC JUMP JUMPDEST PUSH0 PUSH1 0x20 SWAP1 POP PUSH1 0x1F DUP4 GT PUSH1 0x1 DUP2 EQ PUSH2 0x7ED JUMPI PUSH0 DUP5 ISZERO PUSH2 0x7DB JUMPI DUP3 DUP8 ADD MLOAD SWAP1 POP JUMPDEST PUSH2 0x7E5 DUP6 DUP3 PUSH2 0x76A JUMP JUMPDEST DUP7 SSTORE POP PUSH2 0x84C JUMP JUMPDEST PUSH1 0x1F NOT DUP5 AND PUSH2 0x7FB DUP7 PUSH2 0x5DF JUMP JUMPDEST PUSH0 JUMPDEST DUP3 DUP2 LT ISZERO PUSH2 0x822 JUMPI DUP5 DUP10 ADD MLOAD DUP3 SSTORE PUSH1 0x1 DUP3 ADD SWAP2 POP PUSH1 0x20 DUP6 ADD SWAP5 POP PUSH1 0x20 DUP2 ADD SWAP1 POP PUSH2 0x7FD JUMP JUMPDEST DUP7 DUP4 LT ISZERO PUSH2 0x83F JUMPI DUP5 DUP10 ADD MLOAD PUSH2 0x83B PUSH1 0x1F DUP10 AND DUP3 PUSH2 0x74E JUMP JUMPDEST DUP4 SSTORE POP JUMPDEST PUSH1 0x1 PUSH1 0x2 DUP9 MUL ADD DUP9 SSTORE POP POP POP JUMPDEST POP POP POP POP POP POP JUMP INVALID PUSH1 0x80 PUSH1 0x40 MSTORE CALLVALUE DUP1 ISZERO PUSH2 0xF JUMPI PUSH0 DUP1 REVERT JUMPDEST POP PUSH2 0x1111 DUP1 PUSH2 0x1D PUSH0 CODECOPY PUSH0 RETURN INVALID PUSH1 0x80 PUSH1 0x40 MSTORE CALLVALUE DUP1 ISZERO PUSH2 0xF JUMPI PUSH0 DUP1 REVERT JUMPDEST POP PUSH1 0x4 CALLDATASIZE LT PUSH2 0x91 JUMPI PUSH0 CALLDATALOAD PUSH1 0xE0 SHR DUP1 PUSH4 0xB15BF255 GT PUSH2 0x64 JUMPI DUP1 PUSH4 0xB15BF255 EQ PUSH2 0x12D JUMPI DUP1 PUSH4 0xC0EFFB7D EQ PUSH2 0x160 JUMPI DUP1 PUSH4 0xD8CE6572 EQ PUSH2 0x17C JUMPI DUP1 PUSH4 0xE47766FF EQ PUSH2 0x1AD JUMPI DUP1 PUSH4 0xEA42C7EF EQ PUSH2 0x1C9 JUMPI PUSH2 0x91 JUMP JUMPDEST DUP1 PUSH4 0xE34B00E EQ PUSH2 0x95 JUMPI DUP1 PUSH4 0x220F8ADE EQ PUSH2 0xB1 JUMPI DUP1 PUSH4 0x7F975A37 EQ PUSH2 0xE1 JUMPI DUP1 PUSH4 0x9AB1A6CC EQ PUSH2 0xFD JUMPI JUMPDEST PUSH0 DUP1 REVERT JUMPDEST PUSH2 0xAF PUSH1 0x4 DUP1 CALLDATASIZE SUB DUP2 ADD SWAP1 PUSH2 0xAA SWAP2 SWAP1 PUSH2 0xA16 JUMP JUMPDEST PUSH2 0x1FA JUMP JUMPDEST STOP JUMPDEST PUSH2 0xCB PUSH1 0x4 DUP1 CALLDATASIZE SUB DUP2 ADD SWAP1 PUSH2 0xC6 SWAP2 SWAP1 PUSH2 0xAF3 JUMP JUMPDEST PUSH2 0x2AD JUMP JUMPDEST PUSH1 0x40 MLOAD PUSH2 0xD8 SWAP2 SWAP1 PUSH2 0xB67 JUMP JUMPDEST PUSH1 0x40 MLOAD DUP1 SWAP2 SUB SWAP1 RETURN JUMPDEST PUSH2 0xFB PUSH1 0x4 DUP1 CALLDATASIZE SUB DUP2 ADD SWAP1 PUSH2 0xF6 SWAP2 SWAP1 PUSH2 0xAF3 JUMP JUMPDEST PUSH2 0x37C JUMP JUMPDEST STOP JUMPDEST PUSH2 0x117 PUSH1 0x4 DUP1 CALLDATASIZE SUB DUP2 ADD SWAP1 PUSH2 0x112 SWAP2 SWAP1 PUSH2 0xB80 JUMP JUMPDEST PUSH2 0x3F5 JUMP JUMPDEST PUSH1 0x40 MLOAD PUSH2 0x124 SWAP2 SWAP1 PUSH2 0xB67 JUMP JUMPDEST PUSH1 0x40 MLOAD DUP1 SWAP2 SUB SWAP1 RETURN JUMPDEST PUSH2 0x147 PUSH1 0x4 DUP1 CALLDATASIZE SUB DUP2 ADD SWAP1 PUSH2 0x142 SWAP2 SWAP1 PUSH2 0xB80 JUMP JUMPDEST PUSH2 0x42A JUMP JUMPDEST PUSH1 0x40 MLOAD PUSH2 0x157 SWAP5 SWAP4 SWAP3 SWAP2 SWAP1 PUSH2 0xC50 JUMP JUMPDEST PUSH1 0x40 MLOAD DUP1 SWAP2 SUB SWAP1 RETURN JUMPDEST PUSH2 0x17A PUSH1 0x4 DUP1 CALLDATASIZE SUB DUP2 ADD SWAP1 PUSH2 0x175 SWAP2 SWAP1 PUSH2 0xCA8 JUMP JUMPDEST PUSH2 0x60F JUMP JUMPDEST STOP JUMPDEST PUSH2 0x196 PUSH1 0x4 DUP1 CALLDATASIZE SUB DUP2 ADD SWAP1 PUSH2 0x191 SWAP2 SWAP1 PUSH2 0xB80 JUMP JUMPDEST PUSH2 0x679 JUMP JUMPDEST PUSH1 0x40 MLOAD PUSH2 0x1A4 SWAP3 SWAP2 SWAP1 PUSH2 0xD1E JUMP JUMPDEST PUSH1 0x40 MLOAD DUP1 SWAP2 SUB SWAP1 RETURN JUMPDEST PUSH2 0x1C7 PUSH1 0x4 DUP1 CALLDATASIZE SUB DUP2 ADD SWAP1 PUSH2 0x1C2 SWAP2 SWAP1 PUSH2 0xB80 JUMP JUMPDEST PUSH2 0x743 JUMP JUMPDEST STOP JUMPDEST PUSH2 0x1E3 PUSH1 0x4 DUP1 CALLDATASIZE SUB DUP2 ADD SWAP1 PUSH2 0x1DE SWAP2 SWAP1 PUSH2 0xB80 JUMP JUMPDEST PUSH2 0x7EC JUMP JUMPDEST PUSH1 0x40 MLOAD PUSH2 0x1F1 SWAP3 SWAP2 SWAP1 PUSH2 0xD8B JUMP JUMPDEST PUSH1 0x40 MLOAD DUP1 SWAP2 SUB SWAP1 RETURN JUMPDEST PUSH1 0x40 MLOAD DUP1 PUSH1 0x80 ADD PUSH1 0x40 MSTORE DUP1 DUP5 DUP2 MSTORE PUSH1 0x20 ADD DUP4 DUP2 MSTORE PUSH1 0x20 ADD DUP3 DUP2 MSTORE PUSH1 0x20 ADD PUSH0 PUSH4 0xFFFFFFFF AND DUP2 MSTORE POP PUSH1 0x3 DUP5 PUSH1 0x40 MLOAD PUSH2 0x231 SWAP2 SWAP1 PUSH2 0xDF3 JUMP JUMPDEST SWAP1 DUP2 MSTORE PUSH1 0x20 ADD PUSH1 0x40 MLOAD DUP1 SWAP2 SUB SWAP1 KECCAK256 PUSH0 DUP3 ADD MLOAD DUP2 PUSH0 ADD SWAP1 DUP2 PUSH2 0x252 SWAP2 SWAP1 PUSH2 0x100C JUMP JUMPDEST POP PUSH1 0x20 DUP3 ADD MLOAD DUP2 PUSH1 0x1 ADD SWAP1 DUP2 PUSH2 0x268 SWAP2 SWAP1 PUSH2 0x100C JUMP JUMPDEST POP PUSH1 0x40 DUP3 ADD MLOAD DUP2 PUSH1 0x2 ADD SWAP1 DUP2 PUSH2 0x27E SWAP2 SWAP1 PUSH2 0x100C JUMP JUMPDEST POP PUSH1 0x60 DUP3 ADD MLOAD DUP2 PUSH1 0x3 ADD PUSH0 PUSH2 0x100 EXP DUP2 SLOAD DUP2 PUSH4 0xFFFFFFFF MUL NOT AND SWAP1 DUP4 PUSH4 0xFFFFFFFF AND MUL OR SWAP1 SSTORE POP SWAP1 POP POP POP POP POP JUMP JUMPDEST PUSH0 PUSH1 0x1 ISZERO ISZERO PUSH1 0x1 DUP5 PUSH1 0x40 MLOAD PUSH2 0x2C2 SWAP2 SWAP1 PUSH2 0xDF3 JUMP JUMPDEST SWAP1 DUP2 MSTORE PUSH1 0x20 ADD PUSH1 0x40 MLOAD DUP1 SWAP2 SUB SWAP1 KECCAK256 PUSH1 0x1 ADD PUSH0 SWAP1 SLOAD SWAP1 PUSH2 0x100 EXP SWAP1 DIV PUSH1 0xFF AND ISZERO ISZERO EQ DUP1 ISZERO PUSH2 0x31D JUMPI POP PUSH1 0x1 ISZERO ISZERO PUSH1 0x2 DUP5 PUSH1 0x40 MLOAD PUSH2 0x2FE SWAP2 SWAP1 PUSH2 0xDF3 JUMP JUMPDEST SWAP1 DUP2 MSTORE PUSH1 0x20 ADD PUSH1 0x40 MLOAD DUP1 SWAP2 SUB SWAP1 KECCAK256 PUSH0 SWAP1 SLOAD SWAP1 PUSH2 0x100 EXP SWAP1 DIV PUSH1 0xFF AND ISZERO ISZERO EQ JUMPDEST DUP1 ISZERO PUSH2 0x364 JUMPI POP DUP2 PUSH4 0xFFFFFFFF AND PUSH1 0x3 DUP5 PUSH1 0x40 MLOAD PUSH2 0x33B SWAP2 SWAP1 PUSH2 0xDF3 JUMP JUMPDEST SWAP1 DUP2 MSTORE PUSH1 0x20 ADD PUSH1 0x40 MLOAD DUP1 SWAP2 SUB SWAP1 KECCAK256 PUSH1 0x3 ADD PUSH0 SWAP1 SLOAD SWAP1 PUSH2 0x100 EXP SWAP1 DIV PUSH4 0xFFFFFFFF AND PUSH4 0xFFFFFFFF AND EQ JUMPDEST ISZERO PUSH2 0x372 JUMPI PUSH1 0x1 SWAP1 POP PUSH2 0x376 JUMP JUMPDEST PUSH0 SWAP1 POP JUMPDEST SWAP3 SWAP2 POP POP JUMP JUMPDEST PUSH1 0x1 PUSH1 0x2 DUP4 PUSH1 0x40 MLOAD PUSH2 0x38E SWAP2 SWAP1 PUSH2 0xDF3 JUMP JUMPDEST SWAP1 DUP2 MSTORE PUSH1 0x20 ADD PUSH1 0x40 MLOAD DUP1 SWAP2 SUB SWAP1 KECCAK256 PUSH0 PUSH2 0x100 EXP DUP2 SLOAD DUP2 PUSH1 0xFF MUL NOT AND SWAP1 DUP4 ISZERO ISZERO MUL OR SWAP1 SSTORE POP DUP1 PUSH1 0x3 DUP4 PUSH1 0x40 MLOAD PUSH2 0x3C3 SWAP2 SWAP1 PUSH2 0xDF3 JUMP JUMPDEST SWAP1 DUP2 MSTORE PUSH1 0x20 ADD PUSH1 0x40 MLOAD DUP1 SWAP2 SUB SWAP1 KECCAK256 PUSH1 0x3 ADD PUSH0 PUSH2 0x100 EXP DUP2 SLOAD DUP2 PUSH4 0xFFFFFFFF MUL NOT AND SWAP1 DUP4 PUSH4 0xFFFFFFFF AND MUL OR SWAP1 SSTORE POP POP POP JUMP JUMPDEST PUSH1 0x2 DUP2 DUP1 MLOAD PUSH1 0x20 DUP2 ADD DUP3 ADD DUP1 MLOAD DUP5 DUP3 MSTORE PUSH1 0x20 DUP4 ADD PUSH1 0x20 DUP6 ADD KECCAK256 DUP2 DUP4 MSTORE DUP1 SWAP6 POP POP POP POP POP POP PUSH0 SWAP2 POP SLOAD SWAP1 PUSH2 0x100 EXP SWAP1 DIV PUSH1 0xFF AND DUP2 JUMP JUMPDEST PUSH1 0x3 DUP2 DUP1 MLOAD PUSH1 0x20 DUP2 ADD DUP3 ADD DUP1 MLOAD DUP5 DUP3 MSTORE PUSH1 0x20 DUP4 ADD PUSH1 0x20 DUP6 ADD KECCAK256 DUP2 DUP4 MSTORE DUP1 SWAP6 POP POP POP POP POP POP PUSH0 SWAP2 POP SWAP1 POP DUP1 PUSH0 ADD DUP1 SLOAD PUSH2 0x461 SWAP1 PUSH2 0xE36 JUMP JUMPDEST DUP1 PUSH1 0x1F ADD PUSH1 0x20 DUP1 SWAP2 DIV MUL PUSH1 0x20 ADD PUSH1 0x40 MLOAD SWAP1 DUP2 ADD PUSH1 0x40 MSTORE DUP1 SWAP3 SWAP2 SWAP1 DUP2 DUP2 MSTORE PUSH1 0x20 ADD DUP3 DUP1 SLOAD PUSH2 0x48D SWAP1 PUSH2 0xE36 JUMP JUMPDEST DUP1 ISZERO PUSH2 0x4D8 JUMPI DUP1 PUSH1 0x1F LT PUSH2 0x4AF JUMPI PUSH2 0x100 DUP1 DUP4 SLOAD DIV MUL DUP4 MSTORE SWAP2 PUSH1 0x20 ADD SWAP2 PUSH2 0x4D8 JUMP JUMPDEST DUP3 ADD SWAP2 SWAP1 PUSH0 MSTORE PUSH1 0x20 PUSH0 KECCAK256 SWAP1 JUMPDEST DUP2 SLOAD DUP2 MSTORE SWAP1 PUSH1 0x1 ADD SWAP1 PUSH1 0x20 ADD DUP1 DUP4 GT PUSH2 0x4BB JUMPI DUP3 SWAP1 SUB PUSH1 0x1F AND DUP3 ADD SWAP2 JUMPDEST POP POP POP POP POP SWAP1 DUP1 PUSH1 0x1 ADD DUP1 SLOAD PUSH2 0x4ED SWAP1 PUSH2 0xE36 JUMP JUMPDEST DUP1 PUSH1 0x1F ADD PUSH1 0x20 DUP1 SWAP2 DIV MUL PUSH1 0x20 ADD PUSH1 0x40 MLOAD SWAP1 DUP2 ADD PUSH1 0x40 MSTORE DUP1 SWAP3 SWAP2 SWAP1 DUP2 DUP2 MSTORE PUSH1 0x20 ADD DUP3 DUP1 SLOAD PUSH2 0x519 SWAP1 PUSH2 0xE36 JUMP JUMPDEST DUP1 ISZERO PUSH2 0x564 JUMPI DUP1 PUSH1 0x1F LT PUSH2 0x53B JUMPI PUSH2 0x100 DUP1 DUP4 SLOAD DIV MUL DUP4 MSTORE SWAP2 PUSH1 0x20 ADD SWAP2 PUSH2 0x564 JUMP JUMPDEST DUP3 ADD SWAP2 SWAP1 PUSH0 MSTORE PUSH1 0x20 PUSH0 KECCAK256 SWAP1 JUMPDEST DUP2 SLOAD DUP2 MSTORE SWAP1 PUSH1 0x1 ADD SWAP1 PUSH1 0x20 ADD DUP1 DUP4 GT PUSH2 0x547 JUMPI DUP3 SWAP1 SUB PUSH1 0x1F AND DUP3 ADD SWAP2 JUMPDEST POP POP POP POP POP SWAP1 DUP1 PUSH1 0x2 ADD DUP1 SLOAD PUSH2 0x579 SWAP1 PUSH2 0xE36 JUMP JUMPDEST DUP1 PUSH1 0x1F ADD PUSH1 0x20 DUP1 SWAP2 DIV MUL PUSH1 0x20 ADD PUSH1 0x40 MLOAD SWAP1 DUP2 ADD PUSH1 0x40 MSTORE DUP1 SWAP3 SWAP2 SWAP1 DUP2 DUP2 MSTORE PUSH1 0x20 ADD DUP3 DUP1 SLOAD PUSH2 0x5A5 SWAP1 PUSH2 0xE36 JUMP JUMPDEST DUP1 ISZERO PUSH2 0x5F0 JUMPI DUP1 PUSH1 0x1F LT PUSH2 0x5C7 JUMPI PUSH2 0x100 DUP1 DUP4 SLOAD DIV MUL DUP4 MSTORE SWAP2 PUSH1 0x20 ADD SWAP2 PUSH2 0x5F0 JUMP JUMPDEST DUP3 ADD SWAP2 SWAP1 PUSH0 MSTORE PUSH1 0x20 PUSH0 KECCAK256 SWAP1 JUMPDEST DUP2 SLOAD DUP2 MSTORE SWAP1 PUSH1 0x1 ADD SWAP1 PUSH1 0x20 ADD DUP1 DUP4 GT PUSH2 0x5D3 JUMPI DUP3 SWAP1 SUB PUSH1 0x1F AND DUP3 ADD SWAP2 JUMPDEST POP POP POP POP POP SWAP1 DUP1 PUSH1 0x3 ADD PUSH0 SWAP1 SLOAD SWAP1 PUSH2 0x100 EXP SWAP1 DIV PUSH4 0xFFFFFFFF AND SWAP1 POP DUP5 JUMP JUMPDEST DUP1 PUSH1 0x1 DUP4 PUSH1 0x40 MLOAD PUSH2 0x620 SWAP2 SWAP1 PUSH2 0xDF3 JUMP JUMPDEST SWAP1 DUP2 MSTORE PUSH1 0x20 ADD PUSH1 0x40 MLOAD DUP1 SWAP2 SUB SWAP1 KECCAK256 PUSH0 ADD SWAP1 DUP2 PUSH2 0x63C SWAP2 SWAP1 PUSH2 0x100C JUMP JUMPDEST POP PUSH1 0x1 DUP1 DUP4 PUSH1 0x40 MLOAD PUSH2 0x64E SWAP2 SWAP1 PUSH2 0xDF3 JUMP JUMPDEST SWAP1 DUP2 MSTORE PUSH1 0x20 ADD PUSH1 0x40 MLOAD DUP1 SWAP2 SUB SWAP1 KECCAK256 PUSH1 0x1 ADD PUSH0 PUSH2 0x100 EXP DUP2 SLOAD DUP2 PUSH1 0xFF MUL NOT AND SWAP1 DUP4 ISZERO ISZERO MUL OR SWAP1 SSTORE POP POP POP JUMP JUMPDEST PUSH1 0x1 DUP2 DUP1 MLOAD PUSH1 0x20 DUP2 ADD DUP3 ADD DUP1 MLOAD DUP5 DUP3 MSTORE PUSH1 0x20 DUP4 ADD PUSH1 0x20 DUP6 ADD KECCAK256 DUP2 DUP4 MSTORE DUP1 SWAP6 POP POP POP POP POP POP PUSH0 SWAP2 POP SWAP1 POP DUP1 PUSH0 ADD DUP1 SLOAD PUSH2 0x6B0 SWAP1 PUSH2 0xE36 JUMP JUMPDEST DUP1 PUSH1 0x1F ADD PUSH1 0x20 DUP1 SWAP2 DIV MUL PUSH1 0x20 ADD PUSH1 0x40 MLOAD SWAP1 DUP2 ADD PUSH1 0x40 MSTORE DUP1 SWAP3 SWAP2 SWAP1 DUP2 DUP2 MSTORE PUSH1 0x20 ADD DUP3 DUP1 SLOAD PUSH2 0x6DC SWAP1 PUSH2 0xE36 JUMP JUMPDEST DUP1 ISZERO PUSH2 0x727 JUMPI DUP1 PUSH1 0x1F LT PUSH2 0x6FE JUMPI PUSH2 0x100 DUP1 DUP4 SLOAD DIV MUL DUP4 MSTORE SWAP2 PUSH1 0x20 ADD SWAP2 PUSH2 0x727 JUMP JUMPDEST DUP3 ADD SWAP2 SWAP1 PUSH0 MSTORE PUSH1 0x20 PUSH0 KECCAK256 SWAP1 JUMPDEST DUP2 SLOAD DUP2 MSTORE SWAP1 PUSH1 0x1 ADD SWAP1 PUSH1 0x20 ADD DUP1 DUP4 GT PUSH2 0x70A JUMPI DUP3 SWAP1 SUB PUSH1 0x1F AND DUP3 ADD SWAP2 JUMPDEST POP POP POP POP POP SWAP1 DUP1 PUSH1 0x1 ADD PUSH0 SWAP1 SLOAD SWAP1 PUSH2 0x100 EXP SWAP1 DIV PUSH1 0xFF AND SWAP1 POP DUP3 JUMP JUMPDEST PUSH1 0x40 MLOAD DUP1 PUSH1 0x40 ADD PUSH1 0x40 MSTORE DUP1 DUP3 DUP2 MSTORE PUSH1 0x20 ADD CALLER PUSH20 0xFFFFFFFFFFFFFFFFFFFFFFFFFFFFFFFFFFFFFFFF AND DUP2 MSTORE POP PUSH1 0x4 DUP3 PUSH1 0x40 MLOAD PUSH2 0x77E SWAP2 SWAP1 PUSH2 0xDF3 JUMP JUMPDEST SWAP1 DUP2 MSTORE PUSH1 0x20 ADD PUSH1 0x40 MLOAD DUP1 SWAP2 SUB SWAP1 KECCAK256 PUSH0 DUP3 ADD MLOAD DUP2 PUSH0 ADD SWAP1 DUP2 PUSH2 0x79F SWAP2 SWAP1 PUSH2 0x100C JUMP JUMPDEST POP PUSH1 0x20 DUP3 ADD MLOAD DUP2 PUSH1 0x1 ADD PUSH0 PUSH2 0x100 EXP DUP2 SLOAD DUP2 PUSH20 0xFFFFFFFFFFFFFFFFFFFFFFFFFFFFFFFFFFFFFFFF MUL NOT AND SWAP1 DUP4 PUSH20 0xFFFFFFFFFFFFFFFFFFFFFFFFFFFFFFFFFFFFFFFF AND MUL OR SWAP1 SSTORE POP SWAP1 POP POP POP JUMP JUMPDEST PUSH1 0x4 DUP2 DUP1 MLOAD PUSH1 0x20 DUP2 ADD DUP3 ADD DUP1 MLOAD DUP5 DUP3 MSTORE PUSH1 0x20 DUP4 ADD PUSH1 0x20 DUP6 ADD KECCAK256 DUP2 DUP4 MSTORE DUP1 SWAP6 POP POP POP POP POP POP PUSH0 SWAP2 POP SWAP1 POP DUP1 PUSH0 ADD DUP1 SLOAD PUSH2 0x823 SWAP1 PUSH2 0xE36 JUMP JUMPDEST DUP1 PUSH1 0x1F ADD PUSH1 0x20 DUP1 SWAP2 DIV MUL PUSH1 0x20 ADD PUSH1 0x40 MLOAD SWAP1 DUP2 ADD PUSH1 0x40 MSTORE DUP1 SWAP3 SWAP2 SWAP1 DUP2 DUP2 MSTORE PUSH1 0x20 ADD DUP3 DUP1 SLOAD PUSH2 0x84F SWAP1 PUSH2 0xE36 JUMP JUMPDEST DUP1 ISZERO PUSH2 0x89A JUMPI DUP1 PUSH1 0x1F LT PUSH2 0x871 JUMPI PUSH2 0x100 DUP1 DUP4 SLOAD DIV MUL DUP4 MSTORE SWAP2 PUSH1 0x20 ADD SWAP2 PUSH2 0x89A JUMP JUMPDEST DUP3 ADD SWAP2 SWAP1 PUSH0 MSTORE PUSH1 0x20 PUSH0 KECCAK256 SWAP1 JUMPDEST DUP2 SLOAD DUP2 MSTORE SWAP1 PUSH1 0x1 ADD SWAP1 PUSH1 0x20 ADD DUP1 DUP4 GT PUSH2 0x87D JUMPI DUP3 SWAP1 SUB PUSH1 0x1F AND DUP3 ADD SWAP2 JUMPDEST POP POP POP POP POP SWAP1 DUP1 PUSH1 0x1 ADD PUSH0 SWAP1 SLOAD SWAP1 PUSH2 0x100 EXP SWAP1 DIV PUSH20 0xFFFFFFFFFFFFFFFFFFFFFFFFFFFFFFFFFFFFFFFF AND SWAP1 POP DUP3 JUMP JUMPDEST PUSH0 PUSH1 0x40 MLOAD SWAP1 POP SWAP1 JUMP JUMPDEST PUSH0 DUP1 REVERT JUMPDEST PUSH0 DUP1 REVERT JUMPDEST PUSH0 DUP1 REVERT JUMPDEST PUSH0 DUP1 REVERT JUMPDEST PUSH0 PUSH1 0x1F NOT PUSH1 0x1F DUP4 ADD AND SWAP1 POP SWAP2 SWAP1 POP JUMP JUMPDEST PUSH32 0x4E487B7100000000000000000000000000000000000000000000000000000000 PUSH0 MSTORE PUSH1 0x41 PUSH1 0x4 MSTORE PUSH1 0x24 PUSH0 REVERT JUMPDEST PUSH2 0x928 DUP3 PUSH2 0x8E2 JUMP JUMPDEST DUP2 ADD DUP2 DUP2 LT PUSH8 0xFFFFFFFFFFFFFFFF DUP3 GT OR ISZERO PUSH2 0x947 JUMPI PUSH2 0x946 PUSH2 0x8F2 JUMP JUMPDEST JUMPDEST DUP1 PUSH1 0x40 MSTORE POP POP POP JUMP JUMPDEST PUSH0 PUSH2 0x959 PUSH2 0x8C9 JUMP JUMPDEST SWAP1 POP PUSH2 0x965 DUP3 DUP3 PUSH2 0x91F JUMP JUMPDEST SWAP2 SWAP1 POP JUMP JUMPDEST PUSH0 PUSH8 0xFFFFFFFFFFFFFFFF DUP3 GT ISZERO PUSH2 0x984 JUMPI PUSH2 0x983 PUSH2 0x8F2 JUMP JUMPDEST JUMPDEST PUSH2 0x98D DUP3 PUSH2 0x8E2 JUMP JUMPDEST SWAP1 POP PUSH1 0x20 DUP2 ADD SWAP1 POP SWAP2 SWAP1 POP JUMP JUMPDEST DUP3 DUP2 DUP4 CALLDATACOPY PUSH0 DUP4 DUP4 ADD MSTORE POP POP POP JUMP JUMPDEST PUSH0 PUSH2 0x9BA PUSH2 0x9B5 DUP5 PUSH2 0x96A JUMP JUMPDEST PUSH2 0x950 JUMP JUMPDEST SWAP1 POP DUP3 DUP2 MSTORE PUSH1 0x20 DUP2 ADD DUP5 DUP5 DUP5 ADD GT ISZERO PUSH2 0x9D6 JUMPI PUSH2 0x9D5 PUSH2 0x8DE JUMP JUMPDEST JUMPDEST PUSH2 0x9E1 DUP5 DUP3 DUP6 PUSH2 0x99A JUMP JUMPDEST POP SWAP4 SWAP3 POP POP POP JUMP JUMPDEST PUSH0 DUP3 PUSH1 0x1F DUP4 ADD SLT PUSH2 0x9FD JUMPI PUSH2 0x9FC PUSH2 0x8DA JUMP JUMPDEST JUMPDEST DUP2 CALLDATALOAD PUSH2 0xA0D DUP5 DUP3 PUSH1 0x20 DUP7 ADD PUSH2 0x9A8 JUMP JUMPDEST SWAP2 POP POP SWAP3 SWAP2 POP POP JUMP JUMPDEST PUSH0 DUP1 PUSH0 PUSH1 0x60 DUP5 DUP7 SUB SLT ISZERO PUSH2 0xA2D JUMPI PUSH2 0xA2C PUSH2 0x8D2 JUMP JUMPDEST JUMPDEST PUSH0 DUP5 ADD CALLDATALOAD PUSH8 0xFFFFFFFFFFFFFFFF DUP2 GT ISZERO PUSH2 0xA4A JUMPI PUSH2 0xA49 PUSH2 0x8D6 JUMP JUMPDEST JUMPDEST PUSH2 0xA56 DUP7 DUP3 DUP8 ADD PUSH2 0x9E9 JUMP JUMPDEST SWAP4 POP POP PUSH1 0x20 DUP5 ADD CALLDATALOAD PUSH8 0xFFFFFFFFFFFFFFFF DUP2 GT ISZERO PUSH2 0xA77 JUMPI PUSH2 0xA76 PUSH2 0x8D6 JUMP JUMPDEST JUMPDEST PUSH2 0xA83 DUP7 DUP3 DUP8 ADD PUSH2 0x9E9 JUMP JUMPDEST SWAP3 POP POP PUSH1 0x40 DUP5 ADD CALLDATALOAD PUSH8 0xFFFFFFFFFFFFFFFF DUP2 GT ISZERO PUSH2 0xAA4 JUMPI PUSH2 0xAA3 PUSH2 0x8D6 JUMP JUMPDEST JUMPDEST PUSH2 0xAB0 DUP7 DUP3 DUP8 ADD PUSH2 0x9E9 JUMP JUMPDEST SWAP2 POP POP SWAP3 POP SWAP3 POP SWAP3 JUMP JUMPDEST PUSH0 PUSH4 0xFFFFFFFF DUP3 AND SWAP1 POP SWAP2 SWAP1 POP JUMP JUMPDEST PUSH2 0xAD2 DUP2 PUSH2 0xABA JUMP JUMPDEST DUP2 EQ PUSH2 0xADC JUMPI PUSH0 DUP1 REVERT JUMPDEST POP JUMP JUMPDEST PUSH0 DUP2 CALLDATALOAD SWAP1 POP PUSH2 0xAED DUP2 PUSH2 0xAC9 JUMP JUMPDEST SWAP3 SWAP2 POP POP JUMP JUMPDEST PUSH0 DUP1 PUSH1 0x40 DUP4 DUP6 SUB SLT ISZERO PUSH2 0xB09 JUMPI PUSH2 0xB08 PUSH2 0x8D2 JUMP JUMPDEST JUMPDEST PUSH0 DUP4 ADD CALLDATALOAD PUSH8 0xFFFFFFFFFFFFFFFF DUP2 GT ISZERO PUSH2 0xB26 JUMPI PUSH2 0xB25 PUSH2 0x8D6 JUMP JUMPDEST JUMPDEST PUSH2 0xB32 DUP6 DUP3 DUP7 ADD PUSH2 0x9E9 JUMP JUMPDEST SWAP3 POP POP PUSH1 0x20 PUSH2 0xB43 DUP6 DUP3 DUP7 ADD PUSH2 0xADF JUMP JUMPDEST SWAP2 POP POP SWAP3 POP SWAP3 SWAP1 POP JUMP JUMPDEST PUSH0 DUP2 ISZERO ISZERO SWAP1 POP SWAP2 SWAP1 POP JUMP JUMPDEST PUSH2 0xB61 DUP2 PUSH2 0xB4D JUMP JUMPDEST DUP3 MSTORE POP POP JUMP JUMPDEST PUSH0 PUSH1 0x20 DUP3 ADD SWAP1 POP PUSH2 0xB7A PUSH0 DUP4 ADD DUP5 PUSH2 0xB58 JUMP JUMPDEST SWAP3 SWAP2 POP POP JUMP JUMPDEST PUSH0 PUSH1 0x20 DUP3 DUP5 SUB SLT ISZERO PUSH2 0xB95 JUMPI PUSH2 0xB94 PUSH2 0x8D2 JUMP JUMPDEST JUMPDEST PUSH0 DUP3 ADD CALLDATALOAD PUSH8 0xFFFFFFFFFFFFFFFF DUP2 GT ISZERO PUSH2 0xBB2 JUMPI PUSH2 0xBB1 PUSH2 0x8D6 JUMP JUMPDEST JUMPDEST PUSH2 0xBBE DUP5 DUP3 DUP6 ADD PUSH2 0x9E9 JUMP JUMPDEST SWAP2 POP POP SWAP3 SWAP2 POP POP JUMP JUMPDEST PUSH0 DUP2 MLOAD SWAP1 POP SWAP2 SWAP1 POP JUMP JUMPDEST PUSH0 DUP3 DUP3 MSTORE PUSH1 0x20 DUP3 ADD SWAP1 POP SWAP3 SWAP2 POP POP JUMP JUMPDEST PUSH0 JUMPDEST DUP4 DUP2 LT ISZERO PUSH2 0xBFE JUMPI DUP1 DUP3 ADD MLOAD DUP2 DUP5 ADD MSTORE PUSH1 0x20 DUP2 ADD SWAP1 POP PUSH2 0xBE3 JUMP JUMPDEST PUSH0 DUP5 DUP5 ADD MSTORE POP POP POP POP JUMP JUMPDEST PUSH0 PUSH2 0xC13 DUP3 PUSH2 0xBC7 JUMP JUMPDEST PUSH2 0xC1D DUP2 DUP6 PUSH2 0xBD1 JUMP JUMPDEST SWAP4 POP PUSH2 0xC2D DUP2 DUP6 PUSH1 0x20 DUP7 ADD PUSH2 0xBE1 JUMP JUMPDEST PUSH2 0xC36 DUP2 PUSH2 0x8E2 JUMP JUMPDEST DUP5 ADD SWAP2 POP POP SWAP3 SWAP2 POP POP JUMP JUMPDEST PUSH2 0xC4A DUP2 PUSH2 0xABA JUMP JUMPDEST DUP3 MSTORE POP POP JUMP JUMPDEST PUSH0 PUSH1 0x80 DUP3 ADD SWAP1 POP DUP2 DUP2 SUB PUSH0 DUP4 ADD MSTORE PUSH2 0xC68 DUP2 DUP8 PUSH2 0xC09 JUMP JUMPDEST SWAP1 POP DUP2 DUP2 SUB PUSH1 0x20 DUP4 ADD MSTORE PUSH2 0xC7C DUP2 DUP7 PUSH2 0xC09 JUMP JUMPDEST SWAP1 POP DUP2 DUP2 SUB PUSH1 0x40 DUP4 ADD MSTORE PUSH2 0xC90 DUP2 DUP6 PUSH2 0xC09 JUMP JUMPDEST SWAP1 POP PUSH2 0xC9F PUSH1 0x60 DUP4 ADD DUP5 PUSH2 0xC41 JUMP JUMPDEST SWAP6 SWAP5 POP POP POP POP POP JUMP JUMPDEST PUSH0 DUP1 PUSH1 0x40 DUP4 DUP6 SUB SLT ISZERO PUSH2 0xCBE JUMPI PUSH2 0xCBD PUSH2 0x8D2 JUMP JUMPDEST JUMPDEST PUSH0 DUP4 ADD CALLDATALOAD PUSH8 0xFFFFFFFFFFFFFFFF DUP2 GT ISZERO PUSH2 0xCDB JUMPI PUSH2 0xCDA PUSH2 0x8D6 JUMP JUMPDEST JUMPDEST PUSH2 0xCE7 DUP6 DUP3 DUP7 ADD PUSH2 0x9E9 JUMP JUMPDEST SWAP3 POP POP PUSH1 0x20 DUP4 ADD CALLDATALOAD PUSH8 0xFFFFFFFFFFFFFFFF DUP2 GT ISZERO PUSH2 0xD08 JUMPI PUSH2 0xD07 PUSH2 0x8D6 JUMP JUMPDEST JUMPDEST PUSH2 0xD14 DUP6 DUP3 DUP7 ADD PUSH2 0x9E9 JUMP JUMPDEST SWAP2 POP POP SWAP3 POP SWAP3 SWAP1 POP JUMP JUMPDEST PUSH0 PUSH1 0x40 DUP3 ADD SWAP1 POP DUP2 DUP2 SUB PUSH0 DUP4 ADD MSTORE PUSH2 0xD36 DUP2 DUP6 PUSH2 0xC09 JUMP JUMPDEST SWAP1 POP PUSH2 0xD45 PUSH1 0x20 DUP4 ADD DUP5 PUSH2 0xB58 JUMP JUMPDEST SWAP4 SWAP3 POP POP POP JUMP JUMPDEST PUSH0 PUSH20 0xFFFFFFFFFFFFFFFFFFFFFFFFFFFFFFFFFFFFFFFF DUP3 AND SWAP1 POP SWAP2 SWAP1 POP JUMP JUMPDEST PUSH0 PUSH2 0xD75 DUP3 PUSH2 0xD4C JUMP JUMPDEST SWAP1 POP SWAP2 SWAP1 POP JUMP JUMPDEST PUSH2 0xD85 DUP2 PUSH2 0xD6B JUMP JUMPDEST DUP3 MSTORE POP POP JUMP JUMPDEST PUSH0 PUSH1 0x40 DUP3 ADD SWAP1 POP DUP2 DUP2 SUB PUSH0 DUP4 ADD MSTORE PUSH2 0xDA3 DUP2 DUP6 PUSH2 0xC09 JUMP JUMPDEST SWAP1 POP PUSH2 0xDB2 PUSH1 0x20 DUP4 ADD DUP5 PUSH2 0xD7C JUMP JUMPDEST SWAP4 SWAP3 POP POP POP JUMP JUMPDEST PUSH0 DUP2 SWAP1 POP SWAP3 SWAP2 POP POP JUMP JUMPDEST PUSH0 PUSH2 0xDCD DUP3 PUSH2 0xBC7 JUMP JUMPDEST PUSH2 0xDD7 DUP2 DUP6 PUSH2 0xDB9 JUMP JUMPDEST SWAP4 POP PUSH2 0xDE7 DUP2 DUP6 PUSH1 0x20 DUP7 ADD PUSH2 0xBE1 JUMP JUMPDEST DUP1 DUP5 ADD SWAP2 POP POP SWAP3 SWAP2 POP POP JUMP JUMPDEST PUSH0 PUSH2 0xDFE DUP3 DUP5 PUSH2 0xDC3 JUMP JUMPDEST SWAP2 POP DUP2 SWAP1 POP SWAP3 SWAP2 POP POP JUMP JUMPDEST PUSH32 0x4E487B7100000000000000000000000000000000000000000000000000000000 PUSH0 MSTORE PUSH1 0x22 PUSH1 0x4 MSTORE PUSH1 0x24 PUSH0 REVERT JUMPDEST PUSH0 PUSH1 0x2 DUP3 DIV SWAP1 POP PUSH1 0x1 DUP3 AND DUP1 PUSH2 0xE4D JUMPI PUSH1 0x7F DUP3 AND SWAP2 POP JUMPDEST PUSH1 0x20 DUP3 LT DUP2 SUB PUSH2 0xE60 JUMPI PUSH2 0xE5F PUSH2 0xE09 JUMP JUMPDEST JUMPDEST POP SWAP2 SWAP1 POP JUMP JUMPDEST PUSH0 DUP2 SWAP1 POP DUP2 PUSH0 MSTORE PUSH1 0x20 PUSH0 KECCAK256 SWAP1 POP SWAP2 SWAP1 POP JUMP JUMPDEST PUSH0 PUSH1 0x20 PUSH1 0x1F DUP4 ADD DIV SWAP1 POP SWAP2 SWAP1 POP JUMP JUMPDEST PUSH0 DUP3 DUP3 SHL SWAP1 POP SWAP3 SWAP2 POP POP JUMP JUMPDEST PUSH0 PUSH1 0x8 DUP4 MUL PUSH2 0xEC2 PUSH32 0xFFFFFFFFFFFFFFFFFFFFFFFFFFFFFFFFFFFFFFFFFFFFFFFFFFFFFFFFFFFFFFFF DUP3 PUSH2 0xE87 JUMP JUMPDEST PUSH2 0xECC DUP7 DUP4 PUSH2 0xE87 JUMP JUMPDEST SWAP6 POP DUP1 NOT DUP5 AND SWAP4 POP DUP1 DUP7 AND DUP5 OR SWAP3 POP POP POP SWAP4 SWAP3 POP POP POP JUMP JUMPDEST PUSH0 DUP2 SWAP1 POP SWAP2 SWAP1 POP JUMP JUMPDEST PUSH0 DUP2 SWAP1 POP SWAP2 SWAP1 POP JUMP JUMPDEST PUSH0 PUSH2 0xF10 PUSH2 0xF0B PUSH2 0xF06 DUP5 PUSH2 0xEE4 JUMP JUMPDEST PUSH2 0xEED JUMP JUMPDEST PUSH2 0xEE4 JUMP JUMPDEST SWAP1 POP SWAP2 SWAP1 POP JUMP JUMPDEST PUSH0 DUP2 SWAP1 POP SWAP2 SWAP1 POP JUMP JUMPDEST PUSH2 0xF29 DUP4 PUSH2 0xEF6 JUMP JUMPDEST PUSH2 0xF3D PUSH2 0xF35 DUP3 PUSH2 0xF17 JUMP JUMPDEST DUP5 DUP5 SLOAD PUSH2 0xE93 JUMP JUMPDEST DUP3 SSTORE POP POP POP POP JUMP JUMPDEST PUSH0 SWAP1 JUMP JUMPDEST PUSH2 0xF51 PUSH2 0xF45 JUMP JUMPDEST PUSH2 0xF5C DUP2 DUP5 DUP5 PUSH2 0xF20 JUMP JUMPDEST POP POP POP JUMP JUMPDEST JUMPDEST DUP2 DUP2 LT ISZERO PUSH2 0xF7F JUMPI PUSH2 0xF74 PUSH0 DUP3 PUSH2 0xF49 JUMP JUMPDEST PUSH1 0x1 DUP2 ADD SWAP1 POP PUSH2 0xF62 JUMP JUMPDEST POP POP JUMP JUMPDEST PUSH1 0x1F DUP3 GT ISZERO PUSH2 0xFC4 JUMPI PUSH2 0xF95 DUP2 PUSH2 0xE66 JUMP JUMPDEST PUSH2 0xF9E DUP5 PUSH2 0xE78 JUMP JUMPDEST DUP2 ADD PUSH1 0x20 DUP6 LT ISZERO PUSH2 0xFAD JUMPI DUP2 SWAP1 POP JUMPDEST PUSH2 0xFC1 PUSH2 0xFB9 DUP6 PUSH2 0xE78 JUMP JUMPDEST DUP4 ADD DUP3 PUSH2 0xF61 JUMP JUMPDEST POP POP JUMPDEST POP POP POP JUMP JUMPDEST PUSH0 DUP3 DUP3 SHR SWAP1 POP SWAP3 SWAP2 POP POP JUMP JUMPDEST PUSH0 PUSH2 0xFE4 PUSH0 NOT DUP5 PUSH1 0x8 MUL PUSH2 0xFC9 JUMP JUMPDEST NOT DUP1 DUP4 AND SWAP2 POP POP SWAP3 SWAP2 POP POP JUMP JUMPDEST PUSH0 PUSH2 0xFFC DUP4 DUP4 PUSH2 0xFD5 JUMP JUMPDEST SWAP2 POP DUP3 PUSH1 0x2 MUL DUP3 OR SWAP1 POP SWAP3 SWAP2 POP POP JUMP JUMPDEST PUSH2 0x1015 DUP3 PUSH2 0xBC7 JUMP JUMPDEST PUSH8 0xFFFFFFFFFFFFFFFF DUP2 GT ISZERO PUSH2 0x102E JUMPI PUSH2 0x102D PUSH2 0x8F2 JUMP JUMPDEST JUMPDEST PUSH2 0x1038 DUP3 SLOAD PUSH2 0xE36 JUMP JUMPDEST PUSH2 0x1043 DUP3 DUP3 DUP6 PUSH2 0xF83 JUMP JUMPDEST PUSH0 PUSH1 0x20 SWAP1 POP PUSH1 0x1F DUP4 GT PUSH1 0x1 DUP2 EQ PUSH2 0x1074 JUMPI PUSH0 DUP5 ISZERO PUSH2 0x1062 JUMPI DUP3 DUP8 ADD MLOAD SWAP1 POP JUMPDEST PUSH2 0x106C DUP6 DUP3 PUSH2 0xFF1 JUMP JUMPDEST DUP7 SSTORE POP PUSH2 0x10D3 JUMP JUMPDEST PUSH1 0x1F NOT DUP5 AND PUSH2 0x1082 DUP7 PUSH2 0xE66 JUMP JUMPDEST PUSH0 JUMPDEST DUP3 DUP2 LT ISZERO PUSH2 0x10A9 JUMPI DUP5 DUP10 ADD MLOAD DUP3 SSTORE PUSH1 0x1 DUP3 ADD SWAP2 POP PUSH1 0x20 DUP6 ADD SWAP5 POP PUSH1 0x20 DUP2 ADD SWAP1 POP PUSH2 0x1084 JUMP JUMPDEST DUP7 DUP4 LT ISZERO PUSH2 0x10C6 JUMPI DUP5 DUP10 ADD MLOAD PUSH2 0x10C2 PUSH1 0x1F DUP10 AND DUP3 PUSH2 0xFD5 JUMP JUMPDEST DUP4 SSTORE POP JUMPDEST PUSH1 0x1 PUSH1 0x2 DUP9 MUL ADD DUP9 SSTORE POP POP POP JUMPDEST POP POP POP POP POP POP JUMP INVALID LOG2 PUSH5 0x6970667358 0x22 SLT KECCAK256 PUSH10 0xB756D19AA42AF243F95D 0x24 0xF6 0xB4 AND 0xC0 PUSH31 0x91A10CCC33DF1E79C96171BFE5401764736F6C63430008180033A264697066 PUSH20 0x58221220872C05E54CBA99AD8860ACF46E556973 PUSH13 0x1FD4B763A455F9D79EB9613C 0xF8 CREATE2 PUSH5 0x736F6C6343 STOP ADDMOD XOR STOP CALLER "},"gasEstimates":{"creation":{"codeDepositCost":"1316800","executionCost":"1367","totalCost":"1318167"},"external":{"createManufacturer(string,string)":"infinite","manufacturersField(string)":"infinite"}},"methodIdentifiers":{"createManufacturer(string,string)":"80b29bec","manufacturersField(string)":"c0900bea"}},"storageLayout":{"storage":[{"astId":11,"contract":"FakeProdIden.sol:manufacturerFactory","label":"manufacturersField","offset":0,"slot":"0","type":"t_mapping(t_string_memory_ptr,t_struct(manufacturer)6_storage)"}],"types":{"t_address":{"encoding":"inplace","label":"address","numberOfBytes":"20"},"t_mapping(t_string_memory_ptr,t_struct(manufacturer)6_storage)":{"encoding":"mapping","key":"t_string_memory_ptr","label":"mapping(string => struct manufacturerFactory.manufacturer)","numberOfBytes":"32","value":"t_struct(manufacturer)6_storage"},"t_string_memory_ptr":{"encoding":"bytes","label":"string","numberOfBytes":"32"},"t_string_storage":{"encoding":"bytes","label":"string","numberOfBytes":"32"},"t_struct(manufacturer)6_storage":{"encoding":"inplace","label":"struct manufacturerFactory.manufacturer","members":[{"astId":3,"contract":"FakeProdIden.sol:manufacturerFactory","label":"brandName","offset":0,"slot":"0","type":"t_string_storage"},{"astId":5,"contract":"FakeProdIden.sol:manufacturerFactory","label":"instance","offset":0,"slot":"1","type":"t_address"}],"numberOfBytes":"64"}}},"userdoc":{"kind":"user","methods":{},"version":1}}